{
  "contractName": "ExponentialCurve",
  "abi": [
    {
      "inputs": [],
      "name": "MIN_PRICE",
      "outputs": [
        {
          "internalType": "uint256",
          "name": "",
          "type": "uint256"
        }
      ],
      "stateMutability": "view",
      "type": "function"
    },
    {
      "inputs": [
        {
          "internalType": "uint128",
          "name": "delta",
          "type": "uint128"
        }
      ],
      "name": "validateDelta",
      "outputs": [
        {
          "internalType": "bool",
          "name": "",
          "type": "bool"
        }
      ],
      "stateMutability": "pure",
      "type": "function"
    },
    {
      "inputs": [
        {
          "internalType": "uint128",
          "name": "newSpotPrice",
          "type": "uint128"
        }
      ],
      "name": "validateSpotPrice",
      "outputs": [
        {
          "internalType": "bool",
          "name": "",
          "type": "bool"
        }
      ],
      "stateMutability": "pure",
      "type": "function"
    },
    {
      "inputs": [
        {
          "internalType": "uint128",
          "name": "spotPrice",
          "type": "uint128"
        },
        {
          "internalType": "uint128",
          "name": "delta",
          "type": "uint128"
        },
        {
          "internalType": "uint256",
          "name": "numItems",
          "type": "uint256"
        },
        {
          "internalType": "uint256",
          "name": "feeMultiplier",
          "type": "uint256"
        },
        {
          "internalType": "uint256",
          "name": "protocolFeeMultiplier",
          "type": "uint256"
        }
      ],
      "name": "getBuyInfo",
      "outputs": [
        {
          "internalType": "enum CurveErrorCodes.Error",
          "name": "error",
          "type": "uint8"
        },
        {
          "internalType": "uint128",
          "name": "newSpotPrice",
          "type": "uint128"
        },
        {
          "internalType": "uint128",
          "name": "newDelta",
          "type": "uint128"
        },
        {
          "internalType": "uint256",
          "name": "inputValue",
          "type": "uint256"
        },
        {
          "internalType": "uint256",
          "name": "protocolFee",
          "type": "uint256"
        }
      ],
      "stateMutability": "pure",
      "type": "function"
    },
    {
      "inputs": [
        {
          "internalType": "uint128",
          "name": "spotPrice",
          "type": "uint128"
        },
        {
          "internalType": "uint128",
          "name": "delta",
          "type": "uint128"
        },
        {
          "internalType": "uint256",
          "name": "numItems",
          "type": "uint256"
        },
        {
          "internalType": "uint256",
          "name": "feeMultiplier",
          "type": "uint256"
        },
        {
          "internalType": "uint256",
          "name": "protocolFeeMultiplier",
          "type": "uint256"
        }
      ],
      "name": "getSellInfo",
      "outputs": [
        {
          "internalType": "enum CurveErrorCodes.Error",
          "name": "error",
          "type": "uint8"
        },
        {
          "internalType": "uint128",
          "name": "newSpotPrice",
          "type": "uint128"
        },
        {
          "internalType": "uint128",
          "name": "newDelta",
          "type": "uint128"
        },
        {
          "internalType": "uint256",
          "name": "outputValue",
          "type": "uint256"
        },
        {
          "internalType": "uint256",
          "name": "protocolFee",
          "type": "uint256"
        }
      ],
      "stateMutability": "pure",
      "type": "function"
    }
  ],
  "bytecode": "0x608060405234801561001057600080fd5b5061096a806100206000396000f3fe608060405234801561001057600080fd5b50600436106100575760003560e01c8063097cc63d1461005c5780630ae67ccc146100905780637ca542ac146100c0578063a1bbb2e8146100f4578063ad9f20a614610124575b600080fd5b610076600480360381019061007191906106bc565b610142565b6040516100879594939291906107cc565b60405180910390f35b6100aa60048036038101906100a5919061081f565b6102f4565b6040516100b79190610867565b60405180910390f35b6100da60048036038101906100d591906106bc565b61031a565b6040516100eb9594939291906107cc565b60405180910390f35b61010e6004803603810190610109919061081f565b6104fb565b60405161011b9190610867565b60405180910390f35b61012c61051e565b6040516101399190610882565b60405180910390f35b6000806000806000808803610168576001600080600080945094509450945094506102e7565b60006101998a6fffffffffffffffffffffffffffffffff16670de0b6b3a7640000806105269092919063ffffffff16565b905060006101ba8a670de0b6b3a76400008461054f9092919063ffffffff16565b90506101eb81670de0b6b3a76400008e6fffffffffffffffffffffffffffffffff166106159092919063ffffffff16565b9550633b9aca00866fffffffffffffffffffffffffffffffff16101561021357633b9aca0095505b61028461025983670de0b6b3a764000061022d91906108cc565b670de0b6b3a764000084670de0b6b3a764000061024a91906108cc565b6105269092919063ffffffff16565b670de0b6b3a76400008e6fffffffffffffffffffffffffffffffff166106159092919063ffffffff16565b93506102a388670de0b6b3a7640000866106159092919063ffffffff16565b92506102c289670de0b6b3a7640000866106159092919063ffffffff16565b846102cd91906108cc565b935082846102db91906108cc565b93508a94506000965050505b9550955095509550959050565b6000670de0b6b3a7640000826fffffffffffffffffffffffffffffffff16119050919050565b6000806000806000808803610340576001600080600080945094509450945094506104ee565b600061037189670de0b6b3a76400008c6fffffffffffffffffffffffffffffffff1661054f9092919063ffffffff16565b905060006103a482670de0b6b3a76400008e6fffffffffffffffffffffffffffffffff166106159092919063ffffffff16565b90506fffffffffffffffffffffffffffffffff80168111156103d95760026000806000809650965096509650965050506104ee565b809550600061041f8c6fffffffffffffffffffffffffffffffff16670de0b6b3a76400008f6fffffffffffffffffffffffffffffffff166106159092919063ffffffff16565b905061048a610471670de0b6b3a76400008e6fffffffffffffffffffffffffffffffff1661044d91906108cc565b670de0b6b3a7640000808761046291906108cc565b6105269092919063ffffffff16565b670de0b6b3a7640000836106159092919063ffffffff16565b94506104a989670de0b6b3a7640000876106159092919063ffffffff16565b93506104c88a670de0b6b3a7640000876106159092919063ffffffff16565b856104d39190610900565b945083856104e19190610900565b94508b9550600097505050505b9550955095509550959050565b6000633b9aca00826fffffffffffffffffffffffffffffffff1610159050919050565b633b9aca0081565b600081840290508184820414841517158315171561054357600080fd5b82810490509392505050565b600083600081146105f557600284066000811461056e57859250610572565b8392505b50600283046002850494505b84156105ef57858602868782041461059557600080fd5b818101818110156105a557600080fd5b858104975060028706156105e25787850285898204141589151516156105ca57600080fd5b838101818110156105da57600080fd5b878104965050505b505060028504945061057e565b5061060d565b8360008114610607576000925061060b565b8392505b505b509392505050565b60008284029050828482041484151761062d57600080fd5b81810490509392505050565b600080fd5b60006fffffffffffffffffffffffffffffffff82169050919050565b6106638161063e565b811461066e57600080fd5b50565b6000813590506106808161065a565b92915050565b6000819050919050565b61069981610686565b81146106a457600080fd5b50565b6000813590506106b681610690565b92915050565b600080600080600060a086880312156106d8576106d7610639565b5b60006106e688828901610671565b95505060206106f788828901610671565b9450506040610708888289016106a7565b9350506060610719888289016106a7565b925050608061072a888289016106a7565b9150509295509295909350565b7f4e487b7100000000000000000000000000000000000000000000000000000000600052602160045260246000fd5b6003811061077757610776610737565b5b50565b600081905061078882610766565b919050565b60006107988261077a565b9050919050565b6107a88161078d565b82525050565b6107b78161063e565b82525050565b6107c681610686565b82525050565b600060a0820190506107e1600083018861079f565b6107ee60208301876107ae565b6107fb60408301866107ae565b61080860608301856107bd565b61081560808301846107bd565b9695505050505050565b60006020828403121561083557610834610639565b5b600061084384828501610671565b91505092915050565b60008115159050919050565b6108618161084c565b82525050565b600060208201905061087c6000830184610858565b92915050565b600060208201905061089760008301846107bd565b92915050565b7f4e487b7100000000000000000000000000000000000000000000000000000000600052601160045260246000fd5b60006108d782610686565b91506108e283610686565b92508282039050818111156108fa576108f961089d565b5b92915050565b600061090b82610686565b915061091683610686565b925082820190508082111561092e5761092d61089d565b5b9291505056fea26469706673582212206e215ee5c6303dcdb0ae6af6e76531c342a89162aff7718dc2be54292cc8c22b64736f6c63430008100033",
  "immutableReferences": {},
  "source": "// SPDX-License-Identifier: AGPL-3.0\npragma solidity ^0.8.0;\n\nimport {ICurve} from \"./ICurve.sol\";\nimport {CurveErrorCodes} from \"./CurveErrorCodes.sol\";\nimport {FixedPointMathLib} from \"../utils/FixedPointMathLib.sol\";\n\n/*\n    @author 0xmons and boredGenius\n    @notice Bonding curve logic for an exponential curve, where each buy/sell changes spot price by multiplying/dividing delta\n*/\ncontract ExponentialCurve is ICurve, CurveErrorCodes {\n    using FixedPointMathLib for uint256;\n\n    // minimum price to prevent numerical issues\n    uint256 public constant MIN_PRICE = 1 gwei;\n\n    /**\n        @dev See {ICurve-validateDelta}\n     */\n    function validateDelta(uint128 delta)\n        external\n        pure\n        override\n        returns (bool)\n    {\n        return delta > FixedPointMathLib.WAD;\n    }\n\n    /**\n        @dev See {ICurve-validateSpotPrice}\n     */\n    function validateSpotPrice(uint128 newSpotPrice)\n        external\n        pure\n        override\n        returns (bool)\n    {\n        return newSpotPrice >= MIN_PRICE;\n    }\n\n    /**\n        @dev See {ICurve-getBuyInfo}\n     */\n    function getBuyInfo(\n        uint128 spotPrice,\n        uint128 delta,\n        uint256 numItems,\n        uint256 feeMultiplier,\n        uint256 protocolFeeMultiplier\n    )\n        external\n        pure\n        override\n        returns (\n            Error error,\n            uint128 newSpotPrice,\n            uint128 newDelta,\n            uint256 inputValue,\n            uint256 protocolFee\n        )\n    {\n        // NOTE: we assume delta is > 1, as checked by validateDelta()\n        // We only calculate changes for buying 1 or more NFTs\n        if (numItems == 0) {\n            return (Error.INVALID_NUMITEMS, 0, 0, 0, 0);\n        }\n\n        uint256 deltaPowN = uint256(delta).fpow(\n            numItems,\n            FixedPointMathLib.WAD\n        );\n\n        // For an exponential curve, the spot price is multiplied by delta for each item bought\n        uint256 newSpotPrice_ = uint256(spotPrice).fmul(\n            deltaPowN,\n            FixedPointMathLib.WAD\n        );\n        if (newSpotPrice_ > type(uint128).max) {\n            return (Error.SPOT_PRICE_OVERFLOW, 0, 0, 0, 0);\n        }\n        newSpotPrice = uint128(newSpotPrice_);\n\n        // Spot price is assumed to be the instant sell price. To avoid arbitraging LPs, we adjust the buy price upwards.\n        // If spot price for buy and sell were the same, then someone could buy 1 NFT and then sell for immediate profit.\n        // EX: Let S be spot price. Then buying 1 NFT costs S ETH, now new spot price is (S * delta).\n        // The same person could then sell for (S * delta) ETH, netting them delta ETH profit.\n        // If spot price for buy and sell differ by delta, then buying costs (S * delta) ETH.\n        // The new spot price would become (S * delta), so selling would also yield (S * delta) ETH.\n        uint256 buySpotPrice = uint256(spotPrice).fmul(\n            delta,\n            FixedPointMathLib.WAD\n        );\n\n        // If the user buys n items, then the total cost is equal to:\n        // buySpotPrice + (delta * buySpotPrice) + (delta^2 * buySpotPrice) + ... (delta^(numItems - 1) * buySpotPrice)\n        // This is equal to buySpotPrice * (delta^n - 1) / (delta - 1)\n        inputValue = buySpotPrice.fmul(\n            (deltaPowN - FixedPointMathLib.WAD).fdiv(\n                delta - FixedPointMathLib.WAD,\n                FixedPointMathLib.WAD\n            ),\n            FixedPointMathLib.WAD\n        );\n\n        // Account for the protocol fee, a flat percentage of the buy amount\n        protocolFee = inputValue.fmul(\n            protocolFeeMultiplier,\n            FixedPointMathLib.WAD\n        );\n\n        // Account for the trade fee, only for Trade pools\n        inputValue += inputValue.fmul(feeMultiplier, FixedPointMathLib.WAD);\n\n        // Add the protocol fee to the required input amount\n        inputValue += protocolFee;\n\n        // Keep delta the same\n        newDelta = delta;\n\n        // If we got all the way here, no math error happened\n        error = Error.OK;\n    }\n\n    /**\n        @dev See {ICurve-getSellInfo}\n        If newSpotPrice is less than MIN_PRICE, newSpotPrice is set to MIN_PRICE instead.\n        This is to prevent the spot price from ever becoming 0, which would decouple the price\n        from the bonding curve (since 0 * delta is still 0)\n     */\n    function getSellInfo(\n        uint128 spotPrice,\n        uint128 delta,\n        uint256 numItems,\n        uint256 feeMultiplier,\n        uint256 protocolFeeMultiplier\n    )\n        external\n        pure\n        override\n        returns (\n            Error error,\n            uint128 newSpotPrice,\n            uint128 newDelta,\n            uint256 outputValue,\n            uint256 protocolFee\n        )\n    {\n        // NOTE: we assume delta is > 1, as checked by validateDelta()\n\n        // We only calculate changes for buying 1 or more NFTs\n        if (numItems == 0) {\n            return (Error.INVALID_NUMITEMS, 0, 0, 0, 0);\n        }\n\n        uint256 invDelta = FixedPointMathLib.WAD.fdiv(\n            delta,\n            FixedPointMathLib.WAD\n        );\n        uint256 invDeltaPowN = invDelta.fpow(numItems, FixedPointMathLib.WAD);\n\n        // For an exponential curve, the spot price is divided by delta for each item sold\n        // safe to convert newSpotPrice directly into uint128 since we know newSpotPrice <= spotPrice\n        // and spotPrice <= type(uint128).max\n        newSpotPrice = uint128(\n            uint256(spotPrice).fmul(invDeltaPowN, FixedPointMathLib.WAD)\n        );\n        if (newSpotPrice < MIN_PRICE) {\n            newSpotPrice = uint128(MIN_PRICE);\n        }\n\n        // If the user sells n items, then the total revenue is equal to:\n        // spotPrice + ((1 / delta) * spotPrice) + ((1 / delta)^2 * spotPrice) + ... ((1 / delta)^(numItems - 1) * spotPrice)\n        // This is equal to spotPrice * (1 - (1 / delta^n)) / (1 - (1 / delta))\n        outputValue = uint256(spotPrice).fmul(\n            (FixedPointMathLib.WAD - invDeltaPowN).fdiv(\n                FixedPointMathLib.WAD - invDelta,\n                FixedPointMathLib.WAD\n            ),\n            FixedPointMathLib.WAD\n        );\n\n        // Account for the protocol fee, a flat percentage of the sell amount\n        protocolFee = outputValue.fmul(\n            protocolFeeMultiplier,\n            FixedPointMathLib.WAD\n        );\n\n        // Account for the trade fee, only for Trade pools\n        outputValue -= outputValue.fmul(feeMultiplier, FixedPointMathLib.WAD);\n\n        // Remove the protocol fee from the output amount\n        outputValue -= protocolFee;\n\n        // Keep delta the same\n        newDelta = delta;\n\n        // If we got all the way here, no math error happened\n        error = Error.OK;\n    }\n}\n",
  "sourcePath": "/Users/brett/workSpace/NFTSea/nftsea-contract/contracts/bonding-curves/ExponentialCurve.sol",
  "compiler": {
    "name": "solc",
    "version": "0.8.16+commit.07a7930e.Emscripten.clang"
  },
  "schemaVersion": "3.4.9",
  "updatedAt": "2022-09-03T12:01:49.568Z",
  "devdoc": {
    "kind": "dev",
    "methods": {
      "getBuyInfo(uint128,uint128,uint256,uint256,uint256)": {
        "details": "See {ICurve-getBuyInfo}"
      },
      "getSellInfo(uint128,uint128,uint256,uint256,uint256)": {
        "details": "See {ICurve-getSellInfo} If newSpotPrice is less than MIN_PRICE, newSpotPrice is set to MIN_PRICE instead. This is to prevent the spot price from ever becoming 0, which would decouple the price from the bonding curve (since 0 * delta is still 0)"
      },
      "validateDelta(uint128)": {
        "details": "See {ICurve-validateDelta}"
      },
      "validateSpotPrice(uint128)": {
        "details": "See {ICurve-validateSpotPrice}"
      }
    },
    "version": 1
  },
  "userdoc": {
    "kind": "user",
    "methods": {},
    "version": 1
  }
}