{
  "contractName": "LinearCurve",
  "abi": [
    {
      "inputs": [
        {
          "internalType": "uint128",
          "name": "",
          "type": "uint128"
        }
      ],
      "name": "validateDelta",
      "outputs": [
        {
          "internalType": "bool",
          "name": "valid",
          "type": "bool"
        }
      ],
      "stateMutability": "pure",
      "type": "function"
    },
    {
      "inputs": [
        {
          "internalType": "uint128",
          "name": "",
          "type": "uint128"
        }
      ],
      "name": "validateSpotPrice",
      "outputs": [
        {
          "internalType": "bool",
          "name": "",
          "type": "bool"
        }
      ],
      "stateMutability": "pure",
      "type": "function"
    },
    {
      "inputs": [
        {
          "internalType": "uint128",
          "name": "spotPrice",
          "type": "uint128"
        },
        {
          "internalType": "uint128",
          "name": "delta",
          "type": "uint128"
        },
        {
          "internalType": "uint256",
          "name": "numItems",
          "type": "uint256"
        },
        {
          "internalType": "uint256",
          "name": "feeMultiplier",
          "type": "uint256"
        },
        {
          "internalType": "uint256",
          "name": "protocolFeeMultiplier",
          "type": "uint256"
        }
      ],
      "name": "getBuyInfo",
      "outputs": [
        {
          "internalType": "enum CurveErrorCodes.Error",
          "name": "error",
          "type": "uint8"
        },
        {
          "internalType": "uint128",
          "name": "newSpotPrice",
          "type": "uint128"
        },
        {
          "internalType": "uint128",
          "name": "newDelta",
          "type": "uint128"
        },
        {
          "internalType": "uint256",
          "name": "inputValue",
          "type": "uint256"
        },
        {
          "internalType": "uint256",
          "name": "protocolFee",
          "type": "uint256"
        }
      ],
      "stateMutability": "pure",
      "type": "function"
    },
    {
      "inputs": [
        {
          "internalType": "uint128",
          "name": "spotPrice",
          "type": "uint128"
        },
        {
          "internalType": "uint128",
          "name": "delta",
          "type": "uint128"
        },
        {
          "internalType": "uint256",
          "name": "numItems",
          "type": "uint256"
        },
        {
          "internalType": "uint256",
          "name": "feeMultiplier",
          "type": "uint256"
        },
        {
          "internalType": "uint256",
          "name": "protocolFeeMultiplier",
          "type": "uint256"
        }
      ],
      "name": "getSellInfo",
      "outputs": [
        {
          "internalType": "enum CurveErrorCodes.Error",
          "name": "error",
          "type": "uint8"
        },
        {
          "internalType": "uint128",
          "name": "newSpotPrice",
          "type": "uint128"
        },
        {
          "internalType": "uint128",
          "name": "newDelta",
          "type": "uint128"
        },
        {
          "internalType": "uint256",
          "name": "outputValue",
          "type": "uint256"
        },
        {
          "internalType": "uint256",
          "name": "protocolFee",
          "type": "uint256"
        }
      ],
      "stateMutability": "pure",
      "type": "function"
    }
  ],
  "bytecode": "0x608060405234801561001057600080fd5b506108e3806100206000396000f3fe608060405234801561001057600080fd5b506004361061004c5760003560e01c8063097cc63d146100515780630ae67ccc146100855780637ca542ac146100b5578063a1bbb2e8146100e9575b600080fd5b61006b600480360381019061006691906104dd565b610119565b60405161007c9594939291906105ed565b60405180910390f35b61009f600480360381019061009a9190610640565b61029d565b6040516100ac9190610688565b60405180910390f35b6100cf60048036038101906100ca91906104dd565b6102a8565b6040516100e09594939291906105ed565b60405180910390f35b61010360048036038101906100fe9190610640565b61042b565b6040516101109190610688565b60405180910390f35b600080600080600080880361013f57600160008060008094509450945094509450610290565b6000888a6fffffffffffffffffffffffffffffffff1661015f91906106d2565b9050808b6fffffffffffffffffffffffffffffffff1610156101b65760009450600060018b8d61018f919061075b565b610199919061078c565b6fffffffffffffffffffffffffffffffff169050809950506101c5565b808b6101c291906107d0565b94505b60028a6fffffffffffffffffffffffffffffffff1660018b6101e79190610814565b8b6101f291906106d2565b6101fc91906106d2565b6102069190610848565b8b6fffffffffffffffffffffffffffffffff168a61022491906106d2565b61022e9190610814565b925061024d87670de0b6b3a7640000856104369092919063ffffffff16565b915061026c88670de0b6b3a7640000856104369092919063ffffffff16565b836102779190610814565b925081836102859190610814565b925089935060009550505b9550955095509550959050565b600060019050919050565b60008060008060008088036102ce5760016000806000809450945094509450945061041e565b6000888a6fffffffffffffffffffffffffffffffff166102ee91906106d2565b8b6fffffffffffffffffffffffffffffffff1661030b9190610879565b90506fffffffffffffffffffffffffffffffff801681111561033f576002600080600080955095509550955095505061041e565b80945060008a8c610350919061078c565b6fffffffffffffffffffffffffffffffff16905060028b6fffffffffffffffffffffffffffffffff1660018c6103869190610814565b8c61039191906106d2565b61039b91906106d2565b6103a59190610848565b818b6103b191906106d2565b6103bb9190610879565b93506103da88670de0b6b3a7640000866104369092919063ffffffff16565b92506103f989670de0b6b3a7640000866104369092919063ffffffff16565b846104049190610879565b935082846104129190610879565b93508a94506000965050505b9550955095509550959050565b600060019050919050565b60008284029050828482041484151761044e57600080fd5b81810490509392505050565b600080fd5b60006fffffffffffffffffffffffffffffffff82169050919050565b6104848161045f565b811461048f57600080fd5b50565b6000813590506104a18161047b565b92915050565b6000819050919050565b6104ba816104a7565b81146104c557600080fd5b50565b6000813590506104d7816104b1565b92915050565b600080600080600060a086880312156104f9576104f861045a565b5b600061050788828901610492565b955050602061051888828901610492565b9450506040610529888289016104c8565b935050606061053a888289016104c8565b925050608061054b888289016104c8565b9150509295509295909350565b7f4e487b7100000000000000000000000000000000000000000000000000000000600052602160045260246000fd5b6003811061059857610597610558565b5b50565b60008190506105a982610587565b919050565b60006105b98261059b565b9050919050565b6105c9816105ae565b82525050565b6105d88161045f565b82525050565b6105e7816104a7565b82525050565b600060a08201905061060260008301886105c0565b61060f60208301876105cf565b61061c60408301866105cf565b61062960608301856105de565b61063660808301846105de565b9695505050505050565b6000602082840312156106565761065561045a565b5b600061066484828501610492565b91505092915050565b60008115159050919050565b6106828161066d565b82525050565b600060208201905061069d6000830184610679565b92915050565b7f4e487b7100000000000000000000000000000000000000000000000000000000600052601160045260246000fd5b60006106dd826104a7565b91506106e8836104a7565b9250817fffffffffffffffffffffffffffffffffffffffffffffffffffffffffffffffff0483118215151615610721576107206106a3565b5b828202905092915050565b7f4e487b7100000000000000000000000000000000000000000000000000000000600052601260045260246000fd5b60006107668261045f565b91506107718361045f565b9250826107815761078061072c565b5b828204905092915050565b60006107978261045f565b91506107a28361045f565b925082820190506fffffffffffffffffffffffffffffffff8111156107ca576107c96106a3565b5b92915050565b60006107db8261045f565b91506107e68361045f565b925082820390506fffffffffffffffffffffffffffffffff81111561080e5761080d6106a3565b5b92915050565b600061081f826104a7565b915061082a836104a7565b9250828203905081811115610842576108416106a3565b5b92915050565b6000610853826104a7565b915061085e836104a7565b92508261086e5761086d61072c565b5b828204905092915050565b6000610884826104a7565b915061088f836104a7565b92508282019050808211156108a7576108a66106a3565b5b9291505056fea2646970667358221220ecb9fad1b1b8ea5da2546c4fc355d126b5bcd719d23ea7c35bfad1921c069a5a64736f6c63430008100033",
  "immutableReferences": {},
  "source": "// SPDX-License-Identifier: AGPL-3.0\npragma solidity ^0.8.0;\n\nimport {ICurve} from \"./ICurve.sol\";\nimport {CurveErrorCodes} from \"./CurveErrorCodes.sol\";\nimport {FixedPointMathLib} from \"../utils/FixedPointMathLib.sol\";\n\n/*\n    @author 0xmons and boredGenius\n    @notice Bonding curve logic for a linear curve, where each buy/sell changes spot price by adding/substracting delta\n*/\ncontract LinearCurve is ICurve, CurveErrorCodes {\n    using FixedPointMathLib for uint256;\n\n    /**\n        @dev See {ICurve-validateDelta}\n     */\n    function validateDelta(\n        uint128 /*delta*/\n    ) external pure override returns (bool valid) {\n        // For a linear curve, all values of delta are valid\n        return true;\n    }\n\n    /**\n        @dev See {ICurve-validateSpotPrice}\n     */\n    function validateSpotPrice(\n        uint128 /* newSpotPrice */\n    ) external pure override returns (bool) {\n        // For a linear curve, all values of spot price are valid\n        return true;\n    }\n\n    /**\n        @dev See {ICurve-getBuyInfo}\n     */\n    function getBuyInfo(\n        uint128 spotPrice,\n        uint128 delta,\n        uint256 numItems,\n        uint256 feeMultiplier,\n        uint256 protocolFeeMultiplier\n    )\n        external\n        pure\n        override\n        returns (\n            Error error,\n            uint128 newSpotPrice,\n            uint128 newDelta,\n            uint256 inputValue,\n            uint256 protocolFee\n        )\n    {\n        // We only calculate changes for buying 1 or more NFTs\n        if (numItems == 0) {\n            return (Error.INVALID_NUMITEMS, 0, 0, 0, 0);\n        }\n\n        // For a linear curve, the spot price increases by delta for each item bought\n        uint256 newSpotPrice_ = spotPrice + delta * numItems;\n        if (newSpotPrice_ > type(uint128).max) {\n            return (Error.SPOT_PRICE_OVERFLOW, 0, 0, 0, 0);\n        }\n        newSpotPrice = uint128(newSpotPrice_);\n\n        // Spot price is assumed to be the instant sell price. To avoid arbitraging LPs, we adjust the buy price upwards.\n        // If spot price for buy and sell were the same, then someone could buy 1 NFT and then sell for immediate profit.\n        // EX: Let S be spot price. Then buying 1 NFT costs S ETH, now new spot price is (S+delta).\n        // The same person could then sell for (S+delta) ETH, netting them delta ETH profit.\n        // If spot price for buy and sell differ by delta, then buying costs (S+delta) ETH.\n        // The new spot price would become (S+delta), so selling would also yield (S+delta) ETH.\n        uint256 buySpotPrice = spotPrice + delta;\n\n        // If we buy n items, then the total cost is equal to:\n        // (buy spot price) + (buy spot price + 1*delta) + (buy spot price + 2*delta) + ... + (buy spot price + (n-1)*delta)\n        // This is equal to n*(buy spot price) + (delta)*(n*(n-1))/2\n        // because we have n instances of buy spot price, and then we sum up from delta to (n-1)*delta\n        inputValue =\n            numItems *\n            buySpotPrice +\n            (numItems * (numItems - 1) * delta) /\n            2;\n\n        // Account for the protocol fee, a flat percentage of the buy amount\n        protocolFee = inputValue.fmul(\n            protocolFeeMultiplier,\n            FixedPointMathLib.WAD\n        );\n\n        // Account for the trade fee, only for Trade pools\n        inputValue += inputValue.fmul(feeMultiplier, FixedPointMathLib.WAD);\n\n        // Add the protocol fee to the required input amount\n        inputValue += protocolFee;\n\n        // Keep delta the same\n        newDelta = delta;\n\n        // If we got all the way here, no math error happened\n        error = Error.OK;\n    }\n\n    /**\n        @dev See {ICurve-getSellInfo}\n     */\n    function getSellInfo(\n        uint128 spotPrice,\n        uint128 delta,\n        uint256 numItems,\n        uint256 feeMultiplier,\n        uint256 protocolFeeMultiplier\n    )\n        external\n        pure\n        override\n        returns (\n            Error error,\n            uint128 newSpotPrice,\n            uint128 newDelta,\n            uint256 outputValue,\n            uint256 protocolFee\n        )\n    {\n        // We only calculate changes for selling 1 or more NFTs\n        if (numItems == 0) {\n            return (Error.INVALID_NUMITEMS, 0, 0, 0, 0);\n        }\n\n        // We first calculate the change in spot price after selling all of the items\n        uint256 totalPriceDecrease = delta * numItems;\n\n        // If the current spot price is less than the total amount that the spot price should change by...\n        if (spotPrice < totalPriceDecrease) {\n            // Then we set the new spot price to be 0. (Spot price is never negative)\n            newSpotPrice = 0;\n\n            // We calculate how many items we can sell into the linear curve until the spot price reaches 0, rounding up\n            uint256 numItemsTillZeroPrice = spotPrice / delta + 1;\n            numItems = numItemsTillZeroPrice;\n        }\n        // Otherwise, the current spot price is greater than or equal to the total amount that the spot price changes\n        // Thus we don't need to calculate the maximum number of items until we reach zero spot price, so we don't modify numItems\n        else {\n            // The new spot price is just the change between spot price and the total price change\n            newSpotPrice = spotPrice - uint128(totalPriceDecrease);\n        }\n\n        // If we sell n items, then the total sale amount is:\n        // (spot price) + (spot price - 1*delta) + (spot price - 2*delta) + ... + (spot price - (n-1)*delta)\n        // This is equal to n*(spot price) - (delta)*(n*(n-1))/2\n        outputValue =\n            numItems *\n            spotPrice -\n            (numItems * (numItems - 1) * delta) /\n            2;\n\n        // Account for the protocol fee, a flat percentage of the sell amount\n        protocolFee = outputValue.fmul(\n            protocolFeeMultiplier,\n            FixedPointMathLib.WAD\n        );\n\n        // Account for the trade fee, only for Trade pools\n        outputValue -= outputValue.fmul(feeMultiplier, FixedPointMathLib.WAD);\n\n        // Subtract the protocol fee from the output amount to the seller\n        outputValue -= protocolFee;\n\n        // Keep delta the same\n        newDelta = delta;\n\n        // If we reached here, no math errors\n        error = Error.OK;\n    }\n}\n",
  "sourcePath": "/Users/brett/workSpace/NFTSea/nftsea-contract/contracts/bonding-curves/LinearCurve.sol",
  "compiler": {
    "name": "solc",
    "version": "0.8.16+commit.07a7930e.Emscripten.clang"
  },
  "schemaVersion": "3.4.9",
  "updatedAt": "2022-09-03T12:01:49.570Z",
  "devdoc": {
    "kind": "dev",
    "methods": {
      "getBuyInfo(uint128,uint128,uint256,uint256,uint256)": {
        "details": "See {ICurve-getBuyInfo}"
      },
      "getSellInfo(uint128,uint128,uint256,uint256,uint256)": {
        "details": "See {ICurve-getSellInfo}"
      },
      "validateDelta(uint128)": {
        "details": "See {ICurve-validateDelta}"
      },
      "validateSpotPrice(uint128)": {
        "details": "See {ICurve-validateSpotPrice}"
      }
    },
    "version": 1
  },
  "userdoc": {
    "kind": "user",
    "methods": {},
    "version": 1
  }
}