{
  "contractName": "LSSVMPairMissingEnumerableERC20",
  "abi": [
    {
      "inputs": [
        {
          "internalType": "enum CurveErrorCodes.Error",
          "name": "error",
          "type": "uint8"
        }
      ],
      "name": "BondingCurveError",
      "type": "error"
    },
    {
      "inputs": [],
      "name": "Ownable_NewOwnerZeroAddress",
      "type": "error"
    },
    {
      "inputs": [],
      "name": "Ownable_NotOwner",
      "type": "error"
    },
    {
      "anonymous": false,
      "inputs": [
        {
          "indexed": false,
          "internalType": "address",
          "name": "a",
          "type": "address"
        }
      ],
      "name": "AssetRecipientChange",
      "type": "event"
    },
    {
      "anonymous": false,
      "inputs": [
        {
          "indexed": false,
          "internalType": "uint128",
          "name": "newDelta",
          "type": "uint128"
        }
      ],
      "name": "DeltaUpdate",
      "type": "event"
    },
    {
      "anonymous": false,
      "inputs": [
        {
          "indexed": false,
          "internalType": "uint96",
          "name": "newFee",
          "type": "uint96"
        }
      ],
      "name": "FeeUpdate",
      "type": "event"
    },
    {
      "anonymous": false,
      "inputs": [],
      "name": "NFTWithdrawal",
      "type": "event"
    },
    {
      "anonymous": false,
      "inputs": [
        {
          "indexed": true,
          "internalType": "address",
          "name": "newOwner",
          "type": "address"
        }
      ],
      "name": "OwnershipTransferred",
      "type": "event"
    },
    {
      "anonymous": false,
      "inputs": [
        {
          "indexed": false,
          "internalType": "uint128",
          "name": "newSpotPrice",
          "type": "uint128"
        }
      ],
      "name": "SpotPriceUpdate",
      "type": "event"
    },
    {
      "anonymous": false,
      "inputs": [],
      "name": "SwapNFTInPair",
      "type": "event"
    },
    {
      "anonymous": false,
      "inputs": [],
      "name": "SwapNFTOutPair",
      "type": "event"
    },
    {
      "anonymous": false,
      "inputs": [
        {
          "indexed": false,
          "internalType": "uint256",
          "name": "amount",
          "type": "uint256"
        }
      ],
      "name": "TokenDeposit",
      "type": "event"
    },
    {
      "anonymous": false,
      "inputs": [
        {
          "indexed": false,
          "internalType": "uint256",
          "name": "amount",
          "type": "uint256"
        }
      ],
      "name": "TokenWithdrawal",
      "type": "event"
    },
    {
      "inputs": [],
      "name": "assetRecipient",
      "outputs": [
        {
          "internalType": "address payable",
          "name": "",
          "type": "address"
        }
      ],
      "stateMutability": "view",
      "type": "function"
    },
    {
      "inputs": [],
      "name": "bondingCurve",
      "outputs": [
        {
          "internalType": "contract ICurve",
          "name": "_bondingCurve",
          "type": "address"
        }
      ],
      "stateMutability": "pure",
      "type": "function"
    },
    {
      "inputs": [
        {
          "internalType": "address payable",
          "name": "target",
          "type": "address"
        },
        {
          "internalType": "bytes",
          "name": "data",
          "type": "bytes"
        }
      ],
      "name": "call",
      "outputs": [],
      "stateMutability": "nonpayable",
      "type": "function"
    },
    {
      "inputs": [
        {
          "internalType": "address payable",
          "name": "newRecipient",
          "type": "address"
        }
      ],
      "name": "changeAssetRecipient",
      "outputs": [],
      "stateMutability": "nonpayable",
      "type": "function"
    },
    {
      "inputs": [
        {
          "internalType": "uint128",
          "name": "newDelta",
          "type": "uint128"
        }
      ],
      "name": "changeDelta",
      "outputs": [],
      "stateMutability": "nonpayable",
      "type": "function"
    },
    {
      "inputs": [
        {
          "internalType": "uint96",
          "name": "newFee",
          "type": "uint96"
        }
      ],
      "name": "changeFee",
      "outputs": [],
      "stateMutability": "nonpayable",
      "type": "function"
    },
    {
      "inputs": [
        {
          "internalType": "uint128",
          "name": "newSpotPrice",
          "type": "uint128"
        }
      ],
      "name": "changeSpotPrice",
      "outputs": [],
      "stateMutability": "nonpayable",
      "type": "function"
    },
    {
      "inputs": [],
      "name": "delta",
      "outputs": [
        {
          "internalType": "uint128",
          "name": "",
          "type": "uint128"
        }
      ],
      "stateMutability": "view",
      "type": "function"
    },
    {
      "inputs": [],
      "name": "factory",
      "outputs": [
        {
          "internalType": "contract ILSSVMPairFactoryLike",
          "name": "_factory",
          "type": "address"
        }
      ],
      "stateMutability": "pure",
      "type": "function"
    },
    {
      "inputs": [],
      "name": "fee",
      "outputs": [
        {
          "internalType": "uint96",
          "name": "",
          "type": "uint96"
        }
      ],
      "stateMutability": "view",
      "type": "function"
    },
    {
      "inputs": [],
      "name": "getAllHeldIds",
      "outputs": [
        {
          "internalType": "uint256[]",
          "name": "",
          "type": "uint256[]"
        }
      ],
      "stateMutability": "view",
      "type": "function"
    },
    {
      "inputs": [],
      "name": "getAssetRecipient",
      "outputs": [
        {
          "internalType": "address payable",
          "name": "_assetRecipient",
          "type": "address"
        }
      ],
      "stateMutability": "view",
      "type": "function"
    },
    {
      "inputs": [
        {
          "internalType": "uint256",
          "name": "numNFTs",
          "type": "uint256"
        }
      ],
      "name": "getBuyNFTQuote",
      "outputs": [
        {
          "internalType": "enum CurveErrorCodes.Error",
          "name": "error",
          "type": "uint8"
        },
        {
          "internalType": "uint256",
          "name": "newSpotPrice",
          "type": "uint256"
        },
        {
          "internalType": "uint256",
          "name": "newDelta",
          "type": "uint256"
        },
        {
          "internalType": "uint256",
          "name": "inputAmount",
          "type": "uint256"
        },
        {
          "internalType": "uint256",
          "name": "protocolFee",
          "type": "uint256"
        }
      ],
      "stateMutability": "view",
      "type": "function"
    },
    {
      "inputs": [
        {
          "internalType": "uint256",
          "name": "numNFTs",
          "type": "uint256"
        }
      ],
      "name": "getSellNFTQuote",
      "outputs": [
        {
          "internalType": "enum CurveErrorCodes.Error",
          "name": "error",
          "type": "uint8"
        },
        {
          "internalType": "uint256",
          "name": "newSpotPrice",
          "type": "uint256"
        },
        {
          "internalType": "uint256",
          "name": "newDelta",
          "type": "uint256"
        },
        {
          "internalType": "uint256",
          "name": "outputAmount",
          "type": "uint256"
        },
        {
          "internalType": "uint256",
          "name": "protocolFee",
          "type": "uint256"
        }
      ],
      "stateMutability": "view",
      "type": "function"
    },
    {
      "inputs": [
        {
          "internalType": "address",
          "name": "_owner",
          "type": "address"
        },
        {
          "internalType": "address payable",
          "name": "_assetRecipient",
          "type": "address"
        },
        {
          "internalType": "uint128",
          "name": "_delta",
          "type": "uint128"
        },
        {
          "internalType": "uint96",
          "name": "_fee",
          "type": "uint96"
        },
        {
          "internalType": "uint128",
          "name": "_spotPrice",
          "type": "uint128"
        }
      ],
      "name": "initialize",
      "outputs": [],
      "stateMutability": "payable",
      "type": "function"
    },
    {
      "inputs": [
        {
          "internalType": "bytes[]",
          "name": "calls",
          "type": "bytes[]"
        },
        {
          "internalType": "bool",
          "name": "revertOnFail",
          "type": "bool"
        }
      ],
      "name": "multicall",
      "outputs": [],
      "stateMutability": "nonpayable",
      "type": "function"
    },
    {
      "inputs": [],
      "name": "nft",
      "outputs": [
        {
          "internalType": "contract IERC721",
          "name": "_nft",
          "type": "address"
        }
      ],
      "stateMutability": "pure",
      "type": "function"
    },
    {
      "inputs": [
        {
          "internalType": "address",
          "name": "",
          "type": "address"
        },
        {
          "internalType": "address",
          "name": "",
          "type": "address"
        },
        {
          "internalType": "uint256[]",
          "name": "",
          "type": "uint256[]"
        },
        {
          "internalType": "uint256[]",
          "name": "",
          "type": "uint256[]"
        },
        {
          "internalType": "bytes",
          "name": "",
          "type": "bytes"
        }
      ],
      "name": "onERC1155BatchReceived",
      "outputs": [
        {
          "internalType": "bytes4",
          "name": "",
          "type": "bytes4"
        }
      ],
      "stateMutability": "nonpayable",
      "type": "function"
    },
    {
      "inputs": [
        {
          "internalType": "address",
          "name": "",
          "type": "address"
        },
        {
          "internalType": "address",
          "name": "",
          "type": "address"
        },
        {
          "internalType": "uint256",
          "name": "",
          "type": "uint256"
        },
        {
          "internalType": "uint256",
          "name": "",
          "type": "uint256"
        },
        {
          "internalType": "bytes",
          "name": "",
          "type": "bytes"
        }
      ],
      "name": "onERC1155Received",
      "outputs": [
        {
          "internalType": "bytes4",
          "name": "",
          "type": "bytes4"
        }
      ],
      "stateMutability": "nonpayable",
      "type": "function"
    },
    {
      "inputs": [
        {
          "internalType": "address",
          "name": "",
          "type": "address"
        },
        {
          "internalType": "address",
          "name": "",
          "type": "address"
        },
        {
          "internalType": "uint256",
          "name": "id",
          "type": "uint256"
        },
        {
          "internalType": "bytes",
          "name": "",
          "type": "bytes"
        }
      ],
      "name": "onERC721Received",
      "outputs": [
        {
          "internalType": "bytes4",
          "name": "",
          "type": "bytes4"
        }
      ],
      "stateMutability": "nonpayable",
      "type": "function"
    },
    {
      "inputs": [],
      "name": "owner",
      "outputs": [
        {
          "internalType": "address",
          "name": "",
          "type": "address"
        }
      ],
      "stateMutability": "view",
      "type": "function"
    },
    {
      "inputs": [],
      "name": "poolType",
      "outputs": [
        {
          "internalType": "enum LSSVMPair.PoolType",
          "name": "_poolType",
          "type": "uint8"
        }
      ],
      "stateMutability": "pure",
      "type": "function"
    },
    {
      "inputs": [],
      "name": "spotPrice",
      "outputs": [
        {
          "internalType": "uint128",
          "name": "",
          "type": "uint128"
        }
      ],
      "stateMutability": "view",
      "type": "function"
    },
    {
      "inputs": [
        {
          "internalType": "bytes4",
          "name": "interfaceId",
          "type": "bytes4"
        }
      ],
      "name": "supportsInterface",
      "outputs": [
        {
          "internalType": "bool",
          "name": "",
          "type": "bool"
        }
      ],
      "stateMutability": "view",
      "type": "function"
    },
    {
      "inputs": [
        {
          "internalType": "uint256[]",
          "name": "nftIds",
          "type": "uint256[]"
        },
        {
          "internalType": "uint256",
          "name": "minExpectedTokenOutput",
          "type": "uint256"
        },
        {
          "internalType": "address payable",
          "name": "tokenRecipient",
          "type": "address"
        },
        {
          "internalType": "bool",
          "name": "isRouter",
          "type": "bool"
        },
        {
          "internalType": "address",
          "name": "routerCaller",
          "type": "address"
        }
      ],
      "name": "swapNFTsForToken",
      "outputs": [
        {
          "internalType": "uint256",
          "name": "outputAmount",
          "type": "uint256"
        }
      ],
      "stateMutability": "nonpayable",
      "type": "function"
    },
    {
      "inputs": [
        {
          "internalType": "uint256",
          "name": "numNFTs",
          "type": "uint256"
        },
        {
          "internalType": "uint256",
          "name": "maxExpectedTokenInput",
          "type": "uint256"
        },
        {
          "internalType": "address",
          "name": "nftRecipient",
          "type": "address"
        },
        {
          "internalType": "bool",
          "name": "isRouter",
          "type": "bool"
        },
        {
          "internalType": "address",
          "name": "routerCaller",
          "type": "address"
        }
      ],
      "name": "swapTokenForAnyNFTs",
      "outputs": [
        {
          "internalType": "uint256",
          "name": "inputAmount",
          "type": "uint256"
        }
      ],
      "stateMutability": "payable",
      "type": "function"
    },
    {
      "inputs": [
        {
          "internalType": "uint256[]",
          "name": "nftIds",
          "type": "uint256[]"
        },
        {
          "internalType": "uint256",
          "name": "maxExpectedTokenInput",
          "type": "uint256"
        },
        {
          "internalType": "address",
          "name": "nftRecipient",
          "type": "address"
        },
        {
          "internalType": "bool",
          "name": "isRouter",
          "type": "bool"
        },
        {
          "internalType": "address",
          "name": "routerCaller",
          "type": "address"
        }
      ],
      "name": "swapTokenForSpecificNFTs",
      "outputs": [
        {
          "internalType": "uint256",
          "name": "inputAmount",
          "type": "uint256"
        }
      ],
      "stateMutability": "payable",
      "type": "function"
    },
    {
      "inputs": [],
      "name": "token",
      "outputs": [
        {
          "internalType": "contract ERC20",
          "name": "_token",
          "type": "address"
        }
      ],
      "stateMutability": "pure",
      "type": "function"
    },
    {
      "inputs": [
        {
          "internalType": "address",
          "name": "newOwner",
          "type": "address"
        }
      ],
      "name": "transferOwnership",
      "outputs": [],
      "stateMutability": "nonpayable",
      "type": "function"
    },
    {
      "inputs": [
        {
          "internalType": "contract IERC1155",
          "name": "a",
          "type": "address"
        },
        {
          "internalType": "uint256[]",
          "name": "ids",
          "type": "uint256[]"
        },
        {
          "internalType": "uint256[]",
          "name": "amounts",
          "type": "uint256[]"
        }
      ],
      "name": "withdrawERC1155",
      "outputs": [],
      "stateMutability": "nonpayable",
      "type": "function"
    },
    {
      "inputs": [
        {
          "internalType": "contract ERC20",
          "name": "a",
          "type": "address"
        },
        {
          "internalType": "uint256",
          "name": "amount",
          "type": "uint256"
        }
      ],
      "name": "withdrawERC20",
      "outputs": [],
      "stateMutability": "nonpayable",
      "type": "function"
    },
    {
      "inputs": [
        {
          "internalType": "contract IERC721",
          "name": "a",
          "type": "address"
        },
        {
          "internalType": "uint256[]",
          "name": "nftIds",
          "type": "uint256[]"
        }
      ],
      "name": "withdrawERC721",
      "outputs": [],
      "stateMutability": "nonpayable",
      "type": "function"
    },
    {
      "inputs": [],
      "name": "pairVariant",
      "outputs": [
        {
          "internalType": "enum ILSSVMPairFactoryLike.PairVariant",
          "name": "",
          "type": "uint8"
        }
      ],
      "stateMutability": "pure",
      "type": "function"
    }
  ],
  "bytecode": "0x608060405234801561001057600080fd5b5061683180620000216000396000f3fe6080604052600436106101ee5760003560e01c806379eac6c21161010d578063c45a0155116100a0578063f23a6e611161006f578063f23a6e6114610715578063f2fde38b14610752578063f46295491461077b578063fc0c546a146107a4578063fd17aef9146107cf576101ee565b8063c45a01551461066b578063d8a1890c14610696578063ddca3f43146106bf578063eff1d50e146106ea576101ee565b8063a5ceac99116100dc578063a5ceac991461059d578063b1d3f1c1146105c6578063b1dd61b614610603578063bc197c811461062e576101ee565b806379eac6c2146104dd5780638da5cb5b14610508578063a1db978214610533578063a5cb2b911461055c576101ee565b80632f4fefaf1161018557806347ccca021161015457806347ccca02146104305780636809f6641461045b5780636b7a2200146104845780636d8b99f7146104ad576101ee565b80632f4fefaf146103845780633053fc58146103af578063398482d8146103da5780633bfa67fe14610405576101ee565b8063150b7a02116101c1578063150b7a02146102c55780631b8b921d146103025780631e9701d41461032b57806328b8aee114610354576101ee565b806301ffc9a7146101f35780630c295e561461023057806312b495a81461027157806313edab811461029c575b600080fd5b3480156101ff57600080fd5b5061021a60048036038101906102159190614431565b6107eb565b6040516102279190614479565b60405180910390f35b34801561023c57600080fd5b50610257600480360381019061025291906144ca565b610865565b60405161026895949392919061457d565b60405180910390f35b34801561027d57600080fd5b50610286610a08565b60405161029391906145fb565b60405180910390f35b3480156102a857600080fd5b506102c360048036038101906102be91906146eb565b610a2a565b005b3480156102d157600080fd5b506102ec60048036038101906102e791906148b8565b610c82565b6040516102f9919061494a565b60405180910390f35b34801561030e57600080fd5b50610329600480360381019061032491906149f9565b610ceb565b005b34801561033757600080fd5b50610352600480360381019061034d9190614adb565b610ed4565b005b61036e60048036038101906103699190614b3b565b6110bd565b60405161037b9190614bb6565b60405180910390f35b34801561039057600080fd5b50610399611311565b6040516103a69190614c8f565b60405180910390f35b3480156103bb57600080fd5b506103c46113c0565b6040516103d19190614cf9565b60405180910390f35b3480156103e657600080fd5b506103ef6113c9565b6040516103fc91906145fb565b60405180910390f35b34801561041157600080fd5b5061041a6113eb565b6040516104279190614d23565b60405180910390f35b34801561043c57600080fd5b50610445611411565b6040516104529190614d9d565b60405180910390f35b34801561046757600080fd5b50610482600480360381019061047d9190614de4565b61142e565b005b34801561049057600080fd5b506104ab60048036038101906104a69190614e55565b61161d565b005b6104c760048036038101906104c29190614e82565b6117fd565b6040516104d49190614bb6565b60405180910390f35b3480156104e957600080fd5b506104f26119ce565b6040516104ff9190614d23565b60405180910390f35b34801561051457600080fd5b5061051d611a6b565b60405161052a9190614f2b565b60405180910390f35b34801561053f57600080fd5b5061055a60048036038101906105559190614f84565b611a94565b005b34801561056857600080fd5b50610583600480360381019061057e91906144ca565b611ba1565b60405161059495949392919061457d565b60405180910390f35b3480156105a957600080fd5b506105c460048036038101906105bf9190615002565b611d44565b005b3480156105d257600080fd5b506105ed60048036038101906105e89190615097565b611e2c565b6040516105fa9190614bb6565b60405180910390f35b34801561060f57600080fd5b50610618611ffd565b6040516106259190615179565b60405180910390f35b34801561063a57600080fd5b5061065560048036038101906106509190615257565b61201a565b604051610662919061494a565b60405180910390f35b34801561067757600080fd5b5061068061202f565b60405161068d9190615347565b60405180910390f35b3480156106a257600080fd5b506106bd60048036038101906106b89190614de4565b612049565b005b3480156106cb57600080fd5b506106d4612238565b6040516106e19190615371565b60405180910390f35b3480156106f657600080fd5b506106ff612256565b60405161070c91906153ad565b60405180910390f35b34801561072157600080fd5b5061073c600480360381019061073791906153c8565b612273565b604051610749919061494a565b60405180910390f35b34801561075e57600080fd5b506107796004803603810190610774919061545f565b612288565b005b34801561078757600080fd5b506107a2600480360381019061079d919061548c565b61242c565b005b3480156107b057600080fd5b506107b96125dc565b6040516107c691906154da565b60405180910390f35b6107e960048036038101906107e491906154f5565b6125f9565b005b60007f4e2312e0000000000000000000000000000000000000000000000000000000007bffffffffffffffffffffffffffffffffffffffffffffffffffffffff1916827bffffffffffffffffffffffffffffffffffffffffffffffffffffffff1916148061085e575061085d82612a9d565b5b9050919050565b6000806000806000610875612256565b73ffffffffffffffffffffffffffffffffffffffff1663097cc63d600260009054906101000a90046fffffffffffffffffffffffffffffffff16600260109054906101000a90046fffffffffffffffffffffffffffffffff1689600360009054906101000a90046bffffffffffffffffffffffff166108f261202f565b73ffffffffffffffffffffffffffffffffffffffff16631ce4c78b6040518163ffffffff1660e01b8152600401602060405180830381865afa15801561093c573d6000803e3d6000fd5b505050506040513d601f19601f820116820180604052508101906109609190615585565b6040518663ffffffff1660e01b81526004016109809594939291906155e3565b60a060405180830381865afa15801561099d573d6000803e3d6000fd5b505050506040513d601f19601f820116820180604052508101906109c19190615670565b836fffffffffffffffffffffffffffffffff169350826fffffffffffffffffffffffffffffffff169250809550819650829750839850849950505050505091939590929450565b600260109054906101000a90046fffffffffffffffffffffffffffffffff1681565b3373ffffffffffffffffffffffffffffffffffffffff16610a49611a6b565b73ffffffffffffffffffffffffffffffffffffffff1614610a96576040517f5eee3ad100000000000000000000000000000000000000000000000000000000815260040160405180910390fd5b6000610aa0611411565b905060008383905090508173ffffffffffffffffffffffffffffffffffffffff168573ffffffffffffffffffffffffffffffffffffffff1614610b815760005b81811015610b7b578573ffffffffffffffffffffffffffffffffffffffff166342842e0e3033888886818110610b1957610b186156eb565b5b905060200201356040518463ffffffff1660e01b8152600401610b3e9392919061571a565b600060405180830381600087803b158015610b5857600080fd5b505af1158015610b6c573d6000803e3d6000fd5b50505050806001019050610ae0565b50610c7b565b60005b81811015610c4d578273ffffffffffffffffffffffffffffffffffffffff166342842e0e3033888886818110610bbd57610bbc6156eb565b5b905060200201356040518463ffffffff1660e01b8152600401610be29392919061571a565b600060405180830381600087803b158015610bfc57600080fd5b505af1158015610c10573d6000803e3d6000fd5b50505050610c41858583818110610c2a57610c296156eb565b5b905060200201356004612b0790919063ffffffff16565b50806001019050610b84565b507f242b9b8fb5c0e6298454fcf80a0fbcbb7308620133d92b50091a1f64cee790e860405160405180910390a15b5050505050565b600080610c8d611411565b90508073ffffffffffffffffffffffffffffffffffffffff163373ffffffffffffffffffffffffffffffffffffffff1603610cd857610cd6846004612b2190919063ffffffff16565b505b63150b7a0260e01b915050949350505050565b3373ffffffffffffffffffffffffffffffffffffffff16610d0a611a6b565b73ffffffffffffffffffffffffffffffffffffffff1614610d57576040517f5eee3ad100000000000000000000000000000000000000000000000000000000815260040160405180910390fd5b6000610d6161202f565b90508073ffffffffffffffffffffffffffffffffffffffff16631fba95e8856040518263ffffffff1660e01b8152600401610d9c9190615772565b602060405180830381865afa158015610db9573d6000803e3d6000fd5b505050506040513d601f19601f82011682018060405250810190610ddd91906157a2565b610e1c576040517f08c379a0000000000000000000000000000000000000000000000000000000008152600401610e139061582c565b60405180910390fd5b60008473ffffffffffffffffffffffffffffffffffffffff1660008585604051610e4792919061587c565b60006040518083038185875af1925050503d8060008114610e84576040519150601f19603f3d011682016040523d82523d6000602084013e610e89565b606091505b5050905080610ecd576040517f08c379a0000000000000000000000000000000000000000000000000000000008152600401610ec4906158e1565b60405180910390fd5b5050505050565b3373ffffffffffffffffffffffffffffffffffffffff16610ef3611a6b565b73ffffffffffffffffffffffffffffffffffffffff1614610f40576040517f5eee3ad100000000000000000000000000000000000000000000000000000000815260040160405180910390fd5b60005b83839050811015611042576000803073ffffffffffffffffffffffffffffffffffffffff16868685818110610f7b57610f7a6156eb565b5b9050602002810190610f8d9190615910565b604051610f9b92919061587c565b600060405180830381855af49150503d8060008114610fd6576040519150601f19603f3d011682016040523d82523d6000602084013e610fdb565b606091505b509150915081158015610feb5750835b1561103557610ff981612b3b565b6040517f08c379a000000000000000000000000000000000000000000000000000000000815260040161102c91906159e1565b60405180910390fd5b8260010192505050610f43565b503373ffffffffffffffffffffffffffffffffffffffff16611062611a6b565b73ffffffffffffffffffffffffffffffffffffffff16146110b8576040517f08c379a00000000000000000000000000000000000000000000000000000000081526004016110af90615a75565b60405180910390fd5b505050565b6000600260015403611104576040517f08c379a00000000000000000000000000000000000000000000000000000000081526004016110fb90615ae1565b60405180910390fd5b6002600181905550600061111661202f565b90506000611122612256565b9050600061112e611411565b9050600061113a611ffd565b9050600160028111156111505761114f6144f7565b5b816002811115611163576111626144f7565b5b1480611192575060028081111561117d5761117c6144f7565b5b8160028111156111905761118f6144f7565b5b145b6111d1576040517f08c379a00000000000000000000000000000000000000000000000000000000081526004016111c890615b4d565b60405180910390fd5b60008a11801561125a57508173ffffffffffffffffffffffffffffffffffffffff166370a08231306040518263ffffffff1660e01b81526004016112159190614f2b565b602060405180830381865afa158015611232573d6000803e3d6000fd5b505050506040513d601f19601f820116820180604052508101906112569190615585565b8a11155b611299576040517f08c379a000000000000000000000000000000000000000000000000000000000815260040161129090615bdf565b60405180910390fd5b5060006112a88a8a8587612ba6565b80965081925050506112bd8588888785612f60565b6112c882898c613353565b6112d18561342e565b7fbc479dfc6cb9c1a9d880f987ee4b30fa43dd7f06aec121db685b67d587c93c9360405160405180910390a1505050506001808190555095945050505050565b6060600061131f6004613431565b905060008167ffffffffffffffff81111561133d5761133c61478d565b5b60405190808252806020026020018201604052801561136b5781602001602082028036833780820191505090505b50905060005b828110156113b75761138d81600461344690919063ffffffff16565b8282815181106113a05761139f6156eb565b5b602002602001018181525050806001019050611371565b50809250505090565b60006003905090565b600260009054906101000a90046fffffffffffffffffffffffffffffffff1681565b6003600c9054906101000a900473ffffffffffffffffffffffffffffffffffffffff1681565b60008061141c613460565b90506028813603013560601c91505090565b3373ffffffffffffffffffffffffffffffffffffffff1661144d611a6b565b73ffffffffffffffffffffffffffffffffffffffff161461149a576040517f5eee3ad100000000000000000000000000000000000000000000000000000000815260040160405180910390fd5b60006114a4612256565b90508073ffffffffffffffffffffffffffffffffffffffff16630ae67ccc836040518263ffffffff1660e01b81526004016114df91906145fb565b602060405180830381865afa1580156114fc573d6000803e3d6000fd5b505050506040513d601f19601f8201168201806040525081019061152091906157a2565b61155f576040517f08c379a000000000000000000000000000000000000000000000000000000000815260040161155690615c4b565b60405180910390fd5b816fffffffffffffffffffffffffffffffff16600260109054906101000a90046fffffffffffffffffffffffffffffffff166fffffffffffffffffffffffffffffffff16146116195781600260106101000a8154816fffffffffffffffffffffffffffffffff02191690836fffffffffffffffffffffffffffffffff1602179055507fc958ae052d28f8d17bc2c4ddbabb699a3cab5cccefd034d0fc971efdadc01da58260405161161091906145fb565b60405180910390a15b5050565b3373ffffffffffffffffffffffffffffffffffffffff1661163c611a6b565b73ffffffffffffffffffffffffffffffffffffffff1614611689576040517f5eee3ad100000000000000000000000000000000000000000000000000000000815260040160405180910390fd5b6000611693611ffd565b90506002808111156116a8576116a76144f7565b5b8160028111156116bb576116ba6144f7565b5b146116fb576040517f08c379a00000000000000000000000000000000000000000000000000000000081526004016116f290615cb7565b60405180910390fd5b670c7d713b49da0000826bffffffffffffffffffffffff1610611753576040517f08c379a000000000000000000000000000000000000000000000000000000000815260040161174a90615d23565b60405180910390fd5b816bffffffffffffffffffffffff16600360009054906101000a90046bffffffffffffffffffffffff166bffffffffffffffffffffffff16146117f95781600360006101000a8154816bffffffffffffffffffffffff02191690836bffffffffffffffffffffffff1602179055507f66c55c30868c51e7ad52e3d85d1403576a9967614e67c48e25b55a10baa650c0826040516117f09190615371565b60405180910390a15b5050565b6000600260015403611844576040517f08c379a000000000000000000000000000000000000000000000000000000000815260040161183b90615ae1565b60405180910390fd5b6002600181905550600061185661202f565b90506000611862612256565b9050600061186e611ffd565b905060016002811115611884576118836144f7565b5b816002811115611897576118966144f7565b5b14806118c657506002808111156118b1576118b06144f7565b5b8160028111156118c4576118c36144f7565b5b145b611905576040517f08c379a00000000000000000000000000000000000000000000000000000000081526004016118fc90615b4d565b60405180910390fd5b60008a8a90501161194b576040517f08c379a000000000000000000000000000000000000000000000000000000000815260040161194290615d8f565b60405180910390fd5b50600061195d8a8a9050898486612ba6565b80955081925050506119728487878685612f60565b61198561197d611411565b888c8c613469565b61198e8461342e565b7fbc479dfc6cb9c1a9d880f987ee4b30fa43dd7f06aec121db685b67d587c93c9360405160405180910390a1505050600180819055509695505050505050565b60006002808111156119e3576119e26144f7565b5b6119eb611ffd565b60028111156119fd576119fc6144f7565b5b03611a0a57309050611a68565b6003600c9054906101000a900473ffffffffffffffffffffffffffffffffffffffff169050600073ffffffffffffffffffffffffffffffffffffffff168173ffffffffffffffffffffffffffffffffffffffff1603611a67573090505b5b90565b60008060009054906101000a900473ffffffffffffffffffffffffffffffffffffffff16905090565b3373ffffffffffffffffffffffffffffffffffffffff16611ab3611a6b565b73ffffffffffffffffffffffffffffffffffffffff1614611b00576040517f5eee3ad100000000000000000000000000000000000000000000000000000000815260040160405180910390fd5b611b2b33828473ffffffffffffffffffffffffffffffffffffffff166135459092919063ffffffff16565b611b336125dc565b73ffffffffffffffffffffffffffffffffffffffff168273ffffffffffffffffffffffffffffffffffffffff1603611b9d577f0e266e8f38544aa1480d73762386eb10df55b1b8453d935762e891c44b69a1e681604051611b949190614bb6565b60405180910390a15b5050565b6000806000806000611bb1612256565b73ffffffffffffffffffffffffffffffffffffffff16637ca542ac600260009054906101000a90046fffffffffffffffffffffffffffffffff16600260109054906101000a90046fffffffffffffffffffffffffffffffff1689600360009054906101000a90046bffffffffffffffffffffffff16611c2e61202f565b73ffffffffffffffffffffffffffffffffffffffff16631ce4c78b6040518163ffffffff1660e01b8152600401602060405180830381865afa158015611c78573d6000803e3d6000fd5b505050506040513d601f19601f82011682018060405250810190611c9c9190615585565b6040518663ffffffff1660e01b8152600401611cbc9594939291906155e3565b60a060405180830381865afa158015611cd9573d6000803e3d6000fd5b505050506040513d601f19601f82011682018060405250810190611cfd9190615670565b836fffffffffffffffffffffffffffffffff169350826fffffffffffffffffffffffffffffffff169250809550819650829750839850849950505050505091939590929450565b3373ffffffffffffffffffffffffffffffffffffffff16611d63611a6b565b73ffffffffffffffffffffffffffffffffffffffff1614611db0576040517f5eee3ad100000000000000000000000000000000000000000000000000000000815260040160405180910390fd5b8473ffffffffffffffffffffffffffffffffffffffff16632eb2c2d63033878787876040518763ffffffff1660e01b8152600401611df396959493929190615e50565b600060405180830381600087803b158015611e0d57600080fd5b505af1158015611e21573d6000803e3d6000fd5b505050505050505050565b6000600260015403611e73576040517f08c379a0000000000000000000000000000000000000000000000000000000008152600401611e6a90615ae1565b60405180910390fd5b60026001819055506000611e8561202f565b90506000611e91612256565b90506000611e9d611ffd565b905060006002811115611eb357611eb26144f7565b5b816002811115611ec657611ec56144f7565b5b1480611ef55750600280811115611ee057611edf6144f7565b5b816002811115611ef357611ef26144f7565b5b145b611f34576040517f08c379a0000000000000000000000000000000000000000000000000000000008152600401611f2b90615b4d565b60405180910390fd5b60008a8a905011611f7a576040517f08c379a0000000000000000000000000000000000000000000000000000000008152600401611f7190615d8f565b60405180910390fd5b506000611f8c8a8a90508984866135eb565b8095508192505050611f9e87856139a5565b611fa883826139e5565b611fbd611fb3611411565b8b8b868a8a613ac0565b7f3614eb567740a0ee3897c0e2b11ad6a5720d2e4438f9c8accf6c95c24af3a47060405160405180910390a1505050600180819055509695505050505050565b600080612008613460565b9050603c813603013560f81c91505090565b600063bc197c8160e01b905095945050505050565b60008061203a613460565b90508036033560601c91505090565b3373ffffffffffffffffffffffffffffffffffffffff16612068611a6b565b73ffffffffffffffffffffffffffffffffffffffff16146120b5576040517f5eee3ad100000000000000000000000000000000000000000000000000000000815260040160405180910390fd5b60006120bf612256565b90508073ffffffffffffffffffffffffffffffffffffffff1663a1bbb2e8836040518263ffffffff1660e01b81526004016120fa91906145fb565b602060405180830381865afa158015612117573d6000803e3d6000fd5b505050506040513d601f19601f8201168201806040525081019061213b91906157a2565b61217a576040517f08c379a000000000000000000000000000000000000000000000000000000000815260040161217190615f06565b60405180910390fd5b816fffffffffffffffffffffffffffffffff16600260009054906101000a90046fffffffffffffffffffffffffffffffff166fffffffffffffffffffffffffffffffff16146122345781600260006101000a8154816fffffffffffffffffffffffffffffffff02191690836fffffffffffffffffffffffffffffffff1602179055507ff06180fdbe95e5193df4dcd1352726b1f04cb58599ce58552cc952447af2ffbb8260405161222b91906145fb565b60405180910390a15b5050565b600360009054906101000a90046bffffffffffffffffffffffff1681565b600080612261613460565b90506014813603013560601c91505090565b600063f23a6e6160e01b905095945050505050565b3373ffffffffffffffffffffffffffffffffffffffff166122a7611a6b565b73ffffffffffffffffffffffffffffffffffffffff16146122f4576040517f5eee3ad100000000000000000000000000000000000000000000000000000000815260040160405180910390fd5b600073ffffffffffffffffffffffffffffffffffffffff168173ffffffffffffffffffffffffffffffffffffffff160361235a576040517fedf1b1fc00000000000000000000000000000000000000000000000000000000815260040160405180910390fd5b61236381613fe1565b6123828173ffffffffffffffffffffffffffffffffffffffff16614067565b15612429578073ffffffffffffffffffffffffffffffffffffffff1663a741b468336040518263ffffffff1660e01b81526004016123c09190614f2b565b600060405180830381600087803b1580156123da57600080fd5b505af19250505080156123eb575060015b612427573d806000811461241b576040519150601f19603f3d011682016040523d82523d6000602084013e612420565b606091505b5050612428565b5b5b50565b3373ffffffffffffffffffffffffffffffffffffffff1661244b611a6b565b73ffffffffffffffffffffffffffffffffffffffff1614612498576040517f5eee3ad100000000000000000000000000000000000000000000000000000000815260040160405180910390fd5b60006124a2611ffd565b90506002808111156124b7576124b66144f7565b5b8160028111156124ca576124c96144f7565b5b0361250a576040517f08c379a000000000000000000000000000000000000000000000000000000000815260040161250190615f72565b60405180910390fd5b8173ffffffffffffffffffffffffffffffffffffffff166003600c9054906101000a900473ffffffffffffffffffffffffffffffffffffffff1673ffffffffffffffffffffffffffffffffffffffff16146125d857816003600c6101000a81548173ffffffffffffffffffffffffffffffffffffffff021916908373ffffffffffffffffffffffffffffffffffffffff1602179055507f678f61dcdee86474eddea0407caf8f1f5130382a90dedabaef94906ed86a27b4826040516125cf9190615772565b60405180910390a15b5050565b6000806125e7613460565b9050603d813603013560601c91505090565b600073ffffffffffffffffffffffffffffffffffffffff16612619611a6b565b73ffffffffffffffffffffffffffffffffffffffff161461266f576040517f08c379a000000000000000000000000000000000000000000000000000000000815260040161266690615fde565b60405180910390fd5b6126788561408a565b6126806140cd565b600061268a612256565b90506000612696611ffd565b9050600060028111156126ac576126ab6144f7565b5b8160028111156126bf576126be6144f7565b5b14806126ef5750600160028111156126da576126d96144f7565b5b8160028111156126ed576126ec6144f7565b5b145b1561278b576000846bffffffffffffffffffffffff1614612745576040517f08c379a000000000000000000000000000000000000000000000000000000000815260040161273c90616070565b60405180910390fd5b856003600c6101000a81548173ffffffffffffffffffffffffffffffffffffffff021916908373ffffffffffffffffffffffffffffffffffffffff1602179055506128b0565b60028081111561279e5761279d6144f7565b5b8160028111156127b1576127b06144f7565b5b036128af57670c7d713b49da0000846bffffffffffffffffffffffff161061280e576040517f08c379a000000000000000000000000000000000000000000000000000000000815260040161280590615d23565b60405180910390fd5b600073ffffffffffffffffffffffffffffffffffffffff168673ffffffffffffffffffffffffffffffffffffffff161461287d576040517f08c379a000000000000000000000000000000000000000000000000000000000815260040161287490616102565b60405180910390fd5b83600360006101000a8154816bffffffffffffffffffffffff02191690836bffffffffffffffffffffffff1602179055505b5b8173ffffffffffffffffffffffffffffffffffffffff16630ae67ccc866040518263ffffffff1660e01b81526004016128e991906145fb565b602060405180830381865afa158015612906573d6000803e3d6000fd5b505050506040513d601f19601f8201168201806040525081019061292a91906157a2565b612969576040517f08c379a000000000000000000000000000000000000000000000000000000000815260040161296090615c4b565b60405180910390fd5b8173ffffffffffffffffffffffffffffffffffffffff1663a1bbb2e8846040518263ffffffff1660e01b81526004016129a291906145fb565b602060405180830381865afa1580156129bf573d6000803e3d6000fd5b505050506040513d601f19601f820116820180604052508101906129e391906157a2565b612a22576040517f08c379a0000000000000000000000000000000000000000000000000000000008152600401612a1990615f06565b60405180910390fd5b84600260106101000a8154816fffffffffffffffffffffffffffffffff02191690836fffffffffffffffffffffffffffffffff16021790555082600260006101000a8154816fffffffffffffffffffffffffffffffff02191690836fffffffffffffffffffffffffffffffff16021790555050505050505050565b60007f01ffc9a7000000000000000000000000000000000000000000000000000000007bffffffffffffffffffffffffffffffffffffffffffffffffffffffff1916827bffffffffffffffffffffffffffffffffffffffffffffffffffffffff1916149050919050565b6000612b19836000018360001b6140d6565b905092915050565b6000612b33836000018360001b6141ea565b905092915050565b6060604482511015612b84576040518060400160405280601d81526020017f5472616e73616374696f6e2072657665727465642073696c656e746c790000008152509050612ba1565b60048201915081806020019051810190612b9e91906161c3565b90505b919050565b600080600080600260009054906101000a90046fffffffffffffffffffffffffffffffff169050600080600260109054906101000a90046fffffffffffffffffffffffffffffffff16905060008873ffffffffffffffffffffffffffffffffffffffff16637ca542ac85848e600360009054906101000a90046bffffffffffffffffffffffff168d73ffffffffffffffffffffffffffffffffffffffff16631ce4c78b6040518163ffffffff1660e01b8152600401602060405180830381865afa158015612c78573d6000803e3d6000fd5b505050506040513d601f19601f82011682018060405250810190612c9c9190615585565b6040518663ffffffff1660e01b8152600401612cbc9594939291906155e3565b60a060405180830381865afa158015612cd9573d6000803e3d6000fd5b505050506040513d601f19601f82011682018060405250810190612cfd9190615670565b809b50819a50829550839750849950505050505060006002811115612d2557612d246144f7565b5b856002811115612d3857612d376144f7565b5b14612d7a57846040517fe4f2c5ac000000000000000000000000000000000000000000000000000000008152600401612d71919061620c565b60405180910390fd5b89861115612dbd576040517f08c379a0000000000000000000000000000000000000000000000000000000008152600401612db490616273565b60405180910390fd5b826fffffffffffffffffffffffffffffffff16846fffffffffffffffffffffffffffffffff16141580612e145750806fffffffffffffffffffffffffffffffff16826fffffffffffffffffffffffffffffffff1614155b15612e8c5782600260006101000a8154816fffffffffffffffffffffffffffffffff02191690836fffffffffffffffffffffffffffffffff16021790555080600260106101000a8154816fffffffffffffffffffffffffffffffff02191690836fffffffffffffffffffffffffffffffff1602179055505b826fffffffffffffffffffffffffffffffff16846fffffffffffffffffffffffffffffffff1614612eef577ff06180fdbe95e5193df4dcd1352726b1f04cb58599ce58552cc952447af2ffbb83604051612ee691906145fb565b60405180910390a15b806fffffffffffffffffffffffffffffffff16826fffffffffffffffffffffffffffffffff1614612f52577fc958ae052d28f8d17bc2c4ddbabb699a3cab5cccefd034d0fc971efdadc01da581604051612f4991906145fb565b60405180910390a15b505050505094509492505050565b60003414612fa3576040517f08c379a0000000000000000000000000000000000000000000000000000000008152600401612f9a906162df565b60405180910390fd5b6000612fad6125dc565b90506000612fb96119ce565b905085156132da57600033905060008573ffffffffffffffffffffffffffffffffffffffff1663a93ec68b836040518263ffffffff1660e01b81526004016130019190616332565b6040805180830381865afa15801561301d573d6000803e3d6000fd5b505050506040513d601f19601f82011682018060405250810190613041919061634d565b50905080613084576040517f08c379a000000000000000000000000000000000000000000000000000000000815260040161307b906163d9565b60405180910390fd5b5060008373ffffffffffffffffffffffffffffffffffffffff166370a08231846040518263ffffffff1660e01b81526004016130c09190614f2b565b602060405180830381865afa1580156130dd573d6000803e3d6000fd5b505050506040513d601f19601f820116820180604052508101906131019190615585565b90508173ffffffffffffffffffffffffffffffffffffffff16634b456d0c858986898e61312e9190616428565b6131366113c0565b6040518663ffffffff1660e01b815260040161315695949392919061645c565b600060405180830381600087803b15801561317057600080fd5b505af1158015613184573d6000803e3d6000fd5b5050505084896131949190616428565b818573ffffffffffffffffffffffffffffffffffffffff166370a08231866040518263ffffffff1660e01b81526004016131ce9190614f2b565b602060405180830381865afa1580156131eb573d6000803e3d6000fd5b505050506040513d601f19601f8201168201806040525081019061320f9190615585565b6132199190616428565b14613259576040517f08c379a0000000000000000000000000000000000000000000000000000000008152600401613250906164fb565b60405180910390fd5b8173ffffffffffffffffffffffffffffffffffffffff16634b456d0c858989896132816113c0565b6040518663ffffffff1660e01b81526004016132a195949392919061645c565b600060405180830381600087803b1580156132bb57600080fd5b505af11580156132cf573d6000803e3d6000fd5b50505050505061334a565b6133123382858a6132eb9190616428565b8573ffffffffffffffffffffffffffffffffffffffff1661425a909392919063ffffffff16565b6000831115613349576133483385858573ffffffffffffffffffffffffffffffffffffffff1661425a909392919063ffffffff16565b5b5b50505050505050565b600060016133616004613431565b61336b9190616428565b905060005b8281101561342757600061338e83600461344690919063ffffffff16565b90508573ffffffffffffffffffffffffffffffffffffffff166342842e0e3087846040518463ffffffff1660e01b81526004016133cd9392919061571a565b600060405180830381600087803b1580156133e757600080fd5b505af11580156133fb573d6000803e3d6000fd5b50505050613413816004612b0790919063ffffffff16565b508260019003925081600101915050613370565b5050505050565b50565b600061343f8260000161431d565b9050919050565b6000613455836000018361432e565b60001c905092915050565b60006051905090565b600082829050905060005b8181101561353d578573ffffffffffffffffffffffffffffffffffffffff166342842e0e30878787868181106134ad576134ac6156eb565b5b905060200201356040518463ffffffff1660e01b81526004016134d29392919061571a565b600060405180830381600087803b1580156134ec57600080fd5b505af1158015613500573d6000803e3d6000fd5b5050505061353184848381811061351a576135196156eb565b5b905060200201356004612b0790919063ffffffff16565b50806001019050613474565b505050505050565b60006040517fa9059cbb00000000000000000000000000000000000000000000000000000000815273ffffffffffffffffffffffffffffffffffffffff841660048201528260248201526000806044836000895af19150506135a681614359565b6135e5576040517f08c379a00000000000000000000000000000000000000000000000000000000081526004016135dc90616567565b60405180910390fd5b50505050565b600080600080600260009054906101000a90046fffffffffffffffffffffffffffffffff169050600080600260109054906101000a90046fffffffffffffffffffffffffffffffff16905060008873ffffffffffffffffffffffffffffffffffffffff1663097cc63d85848e600360009054906101000a90046bffffffffffffffffffffffff168d73ffffffffffffffffffffffffffffffffffffffff16631ce4c78b6040518163ffffffff1660e01b8152600401602060405180830381865afa1580156136bd573d6000803e3d6000fd5b505050506040513d601f19601f820116820180604052508101906136e19190615585565b6040518663ffffffff1660e01b81526004016137019594939291906155e3565b60a060405180830381865afa15801561371e573d6000803e3d6000fd5b505050506040513d601f19601f820116820180604052508101906137429190615670565b809b50819a5082955083975084995050505050506000600281111561376a576137696144f7565b5b85600281111561377d5761377c6144f7565b5b146137bf57846040517fe4f2c5ac0000000000000000000000000000000000000000000000000000000081526004016137b6919061620c565b60405180910390fd5b89861015613802576040517f08c379a00000000000000000000000000000000000000000000000000000000081526004016137f9906165d3565b60405180910390fd5b826fffffffffffffffffffffffffffffffff16846fffffffffffffffffffffffffffffffff161415806138595750806fffffffffffffffffffffffffffffffff16826fffffffffffffffffffffffffffffffff1614155b156138d15782600260006101000a8154816fffffffffffffffffffffffffffffffff02191690836fffffffffffffffffffffffffffffffff16021790555080600260106101000a8154816fffffffffffffffffffffffffffffffff02191690836fffffffffffffffffffffffffffffffff1602179055505b826fffffffffffffffffffffffffffffffff16846fffffffffffffffffffffffffffffffff1614613934577ff06180fdbe95e5193df4dcd1352726b1f04cb58599ce58552cc952447af2ffbb8360405161392b91906145fb565b60405180910390a15b806fffffffffffffffffffffffffffffffff16826fffffffffffffffffffffffffffffffff1614613997577fc958ae052d28f8d17bc2c4ddbabb699a3cab5cccefd034d0fc971efdadc01da58160405161398e91906145fb565b60405180910390a15b505050505094509492505050565b60008111156139e1576139e082826139bb6125dc565b73ffffffffffffffffffffffffffffffffffffffff166135459092919063ffffffff16565b5b5050565b6000811115613abc5760006139f86125dc565b905060008173ffffffffffffffffffffffffffffffffffffffff166370a08231306040518263ffffffff1660e01b8152600401613a359190614f2b565b602060405180830381865afa158015613a52573d6000803e3d6000fd5b505050506040513d601f19601f82011682018060405250810190613a769190615585565b905080831115613a84578092505b6000831115613ab957613ab884848473ffffffffffffffffffffffffffffffffffffffff166135459092919063ffffffff16565b5b50505b5050565b6000613aca6119ce565b905060008686905090508315613f3757600033905060008673ffffffffffffffffffffffffffffffffffffffff1663a93ec68b836040518263ffffffff1660e01b8152600401613b1a9190616332565b6040805180830381865afa158015613b36573d6000803e3d6000fd5b505050506040513d601f19601f82011682018060405250810190613b5a919061634d565b50905080613b9d576040517f08c379a0000000000000000000000000000000000000000000000000000000008152600401613b94906163d9565b60405180910390fd5b6001831115613d9a5760008a73ffffffffffffffffffffffffffffffffffffffff166370a08231866040518263ffffffff1660e01b8152600401613be19190614f2b565b602060405180830381865afa158015613bfe573d6000803e3d6000fd5b505050506040513d601f19601f82011682018060405250810190613c229190615585565b905060005b84811015613ccd578373ffffffffffffffffffffffffffffffffffffffff1663748ff3398d89898f8f87818110613c6157613c606156eb565b5b90506020020135613c706113c0565b6040518663ffffffff1660e01b8152600401613c909594939291906165f3565b600060405180830381600087803b158015613caa57600080fd5b505af1158015613cbe573d6000803e3d6000fd5b50505050806001019050613c27565b5083818c73ffffffffffffffffffffffffffffffffffffffff166370a08231886040518263ffffffff1660e01b8152600401613d099190614f2b565b602060405180830381865afa158015613d26573d6000803e3d6000fd5b505050506040513d601f19601f82011682018060405250810190613d4a9190615585565b613d549190616428565b14613d94576040517f08c379a0000000000000000000000000000000000000000000000000000000008152600401613d8b90616692565b60405180910390fd5b50613f30565b8173ffffffffffffffffffffffffffffffffffffffff1663748ff3398b87878d8d6000818110613dcd57613dcc6156eb565b5b90506020020135613ddc6113c0565b6040518663ffffffff1660e01b8152600401613dfc9594939291906165f3565b600060405180830381600087803b158015613e1657600080fd5b505af1158015613e2a573d6000803e3d6000fd5b505050508373ffffffffffffffffffffffffffffffffffffffff168a73ffffffffffffffffffffffffffffffffffffffff16636352211e8b8b6000818110613e7557613e746156eb565b5b905060200201356040518263ffffffff1660e01b8152600401613e989190614bb6565b602060405180830381865afa158015613eb5573d6000803e3d6000fd5b505050506040513d601f19601f82011682018060405250810190613ed991906166c7565b73ffffffffffffffffffffffffffffffffffffffff1614613f2f576040517f08c379a0000000000000000000000000000000000000000000000000000000008152600401613f2690616740565b60405180910390fd5b5b5050613fd7565b60005b81811015613fd5578873ffffffffffffffffffffffffffffffffffffffff166342842e0e33858b8b86818110613f7357613f726156eb565b5b905060200201356040518463ffffffff1660e01b8152600401613f989392919061571a565b600060405180830381600087803b158015613fb257600080fd5b505af1158015613fc6573d6000803e3d6000fd5b50505050806001019050613f3a565b505b5050505050505050565b806000806101000a81548173ffffffffffffffffffffffffffffffffffffffff021916908373ffffffffffffffffffffffffffffffffffffffff1602179055508073ffffffffffffffffffffffffffffffffffffffff167f04dba622d284ed0014ee4b9a6a68386be1a4c08a4913ae272de89199cc68616360405160405180910390a250565b6000808273ffffffffffffffffffffffffffffffffffffffff163b119050919050565b806000806101000a81548173ffffffffffffffffffffffffffffffffffffffff021916908373ffffffffffffffffffffffffffffffffffffffff16021790555050565b60018081905550565b600080836001016000848152602001908152602001600020549050600081146141de5760006001826141089190616428565b90506000600186600001805490506141209190616428565b905081811461418f576000866000018281548110614141576141406156eb565b5b9060005260206000200154905080876000018481548110614165576141646156eb565b5b90600052602060002001819055508387600101600083815260200190815260200160002081905550505b856000018054806141a3576141a2616760565b5b6001900381819060005260206000200160009055905585600101600086815260200190815260200160002060009055600193505050506141e4565b60009150505b92915050565b60006141f683836143a2565b61424f578260000182908060018154018082558091505060019003906000526020600020016000909190919091505582600001805490508360010160008481526020019081526020016000208190555060019050614254565b600090505b92915050565b60006040517f23b872dd00000000000000000000000000000000000000000000000000000000815273ffffffffffffffffffffffffffffffffffffffff8516600482015273ffffffffffffffffffffffffffffffffffffffff8416602482015282604482015260008060648360008a5af19150506142d781614359565b614316576040517f08c379a000000000000000000000000000000000000000000000000000000000815260040161430d906167db565b60405180910390fd5b5050505050565b600081600001805490509050919050565b6000826000018281548110614346576143456156eb565b5b9060005260206000200154905092915050565b60003d8261436b57806000803e806000fd5b80602081146143855760008114614396576000925061439b565b816000803e6000511515925061439b565b600192505b5050919050565b600080836001016000848152602001908152602001600020541415905092915050565b6000604051905090565b600080fd5b600080fd5b60007fffffffff0000000000000000000000000000000000000000000000000000000082169050919050565b61440e816143d9565b811461441957600080fd5b50565b60008135905061442b81614405565b92915050565b600060208284031215614447576144466143cf565b5b60006144558482850161441c565b91505092915050565b60008115159050919050565b6144738161445e565b82525050565b600060208201905061448e600083018461446a565b92915050565b6000819050919050565b6144a781614494565b81146144b257600080fd5b50565b6000813590506144c48161449e565b92915050565b6000602082840312156144e0576144df6143cf565b5b60006144ee848285016144b5565b91505092915050565b7f4e487b7100000000000000000000000000000000000000000000000000000000600052602160045260246000fd5b60038110614537576145366144f7565b5b50565b600081905061454882614526565b919050565b60006145588261453a565b9050919050565b6145688161454d565b82525050565b61457781614494565b82525050565b600060a082019050614592600083018861455f565b61459f602083018761456e565b6145ac604083018661456e565b6145b9606083018561456e565b6145c6608083018461456e565b9695505050505050565b60006fffffffffffffffffffffffffffffffff82169050919050565b6145f5816145d0565b82525050565b600060208201905061461060008301846145ec565b92915050565b600073ffffffffffffffffffffffffffffffffffffffff82169050919050565b600061464182614616565b9050919050565b600061465382614636565b9050919050565b61466381614648565b811461466e57600080fd5b50565b6000813590506146808161465a565b92915050565b600080fd5b600080fd5b600080fd5b60008083601f8401126146ab576146aa614686565b5b8235905067ffffffffffffffff8111156146c8576146c761468b565b5b6020830191508360208202830111156146e4576146e3614690565b5b9250929050565b600080600060408486031215614704576147036143cf565b5b600061471286828701614671565b935050602084013567ffffffffffffffff811115614733576147326143d4565b5b61473f86828701614695565b92509250509250925092565b61475481614636565b811461475f57600080fd5b50565b6000813590506147718161474b565b92915050565b600080fd5b6000601f19601f8301169050919050565b7f4e487b7100000000000000000000000000000000000000000000000000000000600052604160045260246000fd5b6147c58261477c565b810181811067ffffffffffffffff821117156147e4576147e361478d565b5b80604052505050565b60006147f76143c5565b905061480382826147bc565b919050565b600067ffffffffffffffff8211156148235761482261478d565b5b61482c8261477c565b9050602081019050919050565b82818337600083830152505050565b600061485b61485684614808565b6147ed565b90508281526020810184848401111561487757614876614777565b5b614882848285614839565b509392505050565b600082601f83011261489f5761489e614686565b5b81356148af848260208601614848565b91505092915050565b600080600080608085870312156148d2576148d16143cf565b5b60006148e087828801614762565b94505060206148f187828801614762565b9350506040614902878288016144b5565b925050606085013567ffffffffffffffff811115614923576149226143d4565b5b61492f8782880161488a565b91505092959194509250565b614944816143d9565b82525050565b600060208201905061495f600083018461493b565b92915050565b600061497082614616565b9050919050565b61498081614965565b811461498b57600080fd5b50565b60008135905061499d81614977565b92915050565b60008083601f8401126149b9576149b8614686565b5b8235905067ffffffffffffffff8111156149d6576149d561468b565b5b6020830191508360018202830111156149f2576149f1614690565b5b9250929050565b600080600060408486031215614a1257614a116143cf565b5b6000614a208682870161498e565b935050602084013567ffffffffffffffff811115614a4157614a406143d4565b5b614a4d868287016149a3565b92509250509250925092565b60008083601f840112614a6f57614a6e614686565b5b8235905067ffffffffffffffff811115614a8c57614a8b61468b565b5b602083019150836020820283011115614aa857614aa7614690565b5b9250929050565b614ab88161445e565b8114614ac357600080fd5b50565b600081359050614ad581614aaf565b92915050565b600080600060408486031215614af457614af36143cf565b5b600084013567ffffffffffffffff811115614b1257614b116143d4565b5b614b1e86828701614a59565b93509350506020614b3186828701614ac6565b9150509250925092565b600080600080600060a08688031215614b5757614b566143cf565b5b6000614b65888289016144b5565b9550506020614b76888289016144b5565b9450506040614b8788828901614762565b9350506060614b9888828901614ac6565b9250506080614ba988828901614762565b9150509295509295909350565b6000602082019050614bcb600083018461456e565b92915050565b600081519050919050565b600082825260208201905092915050565b6000819050602082019050919050565b614c0681614494565b82525050565b6000614c188383614bfd565b60208301905092915050565b6000602082019050919050565b6000614c3c82614bd1565b614c468185614bdc565b9350614c5183614bed565b8060005b83811015614c82578151614c698882614c0c565b9750614c7483614c24565b925050600181019050614c55565b5085935050505092915050565b60006020820190508181036000830152614ca98184614c31565b905092915050565b60048110614cc257614cc16144f7565b5b50565b6000819050614cd382614cb1565b919050565b6000614ce382614cc5565b9050919050565b614cf381614cd8565b82525050565b6000602082019050614d0e6000830184614cea565b92915050565b614d1d81614965565b82525050565b6000602082019050614d386000830184614d14565b92915050565b6000819050919050565b6000614d63614d5e614d5984614616565b614d3e565b614616565b9050919050565b6000614d7582614d48565b9050919050565b6000614d8782614d6a565b9050919050565b614d9781614d7c565b82525050565b6000602082019050614db26000830184614d8e565b92915050565b614dc1816145d0565b8114614dcc57600080fd5b50565b600081359050614dde81614db8565b92915050565b600060208284031215614dfa57614df96143cf565b5b6000614e0884828501614dcf565b91505092915050565b60006bffffffffffffffffffffffff82169050919050565b614e3281614e11565b8114614e3d57600080fd5b50565b600081359050614e4f81614e29565b92915050565b600060208284031215614e6b57614e6a6143cf565b5b6000614e7984828501614e40565b91505092915050565b60008060008060008060a08789031215614e9f57614e9e6143cf565b5b600087013567ffffffffffffffff811115614ebd57614ebc6143d4565b5b614ec989828a01614695565b96509650506020614edc89828a016144b5565b9450506040614eed89828a01614762565b9350506060614efe89828a01614ac6565b9250506080614f0f89828a01614762565b9150509295509295509295565b614f2581614636565b82525050565b6000602082019050614f406000830184614f1c565b92915050565b6000614f5182614636565b9050919050565b614f6181614f46565b8114614f6c57600080fd5b50565b600081359050614f7e81614f58565b92915050565b60008060408385031215614f9b57614f9a6143cf565b5b6000614fa985828601614f6f565b9250506020614fba858286016144b5565b9150509250929050565b6000614fcf82614636565b9050919050565b614fdf81614fc4565b8114614fea57600080fd5b50565b600081359050614ffc81614fd6565b92915050565b60008060008060006060868803121561501e5761501d6143cf565b5b600061502c88828901614fed565b955050602086013567ffffffffffffffff81111561504d5761504c6143d4565b5b61505988828901614695565b9450945050604086013567ffffffffffffffff81111561507c5761507b6143d4565b5b61508888828901614695565b92509250509295509295909350565b60008060008060008060a087890312156150b4576150b36143cf565b5b600087013567ffffffffffffffff8111156150d2576150d16143d4565b5b6150de89828a01614695565b965096505060206150f189828a016144b5565b945050604061510289828a0161498e565b935050606061511389828a01614ac6565b925050608061512489828a01614762565b9150509295509295509295565b60038110615142576151416144f7565b5b50565b600081905061515382615131565b919050565b600061516382615145565b9050919050565b61517381615158565b82525050565b600060208201905061518e600083018461516a565b92915050565b600067ffffffffffffffff8211156151af576151ae61478d565b5b602082029050602081019050919050565b60006151d36151ce84615194565b6147ed565b905080838252602082019050602084028301858111156151f6576151f5614690565b5b835b8181101561521f578061520b88826144b5565b8452602084019350506020810190506151f8565b5050509392505050565b600082601f83011261523e5761523d614686565b5b813561524e8482602086016151c0565b91505092915050565b600080600080600060a08688031215615273576152726143cf565b5b600061528188828901614762565b955050602061529288828901614762565b945050604086013567ffffffffffffffff8111156152b3576152b26143d4565b5b6152bf88828901615229565b935050606086013567ffffffffffffffff8111156152e0576152df6143d4565b5b6152ec88828901615229565b925050608086013567ffffffffffffffff81111561530d5761530c6143d4565b5b6153198882890161488a565b9150509295509295909350565b600061533182614d6a565b9050919050565b61534181615326565b82525050565b600060208201905061535c6000830184615338565b92915050565b61536b81614e11565b82525050565b60006020820190506153866000830184615362565b92915050565b600061539782614d6a565b9050919050565b6153a78161538c565b82525050565b60006020820190506153c2600083018461539e565b92915050565b600080600080600060a086880312156153e4576153e36143cf565b5b60006153f288828901614762565b955050602061540388828901614762565b9450506040615414888289016144b5565b9350506060615425888289016144b5565b925050608086013567ffffffffffffffff811115615446576154456143d4565b5b6154528882890161488a565b9150509295509295909350565b600060208284031215615475576154746143cf565b5b600061548384828501614762565b91505092915050565b6000602082840312156154a2576154a16143cf565b5b60006154b08482850161498e565b91505092915050565b60006154c482614d6a565b9050919050565b6154d4816154b9565b82525050565b60006020820190506154ef60008301846154cb565b92915050565b600080600080600060a08688031215615511576155106143cf565b5b600061551f88828901614762565b95505060206155308882890161498e565b945050604061554188828901614dcf565b935050606061555288828901614e40565b925050608061556388828901614dcf565b9150509295509295909350565b60008151905061557f8161449e565b92915050565b60006020828403121561559b5761559a6143cf565b5b60006155a984828501615570565b91505092915050565b60006155cd6155c86155c384614e11565b614d3e565b614494565b9050919050565b6155dd816155b2565b82525050565b600060a0820190506155f860008301886145ec565b61560560208301876145ec565b615612604083018661456e565b61561f60608301856155d4565b61562c608083018461456e565b9695505050505050565b6003811061564357600080fd5b50565b60008151905061565581615636565b92915050565b60008151905061566a81614db8565b92915050565b600080600080600060a0868803121561568c5761568b6143cf565b5b600061569a88828901615646565b95505060206156ab8882890161565b565b94505060406156bc8882890161565b565b93505060606156cd88828901615570565b92505060806156de88828901615570565b9150509295509295909350565b7f4e487b7100000000000000000000000000000000000000000000000000000000600052603260045260246000fd5b600060608201905061572f6000830186614f1c565b61573c6020830185614f1c565b615749604083018461456e565b949350505050565b600061575c82614d6a565b9050919050565b61576c81615751565b82525050565b60006020820190506157876000830184615763565b92915050565b60008151905061579c81614aaf565b92915050565b6000602082840312156157b8576157b76143cf565b5b60006157c68482850161578d565b91505092915050565b600082825260208201905092915050565b7f546172676574206d7573742062652077686974656c6973746564000000000000600082015250565b6000615816601a836157cf565b9150615821826157e0565b602082019050919050565b6000602082019050818103600083015261584581615809565b9050919050565b600081905092915050565b6000615863838561584c565b9350615870838584614839565b82840190509392505050565b6000615889828486615857565b91508190509392505050565b7f43616c6c206661696c6564000000000000000000000000000000000000000000600082015250565b60006158cb600b836157cf565b91506158d682615895565b602082019050919050565b600060208201905081810360008301526158fa816158be565b9050919050565b600080fd5b600080fd5b600080fd5b6000808335600160200384360303811261592d5761592c615901565b5b80840192508235915067ffffffffffffffff82111561594f5761594e615906565b5b60208301925060018202360383131561596b5761596a61590b565b5b509250929050565b600081519050919050565b60005b8381101561599c578082015181840152602081019050615981565b60008484015250505050565b60006159b382615973565b6159bd81856157cf565b93506159cd81856020860161597e565b6159d68161477c565b840191505092915050565b600060208201905081810360008301526159fb81846159a8565b905092915050565b7f4f776e6572736869702063616e6e6f74206265206368616e67656420696e206d60008201527f756c746963616c6c000000000000000000000000000000000000000000000000602082015250565b6000615a5f6028836157cf565b9150615a6a82615a03565b604082019050919050565b60006020820190508181036000830152615a8e81615a52565b9050919050565b7f5265656e7472616e637947756172643a207265656e7472616e742063616c6c00600082015250565b6000615acb601f836157cf565b9150615ad682615a95565b602082019050919050565b60006020820190508181036000830152615afa81615abe565b9050919050565b7f57726f6e6720506f6f6c20747970650000000000000000000000000000000000600082015250565b6000615b37600f836157cf565b9150615b4282615b01565b602082019050919050565b60006020820190508181036000830152615b6681615b2a565b9050919050565b7f41736b20666f72203e203020616e64203c3d2062616c616e63654f66204e465460008201527f7300000000000000000000000000000000000000000000000000000000000000602082015250565b6000615bc96021836157cf565b9150615bd482615b6d565b604082019050919050565b60006020820190508181036000830152615bf881615bbc565b9050919050565b7f496e76616c69642064656c746120666f72206375727665000000000000000000600082015250565b6000615c356017836157cf565b9150615c4082615bff565b602082019050919050565b60006020820190508181036000830152615c6481615c28565b9050919050565b7f4f6e6c7920666f7220547261646520706f6f6c73000000000000000000000000600082015250565b6000615ca16014836157cf565b9150615cac82615c6b565b602082019050919050565b60006020820190508181036000830152615cd081615c94565b9050919050565b7f547261646520666565206d757374206265206c657373207468616e2039302500600082015250565b6000615d0d601f836157cf565b9150615d1882615cd7565b602082019050919050565b60006020820190508181036000830152615d3c81615d00565b9050919050565b7f4d7573742061736b20666f72203e2030204e4654730000000000000000000000600082015250565b6000615d796015836157cf565b9150615d8482615d43565b602082019050919050565b60006020820190508181036000830152615da881615d6c565b9050919050565b600080fd5b82818337505050565b6000615dc98385614bdc565b93507f07ffffffffffffffffffffffffffffffffffffffffffffffffffffffffffffff831115615dfc57615dfb615daf565b5b602083029250615e0d838584615db4565b82840190509392505050565b600082825260208201905092915050565b50565b6000615e3a600083615e19565b9150615e4582615e2a565b600082019050919050565b600060a082019050615e656000830189614f1c565b615e726020830188614f1c565b8181036040830152615e85818688615dbd565b90508181036060830152615e9a818486615dbd565b90508181036080830152615ead81615e2d565b9050979650505050505050565b7f496e76616c6964206e65772073706f7420707269636520666f72206375727665600082015250565b6000615ef06020836157cf565b9150615efb82615eba565b602082019050919050565b60006020820190508181036000830152615f1f81615ee3565b9050919050565b7f4e6f7420666f7220547261646520706f6f6c7300000000000000000000000000600082015250565b6000615f5c6013836157cf565b9150615f6782615f26565b602082019050919050565b60006020820190508181036000830152615f8b81615f4f565b9050919050565b7f496e697469616c697a6564000000000000000000000000000000000000000000600082015250565b6000615fc8600b836157cf565b9150615fd382615f92565b602082019050919050565b60006020820190508181036000830152615ff781615fbb565b9050919050565b7f4f6e6c7920547261646520506f6f6c732063616e2068617665206e6f6e7a657260008201527f6f20666565000000000000000000000000000000000000000000000000000000602082015250565b600061605a6025836157cf565b915061606582615ffe565b604082019050919050565b600060208201905081810360008301526160898161604d565b9050919050565b7f547261646520706f6f6c732063616e277420736574206173736574207265636960008201527f7069656e74000000000000000000000000000000000000000000000000000000602082015250565b60006160ec6025836157cf565b91506160f782616090565b604082019050919050565b6000602082019050818103600083015261611b816160df565b9050919050565b600067ffffffffffffffff82111561613d5761613c61478d565b5b6161468261477c565b9050602081019050919050565b600061616661616184616122565b6147ed565b90508281526020810184848401111561618257616181614777565b5b61618d84828561597e565b509392505050565b600082601f8301126161aa576161a9614686565b5b81516161ba848260208601616153565b91505092915050565b6000602082840312156161d9576161d86143cf565b5b600082015167ffffffffffffffff8111156161f7576161f66143d4565b5b61620384828501616195565b91505092915050565b6000602082019050616221600083018461455f565b92915050565b7f496e20746f6f206d616e7920746f6b656e730000000000000000000000000000600082015250565b600061625d6012836157cf565b915061626882616227565b602082019050919050565b6000602082019050818103600083015261628c81616250565b9050919050565b7f4552433230207061697200000000000000000000000000000000000000000000600082015250565b60006162c9600a836157cf565b91506162d482616293565b602082019050919050565b600060208201905081810360008301526162f8816162bc565b9050919050565b600061630a82614d48565b9050919050565b600061631c826162ff565b9050919050565b61632c81616311565b82525050565b60006020820190506163476000830184616323565b92915050565b60008060408385031215616364576163636143cf565b5b60006163728582860161578d565b92505060206163838582860161578d565b9150509250929050565b7f4e6f7420726f7574657200000000000000000000000000000000000000000000600082015250565b60006163c3600a836157cf565b91506163ce8261638d565b602082019050919050565b600060208201905081810360008301526163f2816163b6565b9050919050565b7f4e487b7100000000000000000000000000000000000000000000000000000000600052601160045260246000fd5b600061643382614494565b915061643e83614494565b9250828203905081811115616456576164556163f9565b5b92915050565b600060a08201905061647160008301886154cb565b61647e6020830187614f1c565b61648b6040830186614f1c565b616498606083018561456e565b6164a56080830184614cea565b9695505050505050565b7f4552433230206e6f74207472616e7366657272656420696e0000000000000000600082015250565b60006164e56018836157cf565b91506164f0826164af565b602082019050919050565b60006020820190508181036000830152616514816164d8565b9050919050565b7f5452414e534645525f4641494c45440000000000000000000000000000000000600082015250565b6000616551600f836157cf565b915061655c8261651b565b602082019050919050565b6000602082019050818103600083015261658081616544565b9050919050565b7f4f757420746f6f206c6974746c6520746f6b656e730000000000000000000000600082015250565b60006165bd6015836157cf565b91506165c882616587565b602082019050919050565b600060208201905081810360008301526165ec816165b0565b9050919050565b600060a0820190506166086000830188614d8e565b6166156020830187614f1c565b6166226040830186614f1c565b61662f606083018561456e565b61663c6080830184614cea565b9695505050505050565b7f4e465473206e6f74207472616e73666572726564000000000000000000000000600082015250565b600061667c6014836157cf565b915061668782616646565b602082019050919050565b600060208201905081810360008301526166ab8161666f565b9050919050565b6000815190506166c18161474b565b92915050565b6000602082840312156166dd576166dc6143cf565b5b60006166eb848285016166b2565b91505092915050565b7f4e4654206e6f74207472616e7366657272656400000000000000000000000000600082015250565b600061672a6013836157cf565b9150616735826166f4565b602082019050919050565b600060208201905081810360008301526167598161671d565b9050919050565b7f4e487b7100000000000000000000000000000000000000000000000000000000600052603160045260246000fd5b7f5452414e534645525f46524f4d5f4641494c4544000000000000000000000000600082015250565b60006167c56014836157cf565b91506167d08261678f565b602082019050919050565b600060208201905081810360008301526167f4816167b8565b905091905056fea2646970667358221220651299a64f9d260dda894661d9c2ecca9070e758973c706a01ff4dd0d729e4ef64736f6c63430008100033",
  "immutableReferences": {},
  "source": "// SPDX-License-Identifier: AGPL-3.0\npragma solidity ^0.8.0;\n\nimport {LSSVMPairERC20} from \"./LSSVMPairERC20.sol\";\nimport {LSSVMPairMissingEnumerable} from \"./LSSVMPairMissingEnumerable.sol\";\nimport {ILSSVMPairFactoryLike} from \"./ILSSVMPairFactoryLike.sol\";\n\ncontract LSSVMPairMissingEnumerableERC20 is\n    LSSVMPairMissingEnumerable,\n    LSSVMPairERC20\n{\n    function pairVariant()\n        public\n        pure\n        override\n        returns (ILSSVMPairFactoryLike.PairVariant)\n    {\n        return ILSSVMPairFactoryLike.PairVariant.MISSING_ENUMERABLE_ERC20;\n    }\n}\n",
  "sourcePath": "/Users/brett/workSpace/NFTSea/nftsea-contract/contracts/LSSVMPairMissingEnumerableERC20.sol",
  "compiler": {
    "name": "solc",
    "version": "0.8.16+commit.07a7930e.Emscripten.clang"
  },
  "schemaVersion": "3.4.9",
  "updatedAt": "2022-09-03T12:01:49.529Z",
  "devdoc": {
    "kind": "dev",
    "methods": {
      "call(address,bytes)": {
        "params": {
          "data": "The calldata to pass to the contract",
          "target": "The contract to call"
        }
      },
      "changeAssetRecipient(address)": {
        "params": {
          "newRecipient": "The new asset recipient"
        }
      },
      "changeDelta(uint128)": {
        "params": {
          "newDelta": "The new delta parameter"
        }
      },
      "changeFee(uint96)": {
        "params": {
          "newFee": "The new LP fee percentage, 18 decimals"
        }
      },
      "changeSpotPrice(uint128)": {
        "params": {
          "newSpotPrice": "The new selling spot price value, in Token"
        }
      },
      "getBuyNFTQuote(uint256)": {
        "details": "Used as read function to query the bonding curve for buy pricing info",
        "params": {
          "numNFTs": "The number of NFTs to buy from the pair"
        }
      },
      "getSellNFTQuote(uint256)": {
        "details": "Used as read function to query the bonding curve for sell pricing info",
        "params": {
          "numNFTs": "The number of NFTs to sell to the pair"
        }
      },
      "initialize(address,address,uint128,uint96,uint128)": {
        "details": "Only called once by factory to initialize. We verify this by making sure that the current owner is address(0). The Ownable library we use disallows setting the owner to be address(0), so this condition should only be valid before the first initialize call.",
        "params": {
          "_assetRecipient": "The address that will receive the TOKEN or NFT sent to this pair during swaps. NOTE: If set to address(0), they will go to the pair itself.",
          "_delta": "The initial delta of the bonding curve",
          "_fee": "The initial % fee taken, if this is a trade pair",
          "_owner": "The owner of the pair",
          "_spotPrice": "The initial price to sell an asset into the pair"
        }
      },
      "multicall(bytes[],bool)": {
        "details": "Intended for withdrawing/altering pool pricing in one tx, only callable by owner, cannot change owner",
        "params": {
          "calls": "The calldata for each call to make",
          "revertOnFail": "Whether or not to revert the entire tx if any of the calls fail"
        }
      },
      "onERC721Received(address,address,uint256,bytes)": {
        "details": "When safeTransfering an ERC721 in, we add ID to the idSet if it's the same collection used by pool. (As it doesn't auto-track because no ERC721Enumerable)"
      },
      "owner()": {
        "details": "Returns the address of the current owner."
      },
      "supportsInterface(bytes4)": {
        "details": "See {IERC165-supportsInterface}."
      },
      "swapNFTsForToken(uint256[],uint256,address,bool,address)": {
        "details": "To compute the amount of token to that will be received, call bondingCurve.getSellInfo.",
        "params": {
          "isRouter": "True if calling from LSSVMRouter, false otherwise. Not used for ETH pairs.",
          "minExpectedTokenOutput": "The minimum acceptable token received by the sender. If the actual amount is less than this value, the transaction will be reverted.",
          "nftIds": "The list of IDs of the NFTs to sell to the pair",
          "routerCaller": "If isRouter is true, ERC20 tokens will be transferred from this address. Not used for ETH pairs.",
          "tokenRecipient": "The recipient of the token output"
        },
        "returns": {
          "outputAmount": "The amount of token received"
        }
      },
      "swapTokenForAnyNFTs(uint256,uint256,address,bool,address)": {
        "details": "To compute the amount of token to send, call bondingCurve.getBuyInfo. This swap function is meant for users who are ID agnostic",
        "params": {
          "isRouter": "True if calling from LSSVMRouter, false otherwise. Not used for ETH pairs.",
          "maxExpectedTokenInput": "The maximum acceptable cost from the sender. If the actual amount is greater than this value, the transaction will be reverted.",
          "nftRecipient": "The recipient of the NFTs",
          "numNFTs": "The number of NFTs to purchase",
          "routerCaller": "If isRouter is true, ERC20 tokens will be transferred from this address. Not used for ETH pairs."
        },
        "returns": {
          "inputAmount": "The amount of token used for purchase"
        }
      },
      "swapTokenForSpecificNFTs(uint256[],uint256,address,bool,address)": {
        "details": "To compute the amount of token to send, call bondingCurve.getBuyInfo This swap is meant for users who want specific IDs. Also higher chance of reverting if some of the specified IDs leave the pool before the swap goes through.",
        "params": {
          "isRouter": "True if calling from LSSVMRouter, false otherwise. Not used for ETH pairs.",
          "maxExpectedTokenInput": "The maximum acceptable cost from the sender. If the actual amount is greater than this value, the transaction will be reverted.",
          "nftIds": "The list of IDs of the NFTs to purchase",
          "nftRecipient": "The recipient of the NFTs",
          "routerCaller": "If isRouter is true, ERC20 tokens will be transferred from this address. Not used for ETH pairs."
        },
        "returns": {
          "inputAmount": "The amount of token used for purchase"
        }
      },
      "token()": {
        "details": "See LSSVMPairCloner for an explanation on how this works"
      },
      "transferOwnership(address)": {
        "details": "Transfers ownership of the contract to a new account (`newOwner`). Disallows setting to the zero address as a way to more gas-efficiently avoid reinitialization When ownership is transferred, if the new owner implements IOwnershipTransferCallback, we make a callback Can only be called by the current owner."
      },
      "withdrawERC1155(address,uint256[],uint256[])": {
        "params": {
          "a": "The NFT to transfer",
          "amounts": "The amounts of each id to transfer",
          "ids": "The NFT ids to transfer"
        }
      },
      "withdrawERC20(address,uint256)": {
        "params": {
          "a": "The token to transfer",
          "amount": "The amount of tokens to send to the owner"
        }
      },
      "withdrawERC721(address,uint256[])": {
        "details": "If the NFT is the pair's collection, we also remove it from the id tracking (if the NFT is missing enumerable).",
        "params": {
          "a": "The NFT to transfer",
          "nftIds": "The list of IDs of the NFTs to send to the owner"
        }
      }
    },
    "version": 1
  },
  "userdoc": {
    "kind": "user",
    "methods": {
      "bondingCurve()": {
        "notice": "Returns the type of bonding curve that parameterizes the pair"
      },
      "call(address,bytes)": {
        "notice": "Allows the pair to make arbitrary external calls to contracts whitelisted by the protocol. Only callable by the owner."
      },
      "changeAssetRecipient(address)": {
        "notice": "Changes the address that will receive assets received from trades. Only callable by the owner."
      },
      "changeDelta(uint128)": {
        "notice": "Updates the delta parameter. Only callable by the owner."
      },
      "changeFee(uint96)": {
        "notice": "Updates the fee taken by the LP. Only callable by the owner. Only callable if the pool is a Trade pool. Reverts if the fee is >= MAX_FEE."
      },
      "changeSpotPrice(uint128)": {
        "notice": "Updates the selling spot price. Only callable by the owner."
      },
      "getAllHeldIds()": {
        "notice": "Returns all NFT IDs held by the pool"
      },
      "getAssetRecipient()": {
        "notice": "Returns the address that assets that receives assets when a swap is done with this pair Can be set to another address by the owner, if set to address(0), defaults to the pair's own address"
      },
      "initialize(address,address,uint128,uint96,uint128)": {
        "notice": "Called during pair creation to set initial parameters"
      },
      "multicall(bytes[],bool)": {
        "notice": "Allows owner to batch multiple calls, forked from: https://github.com/boringcrypto/BoringSolidity/blob/master/contracts/BoringBatchable.sol"
      },
      "nft()": {
        "notice": "Returns the NFT collection that parameterizes the pair"
      },
      "pairVariant()": {
        "notice": "Returns the pair's variant (NFT is enumerable or not, pair uses ETH or ERC20)"
      },
      "poolType()": {
        "notice": "Returns the pair's type (TOKEN/NFT/TRADE)"
      },
      "swapNFTsForToken(uint256[],uint256,address,bool,address)": {
        "notice": "Sends a set of NFTs to the pair in exchange for token"
      },
      "swapTokenForAnyNFTs(uint256,uint256,address,bool,address)": {
        "notice": "Sends token to the pair in exchange for any `numNFTs` NFTs"
      },
      "swapTokenForSpecificNFTs(uint256[],uint256,address,bool,address)": {
        "notice": "Sends token to the pair in exchange for a specific set of NFTs"
      },
      "token()": {
        "notice": "Returns the ERC20 token associated with the pair"
      },
      "withdrawERC1155(address,uint256[],uint256[])": {
        "notice": "Rescues ERC1155 tokens from the pair to the owner. Only callable by the owner."
      },
      "withdrawERC20(address,uint256)": {
        "notice": "Rescues ERC20 tokens from the pair to the owner. Only callable by the owner (onlyOwnable modifier is in the implemented function)."
      },
      "withdrawERC721(address,uint256[])": {
        "notice": "Rescues a specified set of NFTs owned by the pair to the owner address. (onlyOwnable modifier is in the implemented function)"
      }
    },
    "version": 1
  }
}