{
  "contractName": "LSSVMPairFactory",
  "abi": [
    {
      "inputs": [
        {
          "internalType": "contract LSSVMPairEnumerableETH",
          "name": "_enumerableETHTemplate",
          "type": "address"
        },
        {
          "internalType": "contract LSSVMPairMissingEnumerableETH",
          "name": "_missingEnumerableETHTemplate",
          "type": "address"
        },
        {
          "internalType": "contract LSSVMPairEnumerableERC20",
          "name": "_enumerableERC20Template",
          "type": "address"
        },
        {
          "internalType": "contract LSSVMPairMissingEnumerableERC20",
          "name": "_missingEnumerableERC20Template",
          "type": "address"
        },
        {
          "internalType": "address payable",
          "name": "_protocolFeeRecipient",
          "type": "address"
        },
        {
          "internalType": "uint256",
          "name": "_protocolFeeMultiplier",
          "type": "uint256"
        }
      ],
      "stateMutability": "nonpayable",
      "type": "constructor"
    },
    {
      "anonymous": false,
      "inputs": [
        {
          "indexed": false,
          "internalType": "contract ICurve",
          "name": "bondingCurve",
          "type": "address"
        },
        {
          "indexed": false,
          "internalType": "bool",
          "name": "isAllowed",
          "type": "bool"
        }
      ],
      "name": "BondingCurveStatusUpdate",
      "type": "event"
    },
    {
      "anonymous": false,
      "inputs": [
        {
          "indexed": false,
          "internalType": "address",
          "name": "target",
          "type": "address"
        },
        {
          "indexed": false,
          "internalType": "bool",
          "name": "isAllowed",
          "type": "bool"
        }
      ],
      "name": "CallTargetStatusUpdate",
      "type": "event"
    },
    {
      "anonymous": false,
      "inputs": [
        {
          "indexed": false,
          "internalType": "address",
          "name": "poolAddress",
          "type": "address"
        }
      ],
      "name": "NFTDeposit",
      "type": "event"
    },
    {
      "anonymous": false,
      "inputs": [
        {
          "indexed": false,
          "internalType": "address",
          "name": "poolAddress",
          "type": "address"
        }
      ],
      "name": "NewPair",
      "type": "event"
    },
    {
      "anonymous": false,
      "inputs": [
        {
          "indexed": true,
          "internalType": "address",
          "name": "previousOwner",
          "type": "address"
        },
        {
          "indexed": true,
          "internalType": "address",
          "name": "newOwner",
          "type": "address"
        }
      ],
      "name": "OwnershipTransferred",
      "type": "event"
    },
    {
      "anonymous": false,
      "inputs": [
        {
          "indexed": false,
          "internalType": "uint256",
          "name": "newMultiplier",
          "type": "uint256"
        }
      ],
      "name": "ProtocolFeeMultiplierUpdate",
      "type": "event"
    },
    {
      "anonymous": false,
      "inputs": [
        {
          "indexed": false,
          "internalType": "address",
          "name": "recipientAddress",
          "type": "address"
        }
      ],
      "name": "ProtocolFeeRecipientUpdate",
      "type": "event"
    },
    {
      "anonymous": false,
      "inputs": [
        {
          "indexed": false,
          "internalType": "contract LSSVMRouter",
          "name": "router",
          "type": "address"
        },
        {
          "indexed": false,
          "internalType": "bool",
          "name": "isAllowed",
          "type": "bool"
        }
      ],
      "name": "RouterStatusUpdate",
      "type": "event"
    },
    {
      "anonymous": false,
      "inputs": [
        {
          "indexed": false,
          "internalType": "address",
          "name": "poolAddress",
          "type": "address"
        }
      ],
      "name": "TokenDeposit",
      "type": "event"
    },
    {
      "inputs": [
        {
          "internalType": "contract ICurve",
          "name": "",
          "type": "address"
        }
      ],
      "name": "bondingCurveAllowed",
      "outputs": [
        {
          "internalType": "bool",
          "name": "",
          "type": "bool"
        }
      ],
      "stateMutability": "view",
      "type": "function"
    },
    {
      "inputs": [
        {
          "internalType": "address",
          "name": "",
          "type": "address"
        }
      ],
      "name": "callAllowed",
      "outputs": [
        {
          "internalType": "bool",
          "name": "",
          "type": "bool"
        }
      ],
      "stateMutability": "view",
      "type": "function"
    },
    {
      "inputs": [],
      "name": "enumerableERC20Template",
      "outputs": [
        {
          "internalType": "contract LSSVMPairEnumerableERC20",
          "name": "",
          "type": "address"
        }
      ],
      "stateMutability": "view",
      "type": "function"
    },
    {
      "inputs": [],
      "name": "enumerableETHTemplate",
      "outputs": [
        {
          "internalType": "contract LSSVMPairEnumerableETH",
          "name": "",
          "type": "address"
        }
      ],
      "stateMutability": "view",
      "type": "function"
    },
    {
      "inputs": [],
      "name": "missingEnumerableERC20Template",
      "outputs": [
        {
          "internalType": "contract LSSVMPairMissingEnumerableERC20",
          "name": "",
          "type": "address"
        }
      ],
      "stateMutability": "view",
      "type": "function"
    },
    {
      "inputs": [],
      "name": "missingEnumerableETHTemplate",
      "outputs": [
        {
          "internalType": "contract LSSVMPairMissingEnumerableETH",
          "name": "",
          "type": "address"
        }
      ],
      "stateMutability": "view",
      "type": "function"
    },
    {
      "inputs": [],
      "name": "owner",
      "outputs": [
        {
          "internalType": "address",
          "name": "",
          "type": "address"
        }
      ],
      "stateMutability": "view",
      "type": "function"
    },
    {
      "inputs": [],
      "name": "protocolFeeMultiplier",
      "outputs": [
        {
          "internalType": "uint256",
          "name": "",
          "type": "uint256"
        }
      ],
      "stateMutability": "view",
      "type": "function"
    },
    {
      "inputs": [],
      "name": "protocolFeeRecipient",
      "outputs": [
        {
          "internalType": "address payable",
          "name": "",
          "type": "address"
        }
      ],
      "stateMutability": "view",
      "type": "function"
    },
    {
      "inputs": [],
      "name": "renounceOwnership",
      "outputs": [],
      "stateMutability": "nonpayable",
      "type": "function"
    },
    {
      "inputs": [
        {
          "internalType": "contract LSSVMRouter",
          "name": "",
          "type": "address"
        }
      ],
      "name": "routerStatus",
      "outputs": [
        {
          "internalType": "bool",
          "name": "allowed",
          "type": "bool"
        },
        {
          "internalType": "bool",
          "name": "wasEverAllowed",
          "type": "bool"
        }
      ],
      "stateMutability": "view",
      "type": "function"
    },
    {
      "inputs": [
        {
          "internalType": "address",
          "name": "newOwner",
          "type": "address"
        }
      ],
      "name": "transferOwnership",
      "outputs": [],
      "stateMutability": "nonpayable",
      "type": "function"
    },
    {
      "stateMutability": "payable",
      "type": "receive"
    },
    {
      "inputs": [
        {
          "internalType": "contract IERC721",
          "name": "_nft",
          "type": "address"
        },
        {
          "internalType": "contract ICurve",
          "name": "_bondingCurve",
          "type": "address"
        },
        {
          "internalType": "address payable",
          "name": "_assetRecipient",
          "type": "address"
        },
        {
          "internalType": "enum LSSVMPair.PoolType",
          "name": "_poolType",
          "type": "uint8"
        },
        {
          "internalType": "uint128",
          "name": "_delta",
          "type": "uint128"
        },
        {
          "internalType": "uint96",
          "name": "_fee",
          "type": "uint96"
        },
        {
          "internalType": "uint128",
          "name": "_spotPrice",
          "type": "uint128"
        },
        {
          "internalType": "uint256[]",
          "name": "_initialNFTIDs",
          "type": "uint256[]"
        }
      ],
      "name": "createPairETH",
      "outputs": [
        {
          "internalType": "contract LSSVMPairETH",
          "name": "pair",
          "type": "address"
        }
      ],
      "stateMutability": "payable",
      "type": "function"
    },
    {
      "inputs": [
        {
          "components": [
            {
              "internalType": "contract ERC20",
              "name": "token",
              "type": "address"
            },
            {
              "internalType": "contract IERC721",
              "name": "nft",
              "type": "address"
            },
            {
              "internalType": "contract ICurve",
              "name": "bondingCurve",
              "type": "address"
            },
            {
              "internalType": "address payable",
              "name": "assetRecipient",
              "type": "address"
            },
            {
              "internalType": "enum LSSVMPair.PoolType",
              "name": "poolType",
              "type": "uint8"
            },
            {
              "internalType": "uint128",
              "name": "delta",
              "type": "uint128"
            },
            {
              "internalType": "uint96",
              "name": "fee",
              "type": "uint96"
            },
            {
              "internalType": "uint128",
              "name": "spotPrice",
              "type": "uint128"
            },
            {
              "internalType": "uint256[]",
              "name": "initialNFTIDs",
              "type": "uint256[]"
            },
            {
              "internalType": "uint256",
              "name": "initialTokenBalance",
              "type": "uint256"
            }
          ],
          "internalType": "struct LSSVMPairFactory.CreateERC20PairParams",
          "name": "params",
          "type": "tuple"
        }
      ],
      "name": "createPairERC20",
      "outputs": [
        {
          "internalType": "contract LSSVMPairERC20",
          "name": "pair",
          "type": "address"
        }
      ],
      "stateMutability": "nonpayable",
      "type": "function"
    },
    {
      "inputs": [
        {
          "internalType": "address",
          "name": "potentialPair",
          "type": "address"
        },
        {
          "internalType": "enum ILSSVMPairFactoryLike.PairVariant",
          "name": "variant",
          "type": "uint8"
        }
      ],
      "name": "isPair",
      "outputs": [
        {
          "internalType": "bool",
          "name": "",
          "type": "bool"
        }
      ],
      "stateMutability": "view",
      "type": "function"
    },
    {
      "inputs": [],
      "name": "withdrawETHProtocolFees",
      "outputs": [],
      "stateMutability": "nonpayable",
      "type": "function"
    },
    {
      "inputs": [
        {
          "internalType": "contract ERC20",
          "name": "token",
          "type": "address"
        },
        {
          "internalType": "uint256",
          "name": "amount",
          "type": "uint256"
        }
      ],
      "name": "withdrawERC20ProtocolFees",
      "outputs": [],
      "stateMutability": "nonpayable",
      "type": "function"
    },
    {
      "inputs": [
        {
          "internalType": "address payable",
          "name": "_protocolFeeRecipient",
          "type": "address"
        }
      ],
      "name": "changeProtocolFeeRecipient",
      "outputs": [],
      "stateMutability": "nonpayable",
      "type": "function"
    },
    {
      "inputs": [
        {
          "internalType": "uint256",
          "name": "_protocolFeeMultiplier",
          "type": "uint256"
        }
      ],
      "name": "changeProtocolFeeMultiplier",
      "outputs": [],
      "stateMutability": "nonpayable",
      "type": "function"
    },
    {
      "inputs": [
        {
          "internalType": "contract ICurve",
          "name": "bondingCurve",
          "type": "address"
        },
        {
          "internalType": "bool",
          "name": "isAllowed",
          "type": "bool"
        }
      ],
      "name": "setBondingCurveAllowed",
      "outputs": [],
      "stateMutability": "nonpayable",
      "type": "function"
    },
    {
      "inputs": [
        {
          "internalType": "address payable",
          "name": "target",
          "type": "address"
        },
        {
          "internalType": "bool",
          "name": "isAllowed",
          "type": "bool"
        }
      ],
      "name": "setCallAllowed",
      "outputs": [],
      "stateMutability": "nonpayable",
      "type": "function"
    },
    {
      "inputs": [
        {
          "internalType": "contract LSSVMRouter",
          "name": "_router",
          "type": "address"
        },
        {
          "internalType": "bool",
          "name": "isAllowed",
          "type": "bool"
        }
      ],
      "name": "setRouterAllowed",
      "outputs": [],
      "stateMutability": "nonpayable",
      "type": "function"
    },
    {
      "inputs": [
        {
          "internalType": "contract IERC721",
          "name": "_nft",
          "type": "address"
        },
        {
          "internalType": "uint256[]",
          "name": "ids",
          "type": "uint256[]"
        },
        {
          "internalType": "address",
          "name": "recipient",
          "type": "address"
        }
      ],
      "name": "depositNFTs",
      "outputs": [],
      "stateMutability": "nonpayable",
      "type": "function"
    },
    {
      "inputs": [
        {
          "internalType": "contract ERC20",
          "name": "token",
          "type": "address"
        },
        {
          "internalType": "address",
          "name": "recipient",
          "type": "address"
        },
        {
          "internalType": "uint256",
          "name": "amount",
          "type": "uint256"
        }
      ],
      "name": "depositERC20",
      "outputs": [],
      "stateMutability": "nonpayable",
      "type": "function"
    }
  ],
  "bytecode": "0x6101006040523480156200001257600080fd5b50604051620036c8380380620036c8833981810160405281019062000038919062000463565b620000586200004c620001ca60201b60201c565b620001d260201b60201c565b8573ffffffffffffffffffffffffffffffffffffffff1660808173ffffffffffffffffffffffffffffffffffffffff16815250508473ffffffffffffffffffffffffffffffffffffffff1660a08173ffffffffffffffffffffffffffffffffffffffff16815250508373ffffffffffffffffffffffffffffffffffffffff1660c08173ffffffffffffffffffffffffffffffffffffffff16815250508273ffffffffffffffffffffffffffffffffffffffff1660e08173ffffffffffffffffffffffffffffffffffffffff168152505081600160006101000a81548173ffffffffffffffffffffffffffffffffffffffff021916908373ffffffffffffffffffffffffffffffffffffffff16021790555067016345785d8a0000811115620001b7576040517f08c379a0000000000000000000000000000000000000000000000000000000008152600401620001ae9062000560565b60405180910390fd5b8060028190555050505050505062000582565b600033905090565b60008060009054906101000a900473ffffffffffffffffffffffffffffffffffffffff169050816000806101000a81548173ffffffffffffffffffffffffffffffffffffffff021916908373ffffffffffffffffffffffffffffffffffffffff1602179055508173ffffffffffffffffffffffffffffffffffffffff168173ffffffffffffffffffffffffffffffffffffffff167f8be0079c531659141344cd1fd0a4f28419497f9722a3daafe3b4186f6b6457e060405160405180910390a35050565b600080fd5b600073ffffffffffffffffffffffffffffffffffffffff82169050919050565b6000620002c8826200029b565b9050919050565b6000620002dc82620002bb565b9050919050565b620002ee81620002cf565b8114620002fa57600080fd5b50565b6000815190506200030e81620002e3565b92915050565b60006200032182620002bb565b9050919050565b620003338162000314565b81146200033f57600080fd5b50565b600081519050620003538162000328565b92915050565b600062000366826200029b565b9050919050565b60006200037a8262000359565b9050919050565b6200038c816200036d565b81146200039857600080fd5b50565b600081519050620003ac8162000381565b92915050565b6000620003bf8262000359565b9050919050565b620003d181620003b2565b8114620003dd57600080fd5b50565b600081519050620003f181620003c6565b92915050565b6200040281620002bb565b81146200040e57600080fd5b50565b6000815190506200042281620003f7565b92915050565b6000819050919050565b6200043d8162000428565b81146200044957600080fd5b50565b6000815190506200045d8162000432565b92915050565b60008060008060008060c0878903121562000483576200048262000296565b5b60006200049389828a01620002fd565b9650506020620004a689828a0162000342565b9550506040620004b989828a016200039b565b9450506060620004cc89828a01620003e0565b9350506080620004df89828a0162000411565b92505060a0620004f289828a016200044c565b9150509295509295509295565b600082825260208201905092915050565b7f46656520746f6f206c6172676500000000000000000000000000000000000000600082015250565b600062000548600d83620004ff565b9150620005558262000510565b602082019050919050565b600060208201905081810360008301526200057b8162000539565b9050919050565b60805160a05160c05160e0516130c6620006026000396000818161063d01528181610a4e01528181610caf0152610cdc0152600081816105e001528181610d0201526110f001526000818161058a015281816106f90152818161136b015261139801526000818161069b0152818161117201526113be01526130c66000f3fe60806040526004361061014e5760003560e01c8063715018a6116100b6578063ad2e57701161006f578063ad2e57701461049b578063b483eddc146104c6578063cc5bc20b146104dd578063ce9c095d14610506578063ebd0f69314610536578063f2fde38b1461055f57610155565b8063715018a61461038a5780638da5cb5b146103a15780639c3c11d2146103cc578063a427f1ad146103f5578063a82719c814610420578063a93ec68b1461045d57610155565b80634bf107c1116101085780634bf107c11461027c5780634c6bc433146102a5578063514f0330146102d057806359722caa146102f957806364df049e146103365780636cc88edb1461036157610155565b80624885ea1461015a57806308f25a8f146101855780631cad5a40146101c25780631ce4c78b146101eb5780631fba95e8146102165780632cdb394b1461025357610155565b3661015557005b600080fd5b34801561016657600080fd5b5061016f610588565b60405161017c9190611ee4565b60405180910390f35b34801561019157600080fd5b506101ac60048036038101906101a79190611f6c565b6105ac565b6040516101b99190611fc7565b60405180910390f35b3480156101ce57600080fd5b506101e960048036038101906101e49190612056565b610730565b005b3480156101f757600080fd5b5061020061085e565b60405161020d91906120b8565b60405180910390f35b34801561022257600080fd5b5061023d600480360381019061023891906120d3565b610864565b60405161024a9190611fc7565b60405180910390f35b34801561025f57600080fd5b5061027a600480360381019061027591906121a3565b610884565b005b34801561028857600080fd5b506102a3600480360381019061029e9190612281565b6109b0565b005b3480156102b157600080fd5b506102ba610a4c565b6040516102c791906122f4565b60405180910390f35b3480156102dc57600080fd5b506102f760048036038101906102f2919061234d565b610a70565b005b34801561030557600080fd5b50610320600480360381019061031b919061239f565b610b62565b60405161032d9190612409565b60405180910390f35b34801561034257600080fd5b5061034b610e82565b6040516103589190612433565b60405180910390f35b34801561036d57600080fd5b506103886004803603810190610383919061248c565b610ea8565b005b34801561039657600080fd5b5061039f61101d565b005b3480156103ad57600080fd5b506103b6611031565b6040516103c391906124db565b60405180910390f35b3480156103d857600080fd5b506103f360048036038101906103ee91906124f6565b61105a565b005b34801561040157600080fd5b5061040a6110ee565b6040516104179190612544565b60405180910390f35b34801561042c57600080fd5b506104476004803603810190610442919061255f565b611112565b6040516104549190611fc7565b60405180910390f35b34801561046957600080fd5b50610484600480360381019061047f919061258c565b611132565b6040516104929291906125b9565b60405180910390f35b3480156104a757600080fd5b506104b0611170565b6040516104bd9190612603565b60405180910390f35b3480156104d257600080fd5b506104db611194565b005b3480156104e957600080fd5b5061050460048036038101906104ff919061261e565b6111e9565b005b610520600480360381019061051b919061270f565b611242565b60405161052d9190612806565b60405180910390f35b34801561054257600080fd5b5061055d60048036038101906105589190612821565b61147a565b005b34801561056b57600080fd5b50610586600480360381019061058191906120d3565b6115ad565b005b7f000000000000000000000000000000000000000000000000000000000000000081565b6000600260038111156105c2576105c1612861565b5b8260038111156105d5576105d4612861565b5b0361060c57610605307f000000000000000000000000000000000000000000000000000000000000000085611630565b905061072a565b60038081111561061f5761061e612861565b5b82600381111561063257610631612861565b5b0361066957610662307f000000000000000000000000000000000000000000000000000000000000000085611630565b905061072a565b6000600381111561067d5761067c612861565b5b8260038111156106905761068f612861565b5b036106c7576106c0307f0000000000000000000000000000000000000000000000000000000000000000856116c3565b905061072a565b600160038111156106db576106da612861565b5b8260038111156106ee576106ed612861565b5b036107255761071e307f0000000000000000000000000000000000000000000000000000000000000000856116c3565b905061072a565b600090505b92915050565b61075d3383838673ffffffffffffffffffffffffffffffffffffffff16611756909392919063ffffffff16565b6107688260026105ac565b8061077a57506107798260036105ac565b5b15610859578173ffffffffffffffffffffffffffffffffffffffff1663fc0c546a6040518163ffffffff1660e01b8152600401602060405180830381865afa1580156107ca573d6000803e3d6000fd5b505050506040513d601f19601f820116820180604052508101906107ee91906128a5565b73ffffffffffffffffffffffffffffffffffffffff168373ffffffffffffffffffffffffffffffffffffffff1603610858577f831faf3fbb75c9fc66e318de7e95905d24c0430822da168c1c06fd49cba8f5f78260405161084f91906124db565b60405180910390a15b5b505050565b60025481565b60046020528060005260406000206000915054906101000a900460ff1681565b600083839050905060005b8181101561092a578573ffffffffffffffffffffffffffffffffffffffff166342842e0e33858888868181106108c8576108c76128d2565b5b905060200201356040518463ffffffff1660e01b81526004016108ed93929190612901565b600060405180830381600087803b15801561090757600080fd5b505af115801561091b573d6000803e3d6000fd5b5050505080600101905061088f565b506109368260026105ac565b8061094857506109478260006105ac565b5b8061095a57506109598260036105ac565b5b8061096c575061096b8260016105ac565b5b156109a9577f4fd0cd7c14badac45ff0bee670a9d8dd80e87907afcf2c121e0fd4b8b4b0047f826040516109a091906124db565b60405180910390a15b5050505050565b6109b8611819565b80600360008473ffffffffffffffffffffffffffffffffffffffff1673ffffffffffffffffffffffffffffffffffffffff16815260200190815260200160002060006101000a81548160ff0219169083151502179055507f1da28d127ec72d2dde6a533c98857664b25cd827680fb1f39f57394c2b444d918282604051610a40929190612959565b60405180910390a15050565b7f000000000000000000000000000000000000000000000000000000000000000081565b610a78611819565b600073ffffffffffffffffffffffffffffffffffffffff168173ffffffffffffffffffffffffffffffffffffffff1603610ae7576040517f08c379a0000000000000000000000000000000000000000000000000000000008152600401610ade906129df565b60405180910390fd5b80600160006101000a81548173ffffffffffffffffffffffffffffffffffffffff021916908373ffffffffffffffffffffffffffffffffffffffff1602179055507fceec08a75d1f3b12c14c6cdc16c081aec1c401c2eac1d8c6ea91e9d73b92921181604051610b579190612a20565b60405180910390a150565b600060036000836040016020810190610b7b919061255f565b73ffffffffffffffffffffffffffffffffffffffff1673ffffffffffffffffffffffffffffffffffffffff16815260200190815260200160002060009054906101000a900460ff16610c02576040517f08c379a0000000000000000000000000000000000000000000000000000000008152600401610bf990612a87565b60405180910390fd5b6000826020016020810190610c179190612aa7565b73ffffffffffffffffffffffffffffffffffffffff166301ffc9a77f780e9d63000000000000000000000000000000000000000000000000000000006040518263ffffffff1660e01b8152600401610c6f9190612b0f565b602060405180830381865afa925050508015610ca957506040513d601f19601f82011682018060405250810190610ca69190612b3f565b60015b610cd5577f00000000000000000000000000000000000000000000000000000000000000009050610d26565b80610d00577f0000000000000000000000000000000000000000000000000000000000000000610d22565b7f00000000000000000000000000000000000000000000000000000000000000005b9150505b610db130846040016020810190610d3d919061255f565b856020016020810190610d509190612aa7565b866080016020810190610d639190612b6c565b6002811115610d7557610d74612861565b5b876000016020810190610d889190612b99565b8673ffffffffffffffffffffffffffffffffffffffff166118979095949392919063ffffffff16565b9150610e4582846000016020810190610dca9190612b99565b856020016020810190610ddd9190612aa7565b866060016020810190610df0919061234d565b8760a0016020810190610e039190612bc6565b8860c0016020810190610e169190612bf3565b8960e0016020810190610e299190612bc6565b8a806101000190610e3a9190612c2f565b8c610120013561192b565b7ff5bdc103c3e68a20d5f97d2d46792d3fdddfa4efeb6761f8141e6a7b936ca66c82604051610e7491906124db565b60405180910390a150919050565b600160009054906101000a900473ffffffffffffffffffffffffffffffffffffffff1681565b610eb0611819565b8015610f4457600460008373ffffffffffffffffffffffffffffffffffffffff1673ffffffffffffffffffffffffffffffffffffffff16815260200190815260200160002060009054906101000a900460ff1615610f43576040517f08c379a0000000000000000000000000000000000000000000000000000000008152600401610f3a90612cde565b60405180910390fd5b5b6040518060400160405280821515815260200160011515815250600560008473ffffffffffffffffffffffffffffffffffffffff1673ffffffffffffffffffffffffffffffffffffffff16815260200190815260200160002060008201518160000160006101000a81548160ff02191690831515021790555060208201518160000160016101000a81548160ff0219169083151502179055509050507f24e274cfd23919da24a57044266685f5474338837aecdcca3136b2102f78fee58282604051611011929190612d1f565b60405180910390a15050565b611025611819565b61102f6000611a7f565b565b60008060009054906101000a900473ffffffffffffffffffffffffffffffffffffffff16905090565b611062611819565b67016345785d8a00008111156110ad576040517f08c379a00000000000000000000000000000000000000000000000000000000081526004016110a490612d94565b60405180910390fd5b806002819055507f7c5d30e0df5c540841a598b27bd89807223a2e6348125bb4aa74f1a8cb9ce768816040516110e391906120b8565b60405180910390a150565b7f000000000000000000000000000000000000000000000000000000000000000081565b60036020528060005260406000206000915054906101000a900460ff1681565b60056020528060005260406000206000915090508060000160009054906101000a900460ff16908060000160019054906101000a900460ff16905082565b7f000000000000000000000000000000000000000000000000000000000000000081565b61119c611819565b6111e747600160009054906101000a900473ffffffffffffffffffffffffffffffffffffffff1673ffffffffffffffffffffffffffffffffffffffff16611b4390919063ffffffff16565b565b6111f1611819565b61123e600160009054906101000a900473ffffffffffffffffffffffffffffffffffffffff16828473ffffffffffffffffffffffffffffffffffffffff16611b969092919063ffffffff16565b5050565b6000600360008a73ffffffffffffffffffffffffffffffffffffffff1673ffffffffffffffffffffffffffffffffffffffff16815260200190815260200160002060009054906101000a900460ff166112d0576040517f08c379a00000000000000000000000000000000000000000000000000000000081526004016112c790612a87565b60405180910390fd5b60008a73ffffffffffffffffffffffffffffffffffffffff166301ffc9a77f780e9d63000000000000000000000000000000000000000000000000000000006040518263ffffffff1660e01b815260040161132b9190612b0f565b602060405180830381865afa92505050801561136557506040513d601f19601f820116820180604052508101906113629190612b3f565b60015b611391577f000000000000000000000000000000000000000000000000000000000000000090506113e2565b806113bc577f00000000000000000000000000000000000000000000000000000000000000006113de565b7f00000000000000000000000000000000000000000000000000000000000000005b9150505b611423308b8d8b60028111156113fb576113fa612861565b5b8573ffffffffffffffffffffffffffffffffffffffff16611c3c90949392919063ffffffff16565b9150611435828c8b8a8a8a8a8a611cc6565b7ff5bdc103c3e68a20d5f97d2d46792d3fdddfa4efeb6761f8141e6a7b936ca66c8260405161146491906124db565b60405180910390a1509998505050505050505050565b611482611819565b801561151957600560008373ffffffffffffffffffffffffffffffffffffffff1673ffffffffffffffffffffffffffffffffffffffff16815260200190815260200160002060000160019054906101000a900460ff1615611518576040517f08c379a000000000000000000000000000000000000000000000000000000000815260040161150f90612cde565b60405180910390fd5b5b80600460008473ffffffffffffffffffffffffffffffffffffffff1673ffffffffffffffffffffffffffffffffffffffff16815260200190815260200160002060006101000a81548160ff0219169083151502179055507fab2e2e8d21d5efbffb30945e9b6ee1fb43620ef65a228f871f5028bf8a6e004a82826040516115a1929190612db4565b60405180910390a15050565b6115b5611819565b600073ffffffffffffffffffffffffffffffffffffffff168173ffffffffffffffffffffffffffffffffffffffff1603611624576040517f08c379a000000000000000000000000000000000000000000000000000000000815260040161161b90612e4f565b60405180910390fd5b61162d81611a7f565b50565b60006040517f3d3d3d3d363d3d37605160353639366051013d7300000000000000000000000081528360601b60148201527f5af43d3d93803e603357fd5bf30000000000000000000000000000000000000060288201528460601b6035820152604981016049600082863c6029810151602983015114602082015160208401511416815183511416925050509392505050565b60006040517f3d3d3d3d363d3d37603d6035363936603d013d7300000000000000000000000081528360601b60148201527f5af43d3d93803e603357fd5bf30000000000000000000000000000000000000060288201528460601b6035820152604981016049600082863c6029810151602983015114602082015160208401511416815183511416925050509392505050565b60006040517f23b872dd00000000000000000000000000000000000000000000000000000000815273ffffffffffffffffffffffffffffffffffffffff8516600482015273ffffffffffffffffffffffffffffffffffffffff8416602482015282604482015260008060648360008a5af19150506117d381611e14565b611812576040517f08c379a000000000000000000000000000000000000000000000000000000000815260040161180990612ebb565b60405180910390fd5b5050505050565b611821611e5d565b73ffffffffffffffffffffffffffffffffffffffff1661183f611031565b73ffffffffffffffffffffffffffffffffffffffff1614611895576040517f08c379a000000000000000000000000000000000000000000000000000000000815260040161188c90612f27565b60405180910390fd5b565b60006040517f60863d8160093d39f33d3d3d3d363d3d37605160353639366051013d7300000081528760601b601d8201527f5af43d3d93803e603357fd5bf30000000000000000000000000000000000000060318201528660601b603e8201528560601b60528201528460601b606682015283607a8201538260601b607b820152608f816000f09150509695505050505050565b8973ffffffffffffffffffffffffffffffffffffffff1663fd17aef933898989896040518663ffffffff1660e01b815260040161196c959493929190612f65565b600060405180830381600087803b15801561198657600080fd5b505af115801561199a573d6000803e3d6000fd5b505050506119cb338b838c73ffffffffffffffffffffffffffffffffffffffff16611756909392919063ffffffff16565b600083839050905060005b81811015611a71578973ffffffffffffffffffffffffffffffffffffffff166342842e0e338e888886818110611a0f57611a0e6128d2565b5b905060200201356040518463ffffffff1660e01b8152600401611a3493929190612901565b600060405180830381600087803b158015611a4e57600080fd5b505af1158015611a62573d6000803e3d6000fd5b505050508060010190506119d6565b505050505050505050505050565b60008060009054906101000a900473ffffffffffffffffffffffffffffffffffffffff169050816000806101000a81548173ffffffffffffffffffffffffffffffffffffffff021916908373ffffffffffffffffffffffffffffffffffffffff1602179055508173ffffffffffffffffffffffffffffffffffffffff168173ffffffffffffffffffffffffffffffffffffffff167f8be0079c531659141344cd1fd0a4f28419497f9722a3daafe3b4186f6b6457e060405160405180910390a35050565b600080600080600085875af1905080611b91576040517f08c379a0000000000000000000000000000000000000000000000000000000008152600401611b8890613004565b60405180910390fd5b505050565b60006040517fa9059cbb00000000000000000000000000000000000000000000000000000000815273ffffffffffffffffffffffffffffffffffffffff841660048201528260248201526000806044836000895af1915050611bf781611e14565b611c36576040517f08c379a0000000000000000000000000000000000000000000000000000000008152600401611c2d90613070565b60405180910390fd5b50505050565b60006040517f60723d8160093d39f33d3d3d3d363d3d37603d6035363936603d013d7300000081528660601b601d8201527f5af43d3d93803e603357fd5bf30000000000000000000000000000000000000060318201528560601b603e8201528460601b60528201528360601b606682015282607a820153607b816000f091505095945050505050565b8773ffffffffffffffffffffffffffffffffffffffff1663fd17aef933888888886040518663ffffffff1660e01b8152600401611d07959493929190612f65565b600060405180830381600087803b158015611d2157600080fd5b505af1158015611d35573d6000803e3d6000fd5b50505050611d62348973ffffffffffffffffffffffffffffffffffffffff16611b4390919063ffffffff16565b600082829050905060005b81811015611e08578873ffffffffffffffffffffffffffffffffffffffff166342842e0e338c878786818110611da657611da56128d2565b5b905060200201356040518463ffffffff1660e01b8152600401611dcb93929190612901565b600060405180830381600087803b158015611de557600080fd5b505af1158015611df9573d6000803e3d6000fd5b50505050806001019050611d6d565b50505050505050505050565b60003d82611e2657806000803e806000fd5b8060208114611e405760008114611e515760009250611e56565b816000803e60005115159250611e56565b600192505b5050919050565b600033905090565b600073ffffffffffffffffffffffffffffffffffffffff82169050919050565b6000819050919050565b6000611eaa611ea5611ea084611e65565b611e85565b611e65565b9050919050565b6000611ebc82611e8f565b9050919050565b6000611ece82611eb1565b9050919050565b611ede81611ec3565b82525050565b6000602082019050611ef96000830184611ed5565b92915050565b600080fd5b600080fd5b6000611f1482611e65565b9050919050565b611f2481611f09565b8114611f2f57600080fd5b50565b600081359050611f4181611f1b565b92915050565b60048110611f5457600080fd5b50565b600081359050611f6681611f47565b92915050565b60008060408385031215611f8357611f82611eff565b5b6000611f9185828601611f32565b9250506020611fa285828601611f57565b9150509250929050565b60008115159050919050565b611fc181611fac565b82525050565b6000602082019050611fdc6000830184611fb8565b92915050565b6000611fed82611f09565b9050919050565b611ffd81611fe2565b811461200857600080fd5b50565b60008135905061201a81611ff4565b92915050565b6000819050919050565b61203381612020565b811461203e57600080fd5b50565b6000813590506120508161202a565b92915050565b60008060006060848603121561206f5761206e611eff565b5b600061207d8682870161200b565b935050602061208e86828701611f32565b925050604061209f86828701612041565b9150509250925092565b6120b281612020565b82525050565b60006020820190506120cd60008301846120a9565b92915050565b6000602082840312156120e9576120e8611eff565b5b60006120f784828501611f32565b91505092915050565b600061210b82611f09565b9050919050565b61211b81612100565b811461212657600080fd5b50565b60008135905061213881612112565b92915050565b600080fd5b600080fd5b600080fd5b60008083601f8401126121635761216261213e565b5b8235905067ffffffffffffffff8111156121805761217f612143565b5b60208301915083602082028301111561219c5761219b612148565b5b9250929050565b600080600080606085870312156121bd576121bc611eff565b5b60006121cb87828801612129565b945050602085013567ffffffffffffffff8111156121ec576121eb611f04565b5b6121f88782880161214d565b9350935050604061220b87828801611f32565b91505092959194509250565b600061222282611f09565b9050919050565b61223281612217565b811461223d57600080fd5b50565b60008135905061224f81612229565b92915050565b61225e81611fac565b811461226957600080fd5b50565b60008135905061227b81612255565b92915050565b6000806040838503121561229857612297611eff565b5b60006122a685828601612240565b92505060206122b78582860161226c565b9150509250929050565b60006122cc82611e8f565b9050919050565b60006122de826122c1565b9050919050565b6122ee816122d3565b82525050565b600060208201905061230960008301846122e5565b92915050565b600061231a82611e65565b9050919050565b61232a8161230f565b811461233557600080fd5b50565b60008135905061234781612321565b92915050565b60006020828403121561236357612362611eff565b5b600061237184828501612338565b91505092915050565b600080fd5b600061014082840312156123965761239561237a565b5b81905092915050565b6000602082840312156123b5576123b4611eff565b5b600082013567ffffffffffffffff8111156123d3576123d2611f04565b5b6123df8482850161237f565b91505092915050565b60006123f3826122c1565b9050919050565b612403816123e8565b82525050565b600060208201905061241e60008301846123fa565b92915050565b61242d8161230f565b82525050565b60006020820190506124486000830184612424565b92915050565b60006124598261230f565b9050919050565b6124698161244e565b811461247457600080fd5b50565b60008135905061248681612460565b92915050565b600080604083850312156124a3576124a2611eff565b5b60006124b185828601612477565b92505060206124c28582860161226c565b9150509250929050565b6124d581611f09565b82525050565b60006020820190506124f060008301846124cc565b92915050565b60006020828403121561250c5761250b611eff565b5b600061251a84828501612041565b91505092915050565b600061252e826122c1565b9050919050565b61253e81612523565b82525050565b60006020820190506125596000830184612535565b92915050565b60006020828403121561257557612574611eff565b5b600061258384828501612240565b91505092915050565b6000602082840312156125a2576125a1611eff565b5b60006125b084828501612477565b91505092915050565b60006040820190506125ce6000830185611fb8565b6125db6020830184611fb8565b9392505050565b60006125ed82611eb1565b9050919050565b6125fd816125e2565b82525050565b600060208201905061261860008301846125f4565b92915050565b6000806040838503121561263557612634611eff565b5b60006126438582860161200b565b925050602061265485828601612041565b9150509250929050565b6003811061266b57600080fd5b50565b60008135905061267d8161265e565b92915050565b60006fffffffffffffffffffffffffffffffff82169050919050565b6126a881612683565b81146126b357600080fd5b50565b6000813590506126c58161269f565b92915050565b60006bffffffffffffffffffffffff82169050919050565b6126ec816126cb565b81146126f757600080fd5b50565b600081359050612709816126e3565b92915050565b60008060008060008060008060006101008a8c03121561273257612731611eff565b5b60006127408c828d01612129565b99505060206127518c828d01612240565b98505060406127628c828d01612338565b97505060606127738c828d0161266e565b96505060806127848c828d016126b6565b95505060a06127958c828d016126fa565b94505060c06127a68c828d016126b6565b93505060e08a013567ffffffffffffffff8111156127c7576127c6611f04565b5b6127d38c828d0161214d565b92509250509295985092959850929598565b60006127f082611eb1565b9050919050565b612800816127e5565b82525050565b600060208201905061281b60008301846127f7565b92915050565b6000806040838503121561283857612837611eff565b5b600061284685828601612338565b92505060206128578582860161226c565b9150509250929050565b7f4e487b7100000000000000000000000000000000000000000000000000000000600052602160045260246000fd5b60008151905061289f81611ff4565b92915050565b6000602082840312156128bb576128ba611eff565b5b60006128c984828501612890565b91505092915050565b7f4e487b7100000000000000000000000000000000000000000000000000000000600052603260045260246000fd5b600060608201905061291660008301866124cc565b61292360208301856124cc565b61293060408301846120a9565b949350505050565b6000612943826122c1565b9050919050565b61295381612938565b82525050565b600060408201905061296e600083018561294a565b61297b6020830184611fb8565b9392505050565b600082825260208201905092915050565b7f3020616464726573730000000000000000000000000000000000000000000000600082015250565b60006129c9600983612982565b91506129d482612993565b602082019050919050565b600060208201905081810360008301526129f8816129bc565b9050919050565b6000612a0a826122c1565b9050919050565b612a1a816129ff565b82525050565b6000602082019050612a356000830184612a11565b92915050565b7f426f6e64696e67206375727665206e6f742077686974656c6973746564000000600082015250565b6000612a71601d83612982565b9150612a7c82612a3b565b602082019050919050565b60006020820190508181036000830152612aa081612a64565b9050919050565b600060208284031215612abd57612abc611eff565b5b6000612acb84828501612129565b91505092915050565b60007fffffffff0000000000000000000000000000000000000000000000000000000082169050919050565b612b0981612ad4565b82525050565b6000602082019050612b246000830184612b00565b92915050565b600081519050612b3981612255565b92915050565b600060208284031215612b5557612b54611eff565b5b6000612b6384828501612b2a565b91505092915050565b600060208284031215612b8257612b81611eff565b5b6000612b908482850161266e565b91505092915050565b600060208284031215612baf57612bae611eff565b5b6000612bbd8482850161200b565b91505092915050565b600060208284031215612bdc57612bdb611eff565b5b6000612bea848285016126b6565b91505092915050565b600060208284031215612c0957612c08611eff565b5b6000612c17848285016126fa565b91505092915050565b600080fd5b600080fd5b600080fd5b60008083356001602003843603038112612c4c57612c4b612c20565b5b80840192508235915067ffffffffffffffff821115612c6e57612c6d612c25565b5b602083019250602082023603831315612c8a57612c89612c2a565b5b509250929050565b7f43616e27742063616c6c20726f75746572000000000000000000000000000000600082015250565b6000612cc8601183612982565b9150612cd382612c92565b602082019050919050565b60006020820190508181036000830152612cf781612cbb565b9050919050565b6000612d0982611eb1565b9050919050565b612d1981612cfe565b82525050565b6000604082019050612d346000830185612d10565b612d416020830184611fb8565b9392505050565b7f46656520746f6f206c6172676500000000000000000000000000000000000000600082015250565b6000612d7e600d83612982565b9150612d8982612d48565b602082019050919050565b60006020820190508181036000830152612dad81612d71565b9050919050565b6000604082019050612dc96000830185612a11565b612dd66020830184611fb8565b9392505050565b7f4f776e61626c653a206e6577206f776e657220697320746865207a65726f206160008201527f6464726573730000000000000000000000000000000000000000000000000000602082015250565b6000612e39602683612982565b9150612e4482612ddd565b604082019050919050565b60006020820190508181036000830152612e6881612e2c565b9050919050565b7f5452414e534645525f46524f4d5f4641494c4544000000000000000000000000600082015250565b6000612ea5601483612982565b9150612eb082612e6f565b602082019050919050565b60006020820190508181036000830152612ed481612e98565b9050919050565b7f4f776e61626c653a2063616c6c6572206973206e6f7420746865206f776e6572600082015250565b6000612f11602083612982565b9150612f1c82612edb565b602082019050919050565b60006020820190508181036000830152612f4081612f04565b9050919050565b612f5081612683565b82525050565b612f5f816126cb565b82525050565b600060a082019050612f7a60008301886124cc565b612f876020830187612424565b612f946040830186612f47565b612fa16060830185612f56565b612fae6080830184612f47565b9695505050505050565b7f4554485f5452414e534645525f4641494c454400000000000000000000000000600082015250565b6000612fee601383612982565b9150612ff982612fb8565b602082019050919050565b6000602082019050818103600083015261301d81612fe1565b9050919050565b7f5452414e534645525f4641494c45440000000000000000000000000000000000600082015250565b600061305a600f83612982565b915061306582613024565b602082019050919050565b600060208201905081810360008301526130898161304d565b905091905056fea264697066735822122024a0c5afa77243b4f504b5882e1b1d934ea0031426eab25eb7e1761c8048d85f64736f6c63430008100033",
  "immutableReferences": {
    "4157": [
      {
        "length": 32,
        "start": 1691
      },
      {
        "length": 32,
        "start": 4466
      },
      {
        "length": 32,
        "start": 5054
      }
    ],
    "4160": [
      {
        "length": 32,
        "start": 1418
      },
      {
        "length": 32,
        "start": 1785
      },
      {
        "length": 32,
        "start": 4971
      },
      {
        "length": 32,
        "start": 5016
      }
    ],
    "4163": [
      {
        "length": 32,
        "start": 1504
      },
      {
        "length": 32,
        "start": 3330
      },
      {
        "length": 32,
        "start": 4336
      }
    ],
    "4166": [
      {
        "length": 32,
        "start": 1597
      },
      {
        "length": 32,
        "start": 2638
      },
      {
        "length": 32,
        "start": 3247
      },
      {
        "length": 32,
        "start": 3292
      }
    ]
  },
  "source": "// SPDX-License-Identifier: AGPL-3.0\npragma solidity ^0.8.0;\n\nimport {Ownable} from \"@openzeppelin/contracts/access/Ownable.sol\";\nimport {IERC721} from \"@openzeppelin/contracts/token/ERC721/IERC721.sol\";\nimport {ERC165Checker} from \"@openzeppelin/contracts/utils/introspection/ERC165Checker.sol\";\nimport {IERC165} from \"@openzeppelin/contracts/utils/introspection/IERC165.sol\";\nimport {IERC721Enumerable} from \"@openzeppelin/contracts/token/ERC721/extensions/IERC721Enumerable.sol\";\n\n// @dev Solmate's ERC20 is used instead of OZ's ERC20 so we can use safeTransferLib for cheaper safeTransfers for\n// ETH and ERC20 tokens\nimport {ERC20} from \"./tokens/ERC20.sol\";\nimport {SafeTransferLib} from \"./utils/SafeTransferLib.sol\";\n\nimport {LSSVMPair} from \"./LSSVMPair.sol\";\nimport {LSSVMRouter} from \"./LSSVMRouter.sol\";\nimport {LSSVMPairETH} from \"./LSSVMPairETH.sol\";\nimport {ICurve} from \"./bonding-curves/ICurve.sol\";\nimport {LSSVMPairERC20} from \"./LSSVMPairERC20.sol\";\nimport {LSSVMPairCloner} from \"./lib/LSSVMPairCloner.sol\";\nimport {ILSSVMPairFactoryLike} from \"./ILSSVMPairFactoryLike.sol\";\nimport {LSSVMPairEnumerableETH} from \"./LSSVMPairEnumerableETH.sol\";\nimport {LSSVMPairEnumerableERC20} from \"./LSSVMPairEnumerableERC20.sol\";\nimport {LSSVMPairMissingEnumerableETH} from \"./LSSVMPairMissingEnumerableETH.sol\";\nimport {LSSVMPairMissingEnumerableERC20} from \"./LSSVMPairMissingEnumerableERC20.sol\";\n\ncontract LSSVMPairFactory is Ownable, ILSSVMPairFactoryLike {\n    using LSSVMPairCloner for address;\n    using SafeTransferLib for address payable;\n    using SafeTransferLib for ERC20;\n\n    bytes4 private constant INTERFACE_ID_ERC721_ENUMERABLE =\n        type(IERC721Enumerable).interfaceId;\n\n    uint256 internal constant MAX_PROTOCOL_FEE = 0.10e18; // 10%, must <= 1 - MAX_FEE\n\n    LSSVMPairEnumerableETH public immutable enumerableETHTemplate;\n    LSSVMPairMissingEnumerableETH public immutable missingEnumerableETHTemplate;\n    LSSVMPairEnumerableERC20 public immutable enumerableERC20Template;\n    LSSVMPairMissingEnumerableERC20\n        public immutable missingEnumerableERC20Template;\n    address payable public override protocolFeeRecipient;\n\n    // Units are in base 1e18\n    uint256 public override protocolFeeMultiplier;\n\n    mapping(ICurve => bool) public bondingCurveAllowed;\n    mapping(address => bool) public override callAllowed;\n    struct RouterStatus {\n        bool allowed;\n        bool wasEverAllowed;\n    }\n    mapping(LSSVMRouter => RouterStatus) public override routerStatus;\n\n    event NewPair(address poolAddress);\n    event TokenDeposit(address poolAddress);\n    event NFTDeposit(address poolAddress);\n    event ProtocolFeeRecipientUpdate(address recipientAddress);\n    event ProtocolFeeMultiplierUpdate(uint256 newMultiplier);\n    event BondingCurveStatusUpdate(ICurve bondingCurve, bool isAllowed);\n    event CallTargetStatusUpdate(address target, bool isAllowed);\n    event RouterStatusUpdate(LSSVMRouter router, bool isAllowed);\n\n    constructor(\n        LSSVMPairEnumerableETH _enumerableETHTemplate,\n        LSSVMPairMissingEnumerableETH _missingEnumerableETHTemplate,\n        LSSVMPairEnumerableERC20 _enumerableERC20Template,\n        LSSVMPairMissingEnumerableERC20 _missingEnumerableERC20Template,\n        address payable _protocolFeeRecipient,\n        uint256 _protocolFeeMultiplier\n    ) {\n        enumerableETHTemplate = _enumerableETHTemplate;\n        missingEnumerableETHTemplate = _missingEnumerableETHTemplate;\n        enumerableERC20Template = _enumerableERC20Template;\n        missingEnumerableERC20Template = _missingEnumerableERC20Template;\n        protocolFeeRecipient = _protocolFeeRecipient;\n\n        require(_protocolFeeMultiplier <= MAX_PROTOCOL_FEE, \"Fee too large\");\n        protocolFeeMultiplier = _protocolFeeMultiplier;\n    }\n\n    /**\n     * External functions\n     */\n\n    /**\n        @notice Creates a pair contract using EIP-1167.\n        @param _nft The NFT contract of the collection the pair trades\n        @param _bondingCurve The bonding curve for the pair to price NFTs, must be whitelisted\n        @param _assetRecipient The address that will receive the assets traders give during trades.\n                              If set to address(0), assets will be sent to the pool address.\n                              Not available to TRADE pools.\n        @param _poolType TOKEN, NFT, or TRADE\n        @param _delta The delta value used by the bonding curve. The meaning of delta depends\n        on the specific curve.\n        @param _fee The fee taken by the LP in each trade. Can only be non-zero if _poolType is Trade.\n        @param _spotPrice The initial selling spot price\n        @param _initialNFTIDs The list of IDs of NFTs to transfer from the sender to the pair\n        @return pair The new pair\n     */\n    function createPairETH(\n        IERC721 _nft,\n        ICurve _bondingCurve,\n        address payable _assetRecipient,\n        LSSVMPair.PoolType _poolType,\n        uint128 _delta,\n        uint96 _fee,\n        uint128 _spotPrice,\n        uint256[] calldata _initialNFTIDs\n    ) external payable returns (LSSVMPairETH pair) {\n        require(\n            bondingCurveAllowed[_bondingCurve],\n            \"Bonding curve not whitelisted\"\n        );\n\n        // Check to see if the NFT supports Enumerable to determine which template to use\n        address template;\n        try IERC165(address(_nft)).supportsInterface(INTERFACE_ID_ERC721_ENUMERABLE) returns (bool isEnumerable) {\n          template = isEnumerable ? address(enumerableETHTemplate)\n            : address(missingEnumerableETHTemplate);\n        } catch {\n          template = address(missingEnumerableETHTemplate);\n        }\n\n        pair = LSSVMPairETH(\n            payable(\n                template.cloneETHPair(\n                    this,\n                    _bondingCurve,\n                    _nft,\n                    uint8(_poolType)\n                )\n            )\n        );\n\n        _initializePairETH(\n            pair,\n            _nft,\n            _assetRecipient,\n            _delta,\n            _fee,\n            _spotPrice,\n            _initialNFTIDs\n        );\n        emit NewPair(address(pair));\n    }\n\n    /**\n        @notice Creates a pair contract using EIP-1167.\n        @param _nft The NFT contract of the collection the pair trades\n        @param _bondingCurve The bonding curve for the pair to price NFTs, must be whitelisted\n        @param _assetRecipient The address that will receive the assets traders give during trades.\n                                If set to address(0), assets will be sent to the pool address.\n                                Not available to TRADE pools.\n        @param _poolType TOKEN, NFT, or TRADE\n        @param _delta The delta value used by the bonding curve. The meaning of delta depends\n        on the specific curve.\n        @param _fee The fee taken by the LP in each trade. Can only be non-zero if _poolType is Trade.\n        @param _spotPrice The initial selling spot price, in ETH\n        @param _initialNFTIDs The list of IDs of NFTs to transfer from the sender to the pair\n        @param _initialTokenBalance The initial token balance sent from the sender to the new pair\n        @return pair The new pair\n     */\n    struct CreateERC20PairParams {\n        ERC20 token;\n        IERC721 nft;\n        ICurve bondingCurve;\n        address payable assetRecipient;\n        LSSVMPair.PoolType poolType;\n        uint128 delta;\n        uint96 fee;\n        uint128 spotPrice;\n        uint256[] initialNFTIDs;\n        uint256 initialTokenBalance;\n    }\n\n    function createPairERC20(CreateERC20PairParams calldata params)\n        external\n        returns (LSSVMPairERC20 pair)\n    {\n        require(\n            bondingCurveAllowed[params.bondingCurve],\n            \"Bonding curve not whitelisted\"\n        );\n\n        // Check to see if the NFT supports Enumerable to determine which template to use\n        address template;\n        try IERC165(address(params.nft)).supportsInterface(INTERFACE_ID_ERC721_ENUMERABLE) returns (bool isEnumerable) {\n          template = isEnumerable ? address(enumerableERC20Template)\n            : address(missingEnumerableERC20Template);\n        } catch {\n          template = address(missingEnumerableERC20Template);\n        }\n\n        pair = LSSVMPairERC20(\n            payable(\n                template.cloneERC20Pair(\n                    this,\n                    params.bondingCurve,\n                    params.nft,\n                    uint8(params.poolType),\n                    params.token\n                )\n            )\n        );\n\n        _initializePairERC20(\n            pair,\n            params.token,\n            params.nft,\n            params.assetRecipient,\n            params.delta,\n            params.fee,\n            params.spotPrice,\n            params.initialNFTIDs,\n            params.initialTokenBalance\n        );\n        emit NewPair(address(pair));\n    }\n\n    /**\n        @notice Checks if an address is a LSSVMPair. Uses the fact that the pairs are EIP-1167 minimal proxies.\n        @param potentialPair The address to check\n        @param variant The pair variant (NFT is enumerable or not, pair uses ETH or ERC20)\n        @return True if the address is the specified pair variant, false otherwise\n     */\n    function isPair(address potentialPair, PairVariant variant)\n        public\n        view\n        override\n        returns (bool)\n    {\n        if (variant == PairVariant.ENUMERABLE_ERC20) {\n            return\n                LSSVMPairCloner.isERC20PairClone(\n                    address(this),\n                    address(enumerableERC20Template),\n                    potentialPair\n                );\n        } else if (variant == PairVariant.MISSING_ENUMERABLE_ERC20) {\n            return\n                LSSVMPairCloner.isERC20PairClone(\n                    address(this),\n                    address(missingEnumerableERC20Template),\n                    potentialPair\n                );\n        } else if (variant == PairVariant.ENUMERABLE_ETH) {\n            return\n                LSSVMPairCloner.isETHPairClone(\n                    address(this),\n                    address(enumerableETHTemplate),\n                    potentialPair\n                );\n        } else if (variant == PairVariant.MISSING_ENUMERABLE_ETH) {\n            return\n                LSSVMPairCloner.isETHPairClone(\n                    address(this),\n                    address(missingEnumerableETHTemplate),\n                    potentialPair\n                );\n        } else {\n            // invalid input\n            return false;\n        }\n    }\n\n    /**\n        @notice Allows receiving ETH in order to receive protocol fees\n     */\n    receive() external payable {}\n\n    /**\n     * Admin functions\n     */\n\n    /**\n        @notice Withdraws the ETH balance to the protocol fee recipient.\n        Only callable by the owner.\n     */\n    function withdrawETHProtocolFees() external onlyOwner {\n        protocolFeeRecipient.safeTransferETH(address(this).balance);\n    }\n\n    /**\n        @notice Withdraws ERC20 tokens to the protocol fee recipient. Only callable by the owner.\n        @param token The token to transfer\n        @param amount The amount of tokens to transfer\n     */\n    function withdrawERC20ProtocolFees(ERC20 token, uint256 amount)\n        external\n        onlyOwner\n    {\n        token.safeTransfer(protocolFeeRecipient, amount);\n    }\n\n    /**\n        @notice Changes the protocol fee recipient address. Only callable by the owner.\n        @param _protocolFeeRecipient The new fee recipient\n     */\n    function changeProtocolFeeRecipient(address payable _protocolFeeRecipient)\n        external\n        onlyOwner\n    {\n        require(_protocolFeeRecipient != address(0), \"0 address\");\n        protocolFeeRecipient = _protocolFeeRecipient;\n        emit ProtocolFeeRecipientUpdate(_protocolFeeRecipient);\n    }\n\n    /**\n        @notice Changes the protocol fee multiplier. Only callable by the owner.\n        @param _protocolFeeMultiplier The new fee multiplier, 18 decimals\n     */\n    function changeProtocolFeeMultiplier(uint256 _protocolFeeMultiplier)\n        external\n        onlyOwner\n    {\n        require(_protocolFeeMultiplier <= MAX_PROTOCOL_FEE, \"Fee too large\");\n        protocolFeeMultiplier = _protocolFeeMultiplier;\n        emit ProtocolFeeMultiplierUpdate(_protocolFeeMultiplier);\n    }\n\n    /**\n        @notice Sets the whitelist status of a bonding curve contract. Only callable by the owner.\n        @param bondingCurve The bonding curve contract\n        @param isAllowed True to whitelist, false to remove from whitelist\n     */\n    function setBondingCurveAllowed(ICurve bondingCurve, bool isAllowed)\n        external\n        onlyOwner\n    {\n        bondingCurveAllowed[bondingCurve] = isAllowed;\n        emit BondingCurveStatusUpdate(bondingCurve, isAllowed);\n    }\n\n    /**\n        @notice Sets the whitelist status of a contract to be called arbitrarily by a pair.\n        Only callable by the owner.\n        @param target The target contract\n        @param isAllowed True to whitelist, false to remove from whitelist\n     */\n    function setCallAllowed(address payable target, bool isAllowed)\n        external\n        onlyOwner\n    {\n        // ensure target is not / was not ever a router\n        if (isAllowed) {\n            require(\n                !routerStatus[LSSVMRouter(target)].wasEverAllowed,\n                \"Can't call router\"\n            );\n        }\n\n        callAllowed[target] = isAllowed;\n        emit CallTargetStatusUpdate(target, isAllowed);\n    }\n\n    /**\n        @notice Updates the router whitelist. Only callable by the owner.\n        @param _router The router\n        @param isAllowed True to whitelist, false to remove from whitelist\n     */\n    function setRouterAllowed(LSSVMRouter _router, bool isAllowed)\n        external\n        onlyOwner\n    {\n        // ensure target is not arbitrarily callable by pairs\n        if (isAllowed) {\n            require(!callAllowed[address(_router)], \"Can't call router\");\n        }\n        routerStatus[_router] = RouterStatus({\n            allowed: isAllowed,\n            wasEverAllowed: true\n        });\n\n        emit RouterStatusUpdate(_router, isAllowed);\n    }\n\n    /**\n     * Internal functions\n     */\n\n    function _initializePairETH(\n        LSSVMPairETH _pair,\n        IERC721 _nft,\n        address payable _assetRecipient,\n        uint128 _delta,\n        uint96 _fee,\n        uint128 _spotPrice,\n        uint256[] calldata _initialNFTIDs\n    ) internal {\n        // initialize pair\n        _pair.initialize(msg.sender, _assetRecipient, _delta, _fee, _spotPrice);\n\n        // transfer initial ETH to pair\n        payable(address(_pair)).safeTransferETH(msg.value);\n\n        // transfer initial NFTs from sender to pair\n        uint256 numNFTs = _initialNFTIDs.length;\n        for (uint256 i; i < numNFTs; ) {\n            _nft.safeTransferFrom(\n                msg.sender,\n                address(_pair),\n                _initialNFTIDs[i]\n            );\n\n            unchecked {\n                ++i;\n            }\n        }\n    }\n\n    function _initializePairERC20(\n        LSSVMPairERC20 _pair,\n        ERC20 _token,\n        IERC721 _nft,\n        address payable _assetRecipient,\n        uint128 _delta,\n        uint96 _fee,\n        uint128 _spotPrice,\n        uint256[] calldata _initialNFTIDs,\n        uint256 _initialTokenBalance\n    ) internal {\n        // initialize pair\n        _pair.initialize(msg.sender, _assetRecipient, _delta, _fee, _spotPrice);\n\n        // transfer initial tokens to pair\n        _token.safeTransferFrom(\n            msg.sender,\n            address(_pair),\n            _initialTokenBalance\n        );\n\n        // transfer initial NFTs from sender to pair\n        uint256 numNFTs = _initialNFTIDs.length;\n        for (uint256 i; i < numNFTs; ) {\n            _nft.safeTransferFrom(\n                msg.sender,\n                address(_pair),\n                _initialNFTIDs[i]\n            );\n\n            unchecked {\n                ++i;\n            }\n        }\n    }\n\n    /**\n      @dev Used to deposit NFTs into a pair after creation and emit an event for indexing (if recipient is indeed a pair)\n    */\n    function depositNFTs(\n        IERC721 _nft,\n        uint256[] calldata ids,\n        address recipient\n    ) external {\n        // transfer NFTs from caller to recipient\n        uint256 numNFTs = ids.length;\n        for (uint256 i; i < numNFTs; ) {\n            _nft.safeTransferFrom(msg.sender, recipient, ids[i]);\n\n            unchecked {\n                ++i;\n            }\n        }\n        if (\n            isPair(recipient, PairVariant.ENUMERABLE_ERC20) ||\n            isPair(recipient, PairVariant.ENUMERABLE_ETH) ||\n            isPair(recipient, PairVariant.MISSING_ENUMERABLE_ERC20) ||\n            isPair(recipient, PairVariant.MISSING_ENUMERABLE_ETH)\n        ) {\n            emit NFTDeposit(recipient);\n        }\n    }\n\n    /**\n      @dev Used to deposit ERC20s into a pair after creation and emit an event for indexing (if recipient is indeed an ERC20 pair and the token matches)\n     */\n    function depositERC20(\n        ERC20 token,\n        address recipient,\n        uint256 amount\n    ) external {\n        token.safeTransferFrom(msg.sender, recipient, amount);\n        if (\n            isPair(recipient, PairVariant.ENUMERABLE_ERC20) ||\n            isPair(recipient, PairVariant.MISSING_ENUMERABLE_ERC20)\n        ) {\n            if (token == LSSVMPairERC20(recipient).token()) {\n                emit TokenDeposit(recipient);\n            }\n        }\n    }\n}\n",
  "sourcePath": "/Users/brett/workSpace/NFTSea/nftsea-contract/contracts/LSSVMPairFactory.sol",
  "compiler": {
    "name": "solc",
    "version": "0.8.16+commit.07a7930e.Emscripten.clang"
  },
  "schemaVersion": "3.4.9",
  "updatedAt": "2022-09-03T12:01:49.518Z",
  "devdoc": {
    "kind": "dev",
    "methods": {
      "changeProtocolFeeMultiplier(uint256)": {
        "params": {
          "_protocolFeeMultiplier": "The new fee multiplier, 18 decimals"
        }
      },
      "changeProtocolFeeRecipient(address)": {
        "params": {
          "_protocolFeeRecipient": "The new fee recipient"
        }
      },
      "createPairETH(address,address,address,uint8,uint128,uint96,uint128,uint256[])": {
        "params": {
          "_assetRecipient": "The address that will receive the assets traders give during trades. If set to address(0), assets will be sent to the pool address. Not available to TRADE pools.",
          "_bondingCurve": "The bonding curve for the pair to price NFTs, must be whitelisted",
          "_delta": "The delta value used by the bonding curve. The meaning of delta depends on the specific curve.",
          "_fee": "The fee taken by the LP in each trade. Can only be non-zero if _poolType is Trade.",
          "_initialNFTIDs": "The list of IDs of NFTs to transfer from the sender to the pair",
          "_nft": "The NFT contract of the collection the pair trades",
          "_poolType": "TOKEN, NFT, or TRADE",
          "_spotPrice": "The initial selling spot price"
        },
        "returns": {
          "pair": "The new pair"
        }
      },
      "depositERC20(address,address,uint256)": {
        "details": "Used to deposit ERC20s into a pair after creation and emit an event for indexing (if recipient is indeed an ERC20 pair and the token matches)"
      },
      "depositNFTs(address,uint256[],address)": {
        "details": "Used to deposit NFTs into a pair after creation and emit an event for indexing (if recipient is indeed a pair)"
      },
      "isPair(address,uint8)": {
        "params": {
          "potentialPair": "The address to check",
          "variant": "The pair variant (NFT is enumerable or not, pair uses ETH or ERC20)"
        },
        "returns": {
          "_0": "True if the address is the specified pair variant, false otherwise"
        }
      },
      "owner()": {
        "details": "Returns the address of the current owner."
      },
      "renounceOwnership()": {
        "details": "Leaves the contract without owner. It will not be possible to call `onlyOwner` functions anymore. Can only be called by the current owner. NOTE: Renouncing ownership will leave the contract without an owner, thereby removing any functionality that is only available to the owner."
      },
      "setBondingCurveAllowed(address,bool)": {
        "params": {
          "bondingCurve": "The bonding curve contract",
          "isAllowed": "True to whitelist, false to remove from whitelist"
        }
      },
      "setCallAllowed(address,bool)": {
        "params": {
          "isAllowed": "True to whitelist, false to remove from whitelist",
          "target": "The target contract"
        }
      },
      "setRouterAllowed(address,bool)": {
        "params": {
          "_router": "The router",
          "isAllowed": "True to whitelist, false to remove from whitelist"
        }
      },
      "transferOwnership(address)": {
        "details": "Transfers ownership of the contract to a new account (`newOwner`). Can only be called by the current owner."
      },
      "withdrawERC20ProtocolFees(address,uint256)": {
        "params": {
          "amount": "The amount of tokens to transfer",
          "token": "The token to transfer"
        }
      }
    },
    "version": 1
  },
  "userdoc": {
    "kind": "user",
    "methods": {
      "changeProtocolFeeMultiplier(uint256)": {
        "notice": "Changes the protocol fee multiplier. Only callable by the owner."
      },
      "changeProtocolFeeRecipient(address)": {
        "notice": "Changes the protocol fee recipient address. Only callable by the owner."
      },
      "createPairETH(address,address,address,uint8,uint128,uint96,uint128,uint256[])": {
        "notice": "Creates a pair contract using EIP-1167."
      },
      "isPair(address,uint8)": {
        "notice": "Checks if an address is a LSSVMPair. Uses the fact that the pairs are EIP-1167 minimal proxies."
      },
      "setBondingCurveAllowed(address,bool)": {
        "notice": "Sets the whitelist status of a bonding curve contract. Only callable by the owner."
      },
      "setCallAllowed(address,bool)": {
        "notice": "Sets the whitelist status of a contract to be called arbitrarily by a pair. Only callable by the owner."
      },
      "setRouterAllowed(address,bool)": {
        "notice": "Updates the router whitelist. Only callable by the owner."
      },
      "withdrawERC20ProtocolFees(address,uint256)": {
        "notice": "Withdraws ERC20 tokens to the protocol fee recipient. Only callable by the owner."
      },
      "withdrawETHProtocolFees()": {
        "notice": "Withdraws the ETH balance to the protocol fee recipient. Only callable by the owner."
      }
    },
    "version": 1
  }
}