{
  "contractName": "LSSVMPairMissingEnumerableETH",
  "abi": [
    {
      "inputs": [
        {
          "internalType": "enum CurveErrorCodes.Error",
          "name": "error",
          "type": "uint8"
        }
      ],
      "name": "BondingCurveError",
      "type": "error"
    },
    {
      "inputs": [],
      "name": "Ownable_NewOwnerZeroAddress",
      "type": "error"
    },
    {
      "inputs": [],
      "name": "Ownable_NotOwner",
      "type": "error"
    },
    {
      "anonymous": false,
      "inputs": [
        {
          "indexed": false,
          "internalType": "address",
          "name": "a",
          "type": "address"
        }
      ],
      "name": "AssetRecipientChange",
      "type": "event"
    },
    {
      "anonymous": false,
      "inputs": [
        {
          "indexed": false,
          "internalType": "uint128",
          "name": "newDelta",
          "type": "uint128"
        }
      ],
      "name": "DeltaUpdate",
      "type": "event"
    },
    {
      "anonymous": false,
      "inputs": [
        {
          "indexed": false,
          "internalType": "uint96",
          "name": "newFee",
          "type": "uint96"
        }
      ],
      "name": "FeeUpdate",
      "type": "event"
    },
    {
      "anonymous": false,
      "inputs": [],
      "name": "NFTWithdrawal",
      "type": "event"
    },
    {
      "anonymous": false,
      "inputs": [
        {
          "indexed": true,
          "internalType": "address",
          "name": "newOwner",
          "type": "address"
        }
      ],
      "name": "OwnershipTransferred",
      "type": "event"
    },
    {
      "anonymous": false,
      "inputs": [
        {
          "indexed": false,
          "internalType": "uint128",
          "name": "newSpotPrice",
          "type": "uint128"
        }
      ],
      "name": "SpotPriceUpdate",
      "type": "event"
    },
    {
      "anonymous": false,
      "inputs": [],
      "name": "SwapNFTInPair",
      "type": "event"
    },
    {
      "anonymous": false,
      "inputs": [],
      "name": "SwapNFTOutPair",
      "type": "event"
    },
    {
      "anonymous": false,
      "inputs": [
        {
          "indexed": false,
          "internalType": "uint256",
          "name": "amount",
          "type": "uint256"
        }
      ],
      "name": "TokenDeposit",
      "type": "event"
    },
    {
      "anonymous": false,
      "inputs": [
        {
          "indexed": false,
          "internalType": "uint256",
          "name": "amount",
          "type": "uint256"
        }
      ],
      "name": "TokenWithdrawal",
      "type": "event"
    },
    {
      "stateMutability": "payable",
      "type": "fallback"
    },
    {
      "inputs": [],
      "name": "assetRecipient",
      "outputs": [
        {
          "internalType": "address payable",
          "name": "",
          "type": "address"
        }
      ],
      "stateMutability": "view",
      "type": "function"
    },
    {
      "inputs": [],
      "name": "bondingCurve",
      "outputs": [
        {
          "internalType": "contract ICurve",
          "name": "_bondingCurve",
          "type": "address"
        }
      ],
      "stateMutability": "pure",
      "type": "function"
    },
    {
      "inputs": [
        {
          "internalType": "address payable",
          "name": "target",
          "type": "address"
        },
        {
          "internalType": "bytes",
          "name": "data",
          "type": "bytes"
        }
      ],
      "name": "call",
      "outputs": [],
      "stateMutability": "nonpayable",
      "type": "function"
    },
    {
      "inputs": [
        {
          "internalType": "address payable",
          "name": "newRecipient",
          "type": "address"
        }
      ],
      "name": "changeAssetRecipient",
      "outputs": [],
      "stateMutability": "nonpayable",
      "type": "function"
    },
    {
      "inputs": [
        {
          "internalType": "uint128",
          "name": "newDelta",
          "type": "uint128"
        }
      ],
      "name": "changeDelta",
      "outputs": [],
      "stateMutability": "nonpayable",
      "type": "function"
    },
    {
      "inputs": [
        {
          "internalType": "uint96",
          "name": "newFee",
          "type": "uint96"
        }
      ],
      "name": "changeFee",
      "outputs": [],
      "stateMutability": "nonpayable",
      "type": "function"
    },
    {
      "inputs": [
        {
          "internalType": "uint128",
          "name": "newSpotPrice",
          "type": "uint128"
        }
      ],
      "name": "changeSpotPrice",
      "outputs": [],
      "stateMutability": "nonpayable",
      "type": "function"
    },
    {
      "inputs": [],
      "name": "delta",
      "outputs": [
        {
          "internalType": "uint128",
          "name": "",
          "type": "uint128"
        }
      ],
      "stateMutability": "view",
      "type": "function"
    },
    {
      "inputs": [],
      "name": "factory",
      "outputs": [
        {
          "internalType": "contract ILSSVMPairFactoryLike",
          "name": "_factory",
          "type": "address"
        }
      ],
      "stateMutability": "pure",
      "type": "function"
    },
    {
      "inputs": [],
      "name": "fee",
      "outputs": [
        {
          "internalType": "uint96",
          "name": "",
          "type": "uint96"
        }
      ],
      "stateMutability": "view",
      "type": "function"
    },
    {
      "inputs": [],
      "name": "getAllHeldIds",
      "outputs": [
        {
          "internalType": "uint256[]",
          "name": "",
          "type": "uint256[]"
        }
      ],
      "stateMutability": "view",
      "type": "function"
    },
    {
      "inputs": [],
      "name": "getAssetRecipient",
      "outputs": [
        {
          "internalType": "address payable",
          "name": "_assetRecipient",
          "type": "address"
        }
      ],
      "stateMutability": "view",
      "type": "function"
    },
    {
      "inputs": [
        {
          "internalType": "uint256",
          "name": "numNFTs",
          "type": "uint256"
        }
      ],
      "name": "getBuyNFTQuote",
      "outputs": [
        {
          "internalType": "enum CurveErrorCodes.Error",
          "name": "error",
          "type": "uint8"
        },
        {
          "internalType": "uint256",
          "name": "newSpotPrice",
          "type": "uint256"
        },
        {
          "internalType": "uint256",
          "name": "newDelta",
          "type": "uint256"
        },
        {
          "internalType": "uint256",
          "name": "inputAmount",
          "type": "uint256"
        },
        {
          "internalType": "uint256",
          "name": "protocolFee",
          "type": "uint256"
        }
      ],
      "stateMutability": "view",
      "type": "function"
    },
    {
      "inputs": [
        {
          "internalType": "uint256",
          "name": "numNFTs",
          "type": "uint256"
        }
      ],
      "name": "getSellNFTQuote",
      "outputs": [
        {
          "internalType": "enum CurveErrorCodes.Error",
          "name": "error",
          "type": "uint8"
        },
        {
          "internalType": "uint256",
          "name": "newSpotPrice",
          "type": "uint256"
        },
        {
          "internalType": "uint256",
          "name": "newDelta",
          "type": "uint256"
        },
        {
          "internalType": "uint256",
          "name": "outputAmount",
          "type": "uint256"
        },
        {
          "internalType": "uint256",
          "name": "protocolFee",
          "type": "uint256"
        }
      ],
      "stateMutability": "view",
      "type": "function"
    },
    {
      "inputs": [
        {
          "internalType": "address",
          "name": "_owner",
          "type": "address"
        },
        {
          "internalType": "address payable",
          "name": "_assetRecipient",
          "type": "address"
        },
        {
          "internalType": "uint128",
          "name": "_delta",
          "type": "uint128"
        },
        {
          "internalType": "uint96",
          "name": "_fee",
          "type": "uint96"
        },
        {
          "internalType": "uint128",
          "name": "_spotPrice",
          "type": "uint128"
        }
      ],
      "name": "initialize",
      "outputs": [],
      "stateMutability": "payable",
      "type": "function"
    },
    {
      "inputs": [
        {
          "internalType": "bytes[]",
          "name": "calls",
          "type": "bytes[]"
        },
        {
          "internalType": "bool",
          "name": "revertOnFail",
          "type": "bool"
        }
      ],
      "name": "multicall",
      "outputs": [],
      "stateMutability": "nonpayable",
      "type": "function"
    },
    {
      "inputs": [],
      "name": "nft",
      "outputs": [
        {
          "internalType": "contract IERC721",
          "name": "_nft",
          "type": "address"
        }
      ],
      "stateMutability": "pure",
      "type": "function"
    },
    {
      "inputs": [
        {
          "internalType": "address",
          "name": "",
          "type": "address"
        },
        {
          "internalType": "address",
          "name": "",
          "type": "address"
        },
        {
          "internalType": "uint256[]",
          "name": "",
          "type": "uint256[]"
        },
        {
          "internalType": "uint256[]",
          "name": "",
          "type": "uint256[]"
        },
        {
          "internalType": "bytes",
          "name": "",
          "type": "bytes"
        }
      ],
      "name": "onERC1155BatchReceived",
      "outputs": [
        {
          "internalType": "bytes4",
          "name": "",
          "type": "bytes4"
        }
      ],
      "stateMutability": "nonpayable",
      "type": "function"
    },
    {
      "inputs": [
        {
          "internalType": "address",
          "name": "",
          "type": "address"
        },
        {
          "internalType": "address",
          "name": "",
          "type": "address"
        },
        {
          "internalType": "uint256",
          "name": "",
          "type": "uint256"
        },
        {
          "internalType": "uint256",
          "name": "",
          "type": "uint256"
        },
        {
          "internalType": "bytes",
          "name": "",
          "type": "bytes"
        }
      ],
      "name": "onERC1155Received",
      "outputs": [
        {
          "internalType": "bytes4",
          "name": "",
          "type": "bytes4"
        }
      ],
      "stateMutability": "nonpayable",
      "type": "function"
    },
    {
      "inputs": [
        {
          "internalType": "address",
          "name": "",
          "type": "address"
        },
        {
          "internalType": "address",
          "name": "",
          "type": "address"
        },
        {
          "internalType": "uint256",
          "name": "id",
          "type": "uint256"
        },
        {
          "internalType": "bytes",
          "name": "",
          "type": "bytes"
        }
      ],
      "name": "onERC721Received",
      "outputs": [
        {
          "internalType": "bytes4",
          "name": "",
          "type": "bytes4"
        }
      ],
      "stateMutability": "nonpayable",
      "type": "function"
    },
    {
      "inputs": [],
      "name": "owner",
      "outputs": [
        {
          "internalType": "address",
          "name": "",
          "type": "address"
        }
      ],
      "stateMutability": "view",
      "type": "function"
    },
    {
      "inputs": [],
      "name": "poolType",
      "outputs": [
        {
          "internalType": "enum LSSVMPair.PoolType",
          "name": "_poolType",
          "type": "uint8"
        }
      ],
      "stateMutability": "pure",
      "type": "function"
    },
    {
      "inputs": [],
      "name": "spotPrice",
      "outputs": [
        {
          "internalType": "uint128",
          "name": "",
          "type": "uint128"
        }
      ],
      "stateMutability": "view",
      "type": "function"
    },
    {
      "inputs": [
        {
          "internalType": "bytes4",
          "name": "interfaceId",
          "type": "bytes4"
        }
      ],
      "name": "supportsInterface",
      "outputs": [
        {
          "internalType": "bool",
          "name": "",
          "type": "bool"
        }
      ],
      "stateMutability": "view",
      "type": "function"
    },
    {
      "inputs": [
        {
          "internalType": "uint256[]",
          "name": "nftIds",
          "type": "uint256[]"
        },
        {
          "internalType": "uint256",
          "name": "minExpectedTokenOutput",
          "type": "uint256"
        },
        {
          "internalType": "address payable",
          "name": "tokenRecipient",
          "type": "address"
        },
        {
          "internalType": "bool",
          "name": "isRouter",
          "type": "bool"
        },
        {
          "internalType": "address",
          "name": "routerCaller",
          "type": "address"
        }
      ],
      "name": "swapNFTsForToken",
      "outputs": [
        {
          "internalType": "uint256",
          "name": "outputAmount",
          "type": "uint256"
        }
      ],
      "stateMutability": "nonpayable",
      "type": "function"
    },
    {
      "inputs": [
        {
          "internalType": "uint256",
          "name": "numNFTs",
          "type": "uint256"
        },
        {
          "internalType": "uint256",
          "name": "maxExpectedTokenInput",
          "type": "uint256"
        },
        {
          "internalType": "address",
          "name": "nftRecipient",
          "type": "address"
        },
        {
          "internalType": "bool",
          "name": "isRouter",
          "type": "bool"
        },
        {
          "internalType": "address",
          "name": "routerCaller",
          "type": "address"
        }
      ],
      "name": "swapTokenForAnyNFTs",
      "outputs": [
        {
          "internalType": "uint256",
          "name": "inputAmount",
          "type": "uint256"
        }
      ],
      "stateMutability": "payable",
      "type": "function"
    },
    {
      "inputs": [
        {
          "internalType": "uint256[]",
          "name": "nftIds",
          "type": "uint256[]"
        },
        {
          "internalType": "uint256",
          "name": "maxExpectedTokenInput",
          "type": "uint256"
        },
        {
          "internalType": "address",
          "name": "nftRecipient",
          "type": "address"
        },
        {
          "internalType": "bool",
          "name": "isRouter",
          "type": "bool"
        },
        {
          "internalType": "address",
          "name": "routerCaller",
          "type": "address"
        }
      ],
      "name": "swapTokenForSpecificNFTs",
      "outputs": [
        {
          "internalType": "uint256",
          "name": "inputAmount",
          "type": "uint256"
        }
      ],
      "stateMutability": "payable",
      "type": "function"
    },
    {
      "inputs": [
        {
          "internalType": "address",
          "name": "newOwner",
          "type": "address"
        }
      ],
      "name": "transferOwnership",
      "outputs": [],
      "stateMutability": "nonpayable",
      "type": "function"
    },
    {
      "inputs": [],
      "name": "withdrawAllETH",
      "outputs": [],
      "stateMutability": "nonpayable",
      "type": "function"
    },
    {
      "inputs": [
        {
          "internalType": "contract IERC1155",
          "name": "a",
          "type": "address"
        },
        {
          "internalType": "uint256[]",
          "name": "ids",
          "type": "uint256[]"
        },
        {
          "internalType": "uint256[]",
          "name": "amounts",
          "type": "uint256[]"
        }
      ],
      "name": "withdrawERC1155",
      "outputs": [],
      "stateMutability": "nonpayable",
      "type": "function"
    },
    {
      "inputs": [
        {
          "internalType": "contract ERC20",
          "name": "a",
          "type": "address"
        },
        {
          "internalType": "uint256",
          "name": "amount",
          "type": "uint256"
        }
      ],
      "name": "withdrawERC20",
      "outputs": [],
      "stateMutability": "nonpayable",
      "type": "function"
    },
    {
      "inputs": [
        {
          "internalType": "contract IERC721",
          "name": "a",
          "type": "address"
        },
        {
          "internalType": "uint256[]",
          "name": "nftIds",
          "type": "uint256[]"
        }
      ],
      "name": "withdrawERC721",
      "outputs": [],
      "stateMutability": "nonpayable",
      "type": "function"
    },
    {
      "inputs": [
        {
          "internalType": "uint256",
          "name": "amount",
          "type": "uint256"
        }
      ],
      "name": "withdrawETH",
      "outputs": [],
      "stateMutability": "nonpayable",
      "type": "function"
    },
    {
      "stateMutability": "payable",
      "type": "receive"
    },
    {
      "inputs": [],
      "name": "pairVariant",
      "outputs": [
        {
          "internalType": "enum ILSSVMPairFactoryLike.PairVariant",
          "name": "",
          "type": "uint8"
        }
      ],
      "stateMutability": "pure",
      "type": "function"
    }
  ],
  "bytecode": "0x608060405234801561001057600080fd5b506164ec80620000216000396000f3fe6080604052600436106101fd5760003560e01c80638da5cb5b1161010d578063c45a0155116100a0578063f14210a61161006f578063f14210a6146107c4578063f23a6e61146107ed578063f2fde38b1461082a578063f462954914610853578063fd17aef91461087c5761023b565b8063c45a01551461071a578063d8a1890c14610745578063ddca3f431461076e578063eff1d50e146107995761023b565b8063a5ceac99116100dc578063a5ceac991461064c578063b1d3f1c114610675578063b1dd61b6146106b2578063bc197c81146106dd5761023b565b80638da5cb5b146105a057806390386bbf146105cb578063a1db9782146105e2578063a5cb2b911461060b5761023b565b80632f4fefaf1161019057806347ccca021161015f57806347ccca02146104c85780636809f664146104f35780636b7a22001461051c5780636d8b99f71461054557806379eac6c2146105755761023b565b80632f4fefaf1461041c5780633053fc5814610447578063398482d8146104725780633bfa67fe1461049d5761023b565b8063150b7a02116101cc578063150b7a021461035d5780631b8b921d1461039a5780631e9701d4146103c357806328b8aee1146103ec5761023b565b806301ffc9a71461028b5780630c295e56146102c857806312b495a81461030957806313edab81146103345761023b565b3661023b577ff1b3be8dace0fecfbdb6fb0fa1cc014c612bcb1b46db027c1ece5fc11fff09d6346040516102319190614194565b60405180910390a1005b610243610898565b60003690501461025257600080fd5b7ff1b3be8dace0fecfbdb6fb0fa1cc014c612bcb1b46db027c1ece5fc11fff09d6346040516102819190614194565b60405180910390a1005b34801561029757600080fd5b506102b260048036038101906102ad919061421b565b6108a1565b6040516102bf9190614263565b60405180910390f35b3480156102d457600080fd5b506102ef60048036038101906102ea91906142aa565b61091b565b60405161030095949392919061434e565b60405180910390f35b34801561031557600080fd5b5061031e610abe565b60405161032b91906143cc565b60405180910390f35b34801561034057600080fd5b5061035b600480360381019061035691906144bc565b610ae0565b005b34801561036957600080fd5b50610384600480360381019061037f9190614689565b610d38565b604051610391919061471b565b60405180910390f35b3480156103a657600080fd5b506103c160048036038101906103bc91906147ca565b610da1565b005b3480156103cf57600080fd5b506103ea60048036038101906103e591906148ac565b610f8a565b005b6104066004803603810190610401919061490c565b611173565b6040516104139190614194565b60405180910390f35b34801561042857600080fd5b506104316113c7565b60405161043e9190614a45565b60405180910390f35b34801561045357600080fd5b5061045c611476565b6040516104699190614aaf565b60405180910390f35b34801561047e57600080fd5b5061048761147f565b60405161049491906143cc565b60405180910390f35b3480156104a957600080fd5b506104b26114a1565b6040516104bf9190614ad9565b60405180910390f35b3480156104d457600080fd5b506104dd6114c7565b6040516104ea9190614b53565b60405180910390f35b3480156104ff57600080fd5b5061051a60048036038101906105159190614b9a565b6114e4565b005b34801561052857600080fd5b50610543600480360381019061053e9190614c0b565b6116d3565b005b61055f600480360381019061055a9190614c38565b6118b3565b60405161056c9190614194565b60405180910390f35b34801561058157600080fd5b5061058a611a84565b6040516105979190614ad9565b60405180910390f35b3480156105ac57600080fd5b506105b5611b21565b6040516105c29190614ce1565b60405180910390f35b3480156105d757600080fd5b506105e0611b4a565b005b3480156105ee57600080fd5b5061060960048036038101906106049190614d3a565b611bc1565b005b34801561061757600080fd5b50610632600480360381019061062d91906142aa565b611c5c565b60405161064395949392919061434e565b60405180910390f35b34801561065857600080fd5b50610673600480360381019061066e9190614db8565b611dff565b005b34801561068157600080fd5b5061069c60048036038101906106979190614e4d565b611ee7565b6040516106a99190614194565b60405180910390f35b3480156106be57600080fd5b506106c76120b8565b6040516106d49190614f2f565b60405180910390f35b3480156106e957600080fd5b5061070460048036038101906106ff919061500d565b6120d5565b604051610711919061471b565b60405180910390f35b34801561072657600080fd5b5061072f6120ea565b60405161073c91906150fd565b60405180910390f35b34801561075157600080fd5b5061076c60048036038101906107679190614b9a565b612104565b005b34801561077a57600080fd5b506107836122f3565b6040516107909190615127565b60405180910390f35b3480156107a557600080fd5b506107ae612311565b6040516107bb9190615163565b60405180910390f35b3480156107d057600080fd5b506107eb60048036038101906107e691906142aa565b61232e565b005b3480156107f957600080fd5b50610814600480360381019061080f919061517e565b612404565b604051610821919061471b565b60405180910390f35b34801561083657600080fd5b50610851600480360381019061084c9190615215565b612419565b005b34801561085f57600080fd5b5061087a60048036038101906108759190615242565b6125bd565b005b6108966004803603810190610891919061526f565b61276d565b005b6000603d905090565b60007f4e2312e0000000000000000000000000000000000000000000000000000000007bffffffffffffffffffffffffffffffffffffffffffffffffffffffff1916827bffffffffffffffffffffffffffffffffffffffffffffffffffffffff19161480610914575061091382612c11565b5b9050919050565b600080600080600061092b612311565b73ffffffffffffffffffffffffffffffffffffffff1663097cc63d600260009054906101000a90046fffffffffffffffffffffffffffffffff16600260109054906101000a90046fffffffffffffffffffffffffffffffff1689600360009054906101000a90046bffffffffffffffffffffffff166109a86120ea565b73ffffffffffffffffffffffffffffffffffffffff16631ce4c78b6040518163ffffffff1660e01b8152600401602060405180830381865afa1580156109f2573d6000803e3d6000fd5b505050506040513d601f19601f82011682018060405250810190610a1691906152ff565b6040518663ffffffff1660e01b8152600401610a3695949392919061535d565b60a060405180830381865afa158015610a53573d6000803e3d6000fd5b505050506040513d601f19601f82011682018060405250810190610a7791906153ea565b836fffffffffffffffffffffffffffffffff169350826fffffffffffffffffffffffffffffffff169250809550819650829750839850849950505050505091939590929450565b600260109054906101000a90046fffffffffffffffffffffffffffffffff1681565b3373ffffffffffffffffffffffffffffffffffffffff16610aff611b21565b73ffffffffffffffffffffffffffffffffffffffff1614610b4c576040517f5eee3ad100000000000000000000000000000000000000000000000000000000815260040160405180910390fd5b6000610b566114c7565b905060008383905090508173ffffffffffffffffffffffffffffffffffffffff168573ffffffffffffffffffffffffffffffffffffffff1614610c375760005b81811015610c31578573ffffffffffffffffffffffffffffffffffffffff166342842e0e3033888886818110610bcf57610bce615465565b5b905060200201356040518463ffffffff1660e01b8152600401610bf493929190615494565b600060405180830381600087803b158015610c0e57600080fd5b505af1158015610c22573d6000803e3d6000fd5b50505050806001019050610b96565b50610d31565b60005b81811015610d03578273ffffffffffffffffffffffffffffffffffffffff166342842e0e3033888886818110610c7357610c72615465565b5b905060200201356040518463ffffffff1660e01b8152600401610c9893929190615494565b600060405180830381600087803b158015610cb257600080fd5b505af1158015610cc6573d6000803e3d6000fd5b50505050610cf7858583818110610ce057610cdf615465565b5b905060200201356004612c7b90919063ffffffff16565b50806001019050610c3a565b507f242b9b8fb5c0e6298454fcf80a0fbcbb7308620133d92b50091a1f64cee790e860405160405180910390a15b5050505050565b600080610d436114c7565b90508073ffffffffffffffffffffffffffffffffffffffff163373ffffffffffffffffffffffffffffffffffffffff1603610d8e57610d8c846004612c9590919063ffffffff16565b505b63150b7a0260e01b915050949350505050565b3373ffffffffffffffffffffffffffffffffffffffff16610dc0611b21565b73ffffffffffffffffffffffffffffffffffffffff1614610e0d576040517f5eee3ad100000000000000000000000000000000000000000000000000000000815260040160405180910390fd5b6000610e176120ea565b90508073ffffffffffffffffffffffffffffffffffffffff16631fba95e8856040518263ffffffff1660e01b8152600401610e5291906154ec565b602060405180830381865afa158015610e6f573d6000803e3d6000fd5b505050506040513d601f19601f82011682018060405250810190610e93919061551c565b610ed2576040517f08c379a0000000000000000000000000000000000000000000000000000000008152600401610ec9906155a6565b60405180910390fd5b60008473ffffffffffffffffffffffffffffffffffffffff1660008585604051610efd9291906155f6565b60006040518083038185875af1925050503d8060008114610f3a576040519150601f19603f3d011682016040523d82523d6000602084013e610f3f565b606091505b5050905080610f83576040517f08c379a0000000000000000000000000000000000000000000000000000000008152600401610f7a9061565b565b60405180910390fd5b5050505050565b3373ffffffffffffffffffffffffffffffffffffffff16610fa9611b21565b73ffffffffffffffffffffffffffffffffffffffff1614610ff6576040517f5eee3ad100000000000000000000000000000000000000000000000000000000815260040160405180910390fd5b60005b838390508110156110f8576000803073ffffffffffffffffffffffffffffffffffffffff1686868581811061103157611030615465565b5b9050602002810190611043919061568a565b6040516110519291906155f6565b600060405180830381855af49150503d806000811461108c576040519150601f19603f3d011682016040523d82523d6000602084013e611091565b606091505b5091509150811580156110a15750835b156110eb576110af81612caf565b6040517f08c379a00000000000000000000000000000000000000000000000000000000081526004016110e2919061575b565b60405180910390fd5b8260010192505050610ff9565b503373ffffffffffffffffffffffffffffffffffffffff16611118611b21565b73ffffffffffffffffffffffffffffffffffffffff161461116e576040517f08c379a0000000000000000000000000000000000000000000000000000000008152600401611165906157ef565b60405180910390fd5b505050565b60006002600154036111ba576040517f08c379a00000000000000000000000000000000000000000000000000000000081526004016111b19061585b565b60405180910390fd5b600260018190555060006111cc6120ea565b905060006111d8612311565b905060006111e46114c7565b905060006111f06120b8565b905060016002811115611206576112056142d7565b5b816002811115611219576112186142d7565b5b14806112485750600280811115611233576112326142d7565b5b816002811115611246576112456142d7565b5b145b611287576040517f08c379a000000000000000000000000000000000000000000000000000000000815260040161127e906158c7565b60405180910390fd5b60008a11801561131057508173ffffffffffffffffffffffffffffffffffffffff166370a08231306040518263ffffffff1660e01b81526004016112cb9190614ce1565b602060405180830381865afa1580156112e8573d6000803e3d6000fd5b505050506040513d601f19601f8201168201806040525081019061130c91906152ff565b8a11155b61134f576040517f08c379a000000000000000000000000000000000000000000000000000000000815260040161134690615959565b60405180910390fd5b50600061135e8a8a8587612d1a565b809650819250505061137385888887856130d4565b61137e82898c6131dc565b611387856132b7565b7fbc479dfc6cb9c1a9d880f987ee4b30fa43dd7f06aec121db685b67d587c93c9360405160405180910390a1505050506001808190555095945050505050565b606060006113d560046132f7565b905060008167ffffffffffffffff8111156113f3576113f261455e565b5b6040519080825280602002602001820160405280156114215781602001602082028036833780820191505090505b50905060005b8281101561146d5761144381600461330c90919063ffffffff16565b82828151811061145657611455615465565b5b602002602001018181525050806001019050611427565b50809250505090565b60006001905090565b600260009054906101000a90046fffffffffffffffffffffffffffffffff1681565b6003600c9054906101000a900473ffffffffffffffffffffffffffffffffffffffff1681565b6000806114d2610898565b90506028813603013560601c91505090565b3373ffffffffffffffffffffffffffffffffffffffff16611503611b21565b73ffffffffffffffffffffffffffffffffffffffff1614611550576040517f5eee3ad100000000000000000000000000000000000000000000000000000000815260040160405180910390fd5b600061155a612311565b90508073ffffffffffffffffffffffffffffffffffffffff16630ae67ccc836040518263ffffffff1660e01b815260040161159591906143cc565b602060405180830381865afa1580156115b2573d6000803e3d6000fd5b505050506040513d601f19601f820116820180604052508101906115d6919061551c565b611615576040517f08c379a000000000000000000000000000000000000000000000000000000000815260040161160c906159c5565b60405180910390fd5b816fffffffffffffffffffffffffffffffff16600260109054906101000a90046fffffffffffffffffffffffffffffffff166fffffffffffffffffffffffffffffffff16146116cf5781600260106101000a8154816fffffffffffffffffffffffffffffffff02191690836fffffffffffffffffffffffffffffffff1602179055507fc958ae052d28f8d17bc2c4ddbabb699a3cab5cccefd034d0fc971efdadc01da5826040516116c691906143cc565b60405180910390a15b5050565b3373ffffffffffffffffffffffffffffffffffffffff166116f2611b21565b73ffffffffffffffffffffffffffffffffffffffff161461173f576040517f5eee3ad100000000000000000000000000000000000000000000000000000000815260040160405180910390fd5b60006117496120b8565b905060028081111561175e5761175d6142d7565b5b816002811115611771576117706142d7565b5b146117b1576040517f08c379a00000000000000000000000000000000000000000000000000000000081526004016117a890615a31565b60405180910390fd5b670c7d713b49da0000826bffffffffffffffffffffffff1610611809576040517f08c379a000000000000000000000000000000000000000000000000000000000815260040161180090615a9d565b60405180910390fd5b816bffffffffffffffffffffffff16600360009054906101000a90046bffffffffffffffffffffffff166bffffffffffffffffffffffff16146118af5781600360006101000a8154816bffffffffffffffffffffffff02191690836bffffffffffffffffffffffff1602179055507f66c55c30868c51e7ad52e3d85d1403576a9967614e67c48e25b55a10baa650c0826040516118a69190615127565b60405180910390a15b5050565b60006002600154036118fa576040517f08c379a00000000000000000000000000000000000000000000000000000000081526004016118f19061585b565b60405180910390fd5b6002600181905550600061190c6120ea565b90506000611918612311565b905060006119246120b8565b90506001600281111561193a576119396142d7565b5b81600281111561194d5761194c6142d7565b5b148061197c5750600280811115611967576119666142d7565b5b81600281111561197a576119796142d7565b5b145b6119bb576040517f08c379a00000000000000000000000000000000000000000000000000000000081526004016119b2906158c7565b60405180910390fd5b60008a8a905011611a01576040517f08c379a00000000000000000000000000000000000000000000000000000000081526004016119f890615b09565b60405180910390fd5b506000611a138a8a9050898486612d1a565b8095508192505050611a2884878786856130d4565b611a3b611a336114c7565b888c8c613326565b611a44846132b7565b7fbc479dfc6cb9c1a9d880f987ee4b30fa43dd7f06aec121db685b67d587c93c9360405160405180910390a1505050600180819055509695505050505050565b6000600280811115611a9957611a986142d7565b5b611aa16120b8565b6002811115611ab357611ab26142d7565b5b03611ac057309050611b1e565b6003600c9054906101000a900473ffffffffffffffffffffffffffffffffffffffff169050600073ffffffffffffffffffffffffffffffffffffffff168173ffffffffffffffffffffffffffffffffffffffff1603611b1d573090505b5b90565b60008060009054906101000a900473ffffffffffffffffffffffffffffffffffffffff16905090565b3373ffffffffffffffffffffffffffffffffffffffff16611b69611b21565b73ffffffffffffffffffffffffffffffffffffffff1614611bb6576040517f5eee3ad100000000000000000000000000000000000000000000000000000000815260040160405180910390fd5b611bbf4761232e565b565b3373ffffffffffffffffffffffffffffffffffffffff16611be0611b21565b73ffffffffffffffffffffffffffffffffffffffff1614611c2d576040517f5eee3ad100000000000000000000000000000000000000000000000000000000815260040160405180910390fd5b611c5833828473ffffffffffffffffffffffffffffffffffffffff166134029092919063ffffffff16565b5050565b6000806000806000611c6c612311565b73ffffffffffffffffffffffffffffffffffffffff16637ca542ac600260009054906101000a90046fffffffffffffffffffffffffffffffff16600260109054906101000a90046fffffffffffffffffffffffffffffffff1689600360009054906101000a90046bffffffffffffffffffffffff16611ce96120ea565b73ffffffffffffffffffffffffffffffffffffffff16631ce4c78b6040518163ffffffff1660e01b8152600401602060405180830381865afa158015611d33573d6000803e3d6000fd5b505050506040513d601f19601f82011682018060405250810190611d5791906152ff565b6040518663ffffffff1660e01b8152600401611d7795949392919061535d565b60a060405180830381865afa158015611d94573d6000803e3d6000fd5b505050506040513d601f19601f82011682018060405250810190611db891906153ea565b836fffffffffffffffffffffffffffffffff169350826fffffffffffffffffffffffffffffffff169250809550819650829750839850849950505050505091939590929450565b3373ffffffffffffffffffffffffffffffffffffffff16611e1e611b21565b73ffffffffffffffffffffffffffffffffffffffff1614611e6b576040517f5eee3ad100000000000000000000000000000000000000000000000000000000815260040160405180910390fd5b8473ffffffffffffffffffffffffffffffffffffffff16632eb2c2d63033878787876040518763ffffffff1660e01b8152600401611eae96959493929190615bca565b600060405180830381600087803b158015611ec857600080fd5b505af1158015611edc573d6000803e3d6000fd5b505050505050505050565b6000600260015403611f2e576040517f08c379a0000000000000000000000000000000000000000000000000000000008152600401611f259061585b565b60405180910390fd5b60026001819055506000611f406120ea565b90506000611f4c612311565b90506000611f586120b8565b905060006002811115611f6e57611f6d6142d7565b5b816002811115611f8157611f806142d7565b5b1480611fb05750600280811115611f9b57611f9a6142d7565b5b816002811115611fae57611fad6142d7565b5b145b611fef576040517f08c379a0000000000000000000000000000000000000000000000000000000008152600401611fe6906158c7565b60405180910390fd5b60008a8a905011612035576040517f08c379a000000000000000000000000000000000000000000000000000000000815260040161202c90615b09565b60405180910390fd5b5060006120478a8a90508984866134a8565b80955081925050506120598785613862565b6120638382613899565b61207861206e6114c7565b8b8b868a8a6138e6565b7f3614eb567740a0ee3897c0e2b11ad6a5720d2e4438f9c8accf6c95c24af3a47060405160405180910390a1505050600180819055509695505050505050565b6000806120c3610898565b9050603c813603013560f81c91505090565b600063bc197c8160e01b905095945050505050565b6000806120f5610898565b90508036033560601c91505090565b3373ffffffffffffffffffffffffffffffffffffffff16612123611b21565b73ffffffffffffffffffffffffffffffffffffffff1614612170576040517f5eee3ad100000000000000000000000000000000000000000000000000000000815260040160405180910390fd5b600061217a612311565b90508073ffffffffffffffffffffffffffffffffffffffff1663a1bbb2e8836040518263ffffffff1660e01b81526004016121b591906143cc565b602060405180830381865afa1580156121d2573d6000803e3d6000fd5b505050506040513d601f19601f820116820180604052508101906121f6919061551c565b612235576040517f08c379a000000000000000000000000000000000000000000000000000000000815260040161222c90615c80565b60405180910390fd5b816fffffffffffffffffffffffffffffffff16600260009054906101000a90046fffffffffffffffffffffffffffffffff166fffffffffffffffffffffffffffffffff16146122ef5781600260006101000a8154816fffffffffffffffffffffffffffffffff02191690836fffffffffffffffffffffffffffffffff1602179055507ff06180fdbe95e5193df4dcd1352726b1f04cb58599ce58552cc952447af2ffbb826040516122e691906143cc565b60405180910390a15b5050565b600360009054906101000a90046bffffffffffffffffffffffff1681565b60008061231c610898565b90506014813603013560601c91505090565b3373ffffffffffffffffffffffffffffffffffffffff1661234d611b21565b73ffffffffffffffffffffffffffffffffffffffff161461239a576040517f5eee3ad100000000000000000000000000000000000000000000000000000000815260040160405180910390fd5b6123ca816123a6611b21565b73ffffffffffffffffffffffffffffffffffffffff16613e0790919063ffffffff16565b7f0e266e8f38544aa1480d73762386eb10df55b1b8453d935762e891c44b69a1e6816040516123f99190614194565b60405180910390a150565b600063f23a6e6160e01b905095945050505050565b3373ffffffffffffffffffffffffffffffffffffffff16612438611b21565b73ffffffffffffffffffffffffffffffffffffffff1614612485576040517f5eee3ad100000000000000000000000000000000000000000000000000000000815260040160405180910390fd5b600073ffffffffffffffffffffffffffffffffffffffff168173ffffffffffffffffffffffffffffffffffffffff16036124eb576040517fedf1b1fc00000000000000000000000000000000000000000000000000000000815260040160405180910390fd5b6124f481613e5a565b6125138173ffffffffffffffffffffffffffffffffffffffff16613ee0565b156125ba578073ffffffffffffffffffffffffffffffffffffffff1663a741b468336040518263ffffffff1660e01b81526004016125519190614ce1565b600060405180830381600087803b15801561256b57600080fd5b505af192505050801561257c575060015b6125b8573d80600081146125ac576040519150601f19603f3d011682016040523d82523d6000602084013e6125b1565b606091505b50506125b9565b5b5b50565b3373ffffffffffffffffffffffffffffffffffffffff166125dc611b21565b73ffffffffffffffffffffffffffffffffffffffff1614612629576040517f5eee3ad100000000000000000000000000000000000000000000000000000000815260040160405180910390fd5b60006126336120b8565b9050600280811115612648576126476142d7565b5b81600281111561265b5761265a6142d7565b5b0361269b576040517f08c379a000000000000000000000000000000000000000000000000000000000815260040161269290615cec565b60405180910390fd5b8173ffffffffffffffffffffffffffffffffffffffff166003600c9054906101000a900473ffffffffffffffffffffffffffffffffffffffff1673ffffffffffffffffffffffffffffffffffffffff161461276957816003600c6101000a81548173ffffffffffffffffffffffffffffffffffffffff021916908373ffffffffffffffffffffffffffffffffffffffff1602179055507f678f61dcdee86474eddea0407caf8f1f5130382a90dedabaef94906ed86a27b48260405161276091906154ec565b60405180910390a15b5050565b600073ffffffffffffffffffffffffffffffffffffffff1661278d611b21565b73ffffffffffffffffffffffffffffffffffffffff16146127e3576040517f08c379a00000000000000000000000000000000000000000000000000000000081526004016127da90615d58565b60405180910390fd5b6127ec85613f03565b6127f4613f46565b60006127fe612311565b9050600061280a6120b8565b9050600060028111156128205761281f6142d7565b5b816002811115612833576128326142d7565b5b148061286357506001600281111561284e5761284d6142d7565b5b816002811115612861576128606142d7565b5b145b156128ff576000846bffffffffffffffffffffffff16146128b9576040517f08c379a00000000000000000000000000000000000000000000000000000000081526004016128b090615dea565b60405180910390fd5b856003600c6101000a81548173ffffffffffffffffffffffffffffffffffffffff021916908373ffffffffffffffffffffffffffffffffffffffff160217905550612a24565b600280811115612912576129116142d7565b5b816002811115612925576129246142d7565b5b03612a2357670c7d713b49da0000846bffffffffffffffffffffffff1610612982576040517f08c379a000000000000000000000000000000000000000000000000000000000815260040161297990615a9d565b60405180910390fd5b600073ffffffffffffffffffffffffffffffffffffffff168673ffffffffffffffffffffffffffffffffffffffff16146129f1576040517f08c379a00000000000000000000000000000000000000000000000000000000081526004016129e890615e7c565b60405180910390fd5b83600360006101000a8154816bffffffffffffffffffffffff02191690836bffffffffffffffffffffffff1602179055505b5b8173ffffffffffffffffffffffffffffffffffffffff16630ae67ccc866040518263ffffffff1660e01b8152600401612a5d91906143cc565b602060405180830381865afa158015612a7a573d6000803e3d6000fd5b505050506040513d601f19601f82011682018060405250810190612a9e919061551c565b612add576040517f08c379a0000000000000000000000000000000000000000000000000000000008152600401612ad4906159c5565b60405180910390fd5b8173ffffffffffffffffffffffffffffffffffffffff1663a1bbb2e8846040518263ffffffff1660e01b8152600401612b1691906143cc565b602060405180830381865afa158015612b33573d6000803e3d6000fd5b505050506040513d601f19601f82011682018060405250810190612b57919061551c565b612b96576040517f08c379a0000000000000000000000000000000000000000000000000000000008152600401612b8d90615c80565b60405180910390fd5b84600260106101000a8154816fffffffffffffffffffffffffffffffff02191690836fffffffffffffffffffffffffffffffff16021790555082600260006101000a8154816fffffffffffffffffffffffffffffffff02191690836fffffffffffffffffffffffffffffffff16021790555050505050505050565b60007f01ffc9a7000000000000000000000000000000000000000000000000000000007bffffffffffffffffffffffffffffffffffffffffffffffffffffffff1916827bffffffffffffffffffffffffffffffffffffffffffffffffffffffff1916149050919050565b6000612c8d836000018360001b613f4f565b905092915050565b6000612ca7836000018360001b614063565b905092915050565b6060604482511015612cf8576040518060400160405280601d81526020017f5472616e73616374696f6e2072657665727465642073696c656e746c790000008152509050612d15565b60048201915081806020019051810190612d129190615f3d565b90505b919050565b600080600080600260009054906101000a90046fffffffffffffffffffffffffffffffff169050600080600260109054906101000a90046fffffffffffffffffffffffffffffffff16905060008873ffffffffffffffffffffffffffffffffffffffff16637ca542ac85848e600360009054906101000a90046bffffffffffffffffffffffff168d73ffffffffffffffffffffffffffffffffffffffff16631ce4c78b6040518163ffffffff1660e01b8152600401602060405180830381865afa158015612dec573d6000803e3d6000fd5b505050506040513d601f19601f82011682018060405250810190612e1091906152ff565b6040518663ffffffff1660e01b8152600401612e3095949392919061535d565b60a060405180830381865afa158015612e4d573d6000803e3d6000fd5b505050506040513d601f19601f82011682018060405250810190612e7191906153ea565b809b50819a50829550839750849950505050505060006002811115612e9957612e986142d7565b5b856002811115612eac57612eab6142d7565b5b14612eee57846040517fe4f2c5ac000000000000000000000000000000000000000000000000000000008152600401612ee59190615f86565b60405180910390fd5b89861115612f31576040517f08c379a0000000000000000000000000000000000000000000000000000000008152600401612f2890615fed565b60405180910390fd5b826fffffffffffffffffffffffffffffffff16846fffffffffffffffffffffffffffffffff16141580612f885750806fffffffffffffffffffffffffffffffff16826fffffffffffffffffffffffffffffffff1614155b156130005782600260006101000a8154816fffffffffffffffffffffffffffffffff02191690836fffffffffffffffffffffffffffffffff16021790555080600260106101000a8154816fffffffffffffffffffffffffffffffff02191690836fffffffffffffffffffffffffffffffff1602179055505b826fffffffffffffffffffffffffffffffff16846fffffffffffffffffffffffffffffffff1614613063577ff06180fdbe95e5193df4dcd1352726b1f04cb58599ce58552cc952447af2ffbb8360405161305a91906143cc565b60405180910390a15b806fffffffffffffffffffffffffffffffff16826fffffffffffffffffffffffffffffffff16146130c6577fc958ae052d28f8d17bc2c4ddbabb699a3cab5cccefd034d0fc971efdadc01da5816040516130bd91906143cc565b60405180910390a15b505050505094509492505050565b84341015613117576040517f08c379a000000000000000000000000000000000000000000000000000000000815260040161310e90616059565b60405180910390fd5b6000613121611a84565b90503073ffffffffffffffffffffffffffffffffffffffff168173ffffffffffffffffffffffffffffffffffffffff161461318b5761318a828761316591906160a8565b8273ffffffffffffffffffffffffffffffffffffffff16613e0790919063ffffffff16565b5b60008211156131d457478211156131a0574791505b60008211156131d3576131d2828473ffffffffffffffffffffffffffffffffffffffff16613e0790919063ffffffff16565b5b5b505050505050565b600060016131ea60046132f7565b6131f491906160a8565b905060005b828110156132b057600061321783600461330c90919063ffffffff16565b90508573ffffffffffffffffffffffffffffffffffffffff166342842e0e3087846040518463ffffffff1660e01b815260040161325693929190615494565b600060405180830381600087803b15801561327057600080fd5b505af1158015613284573d6000803e3d6000fd5b5050505061329c816004612c7b90919063ffffffff16565b5082600190039250816001019150506131f9565b5050505050565b803411156132f4576132f381346132ce91906160a8565b3373ffffffffffffffffffffffffffffffffffffffff16613e0790919063ffffffff16565b5b50565b6000613305826000016140d3565b9050919050565b600061331b83600001836140e4565b60001c905092915050565b600082829050905060005b818110156133fa578573ffffffffffffffffffffffffffffffffffffffff166342842e0e308787878681811061336a57613369615465565b5b905060200201356040518463ffffffff1660e01b815260040161338f93929190615494565b600060405180830381600087803b1580156133a957600080fd5b505af11580156133bd573d6000803e3d6000fd5b505050506133ee8484838181106133d7576133d6615465565b5b905060200201356004612c7b90919063ffffffff16565b50806001019050613331565b505050505050565b60006040517fa9059cbb00000000000000000000000000000000000000000000000000000000815273ffffffffffffffffffffffffffffffffffffffff841660048201528260248201526000806044836000895af19150506134638161410f565b6134a2576040517f08c379a000000000000000000000000000000000000000000000000000000000815260040161349990616128565b60405180910390fd5b50505050565b600080600080600260009054906101000a90046fffffffffffffffffffffffffffffffff169050600080600260109054906101000a90046fffffffffffffffffffffffffffffffff16905060008873ffffffffffffffffffffffffffffffffffffffff1663097cc63d85848e600360009054906101000a90046bffffffffffffffffffffffff168d73ffffffffffffffffffffffffffffffffffffffff16631ce4c78b6040518163ffffffff1660e01b8152600401602060405180830381865afa15801561357a573d6000803e3d6000fd5b505050506040513d601f19601f8201168201806040525081019061359e91906152ff565b6040518663ffffffff1660e01b81526004016135be95949392919061535d565b60a060405180830381865afa1580156135db573d6000803e3d6000fd5b505050506040513d601f19601f820116820180604052508101906135ff91906153ea565b809b50819a50829550839750849950505050505060006002811115613627576136266142d7565b5b85600281111561363a576136396142d7565b5b1461367c57846040517fe4f2c5ac0000000000000000000000000000000000000000000000000000000081526004016136739190615f86565b60405180910390fd5b898610156136bf576040517f08c379a00000000000000000000000000000000000000000000000000000000081526004016136b690616194565b60405180910390fd5b826fffffffffffffffffffffffffffffffff16846fffffffffffffffffffffffffffffffff161415806137165750806fffffffffffffffffffffffffffffffff16826fffffffffffffffffffffffffffffffff1614155b1561378e5782600260006101000a8154816fffffffffffffffffffffffffffffffff02191690836fffffffffffffffffffffffffffffffff16021790555080600260106101000a8154816fffffffffffffffffffffffffffffffff02191690836fffffffffffffffffffffffffffffffff1602179055505b826fffffffffffffffffffffffffffffffff16846fffffffffffffffffffffffffffffffff16146137f1577ff06180fdbe95e5193df4dcd1352726b1f04cb58599ce58552cc952447af2ffbb836040516137e891906143cc565b60405180910390a15b806fffffffffffffffffffffffffffffffff16826fffffffffffffffffffffffffffffffff1614613854577fc958ae052d28f8d17bc2c4ddbabb699a3cab5cccefd034d0fc971efdadc01da58160405161384b91906143cc565b60405180910390a15b505050505094509492505050565b600081111561389557613894818373ffffffffffffffffffffffffffffffffffffffff16613e0790919063ffffffff16565b5b5050565b60008111156138e257478111156138ae574790505b60008111156138e1576138e0818373ffffffffffffffffffffffffffffffffffffffff16613e0790919063ffffffff16565b5b5b5050565b60006138f0611a84565b905060008686905090508315613d5d57600033905060008673ffffffffffffffffffffffffffffffffffffffff1663a93ec68b836040518263ffffffff1660e01b815260040161394091906161e7565b6040805180830381865afa15801561395c573d6000803e3d6000fd5b505050506040513d601f19601f820116820180604052508101906139809190616202565b509050806139c3576040517f08c379a00000000000000000000000000000000000000000000000000000000081526004016139ba9061628e565b60405180910390fd5b6001831115613bc05760008a73ffffffffffffffffffffffffffffffffffffffff166370a08231866040518263ffffffff1660e01b8152600401613a079190614ce1565b602060405180830381865afa158015613a24573d6000803e3d6000fd5b505050506040513d601f19601f82011682018060405250810190613a4891906152ff565b905060005b84811015613af3578373ffffffffffffffffffffffffffffffffffffffff1663748ff3398d89898f8f87818110613a8757613a86615465565b5b90506020020135613a96611476565b6040518663ffffffff1660e01b8152600401613ab69594939291906162ae565b600060405180830381600087803b158015613ad057600080fd5b505af1158015613ae4573d6000803e3d6000fd5b50505050806001019050613a4d565b5083818c73ffffffffffffffffffffffffffffffffffffffff166370a08231886040518263ffffffff1660e01b8152600401613b2f9190614ce1565b602060405180830381865afa158015613b4c573d6000803e3d6000fd5b505050506040513d601f19601f82011682018060405250810190613b7091906152ff565b613b7a91906160a8565b14613bba576040517f08c379a0000000000000000000000000000000000000000000000000000000008152600401613bb19061634d565b60405180910390fd5b50613d56565b8173ffffffffffffffffffffffffffffffffffffffff1663748ff3398b87878d8d6000818110613bf357613bf2615465565b5b90506020020135613c02611476565b6040518663ffffffff1660e01b8152600401613c229594939291906162ae565b600060405180830381600087803b158015613c3c57600080fd5b505af1158015613c50573d6000803e3d6000fd5b505050508373ffffffffffffffffffffffffffffffffffffffff168a73ffffffffffffffffffffffffffffffffffffffff16636352211e8b8b6000818110613c9b57613c9a615465565b5b905060200201356040518263ffffffff1660e01b8152600401613cbe9190614194565b602060405180830381865afa158015613cdb573d6000803e3d6000fd5b505050506040513d601f19601f82011682018060405250810190613cff9190616382565b73ffffffffffffffffffffffffffffffffffffffff1614613d55576040517f08c379a0000000000000000000000000000000000000000000000000000000008152600401613d4c906163fb565b60405180910390fd5b5b5050613dfd565b60005b81811015613dfb578873ffffffffffffffffffffffffffffffffffffffff166342842e0e33858b8b86818110613d9957613d98615465565b5b905060200201356040518463ffffffff1660e01b8152600401613dbe93929190615494565b600060405180830381600087803b158015613dd857600080fd5b505af1158015613dec573d6000803e3d6000fd5b50505050806001019050613d60565b505b5050505050505050565b600080600080600085875af1905080613e55576040517f08c379a0000000000000000000000000000000000000000000000000000000008152600401613e4c90616467565b60405180910390fd5b505050565b806000806101000a81548173ffffffffffffffffffffffffffffffffffffffff021916908373ffffffffffffffffffffffffffffffffffffffff1602179055508073ffffffffffffffffffffffffffffffffffffffff167f04dba622d284ed0014ee4b9a6a68386be1a4c08a4913ae272de89199cc68616360405160405180910390a250565b6000808273ffffffffffffffffffffffffffffffffffffffff163b119050919050565b806000806101000a81548173ffffffffffffffffffffffffffffffffffffffff021916908373ffffffffffffffffffffffffffffffffffffffff16021790555050565b60018081905550565b60008083600101600084815260200190815260200160002054905060008114614057576000600182613f8191906160a8565b9050600060018660000180549050613f9991906160a8565b9050818114614008576000866000018281548110613fba57613fb9615465565b5b9060005260206000200154905080876000018481548110613fde57613fdd615465565b5b90600052602060002001819055508387600101600083815260200190815260200160002081905550505b8560000180548061401c5761401b616487565b5b60019003818190600052602060002001600090559055856001016000868152602001908152602001600020600090556001935050505061405d565b60009150505b92915050565b600061406f8383614158565b6140c85782600001829080600181540180825580915050600190039060005260206000200160009091909190915055826000018054905083600101600084815260200190815260200160002081905550600190506140cd565b600090505b92915050565b600081600001805490509050919050565b60008260000182815481106140fc576140fb615465565b5b9060005260206000200154905092915050565b60003d8261412157806000803e806000fd5b806020811461413b576000811461414c5760009250614151565b816000803e60005115159250614151565b600192505b5050919050565b600080836001016000848152602001908152602001600020541415905092915050565b6000819050919050565b61418e8161417b565b82525050565b60006020820190506141a96000830184614185565b92915050565b6000604051905090565b600080fd5b600080fd5b60007fffffffff0000000000000000000000000000000000000000000000000000000082169050919050565b6141f8816141c3565b811461420357600080fd5b50565b600081359050614215816141ef565b92915050565b600060208284031215614231576142306141b9565b5b600061423f84828501614206565b91505092915050565b60008115159050919050565b61425d81614248565b82525050565b60006020820190506142786000830184614254565b92915050565b6142878161417b565b811461429257600080fd5b50565b6000813590506142a48161427e565b92915050565b6000602082840312156142c0576142bf6141b9565b5b60006142ce84828501614295565b91505092915050565b7f4e487b7100000000000000000000000000000000000000000000000000000000600052602160045260246000fd5b60038110614317576143166142d7565b5b50565b600081905061432882614306565b919050565b60006143388261431a565b9050919050565b6143488161432d565b82525050565b600060a082019050614363600083018861433f565b6143706020830187614185565b61437d6040830186614185565b61438a6060830185614185565b6143976080830184614185565b9695505050505050565b60006fffffffffffffffffffffffffffffffff82169050919050565b6143c6816143a1565b82525050565b60006020820190506143e160008301846143bd565b92915050565b600073ffffffffffffffffffffffffffffffffffffffff82169050919050565b6000614412826143e7565b9050919050565b600061442482614407565b9050919050565b61443481614419565b811461443f57600080fd5b50565b6000813590506144518161442b565b92915050565b600080fd5b600080fd5b600080fd5b60008083601f84011261447c5761447b614457565b5b8235905067ffffffffffffffff8111156144995761449861445c565b5b6020830191508360208202830111156144b5576144b4614461565b5b9250929050565b6000806000604084860312156144d5576144d46141b9565b5b60006144e386828701614442565b935050602084013567ffffffffffffffff811115614504576145036141be565b5b61451086828701614466565b92509250509250925092565b61452581614407565b811461453057600080fd5b50565b6000813590506145428161451c565b92915050565b600080fd5b6000601f19601f8301169050919050565b7f4e487b7100000000000000000000000000000000000000000000000000000000600052604160045260246000fd5b6145968261454d565b810181811067ffffffffffffffff821117156145b5576145b461455e565b5b80604052505050565b60006145c86141af565b90506145d4828261458d565b919050565b600067ffffffffffffffff8211156145f4576145f361455e565b5b6145fd8261454d565b9050602081019050919050565b82818337600083830152505050565b600061462c614627846145d9565b6145be565b90508281526020810184848401111561464857614647614548565b5b61465384828561460a565b509392505050565b600082601f8301126146705761466f614457565b5b8135614680848260208601614619565b91505092915050565b600080600080608085870312156146a3576146a26141b9565b5b60006146b187828801614533565b94505060206146c287828801614533565b93505060406146d387828801614295565b925050606085013567ffffffffffffffff8111156146f4576146f36141be565b5b6147008782880161465b565b91505092959194509250565b614715816141c3565b82525050565b6000602082019050614730600083018461470c565b92915050565b6000614741826143e7565b9050919050565b61475181614736565b811461475c57600080fd5b50565b60008135905061476e81614748565b92915050565b60008083601f84011261478a57614789614457565b5b8235905067ffffffffffffffff8111156147a7576147a661445c565b5b6020830191508360018202830111156147c3576147c2614461565b5b9250929050565b6000806000604084860312156147e3576147e26141b9565b5b60006147f18682870161475f565b935050602084013567ffffffffffffffff811115614812576148116141be565b5b61481e86828701614774565b92509250509250925092565b60008083601f8401126148405761483f614457565b5b8235905067ffffffffffffffff81111561485d5761485c61445c565b5b60208301915083602082028301111561487957614878614461565b5b9250929050565b61488981614248565b811461489457600080fd5b50565b6000813590506148a681614880565b92915050565b6000806000604084860312156148c5576148c46141b9565b5b600084013567ffffffffffffffff8111156148e3576148e26141be565b5b6148ef8682870161482a565b9350935050602061490286828701614897565b9150509250925092565b600080600080600060a08688031215614928576149276141b9565b5b600061493688828901614295565b955050602061494788828901614295565b945050604061495888828901614533565b935050606061496988828901614897565b925050608061497a88828901614533565b9150509295509295909350565b600081519050919050565b600082825260208201905092915050565b6000819050602082019050919050565b6149bc8161417b565b82525050565b60006149ce83836149b3565b60208301905092915050565b6000602082019050919050565b60006149f282614987565b6149fc8185614992565b9350614a07836149a3565b8060005b83811015614a38578151614a1f88826149c2565b9750614a2a836149da565b925050600181019050614a0b565b5085935050505092915050565b60006020820190508181036000830152614a5f81846149e7565b905092915050565b60048110614a7857614a776142d7565b5b50565b6000819050614a8982614a67565b919050565b6000614a9982614a7b565b9050919050565b614aa981614a8e565b82525050565b6000602082019050614ac46000830184614aa0565b92915050565b614ad381614736565b82525050565b6000602082019050614aee6000830184614aca565b92915050565b6000819050919050565b6000614b19614b14614b0f846143e7565b614af4565b6143e7565b9050919050565b6000614b2b82614afe565b9050919050565b6000614b3d82614b20565b9050919050565b614b4d81614b32565b82525050565b6000602082019050614b686000830184614b44565b92915050565b614b77816143a1565b8114614b8257600080fd5b50565b600081359050614b9481614b6e565b92915050565b600060208284031215614bb057614baf6141b9565b5b6000614bbe84828501614b85565b91505092915050565b60006bffffffffffffffffffffffff82169050919050565b614be881614bc7565b8114614bf357600080fd5b50565b600081359050614c0581614bdf565b92915050565b600060208284031215614c2157614c206141b9565b5b6000614c2f84828501614bf6565b91505092915050565b60008060008060008060a08789031215614c5557614c546141b9565b5b600087013567ffffffffffffffff811115614c7357614c726141be565b5b614c7f89828a01614466565b96509650506020614c9289828a01614295565b9450506040614ca389828a01614533565b9350506060614cb489828a01614897565b9250506080614cc589828a01614533565b9150509295509295509295565b614cdb81614407565b82525050565b6000602082019050614cf66000830184614cd2565b92915050565b6000614d0782614407565b9050919050565b614d1781614cfc565b8114614d2257600080fd5b50565b600081359050614d3481614d0e565b92915050565b60008060408385031215614d5157614d506141b9565b5b6000614d5f85828601614d25565b9250506020614d7085828601614295565b9150509250929050565b6000614d8582614407565b9050919050565b614d9581614d7a565b8114614da057600080fd5b50565b600081359050614db281614d8c565b92915050565b600080600080600060608688031215614dd457614dd36141b9565b5b6000614de288828901614da3565b955050602086013567ffffffffffffffff811115614e0357614e026141be565b5b614e0f88828901614466565b9450945050604086013567ffffffffffffffff811115614e3257614e316141be565b5b614e3e88828901614466565b92509250509295509295909350565b60008060008060008060a08789031215614e6a57614e696141b9565b5b600087013567ffffffffffffffff811115614e8857614e876141be565b5b614e9489828a01614466565b96509650506020614ea789828a01614295565b9450506040614eb889828a0161475f565b9350506060614ec989828a01614897565b9250506080614eda89828a01614533565b9150509295509295509295565b60038110614ef857614ef76142d7565b5b50565b6000819050614f0982614ee7565b919050565b6000614f1982614efb565b9050919050565b614f2981614f0e565b82525050565b6000602082019050614f446000830184614f20565b92915050565b600067ffffffffffffffff821115614f6557614f6461455e565b5b602082029050602081019050919050565b6000614f89614f8484614f4a565b6145be565b90508083825260208201905060208402830185811115614fac57614fab614461565b5b835b81811015614fd55780614fc18882614295565b845260208401935050602081019050614fae565b5050509392505050565b600082601f830112614ff457614ff3614457565b5b8135615004848260208601614f76565b91505092915050565b600080600080600060a08688031215615029576150286141b9565b5b600061503788828901614533565b955050602061504888828901614533565b945050604086013567ffffffffffffffff811115615069576150686141be565b5b61507588828901614fdf565b935050606086013567ffffffffffffffff811115615096576150956141be565b5b6150a288828901614fdf565b925050608086013567ffffffffffffffff8111156150c3576150c26141be565b5b6150cf8882890161465b565b9150509295509295909350565b60006150e782614b20565b9050919050565b6150f7816150dc565b82525050565b600060208201905061511260008301846150ee565b92915050565b61512181614bc7565b82525050565b600060208201905061513c6000830184615118565b92915050565b600061514d82614b20565b9050919050565b61515d81615142565b82525050565b60006020820190506151786000830184615154565b92915050565b600080600080600060a0868803121561519a576151996141b9565b5b60006151a888828901614533565b95505060206151b988828901614533565b94505060406151ca88828901614295565b93505060606151db88828901614295565b925050608086013567ffffffffffffffff8111156151fc576151fb6141be565b5b6152088882890161465b565b9150509295509295909350565b60006020828403121561522b5761522a6141b9565b5b600061523984828501614533565b91505092915050565b600060208284031215615258576152576141b9565b5b60006152668482850161475f565b91505092915050565b600080600080600060a0868803121561528b5761528a6141b9565b5b600061529988828901614533565b95505060206152aa8882890161475f565b94505060406152bb88828901614b85565b93505060606152cc88828901614bf6565b92505060806152dd88828901614b85565b9150509295509295909350565b6000815190506152f98161427e565b92915050565b600060208284031215615315576153146141b9565b5b6000615323848285016152ea565b91505092915050565b600061534761534261533d84614bc7565b614af4565b61417b565b9050919050565b6153578161532c565b82525050565b600060a08201905061537260008301886143bd565b61537f60208301876143bd565b61538c6040830186614185565b615399606083018561534e565b6153a66080830184614185565b9695505050505050565b600381106153bd57600080fd5b50565b6000815190506153cf816153b0565b92915050565b6000815190506153e481614b6e565b92915050565b600080600080600060a08688031215615406576154056141b9565b5b6000615414888289016153c0565b9550506020615425888289016153d5565b9450506040615436888289016153d5565b9350506060615447888289016152ea565b9250506080615458888289016152ea565b9150509295509295909350565b7f4e487b7100000000000000000000000000000000000000000000000000000000600052603260045260246000fd5b60006060820190506154a96000830186614cd2565b6154b66020830185614cd2565b6154c36040830184614185565b949350505050565b60006154d682614b20565b9050919050565b6154e6816154cb565b82525050565b600060208201905061550160008301846154dd565b92915050565b60008151905061551681614880565b92915050565b600060208284031215615532576155316141b9565b5b600061554084828501615507565b91505092915050565b600082825260208201905092915050565b7f546172676574206d7573742062652077686974656c6973746564000000000000600082015250565b6000615590601a83615549565b915061559b8261555a565b602082019050919050565b600060208201905081810360008301526155bf81615583565b9050919050565b600081905092915050565b60006155dd83856155c6565b93506155ea83858461460a565b82840190509392505050565b60006156038284866155d1565b91508190509392505050565b7f43616c6c206661696c6564000000000000000000000000000000000000000000600082015250565b6000615645600b83615549565b91506156508261560f565b602082019050919050565b6000602082019050818103600083015261567481615638565b9050919050565b600080fd5b600080fd5b600080fd5b600080833560016020038436030381126156a7576156a661567b565b5b80840192508235915067ffffffffffffffff8211156156c9576156c8615680565b5b6020830192506001820236038313156156e5576156e4615685565b5b509250929050565b600081519050919050565b60005b838110156157165780820151818401526020810190506156fb565b60008484015250505050565b600061572d826156ed565b6157378185615549565b93506157478185602086016156f8565b6157508161454d565b840191505092915050565b600060208201905081810360008301526157758184615722565b905092915050565b7f4f776e6572736869702063616e6e6f74206265206368616e67656420696e206d60008201527f756c746963616c6c000000000000000000000000000000000000000000000000602082015250565b60006157d9602883615549565b91506157e48261577d565b604082019050919050565b60006020820190508181036000830152615808816157cc565b9050919050565b7f5265656e7472616e637947756172643a207265656e7472616e742063616c6c00600082015250565b6000615845601f83615549565b91506158508261580f565b602082019050919050565b6000602082019050818103600083015261587481615838565b9050919050565b7f57726f6e6720506f6f6c20747970650000000000000000000000000000000000600082015250565b60006158b1600f83615549565b91506158bc8261587b565b602082019050919050565b600060208201905081810360008301526158e0816158a4565b9050919050565b7f41736b20666f72203e203020616e64203c3d2062616c616e63654f66204e465460008201527f7300000000000000000000000000000000000000000000000000000000000000602082015250565b6000615943602183615549565b915061594e826158e7565b604082019050919050565b6000602082019050818103600083015261597281615936565b9050919050565b7f496e76616c69642064656c746120666f72206375727665000000000000000000600082015250565b60006159af601783615549565b91506159ba82615979565b602082019050919050565b600060208201905081810360008301526159de816159a2565b9050919050565b7f4f6e6c7920666f7220547261646520706f6f6c73000000000000000000000000600082015250565b6000615a1b601483615549565b9150615a26826159e5565b602082019050919050565b60006020820190508181036000830152615a4a81615a0e565b9050919050565b7f547261646520666565206d757374206265206c657373207468616e2039302500600082015250565b6000615a87601f83615549565b9150615a9282615a51565b602082019050919050565b60006020820190508181036000830152615ab681615a7a565b9050919050565b7f4d7573742061736b20666f72203e2030204e4654730000000000000000000000600082015250565b6000615af3601583615549565b9150615afe82615abd565b602082019050919050565b60006020820190508181036000830152615b2281615ae6565b9050919050565b600080fd5b82818337505050565b6000615b438385614992565b93507f07ffffffffffffffffffffffffffffffffffffffffffffffffffffffffffffff831115615b7657615b75615b29565b5b602083029250615b87838584615b2e565b82840190509392505050565b600082825260208201905092915050565b50565b6000615bb4600083615b93565b9150615bbf82615ba4565b600082019050919050565b600060a082019050615bdf6000830189614cd2565b615bec6020830188614cd2565b8181036040830152615bff818688615b37565b90508181036060830152615c14818486615b37565b90508181036080830152615c2781615ba7565b9050979650505050505050565b7f496e76616c6964206e65772073706f7420707269636520666f72206375727665600082015250565b6000615c6a602083615549565b9150615c7582615c34565b602082019050919050565b60006020820190508181036000830152615c9981615c5d565b9050919050565b7f4e6f7420666f7220547261646520706f6f6c7300000000000000000000000000600082015250565b6000615cd6601383615549565b9150615ce182615ca0565b602082019050919050565b60006020820190508181036000830152615d0581615cc9565b9050919050565b7f496e697469616c697a6564000000000000000000000000000000000000000000600082015250565b6000615d42600b83615549565b9150615d4d82615d0c565b602082019050919050565b60006020820190508181036000830152615d7181615d35565b9050919050565b7f4f6e6c7920547261646520506f6f6c732063616e2068617665206e6f6e7a657260008201527f6f20666565000000000000000000000000000000000000000000000000000000602082015250565b6000615dd4602583615549565b9150615ddf82615d78565b604082019050919050565b60006020820190508181036000830152615e0381615dc7565b9050919050565b7f547261646520706f6f6c732063616e277420736574206173736574207265636960008201527f7069656e74000000000000000000000000000000000000000000000000000000602082015250565b6000615e66602583615549565b9150615e7182615e0a565b604082019050919050565b60006020820190508181036000830152615e9581615e59565b9050919050565b600067ffffffffffffffff821115615eb757615eb661455e565b5b615ec08261454d565b9050602081019050919050565b6000615ee0615edb84615e9c565b6145be565b905082815260208101848484011115615efc57615efb614548565b5b615f078482856156f8565b509392505050565b600082601f830112615f2457615f23614457565b5b8151615f34848260208601615ecd565b91505092915050565b600060208284031215615f5357615f526141b9565b5b600082015167ffffffffffffffff811115615f7157615f706141be565b5b615f7d84828501615f0f565b91505092915050565b6000602082019050615f9b600083018461433f565b92915050565b7f496e20746f6f206d616e7920746f6b656e730000000000000000000000000000600082015250565b6000615fd7601283615549565b9150615fe282615fa1565b602082019050919050565b6000602082019050818103600083015261600681615fca565b9050919050565b7f53656e7420746f6f206c6974746c652045544800000000000000000000000000600082015250565b6000616043601383615549565b915061604e8261600d565b602082019050919050565b6000602082019050818103600083015261607281616036565b9050919050565b7f4e487b7100000000000000000000000000000000000000000000000000000000600052601160045260246000fd5b60006160b38261417b565b91506160be8361417b565b92508282039050818111156160d6576160d5616079565b5b92915050565b7f5452414e534645525f4641494c45440000000000000000000000000000000000600082015250565b6000616112600f83615549565b915061611d826160dc565b602082019050919050565b6000602082019050818103600083015261614181616105565b9050919050565b7f4f757420746f6f206c6974746c6520746f6b656e730000000000000000000000600082015250565b600061617e601583615549565b915061618982616148565b602082019050919050565b600060208201905081810360008301526161ad81616171565b9050919050565b60006161bf82614afe565b9050919050565b60006161d1826161b4565b9050919050565b6161e1816161c6565b82525050565b60006020820190506161fc60008301846161d8565b92915050565b60008060408385031215616219576162186141b9565b5b600061622785828601615507565b925050602061623885828601615507565b9150509250929050565b7f4e6f7420726f7574657200000000000000000000000000000000000000000000600082015250565b6000616278600a83615549565b915061628382616242565b602082019050919050565b600060208201905081810360008301526162a78161626b565b9050919050565b600060a0820190506162c36000830188614b44565b6162d06020830187614cd2565b6162dd6040830186614cd2565b6162ea6060830185614185565b6162f76080830184614aa0565b9695505050505050565b7f4e465473206e6f74207472616e73666572726564000000000000000000000000600082015250565b6000616337601483615549565b915061634282616301565b602082019050919050565b600060208201905081810360008301526163668161632a565b9050919050565b60008151905061637c8161451c565b92915050565b600060208284031215616398576163976141b9565b5b60006163a68482850161636d565b91505092915050565b7f4e4654206e6f74207472616e7366657272656400000000000000000000000000600082015250565b60006163e5601383615549565b91506163f0826163af565b602082019050919050565b60006020820190508181036000830152616414816163d8565b9050919050565b7f4554485f5452414e534645525f4641494c454400000000000000000000000000600082015250565b6000616451601383615549565b915061645c8261641b565b602082019050919050565b6000602082019050818103600083015261648081616444565b9050919050565b7f4e487b7100000000000000000000000000000000000000000000000000000000600052603160045260246000fdfea2646970667358221220476ceb1581ba71c9918c498b68c8def5fb8c518dd7ac940c4567c5c26c58d00164736f6c63430008100033",
  "immutableReferences": {},
  "source": "// SPDX-License-Identifier: AGPL-3.0\npragma solidity ^0.8.0;\n\nimport {LSSVMPairETH} from \"./LSSVMPairETH.sol\";\nimport {LSSVMPairMissingEnumerable} from \"./LSSVMPairMissingEnumerable.sol\";\nimport {ILSSVMPairFactoryLike} from \"./ILSSVMPairFactoryLike.sol\";\n\ncontract LSSVMPairMissingEnumerableETH is\n    LSSVMPairMissingEnumerable,\n    LSSVMPairETH\n{\n    function pairVariant()\n        public\n        pure\n        override\n        returns (ILSSVMPairFactoryLike.PairVariant)\n    {\n        return ILSSVMPairFactoryLike.PairVariant.MISSING_ENUMERABLE_ETH;\n    }\n}\n",
  "sourcePath": "/Users/brett/workSpace/NFTSea/nftsea-contract/contracts/LSSVMPairMissingEnumerableETH.sol",
  "compiler": {
    "name": "solc",
    "version": "0.8.16+commit.07a7930e.Emscripten.clang"
  },
  "schemaVersion": "3.4.9",
  "updatedAt": "2022-09-03T12:01:49.539Z",
  "devdoc": {
    "kind": "dev",
    "methods": {
      "call(address,bytes)": {
        "params": {
          "data": "The calldata to pass to the contract",
          "target": "The contract to call"
        }
      },
      "changeAssetRecipient(address)": {
        "params": {
          "newRecipient": "The new asset recipient"
        }
      },
      "changeDelta(uint128)": {
        "params": {
          "newDelta": "The new delta parameter"
        }
      },
      "changeFee(uint96)": {
        "params": {
          "newFee": "The new LP fee percentage, 18 decimals"
        }
      },
      "changeSpotPrice(uint128)": {
        "params": {
          "newSpotPrice": "The new selling spot price value, in Token"
        }
      },
      "getBuyNFTQuote(uint256)": {
        "details": "Used as read function to query the bonding curve for buy pricing info",
        "params": {
          "numNFTs": "The number of NFTs to buy from the pair"
        }
      },
      "getSellNFTQuote(uint256)": {
        "details": "Used as read function to query the bonding curve for sell pricing info",
        "params": {
          "numNFTs": "The number of NFTs to sell to the pair"
        }
      },
      "initialize(address,address,uint128,uint96,uint128)": {
        "details": "Only called once by factory to initialize. We verify this by making sure that the current owner is address(0). The Ownable library we use disallows setting the owner to be address(0), so this condition should only be valid before the first initialize call.",
        "params": {
          "_assetRecipient": "The address that will receive the TOKEN or NFT sent to this pair during swaps. NOTE: If set to address(0), they will go to the pair itself.",
          "_delta": "The initial delta of the bonding curve",
          "_fee": "The initial % fee taken, if this is a trade pair",
          "_owner": "The owner of the pair",
          "_spotPrice": "The initial price to sell an asset into the pair"
        }
      },
      "multicall(bytes[],bool)": {
        "details": "Intended for withdrawing/altering pool pricing in one tx, only callable by owner, cannot change owner",
        "params": {
          "calls": "The calldata for each call to make",
          "revertOnFail": "Whether or not to revert the entire tx if any of the calls fail"
        }
      },
      "onERC721Received(address,address,uint256,bytes)": {
        "details": "When safeTransfering an ERC721 in, we add ID to the idSet if it's the same collection used by pool. (As it doesn't auto-track because no ERC721Enumerable)"
      },
      "owner()": {
        "details": "Returns the address of the current owner."
      },
      "supportsInterface(bytes4)": {
        "details": "See {IERC165-supportsInterface}."
      },
      "swapNFTsForToken(uint256[],uint256,address,bool,address)": {
        "details": "To compute the amount of token to that will be received, call bondingCurve.getSellInfo.",
        "params": {
          "isRouter": "True if calling from LSSVMRouter, false otherwise. Not used for ETH pairs.",
          "minExpectedTokenOutput": "The minimum acceptable token received by the sender. If the actual amount is less than this value, the transaction will be reverted.",
          "nftIds": "The list of IDs of the NFTs to sell to the pair",
          "routerCaller": "If isRouter is true, ERC20 tokens will be transferred from this address. Not used for ETH pairs.",
          "tokenRecipient": "The recipient of the token output"
        },
        "returns": {
          "outputAmount": "The amount of token received"
        }
      },
      "swapTokenForAnyNFTs(uint256,uint256,address,bool,address)": {
        "details": "To compute the amount of token to send, call bondingCurve.getBuyInfo. This swap function is meant for users who are ID agnostic",
        "params": {
          "isRouter": "True if calling from LSSVMRouter, false otherwise. Not used for ETH pairs.",
          "maxExpectedTokenInput": "The maximum acceptable cost from the sender. If the actual amount is greater than this value, the transaction will be reverted.",
          "nftRecipient": "The recipient of the NFTs",
          "numNFTs": "The number of NFTs to purchase",
          "routerCaller": "If isRouter is true, ERC20 tokens will be transferred from this address. Not used for ETH pairs."
        },
        "returns": {
          "inputAmount": "The amount of token used for purchase"
        }
      },
      "swapTokenForSpecificNFTs(uint256[],uint256,address,bool,address)": {
        "details": "To compute the amount of token to send, call bondingCurve.getBuyInfo This swap is meant for users who want specific IDs. Also higher chance of reverting if some of the specified IDs leave the pool before the swap goes through.",
        "params": {
          "isRouter": "True if calling from LSSVMRouter, false otherwise. Not used for ETH pairs.",
          "maxExpectedTokenInput": "The maximum acceptable cost from the sender. If the actual amount is greater than this value, the transaction will be reverted.",
          "nftIds": "The list of IDs of the NFTs to purchase",
          "nftRecipient": "The recipient of the NFTs",
          "routerCaller": "If isRouter is true, ERC20 tokens will be transferred from this address. Not used for ETH pairs."
        },
        "returns": {
          "inputAmount": "The amount of token used for purchase"
        }
      },
      "transferOwnership(address)": {
        "details": "Transfers ownership of the contract to a new account (`newOwner`). Disallows setting to the zero address as a way to more gas-efficiently avoid reinitialization When ownership is transferred, if the new owner implements IOwnershipTransferCallback, we make a callback Can only be called by the current owner."
      },
      "withdrawAllETH()": {
        "details": "Only callable by the owner."
      },
      "withdrawERC1155(address,uint256[],uint256[])": {
        "params": {
          "a": "The NFT to transfer",
          "amounts": "The amounts of each id to transfer",
          "ids": "The NFT ids to transfer"
        }
      },
      "withdrawERC20(address,uint256)": {
        "params": {
          "a": "The token to transfer",
          "amount": "The amount of tokens to send to the owner"
        }
      },
      "withdrawERC721(address,uint256[])": {
        "details": "If the NFT is the pair's collection, we also remove it from the id tracking (if the NFT is missing enumerable).",
        "params": {
          "a": "The NFT to transfer",
          "nftIds": "The list of IDs of the NFTs to send to the owner"
        }
      },
      "withdrawETH(uint256)": {
        "details": "Only callable by the owner.",
        "params": {
          "amount": "The amount of token to send to the owner. If the pair's balance is less than this value, the transaction will be reverted."
        }
      }
    },
    "version": 1
  },
  "userdoc": {
    "kind": "user",
    "methods": {
      "bondingCurve()": {
        "notice": "Returns the type of bonding curve that parameterizes the pair"
      },
      "call(address,bytes)": {
        "notice": "Allows the pair to make arbitrary external calls to contracts whitelisted by the protocol. Only callable by the owner."
      },
      "changeAssetRecipient(address)": {
        "notice": "Changes the address that will receive assets received from trades. Only callable by the owner."
      },
      "changeDelta(uint128)": {
        "notice": "Updates the delta parameter. Only callable by the owner."
      },
      "changeFee(uint96)": {
        "notice": "Updates the fee taken by the LP. Only callable by the owner. Only callable if the pool is a Trade pool. Reverts if the fee is >= MAX_FEE."
      },
      "changeSpotPrice(uint128)": {
        "notice": "Updates the selling spot price. Only callable by the owner."
      },
      "getAllHeldIds()": {
        "notice": "Returns all NFT IDs held by the pool"
      },
      "getAssetRecipient()": {
        "notice": "Returns the address that assets that receives assets when a swap is done with this pair Can be set to another address by the owner, if set to address(0), defaults to the pair's own address"
      },
      "initialize(address,address,uint128,uint96,uint128)": {
        "notice": "Called during pair creation to set initial parameters"
      },
      "multicall(bytes[],bool)": {
        "notice": "Allows owner to batch multiple calls, forked from: https://github.com/boringcrypto/BoringSolidity/blob/master/contracts/BoringBatchable.sol"
      },
      "nft()": {
        "notice": "Returns the NFT collection that parameterizes the pair"
      },
      "pairVariant()": {
        "notice": "Returns the pair's variant (NFT is enumerable or not, pair uses ETH or ERC20)"
      },
      "poolType()": {
        "notice": "Returns the pair's type (TOKEN/NFT/TRADE)"
      },
      "swapNFTsForToken(uint256[],uint256,address,bool,address)": {
        "notice": "Sends a set of NFTs to the pair in exchange for token"
      },
      "swapTokenForAnyNFTs(uint256,uint256,address,bool,address)": {
        "notice": "Sends token to the pair in exchange for any `numNFTs` NFTs"
      },
      "swapTokenForSpecificNFTs(uint256[],uint256,address,bool,address)": {
        "notice": "Sends token to the pair in exchange for a specific set of NFTs"
      },
      "withdrawAllETH()": {
        "notice": "Withdraws all token owned by the pair to the owner address."
      },
      "withdrawERC1155(address,uint256[],uint256[])": {
        "notice": "Rescues ERC1155 tokens from the pair to the owner. Only callable by the owner."
      },
      "withdrawERC20(address,uint256)": {
        "notice": "Rescues ERC20 tokens from the pair to the owner. Only callable by the owner (onlyOwnable modifier is in the implemented function)."
      },
      "withdrawERC721(address,uint256[])": {
        "notice": "Rescues a specified set of NFTs owned by the pair to the owner address. (onlyOwnable modifier is in the implemented function)"
      },
      "withdrawETH(uint256)": {
        "notice": "Withdraws a specified amount of token owned by the pair to the owner address."
      }
    },
    "version": 1
  }
}