{
  "contractName": "LSSVMPairEnumerableERC20",
  "abi": [
    {
      "inputs": [
        {
          "internalType": "enum CurveErrorCodes.Error",
          "name": "error",
          "type": "uint8"
        }
      ],
      "name": "BondingCurveError",
      "type": "error"
    },
    {
      "inputs": [],
      "name": "Ownable_NewOwnerZeroAddress",
      "type": "error"
    },
    {
      "inputs": [],
      "name": "Ownable_NotOwner",
      "type": "error"
    },
    {
      "anonymous": false,
      "inputs": [
        {
          "indexed": false,
          "internalType": "address",
          "name": "a",
          "type": "address"
        }
      ],
      "name": "AssetRecipientChange",
      "type": "event"
    },
    {
      "anonymous": false,
      "inputs": [
        {
          "indexed": false,
          "internalType": "uint128",
          "name": "newDelta",
          "type": "uint128"
        }
      ],
      "name": "DeltaUpdate",
      "type": "event"
    },
    {
      "anonymous": false,
      "inputs": [
        {
          "indexed": false,
          "internalType": "uint96",
          "name": "newFee",
          "type": "uint96"
        }
      ],
      "name": "FeeUpdate",
      "type": "event"
    },
    {
      "anonymous": false,
      "inputs": [],
      "name": "NFTWithdrawal",
      "type": "event"
    },
    {
      "anonymous": false,
      "inputs": [
        {
          "indexed": true,
          "internalType": "address",
          "name": "newOwner",
          "type": "address"
        }
      ],
      "name": "OwnershipTransferred",
      "type": "event"
    },
    {
      "anonymous": false,
      "inputs": [
        {
          "indexed": false,
          "internalType": "uint128",
          "name": "newSpotPrice",
          "type": "uint128"
        }
      ],
      "name": "SpotPriceUpdate",
      "type": "event"
    },
    {
      "anonymous": false,
      "inputs": [],
      "name": "SwapNFTInPair",
      "type": "event"
    },
    {
      "anonymous": false,
      "inputs": [],
      "name": "SwapNFTOutPair",
      "type": "event"
    },
    {
      "anonymous": false,
      "inputs": [
        {
          "indexed": false,
          "internalType": "uint256",
          "name": "amount",
          "type": "uint256"
        }
      ],
      "name": "TokenDeposit",
      "type": "event"
    },
    {
      "anonymous": false,
      "inputs": [
        {
          "indexed": false,
          "internalType": "uint256",
          "name": "amount",
          "type": "uint256"
        }
      ],
      "name": "TokenWithdrawal",
      "type": "event"
    },
    {
      "inputs": [],
      "name": "assetRecipient",
      "outputs": [
        {
          "internalType": "address payable",
          "name": "",
          "type": "address"
        }
      ],
      "stateMutability": "view",
      "type": "function"
    },
    {
      "inputs": [],
      "name": "bondingCurve",
      "outputs": [
        {
          "internalType": "contract ICurve",
          "name": "_bondingCurve",
          "type": "address"
        }
      ],
      "stateMutability": "pure",
      "type": "function"
    },
    {
      "inputs": [
        {
          "internalType": "address payable",
          "name": "target",
          "type": "address"
        },
        {
          "internalType": "bytes",
          "name": "data",
          "type": "bytes"
        }
      ],
      "name": "call",
      "outputs": [],
      "stateMutability": "nonpayable",
      "type": "function"
    },
    {
      "inputs": [
        {
          "internalType": "address payable",
          "name": "newRecipient",
          "type": "address"
        }
      ],
      "name": "changeAssetRecipient",
      "outputs": [],
      "stateMutability": "nonpayable",
      "type": "function"
    },
    {
      "inputs": [
        {
          "internalType": "uint128",
          "name": "newDelta",
          "type": "uint128"
        }
      ],
      "name": "changeDelta",
      "outputs": [],
      "stateMutability": "nonpayable",
      "type": "function"
    },
    {
      "inputs": [
        {
          "internalType": "uint96",
          "name": "newFee",
          "type": "uint96"
        }
      ],
      "name": "changeFee",
      "outputs": [],
      "stateMutability": "nonpayable",
      "type": "function"
    },
    {
      "inputs": [
        {
          "internalType": "uint128",
          "name": "newSpotPrice",
          "type": "uint128"
        }
      ],
      "name": "changeSpotPrice",
      "outputs": [],
      "stateMutability": "nonpayable",
      "type": "function"
    },
    {
      "inputs": [],
      "name": "delta",
      "outputs": [
        {
          "internalType": "uint128",
          "name": "",
          "type": "uint128"
        }
      ],
      "stateMutability": "view",
      "type": "function"
    },
    {
      "inputs": [],
      "name": "factory",
      "outputs": [
        {
          "internalType": "contract ILSSVMPairFactoryLike",
          "name": "_factory",
          "type": "address"
        }
      ],
      "stateMutability": "pure",
      "type": "function"
    },
    {
      "inputs": [],
      "name": "fee",
      "outputs": [
        {
          "internalType": "uint96",
          "name": "",
          "type": "uint96"
        }
      ],
      "stateMutability": "view",
      "type": "function"
    },
    {
      "inputs": [],
      "name": "getAllHeldIds",
      "outputs": [
        {
          "internalType": "uint256[]",
          "name": "",
          "type": "uint256[]"
        }
      ],
      "stateMutability": "view",
      "type": "function"
    },
    {
      "inputs": [],
      "name": "getAssetRecipient",
      "outputs": [
        {
          "internalType": "address payable",
          "name": "_assetRecipient",
          "type": "address"
        }
      ],
      "stateMutability": "view",
      "type": "function"
    },
    {
      "inputs": [
        {
          "internalType": "uint256",
          "name": "numNFTs",
          "type": "uint256"
        }
      ],
      "name": "getBuyNFTQuote",
      "outputs": [
        {
          "internalType": "enum CurveErrorCodes.Error",
          "name": "error",
          "type": "uint8"
        },
        {
          "internalType": "uint256",
          "name": "newSpotPrice",
          "type": "uint256"
        },
        {
          "internalType": "uint256",
          "name": "newDelta",
          "type": "uint256"
        },
        {
          "internalType": "uint256",
          "name": "inputAmount",
          "type": "uint256"
        },
        {
          "internalType": "uint256",
          "name": "protocolFee",
          "type": "uint256"
        }
      ],
      "stateMutability": "view",
      "type": "function"
    },
    {
      "inputs": [
        {
          "internalType": "uint256",
          "name": "numNFTs",
          "type": "uint256"
        }
      ],
      "name": "getSellNFTQuote",
      "outputs": [
        {
          "internalType": "enum CurveErrorCodes.Error",
          "name": "error",
          "type": "uint8"
        },
        {
          "internalType": "uint256",
          "name": "newSpotPrice",
          "type": "uint256"
        },
        {
          "internalType": "uint256",
          "name": "newDelta",
          "type": "uint256"
        },
        {
          "internalType": "uint256",
          "name": "outputAmount",
          "type": "uint256"
        },
        {
          "internalType": "uint256",
          "name": "protocolFee",
          "type": "uint256"
        }
      ],
      "stateMutability": "view",
      "type": "function"
    },
    {
      "inputs": [
        {
          "internalType": "address",
          "name": "_owner",
          "type": "address"
        },
        {
          "internalType": "address payable",
          "name": "_assetRecipient",
          "type": "address"
        },
        {
          "internalType": "uint128",
          "name": "_delta",
          "type": "uint128"
        },
        {
          "internalType": "uint96",
          "name": "_fee",
          "type": "uint96"
        },
        {
          "internalType": "uint128",
          "name": "_spotPrice",
          "type": "uint128"
        }
      ],
      "name": "initialize",
      "outputs": [],
      "stateMutability": "payable",
      "type": "function"
    },
    {
      "inputs": [
        {
          "internalType": "bytes[]",
          "name": "calls",
          "type": "bytes[]"
        },
        {
          "internalType": "bool",
          "name": "revertOnFail",
          "type": "bool"
        }
      ],
      "name": "multicall",
      "outputs": [],
      "stateMutability": "nonpayable",
      "type": "function"
    },
    {
      "inputs": [],
      "name": "nft",
      "outputs": [
        {
          "internalType": "contract IERC721",
          "name": "_nft",
          "type": "address"
        }
      ],
      "stateMutability": "pure",
      "type": "function"
    },
    {
      "inputs": [
        {
          "internalType": "address",
          "name": "",
          "type": "address"
        },
        {
          "internalType": "address",
          "name": "",
          "type": "address"
        },
        {
          "internalType": "uint256[]",
          "name": "",
          "type": "uint256[]"
        },
        {
          "internalType": "uint256[]",
          "name": "",
          "type": "uint256[]"
        },
        {
          "internalType": "bytes",
          "name": "",
          "type": "bytes"
        }
      ],
      "name": "onERC1155BatchReceived",
      "outputs": [
        {
          "internalType": "bytes4",
          "name": "",
          "type": "bytes4"
        }
      ],
      "stateMutability": "nonpayable",
      "type": "function"
    },
    {
      "inputs": [
        {
          "internalType": "address",
          "name": "",
          "type": "address"
        },
        {
          "internalType": "address",
          "name": "",
          "type": "address"
        },
        {
          "internalType": "uint256",
          "name": "",
          "type": "uint256"
        },
        {
          "internalType": "uint256",
          "name": "",
          "type": "uint256"
        },
        {
          "internalType": "bytes",
          "name": "",
          "type": "bytes"
        }
      ],
      "name": "onERC1155Received",
      "outputs": [
        {
          "internalType": "bytes4",
          "name": "",
          "type": "bytes4"
        }
      ],
      "stateMutability": "nonpayable",
      "type": "function"
    },
    {
      "inputs": [
        {
          "internalType": "address",
          "name": "",
          "type": "address"
        },
        {
          "internalType": "address",
          "name": "",
          "type": "address"
        },
        {
          "internalType": "uint256",
          "name": "",
          "type": "uint256"
        },
        {
          "internalType": "bytes",
          "name": "",
          "type": "bytes"
        }
      ],
      "name": "onERC721Received",
      "outputs": [
        {
          "internalType": "bytes4",
          "name": "",
          "type": "bytes4"
        }
      ],
      "stateMutability": "nonpayable",
      "type": "function"
    },
    {
      "inputs": [],
      "name": "owner",
      "outputs": [
        {
          "internalType": "address",
          "name": "",
          "type": "address"
        }
      ],
      "stateMutability": "view",
      "type": "function"
    },
    {
      "inputs": [],
      "name": "poolType",
      "outputs": [
        {
          "internalType": "enum LSSVMPair.PoolType",
          "name": "_poolType",
          "type": "uint8"
        }
      ],
      "stateMutability": "pure",
      "type": "function"
    },
    {
      "inputs": [],
      "name": "spotPrice",
      "outputs": [
        {
          "internalType": "uint128",
          "name": "",
          "type": "uint128"
        }
      ],
      "stateMutability": "view",
      "type": "function"
    },
    {
      "inputs": [
        {
          "internalType": "bytes4",
          "name": "interfaceId",
          "type": "bytes4"
        }
      ],
      "name": "supportsInterface",
      "outputs": [
        {
          "internalType": "bool",
          "name": "",
          "type": "bool"
        }
      ],
      "stateMutability": "view",
      "type": "function"
    },
    {
      "inputs": [
        {
          "internalType": "uint256[]",
          "name": "nftIds",
          "type": "uint256[]"
        },
        {
          "internalType": "uint256",
          "name": "minExpectedTokenOutput",
          "type": "uint256"
        },
        {
          "internalType": "address payable",
          "name": "tokenRecipient",
          "type": "address"
        },
        {
          "internalType": "bool",
          "name": "isRouter",
          "type": "bool"
        },
        {
          "internalType": "address",
          "name": "routerCaller",
          "type": "address"
        }
      ],
      "name": "swapNFTsForToken",
      "outputs": [
        {
          "internalType": "uint256",
          "name": "outputAmount",
          "type": "uint256"
        }
      ],
      "stateMutability": "nonpayable",
      "type": "function"
    },
    {
      "inputs": [
        {
          "internalType": "uint256",
          "name": "numNFTs",
          "type": "uint256"
        },
        {
          "internalType": "uint256",
          "name": "maxExpectedTokenInput",
          "type": "uint256"
        },
        {
          "internalType": "address",
          "name": "nftRecipient",
          "type": "address"
        },
        {
          "internalType": "bool",
          "name": "isRouter",
          "type": "bool"
        },
        {
          "internalType": "address",
          "name": "routerCaller",
          "type": "address"
        }
      ],
      "name": "swapTokenForAnyNFTs",
      "outputs": [
        {
          "internalType": "uint256",
          "name": "inputAmount",
          "type": "uint256"
        }
      ],
      "stateMutability": "payable",
      "type": "function"
    },
    {
      "inputs": [
        {
          "internalType": "uint256[]",
          "name": "nftIds",
          "type": "uint256[]"
        },
        {
          "internalType": "uint256",
          "name": "maxExpectedTokenInput",
          "type": "uint256"
        },
        {
          "internalType": "address",
          "name": "nftRecipient",
          "type": "address"
        },
        {
          "internalType": "bool",
          "name": "isRouter",
          "type": "bool"
        },
        {
          "internalType": "address",
          "name": "routerCaller",
          "type": "address"
        }
      ],
      "name": "swapTokenForSpecificNFTs",
      "outputs": [
        {
          "internalType": "uint256",
          "name": "inputAmount",
          "type": "uint256"
        }
      ],
      "stateMutability": "payable",
      "type": "function"
    },
    {
      "inputs": [],
      "name": "token",
      "outputs": [
        {
          "internalType": "contract ERC20",
          "name": "_token",
          "type": "address"
        }
      ],
      "stateMutability": "pure",
      "type": "function"
    },
    {
      "inputs": [
        {
          "internalType": "address",
          "name": "newOwner",
          "type": "address"
        }
      ],
      "name": "transferOwnership",
      "outputs": [],
      "stateMutability": "nonpayable",
      "type": "function"
    },
    {
      "inputs": [
        {
          "internalType": "contract IERC1155",
          "name": "a",
          "type": "address"
        },
        {
          "internalType": "uint256[]",
          "name": "ids",
          "type": "uint256[]"
        },
        {
          "internalType": "uint256[]",
          "name": "amounts",
          "type": "uint256[]"
        }
      ],
      "name": "withdrawERC1155",
      "outputs": [],
      "stateMutability": "nonpayable",
      "type": "function"
    },
    {
      "inputs": [
        {
          "internalType": "contract ERC20",
          "name": "a",
          "type": "address"
        },
        {
          "internalType": "uint256",
          "name": "amount",
          "type": "uint256"
        }
      ],
      "name": "withdrawERC20",
      "outputs": [],
      "stateMutability": "nonpayable",
      "type": "function"
    },
    {
      "inputs": [
        {
          "internalType": "contract IERC721",
          "name": "a",
          "type": "address"
        },
        {
          "internalType": "uint256[]",
          "name": "nftIds",
          "type": "uint256[]"
        }
      ],
      "name": "withdrawERC721",
      "outputs": [],
      "stateMutability": "nonpayable",
      "type": "function"
    },
    {
      "inputs": [],
      "name": "pairVariant",
      "outputs": [
        {
          "internalType": "enum ILSSVMPairFactoryLike.PairVariant",
          "name": "",
          "type": "uint8"
        }
      ],
      "stateMutability": "pure",
      "type": "function"
    }
  ],
  "bytecode": "0x608060405234801561001057600080fd5b506165f780620000216000396000f3fe6080604052600436106101ee5760003560e01c806379eac6c21161010d578063c45a0155116100a0578063f23a6e611161006f578063f23a6e6114610715578063f2fde38b14610752578063f46295491461077b578063fc0c546a146107a4578063fd17aef9146107cf576101ee565b8063c45a01551461066b578063d8a1890c14610696578063ddca3f43146106bf578063eff1d50e146106ea576101ee565b8063a5ceac99116100dc578063a5ceac991461059d578063b1d3f1c1146105c6578063b1dd61b614610603578063bc197c811461062e576101ee565b806379eac6c2146104dd5780638da5cb5b14610508578063a1db978214610533578063a5cb2b911461055c576101ee565b80632f4fefaf1161018557806347ccca021161015457806347ccca02146104305780636809f6641461045b5780636b7a2200146104845780636d8b99f7146104ad576101ee565b80632f4fefaf146103845780633053fc58146103af578063398482d8146103da5780633bfa67fe14610405576101ee565b8063150b7a02116101c1578063150b7a02146102c55780631b8b921d146103025780631e9701d41461032b57806328b8aee114610354576101ee565b806301ffc9a7146101f35780630c295e561461023057806312b495a81461027157806313edab811461029c575b600080fd5b3480156101ff57600080fd5b5061021a600480360381019061021591906141fd565b6107eb565b6040516102279190614245565b60405180910390f35b34801561023c57600080fd5b5061025760048036038101906102529190614296565b610865565b604051610268959493929190614349565b60405180910390f35b34801561027d57600080fd5b50610286610a08565b60405161029391906143c7565b60405180910390f35b3480156102a857600080fd5b506102c360048036038101906102be91906144b7565b610a2a565b005b3480156102d157600080fd5b506102ec60048036038101906102e79190614684565b610b6f565b6040516102f99190614716565b60405180910390f35b34801561030e57600080fd5b50610329600480360381019061032491906147c5565b610b83565b005b34801561033757600080fd5b50610352600480360381019061034d91906148a7565b610d6c565b005b61036e60048036038101906103699190614907565b610f55565b60405161037b9190614982565b60405180910390f35b34801561039057600080fd5b506103996111a9565b6040516103a69190614a5b565b60405180910390f35b3480156103bb57600080fd5b506103c461133d565b6040516103d19190614ac5565b60405180910390f35b3480156103e657600080fd5b506103ef611346565b6040516103fc91906143c7565b60405180910390f35b34801561041157600080fd5b5061041a611368565b6040516104279190614aef565b60405180910390f35b34801561043c57600080fd5b5061044561138e565b6040516104529190614b69565b60405180910390f35b34801561046757600080fd5b50610482600480360381019061047d9190614bb0565b6113ab565b005b34801561049057600080fd5b506104ab60048036038101906104a69190614c21565b61159a565b005b6104c760048036038101906104c29190614c4e565b61177a565b6040516104d49190614982565b60405180910390f35b3480156104e957600080fd5b506104f261194b565b6040516104ff9190614aef565b60405180910390f35b34801561051457600080fd5b5061051d6119e8565b60405161052a9190614cf7565b60405180910390f35b34801561053f57600080fd5b5061055a60048036038101906105559190614d50565b611a11565b005b34801561056857600080fd5b50610583600480360381019061057e9190614296565b611b1e565b604051610594959493929190614349565b60405180910390f35b3480156105a957600080fd5b506105c460048036038101906105bf9190614dce565b611cc1565b005b3480156105d257600080fd5b506105ed60048036038101906105e89190614e63565b611da9565b6040516105fa9190614982565b60405180910390f35b34801561060f57600080fd5b50610618611f7a565b6040516106259190614f45565b60405180910390f35b34801561063a57600080fd5b5061065560048036038101906106509190615023565b611f97565b6040516106629190614716565b60405180910390f35b34801561067757600080fd5b50610680611fac565b60405161068d9190615113565b60405180910390f35b3480156106a257600080fd5b506106bd60048036038101906106b89190614bb0565b611fc6565b005b3480156106cb57600080fd5b506106d46121b5565b6040516106e1919061513d565b60405180910390f35b3480156106f657600080fd5b506106ff6121d3565b60405161070c9190615179565b60405180910390f35b34801561072157600080fd5b5061073c60048036038101906107379190615194565b6121f0565b6040516107499190614716565b60405180910390f35b34801561075e57600080fd5b506107796004803603810190610774919061522b565b612205565b005b34801561078757600080fd5b506107a2600480360381019061079d9190615258565b6123a9565b005b3480156107b057600080fd5b506107b9612559565b6040516107c691906152a6565b60405180910390f35b6107e960048036038101906107e491906152c1565b612576565b005b60007f4e2312e0000000000000000000000000000000000000000000000000000000007bffffffffffffffffffffffffffffffffffffffffffffffffffffffff1916827bffffffffffffffffffffffffffffffffffffffffffffffffffffffff1916148061085e575061085d82612a1a565b5b9050919050565b60008060008060006108756121d3565b73ffffffffffffffffffffffffffffffffffffffff1663097cc63d600260009054906101000a90046fffffffffffffffffffffffffffffffff16600260109054906101000a90046fffffffffffffffffffffffffffffffff1689600360009054906101000a90046bffffffffffffffffffffffff166108f2611fac565b73ffffffffffffffffffffffffffffffffffffffff16631ce4c78b6040518163ffffffff1660e01b8152600401602060405180830381865afa15801561093c573d6000803e3d6000fd5b505050506040513d601f19601f820116820180604052508101906109609190615351565b6040518663ffffffff1660e01b81526004016109809594939291906153af565b60a060405180830381865afa15801561099d573d6000803e3d6000fd5b505050506040513d601f19601f820116820180604052508101906109c1919061543c565b836fffffffffffffffffffffffffffffffff169350826fffffffffffffffffffffffffffffffff169250809550819650829750839850849950505050505091939590929450565b600260109054906101000a90046fffffffffffffffffffffffffffffffff1681565b3373ffffffffffffffffffffffffffffffffffffffff16610a496119e8565b73ffffffffffffffffffffffffffffffffffffffff1614610a96576040517f5eee3ad100000000000000000000000000000000000000000000000000000000815260040160405180910390fd5b600082829050905060005b81811015610b3c578473ffffffffffffffffffffffffffffffffffffffff166342842e0e3033878786818110610ada57610ad96154b7565b5b905060200201356040518463ffffffff1660e01b8152600401610aff939291906154e6565b600060405180830381600087803b158015610b1957600080fd5b505af1158015610b2d573d6000803e3d6000fd5b50505050806001019050610aa1565b507f242b9b8fb5c0e6298454fcf80a0fbcbb7308620133d92b50091a1f64cee790e860405160405180910390a150505050565b600063150b7a0260e01b9050949350505050565b3373ffffffffffffffffffffffffffffffffffffffff16610ba26119e8565b73ffffffffffffffffffffffffffffffffffffffff1614610bef576040517f5eee3ad100000000000000000000000000000000000000000000000000000000815260040160405180910390fd5b6000610bf9611fac565b90508073ffffffffffffffffffffffffffffffffffffffff16631fba95e8856040518263ffffffff1660e01b8152600401610c34919061553e565b602060405180830381865afa158015610c51573d6000803e3d6000fd5b505050506040513d601f19601f82011682018060405250810190610c75919061556e565b610cb4576040517f08c379a0000000000000000000000000000000000000000000000000000000008152600401610cab906155f8565b60405180910390fd5b60008473ffffffffffffffffffffffffffffffffffffffff1660008585604051610cdf929190615648565b60006040518083038185875af1925050503d8060008114610d1c576040519150601f19603f3d011682016040523d82523d6000602084013e610d21565b606091505b5050905080610d65576040517f08c379a0000000000000000000000000000000000000000000000000000000008152600401610d5c906156ad565b60405180910390fd5b5050505050565b3373ffffffffffffffffffffffffffffffffffffffff16610d8b6119e8565b73ffffffffffffffffffffffffffffffffffffffff1614610dd8576040517f5eee3ad100000000000000000000000000000000000000000000000000000000815260040160405180910390fd5b60005b83839050811015610eda576000803073ffffffffffffffffffffffffffffffffffffffff16868685818110610e1357610e126154b7565b5b9050602002810190610e2591906156dc565b604051610e33929190615648565b600060405180830381855af49150503d8060008114610e6e576040519150601f19603f3d011682016040523d82523d6000602084013e610e73565b606091505b509150915081158015610e835750835b15610ecd57610e9181612a84565b6040517f08c379a0000000000000000000000000000000000000000000000000000000008152600401610ec491906157ad565b60405180910390fd5b8260010192505050610ddb565b503373ffffffffffffffffffffffffffffffffffffffff16610efa6119e8565b73ffffffffffffffffffffffffffffffffffffffff1614610f50576040517f08c379a0000000000000000000000000000000000000000000000000000000008152600401610f4790615841565b60405180910390fd5b505050565b6000600260015403610f9c576040517f08c379a0000000000000000000000000000000000000000000000000000000008152600401610f93906158ad565b60405180910390fd5b60026001819055506000610fae611fac565b90506000610fba6121d3565b90506000610fc661138e565b90506000610fd2611f7a565b905060016002811115610fe857610fe76142c3565b5b816002811115610ffb57610ffa6142c3565b5b148061102a5750600280811115611015576110146142c3565b5b816002811115611028576110276142c3565b5b145b611069576040517f08c379a000000000000000000000000000000000000000000000000000000000815260040161106090615919565b60405180910390fd5b60008a1180156110f257508173ffffffffffffffffffffffffffffffffffffffff166370a08231306040518263ffffffff1660e01b81526004016110ad9190614cf7565b602060405180830381865afa1580156110ca573d6000803e3d6000fd5b505050506040513d601f19601f820116820180604052508101906110ee9190615351565b8a11155b611131576040517f08c379a0000000000000000000000000000000000000000000000000000000008152600401611128906159ab565b60405180910390fd5b5060006111408a8a8587612aef565b80965081925050506111558588888785612ea9565b61116082898c61329c565b6111698561343a565b7fbc479dfc6cb9c1a9d880f987ee4b30fa43dd7f06aec121db685b67d587c93c9360405160405180910390a1505050506001808190555095945050505050565b606060006111b561138e565b905060008173ffffffffffffffffffffffffffffffffffffffff166370a08231306040518263ffffffff1660e01b81526004016111f29190614cf7565b602060405180830381865afa15801561120f573d6000803e3d6000fd5b505050506040513d601f19601f820116820180604052508101906112339190615351565b905060008167ffffffffffffffff81111561125157611250614559565b5b60405190808252806020026020018201604052801561127f5781602001602082028036833780820191505090505b50905060005b82811015611333578373ffffffffffffffffffffffffffffffffffffffff16632f745c5930836040518363ffffffff1660e01b81526004016112c89291906159cb565b602060405180830381865afa1580156112e5573d6000803e3d6000fd5b505050506040513d601f19601f820116820180604052508101906113099190615351565b82828151811061131c5761131b6154b7565b5b602002602001018181525050806001019050611285565b5080935050505090565b60006002905090565b600260009054906101000a90046fffffffffffffffffffffffffffffffff1681565b6003600c9054906101000a900473ffffffffffffffffffffffffffffffffffffffff1681565b60008061139961343d565b90506028813603013560601c91505090565b3373ffffffffffffffffffffffffffffffffffffffff166113ca6119e8565b73ffffffffffffffffffffffffffffffffffffffff1614611417576040517f5eee3ad100000000000000000000000000000000000000000000000000000000815260040160405180910390fd5b60006114216121d3565b90508073ffffffffffffffffffffffffffffffffffffffff16630ae67ccc836040518263ffffffff1660e01b815260040161145c91906143c7565b602060405180830381865afa158015611479573d6000803e3d6000fd5b505050506040513d601f19601f8201168201806040525081019061149d919061556e565b6114dc576040517f08c379a00000000000000000000000000000000000000000000000000000000081526004016114d390615a40565b60405180910390fd5b816fffffffffffffffffffffffffffffffff16600260109054906101000a90046fffffffffffffffffffffffffffffffff166fffffffffffffffffffffffffffffffff16146115965781600260106101000a8154816fffffffffffffffffffffffffffffffff02191690836fffffffffffffffffffffffffffffffff1602179055507fc958ae052d28f8d17bc2c4ddbabb699a3cab5cccefd034d0fc971efdadc01da58260405161158d91906143c7565b60405180910390a15b5050565b3373ffffffffffffffffffffffffffffffffffffffff166115b96119e8565b73ffffffffffffffffffffffffffffffffffffffff1614611606576040517f5eee3ad100000000000000000000000000000000000000000000000000000000815260040160405180910390fd5b6000611610611f7a565b9050600280811115611625576116246142c3565b5b816002811115611638576116376142c3565b5b14611678576040517f08c379a000000000000000000000000000000000000000000000000000000000815260040161166f90615aac565b60405180910390fd5b670c7d713b49da0000826bffffffffffffffffffffffff16106116d0576040517f08c379a00000000000000000000000000000000000000000000000000000000081526004016116c790615b18565b60405180910390fd5b816bffffffffffffffffffffffff16600360009054906101000a90046bffffffffffffffffffffffff166bffffffffffffffffffffffff16146117765781600360006101000a8154816bffffffffffffffffffffffff02191690836bffffffffffffffffffffffff1602179055507f66c55c30868c51e7ad52e3d85d1403576a9967614e67c48e25b55a10baa650c08260405161176d919061513d565b60405180910390a15b5050565b60006002600154036117c1576040517f08c379a00000000000000000000000000000000000000000000000000000000081526004016117b8906158ad565b60405180910390fd5b600260018190555060006117d3611fac565b905060006117df6121d3565b905060006117eb611f7a565b905060016002811115611801576118006142c3565b5b816002811115611814576118136142c3565b5b1480611843575060028081111561182e5761182d6142c3565b5b816002811115611841576118406142c3565b5b145b611882576040517f08c379a000000000000000000000000000000000000000000000000000000000815260040161187990615919565b60405180910390fd5b60008a8a9050116118c8576040517f08c379a00000000000000000000000000000000000000000000000000000000081526004016118bf90615b84565b60405180910390fd5b5060006118da8a8a9050898486612aef565b80955081925050506118ef8487878685612ea9565b6119026118fa61138e565b888c8c613446565b61190b8461343a565b7fbc479dfc6cb9c1a9d880f987ee4b30fa43dd7f06aec121db685b67d587c93c9360405160405180910390a1505050600180819055509695505050505050565b60006002808111156119605761195f6142c3565b5b611968611f7a565b600281111561197a576119796142c3565b5b03611987573090506119e5565b6003600c9054906101000a900473ffffffffffffffffffffffffffffffffffffffff169050600073ffffffffffffffffffffffffffffffffffffffff168173ffffffffffffffffffffffffffffffffffffffff16036119e4573090505b5b90565b60008060009054906101000a900473ffffffffffffffffffffffffffffffffffffffff16905090565b3373ffffffffffffffffffffffffffffffffffffffff16611a306119e8565b73ffffffffffffffffffffffffffffffffffffffff1614611a7d576040517f5eee3ad100000000000000000000000000000000000000000000000000000000815260040160405180910390fd5b611aa833828473ffffffffffffffffffffffffffffffffffffffff166134f49092919063ffffffff16565b611ab0612559565b73ffffffffffffffffffffffffffffffffffffffff168273ffffffffffffffffffffffffffffffffffffffff1603611b1a577f0e266e8f38544aa1480d73762386eb10df55b1b8453d935762e891c44b69a1e681604051611b119190614982565b60405180910390a15b5050565b6000806000806000611b2e6121d3565b73ffffffffffffffffffffffffffffffffffffffff16637ca542ac600260009054906101000a90046fffffffffffffffffffffffffffffffff16600260109054906101000a90046fffffffffffffffffffffffffffffffff1689600360009054906101000a90046bffffffffffffffffffffffff16611bab611fac565b73ffffffffffffffffffffffffffffffffffffffff16631ce4c78b6040518163ffffffff1660e01b8152600401602060405180830381865afa158015611bf5573d6000803e3d6000fd5b505050506040513d601f19601f82011682018060405250810190611c199190615351565b6040518663ffffffff1660e01b8152600401611c399594939291906153af565b60a060405180830381865afa158015611c56573d6000803e3d6000fd5b505050506040513d601f19601f82011682018060405250810190611c7a919061543c565b836fffffffffffffffffffffffffffffffff169350826fffffffffffffffffffffffffffffffff169250809550819650829750839850849950505050505091939590929450565b3373ffffffffffffffffffffffffffffffffffffffff16611ce06119e8565b73ffffffffffffffffffffffffffffffffffffffff1614611d2d576040517f5eee3ad100000000000000000000000000000000000000000000000000000000815260040160405180910390fd5b8473ffffffffffffffffffffffffffffffffffffffff16632eb2c2d63033878787876040518763ffffffff1660e01b8152600401611d7096959493929190615c45565b600060405180830381600087803b158015611d8a57600080fd5b505af1158015611d9e573d6000803e3d6000fd5b505050505050505050565b6000600260015403611df0576040517f08c379a0000000000000000000000000000000000000000000000000000000008152600401611de7906158ad565b60405180910390fd5b60026001819055506000611e02611fac565b90506000611e0e6121d3565b90506000611e1a611f7a565b905060006002811115611e3057611e2f6142c3565b5b816002811115611e4357611e426142c3565b5b1480611e725750600280811115611e5d57611e5c6142c3565b5b816002811115611e7057611e6f6142c3565b5b145b611eb1576040517f08c379a0000000000000000000000000000000000000000000000000000000008152600401611ea890615919565b60405180910390fd5b60008a8a905011611ef7576040517f08c379a0000000000000000000000000000000000000000000000000000000008152600401611eee90615b84565b60405180910390fd5b506000611f098a8a905089848661359a565b8095508192505050611f1b8785613954565b611f258382613994565b611f3a611f3061138e565b8b8b868a8a613a6f565b7f3614eb567740a0ee3897c0e2b11ad6a5720d2e4438f9c8accf6c95c24af3a47060405160405180910390a1505050600180819055509695505050505050565b600080611f8561343d565b9050603c813603013560f81c91505090565b600063bc197c8160e01b905095945050505050565b600080611fb761343d565b90508036033560601c91505090565b3373ffffffffffffffffffffffffffffffffffffffff16611fe56119e8565b73ffffffffffffffffffffffffffffffffffffffff1614612032576040517f5eee3ad100000000000000000000000000000000000000000000000000000000815260040160405180910390fd5b600061203c6121d3565b90508073ffffffffffffffffffffffffffffffffffffffff1663a1bbb2e8836040518263ffffffff1660e01b815260040161207791906143c7565b602060405180830381865afa158015612094573d6000803e3d6000fd5b505050506040513d601f19601f820116820180604052508101906120b8919061556e565b6120f7576040517f08c379a00000000000000000000000000000000000000000000000000000000081526004016120ee90615cfb565b60405180910390fd5b816fffffffffffffffffffffffffffffffff16600260009054906101000a90046fffffffffffffffffffffffffffffffff166fffffffffffffffffffffffffffffffff16146121b15781600260006101000a8154816fffffffffffffffffffffffffffffffff02191690836fffffffffffffffffffffffffffffffff1602179055507ff06180fdbe95e5193df4dcd1352726b1f04cb58599ce58552cc952447af2ffbb826040516121a891906143c7565b60405180910390a15b5050565b600360009054906101000a90046bffffffffffffffffffffffff1681565b6000806121de61343d565b90506014813603013560601c91505090565b600063f23a6e6160e01b905095945050505050565b3373ffffffffffffffffffffffffffffffffffffffff166122246119e8565b73ffffffffffffffffffffffffffffffffffffffff1614612271576040517f5eee3ad100000000000000000000000000000000000000000000000000000000815260040160405180910390fd5b600073ffffffffffffffffffffffffffffffffffffffff168173ffffffffffffffffffffffffffffffffffffffff16036122d7576040517fedf1b1fc00000000000000000000000000000000000000000000000000000000815260040160405180910390fd5b6122e081613f90565b6122ff8173ffffffffffffffffffffffffffffffffffffffff16614016565b156123a6578073ffffffffffffffffffffffffffffffffffffffff1663a741b468336040518263ffffffff1660e01b815260040161233d9190614cf7565b600060405180830381600087803b15801561235757600080fd5b505af1925050508015612368575060015b6123a4573d8060008114612398576040519150601f19603f3d011682016040523d82523d6000602084013e61239d565b606091505b50506123a5565b5b5b50565b3373ffffffffffffffffffffffffffffffffffffffff166123c86119e8565b73ffffffffffffffffffffffffffffffffffffffff1614612415576040517f5eee3ad100000000000000000000000000000000000000000000000000000000815260040160405180910390fd5b600061241f611f7a565b9050600280811115612434576124336142c3565b5b816002811115612447576124466142c3565b5b03612487576040517f08c379a000000000000000000000000000000000000000000000000000000000815260040161247e90615d67565b60405180910390fd5b8173ffffffffffffffffffffffffffffffffffffffff166003600c9054906101000a900473ffffffffffffffffffffffffffffffffffffffff1673ffffffffffffffffffffffffffffffffffffffff161461255557816003600c6101000a81548173ffffffffffffffffffffffffffffffffffffffff021916908373ffffffffffffffffffffffffffffffffffffffff1602179055507f678f61dcdee86474eddea0407caf8f1f5130382a90dedabaef94906ed86a27b48260405161254c919061553e565b60405180910390a15b5050565b60008061256461343d565b9050603d813603013560601c91505090565b600073ffffffffffffffffffffffffffffffffffffffff166125966119e8565b73ffffffffffffffffffffffffffffffffffffffff16146125ec576040517f08c379a00000000000000000000000000000000000000000000000000000000081526004016125e390615dd3565b60405180910390fd5b6125f585614039565b6125fd61407c565b60006126076121d3565b90506000612613611f7a565b905060006002811115612629576126286142c3565b5b81600281111561263c5761263b6142c3565b5b148061266c575060016002811115612657576126566142c3565b5b81600281111561266a576126696142c3565b5b145b15612708576000846bffffffffffffffffffffffff16146126c2576040517f08c379a00000000000000000000000000000000000000000000000000000000081526004016126b990615e65565b60405180910390fd5b856003600c6101000a81548173ffffffffffffffffffffffffffffffffffffffff021916908373ffffffffffffffffffffffffffffffffffffffff16021790555061282d565b60028081111561271b5761271a6142c3565b5b81600281111561272e5761272d6142c3565b5b0361282c57670c7d713b49da0000846bffffffffffffffffffffffff161061278b576040517f08c379a000000000000000000000000000000000000000000000000000000000815260040161278290615b18565b60405180910390fd5b600073ffffffffffffffffffffffffffffffffffffffff168673ffffffffffffffffffffffffffffffffffffffff16146127fa576040517f08c379a00000000000000000000000000000000000000000000000000000000081526004016127f190615ef7565b60405180910390fd5b83600360006101000a8154816bffffffffffffffffffffffff02191690836bffffffffffffffffffffffff1602179055505b5b8173ffffffffffffffffffffffffffffffffffffffff16630ae67ccc866040518263ffffffff1660e01b815260040161286691906143c7565b602060405180830381865afa158015612883573d6000803e3d6000fd5b505050506040513d601f19601f820116820180604052508101906128a7919061556e565b6128e6576040517f08c379a00000000000000000000000000000000000000000000000000000000081526004016128dd90615a40565b60405180910390fd5b8173ffffffffffffffffffffffffffffffffffffffff1663a1bbb2e8846040518263ffffffff1660e01b815260040161291f91906143c7565b602060405180830381865afa15801561293c573d6000803e3d6000fd5b505050506040513d601f19601f82011682018060405250810190612960919061556e565b61299f576040517f08c379a000000000000000000000000000000000000000000000000000000000815260040161299690615cfb565b60405180910390fd5b84600260106101000a8154816fffffffffffffffffffffffffffffffff02191690836fffffffffffffffffffffffffffffffff16021790555082600260006101000a8154816fffffffffffffffffffffffffffffffff02191690836fffffffffffffffffffffffffffffffff16021790555050505050505050565b60007f01ffc9a7000000000000000000000000000000000000000000000000000000007bffffffffffffffffffffffffffffffffffffffffffffffffffffffff1916827bffffffffffffffffffffffffffffffffffffffffffffffffffffffff1916149050919050565b6060604482511015612acd576040518060400160405280601d81526020017f5472616e73616374696f6e2072657665727465642073696c656e746c790000008152509050612aea565b60048201915081806020019051810190612ae79190615fb8565b90505b919050565b600080600080600260009054906101000a90046fffffffffffffffffffffffffffffffff169050600080600260109054906101000a90046fffffffffffffffffffffffffffffffff16905060008873ffffffffffffffffffffffffffffffffffffffff16637ca542ac85848e600360009054906101000a90046bffffffffffffffffffffffff168d73ffffffffffffffffffffffffffffffffffffffff16631ce4c78b6040518163ffffffff1660e01b8152600401602060405180830381865afa158015612bc1573d6000803e3d6000fd5b505050506040513d601f19601f82011682018060405250810190612be59190615351565b6040518663ffffffff1660e01b8152600401612c059594939291906153af565b60a060405180830381865afa158015612c22573d6000803e3d6000fd5b505050506040513d601f19601f82011682018060405250810190612c46919061543c565b809b50819a50829550839750849950505050505060006002811115612c6e57612c6d6142c3565b5b856002811115612c8157612c806142c3565b5b14612cc357846040517fe4f2c5ac000000000000000000000000000000000000000000000000000000008152600401612cba9190616001565b60405180910390fd5b89861115612d06576040517f08c379a0000000000000000000000000000000000000000000000000000000008152600401612cfd90616068565b60405180910390fd5b826fffffffffffffffffffffffffffffffff16846fffffffffffffffffffffffffffffffff16141580612d5d5750806fffffffffffffffffffffffffffffffff16826fffffffffffffffffffffffffffffffff1614155b15612dd55782600260006101000a8154816fffffffffffffffffffffffffffffffff02191690836fffffffffffffffffffffffffffffffff16021790555080600260106101000a8154816fffffffffffffffffffffffffffffffff02191690836fffffffffffffffffffffffffffffffff1602179055505b826fffffffffffffffffffffffffffffffff16846fffffffffffffffffffffffffffffffff1614612e38577ff06180fdbe95e5193df4dcd1352726b1f04cb58599ce58552cc952447af2ffbb83604051612e2f91906143c7565b60405180910390a15b806fffffffffffffffffffffffffffffffff16826fffffffffffffffffffffffffffffffff1614612e9b577fc958ae052d28f8d17bc2c4ddbabb699a3cab5cccefd034d0fc971efdadc01da581604051612e9291906143c7565b60405180910390a15b505050505094509492505050565b60003414612eec576040517f08c379a0000000000000000000000000000000000000000000000000000000008152600401612ee3906160d4565b60405180910390fd5b6000612ef6612559565b90506000612f0261194b565b9050851561322357600033905060008573ffffffffffffffffffffffffffffffffffffffff1663a93ec68b836040518263ffffffff1660e01b8152600401612f4a9190616127565b6040805180830381865afa158015612f66573d6000803e3d6000fd5b505050506040513d601f19601f82011682018060405250810190612f8a9190616142565b50905080612fcd576040517f08c379a0000000000000000000000000000000000000000000000000000000008152600401612fc4906161ce565b60405180910390fd5b5060008373ffffffffffffffffffffffffffffffffffffffff166370a08231846040518263ffffffff1660e01b81526004016130099190614cf7565b602060405180830381865afa158015613026573d6000803e3d6000fd5b505050506040513d601f19601f8201168201806040525081019061304a9190615351565b90508173ffffffffffffffffffffffffffffffffffffffff16634b456d0c858986898e613077919061621d565b61307f61133d565b6040518663ffffffff1660e01b815260040161309f959493929190616251565b600060405180830381600087803b1580156130b957600080fd5b505af11580156130cd573d6000803e3d6000fd5b5050505084896130dd919061621d565b818573ffffffffffffffffffffffffffffffffffffffff166370a08231866040518263ffffffff1660e01b81526004016131179190614cf7565b602060405180830381865afa158015613134573d6000803e3d6000fd5b505050506040513d601f19601f820116820180604052508101906131589190615351565b613162919061621d565b146131a2576040517f08c379a0000000000000000000000000000000000000000000000000000000008152600401613199906162f0565b60405180910390fd5b8173ffffffffffffffffffffffffffffffffffffffff16634b456d0c858989896131ca61133d565b6040518663ffffffff1660e01b81526004016131ea959493929190616251565b600060405180830381600087803b15801561320457600080fd5b505af1158015613218573d6000803e3d6000fd5b505050505050613293565b61325b3382858a613234919061621d565b8573ffffffffffffffffffffffffffffffffffffffff16614085909392919063ffffffff16565b6000831115613292576132913385858573ffffffffffffffffffffffffffffffffffffffff16614085909392919063ffffffff16565b5b5b50505050505050565b600060018473ffffffffffffffffffffffffffffffffffffffff166370a08231306040518263ffffffff1660e01b81526004016132d99190614cf7565b602060405180830381865afa1580156132f6573d6000803e3d6000fd5b505050506040513d601f19601f8201168201806040525081019061331a9190615351565b613324919061621d565b905060005b828110156134335760008573ffffffffffffffffffffffffffffffffffffffff16632f745c5930856040518363ffffffff1660e01b815260040161336e9291906159cb565b602060405180830381865afa15801561338b573d6000803e3d6000fd5b505050506040513d601f19601f820116820180604052508101906133af9190615351565b90508573ffffffffffffffffffffffffffffffffffffffff166342842e0e3087846040518463ffffffff1660e01b81526004016133ee939291906154e6565b600060405180830381600087803b15801561340857600080fd5b505af115801561341c573d6000803e3d6000fd5b505050508260019003925081600101915050613329565b5050505050565b50565b60006051905090565b600082829050905060005b818110156134ec578573ffffffffffffffffffffffffffffffffffffffff166342842e0e308787878681811061348a576134896154b7565b5b905060200201356040518463ffffffff1660e01b81526004016134af939291906154e6565b600060405180830381600087803b1580156134c957600080fd5b505af11580156134dd573d6000803e3d6000fd5b50505050806001019050613451565b505050505050565b60006040517fa9059cbb00000000000000000000000000000000000000000000000000000000815273ffffffffffffffffffffffffffffffffffffffff841660048201528260248201526000806044836000895af191505061355581614148565b613594576040517f08c379a000000000000000000000000000000000000000000000000000000000815260040161358b9061635c565b60405180910390fd5b50505050565b600080600080600260009054906101000a90046fffffffffffffffffffffffffffffffff169050600080600260109054906101000a90046fffffffffffffffffffffffffffffffff16905060008873ffffffffffffffffffffffffffffffffffffffff1663097cc63d85848e600360009054906101000a90046bffffffffffffffffffffffff168d73ffffffffffffffffffffffffffffffffffffffff16631ce4c78b6040518163ffffffff1660e01b8152600401602060405180830381865afa15801561366c573d6000803e3d6000fd5b505050506040513d601f19601f820116820180604052508101906136909190615351565b6040518663ffffffff1660e01b81526004016136b09594939291906153af565b60a060405180830381865afa1580156136cd573d6000803e3d6000fd5b505050506040513d601f19601f820116820180604052508101906136f1919061543c565b809b50819a50829550839750849950505050505060006002811115613719576137186142c3565b5b85600281111561372c5761372b6142c3565b5b1461376e57846040517fe4f2c5ac0000000000000000000000000000000000000000000000000000000081526004016137659190616001565b60405180910390fd5b898610156137b1576040517f08c379a00000000000000000000000000000000000000000000000000000000081526004016137a8906163c8565b60405180910390fd5b826fffffffffffffffffffffffffffffffff16846fffffffffffffffffffffffffffffffff161415806138085750806fffffffffffffffffffffffffffffffff16826fffffffffffffffffffffffffffffffff1614155b156138805782600260006101000a8154816fffffffffffffffffffffffffffffffff02191690836fffffffffffffffffffffffffffffffff16021790555080600260106101000a8154816fffffffffffffffffffffffffffffffff02191690836fffffffffffffffffffffffffffffffff1602179055505b826fffffffffffffffffffffffffffffffff16846fffffffffffffffffffffffffffffffff16146138e3577ff06180fdbe95e5193df4dcd1352726b1f04cb58599ce58552cc952447af2ffbb836040516138da91906143c7565b60405180910390a15b806fffffffffffffffffffffffffffffffff16826fffffffffffffffffffffffffffffffff1614613946577fc958ae052d28f8d17bc2c4ddbabb699a3cab5cccefd034d0fc971efdadc01da58160405161393d91906143c7565b60405180910390a15b505050505094509492505050565b60008111156139905761398f828261396a612559565b73ffffffffffffffffffffffffffffffffffffffff166134f49092919063ffffffff16565b5b5050565b6000811115613a6b5760006139a7612559565b905060008173ffffffffffffffffffffffffffffffffffffffff166370a08231306040518263ffffffff1660e01b81526004016139e49190614cf7565b602060405180830381865afa158015613a01573d6000803e3d6000fd5b505050506040513d601f19601f82011682018060405250810190613a259190615351565b905080831115613a33578092505b6000831115613a6857613a6784848473ffffffffffffffffffffffffffffffffffffffff166134f49092919063ffffffff16565b5b50505b5050565b6000613a7961194b565b905060008686905090508315613ee657600033905060008673ffffffffffffffffffffffffffffffffffffffff1663a93ec68b836040518263ffffffff1660e01b8152600401613ac99190616127565b6040805180830381865afa158015613ae5573d6000803e3d6000fd5b505050506040513d601f19601f82011682018060405250810190613b099190616142565b50905080613b4c576040517f08c379a0000000000000000000000000000000000000000000000000000000008152600401613b43906161ce565b60405180910390fd5b6001831115613d495760008a73ffffffffffffffffffffffffffffffffffffffff166370a08231866040518263ffffffff1660e01b8152600401613b909190614cf7565b602060405180830381865afa158015613bad573d6000803e3d6000fd5b505050506040513d601f19601f82011682018060405250810190613bd19190615351565b905060005b84811015613c7c578373ffffffffffffffffffffffffffffffffffffffff1663748ff3398d89898f8f87818110613c1057613c0f6154b7565b5b90506020020135613c1f61133d565b6040518663ffffffff1660e01b8152600401613c3f9594939291906163e8565b600060405180830381600087803b158015613c5957600080fd5b505af1158015613c6d573d6000803e3d6000fd5b50505050806001019050613bd6565b5083818c73ffffffffffffffffffffffffffffffffffffffff166370a08231886040518263ffffffff1660e01b8152600401613cb89190614cf7565b602060405180830381865afa158015613cd5573d6000803e3d6000fd5b505050506040513d601f19601f82011682018060405250810190613cf99190615351565b613d03919061621d565b14613d43576040517f08c379a0000000000000000000000000000000000000000000000000000000008152600401613d3a90616487565b60405180910390fd5b50613edf565b8173ffffffffffffffffffffffffffffffffffffffff1663748ff3398b87878d8d6000818110613d7c57613d7b6154b7565b5b90506020020135613d8b61133d565b6040518663ffffffff1660e01b8152600401613dab9594939291906163e8565b600060405180830381600087803b158015613dc557600080fd5b505af1158015613dd9573d6000803e3d6000fd5b505050508373ffffffffffffffffffffffffffffffffffffffff168a73ffffffffffffffffffffffffffffffffffffffff16636352211e8b8b6000818110613e2457613e236154b7565b5b905060200201356040518263ffffffff1660e01b8152600401613e479190614982565b602060405180830381865afa158015613e64573d6000803e3d6000fd5b505050506040513d601f19601f82011682018060405250810190613e8891906164bc565b73ffffffffffffffffffffffffffffffffffffffff1614613ede576040517f08c379a0000000000000000000000000000000000000000000000000000000008152600401613ed590616535565b60405180910390fd5b5b5050613f86565b60005b81811015613f84578873ffffffffffffffffffffffffffffffffffffffff166342842e0e33858b8b86818110613f2257613f216154b7565b5b905060200201356040518463ffffffff1660e01b8152600401613f47939291906154e6565b600060405180830381600087803b158015613f6157600080fd5b505af1158015613f75573d6000803e3d6000fd5b50505050806001019050613ee9565b505b5050505050505050565b806000806101000a81548173ffffffffffffffffffffffffffffffffffffffff021916908373ffffffffffffffffffffffffffffffffffffffff1602179055508073ffffffffffffffffffffffffffffffffffffffff167f04dba622d284ed0014ee4b9a6a68386be1a4c08a4913ae272de89199cc68616360405160405180910390a250565b6000808273ffffffffffffffffffffffffffffffffffffffff163b119050919050565b806000806101000a81548173ffffffffffffffffffffffffffffffffffffffff021916908373ffffffffffffffffffffffffffffffffffffffff16021790555050565b60018081905550565b60006040517f23b872dd00000000000000000000000000000000000000000000000000000000815273ffffffffffffffffffffffffffffffffffffffff8516600482015273ffffffffffffffffffffffffffffffffffffffff8416602482015282604482015260008060648360008a5af191505061410281614148565b614141576040517f08c379a0000000000000000000000000000000000000000000000000000000008152600401614138906165a1565b60405180910390fd5b5050505050565b60003d8261415a57806000803e806000fd5b80602081146141745760008114614185576000925061418a565b816000803e6000511515925061418a565b600192505b5050919050565b6000604051905090565b600080fd5b600080fd5b60007fffffffff0000000000000000000000000000000000000000000000000000000082169050919050565b6141da816141a5565b81146141e557600080fd5b50565b6000813590506141f7816141d1565b92915050565b6000602082840312156142135761421261419b565b5b6000614221848285016141e8565b91505092915050565b60008115159050919050565b61423f8161422a565b82525050565b600060208201905061425a6000830184614236565b92915050565b6000819050919050565b61427381614260565b811461427e57600080fd5b50565b6000813590506142908161426a565b92915050565b6000602082840312156142ac576142ab61419b565b5b60006142ba84828501614281565b91505092915050565b7f4e487b7100000000000000000000000000000000000000000000000000000000600052602160045260246000fd5b60038110614303576143026142c3565b5b50565b6000819050614314826142f2565b919050565b600061432482614306565b9050919050565b61433481614319565b82525050565b61434381614260565b82525050565b600060a08201905061435e600083018861432b565b61436b602083018761433a565b614378604083018661433a565b614385606083018561433a565b614392608083018461433a565b9695505050505050565b60006fffffffffffffffffffffffffffffffff82169050919050565b6143c18161439c565b82525050565b60006020820190506143dc60008301846143b8565b92915050565b600073ffffffffffffffffffffffffffffffffffffffff82169050919050565b600061440d826143e2565b9050919050565b600061441f82614402565b9050919050565b61442f81614414565b811461443a57600080fd5b50565b60008135905061444c81614426565b92915050565b600080fd5b600080fd5b600080fd5b60008083601f84011261447757614476614452565b5b8235905067ffffffffffffffff81111561449457614493614457565b5b6020830191508360208202830111156144b0576144af61445c565b5b9250929050565b6000806000604084860312156144d0576144cf61419b565b5b60006144de8682870161443d565b935050602084013567ffffffffffffffff8111156144ff576144fe6141a0565b5b61450b86828701614461565b92509250509250925092565b61452081614402565b811461452b57600080fd5b50565b60008135905061453d81614517565b92915050565b600080fd5b6000601f19601f8301169050919050565b7f4e487b7100000000000000000000000000000000000000000000000000000000600052604160045260246000fd5b61459182614548565b810181811067ffffffffffffffff821117156145b0576145af614559565b5b80604052505050565b60006145c3614191565b90506145cf8282614588565b919050565b600067ffffffffffffffff8211156145ef576145ee614559565b5b6145f882614548565b9050602081019050919050565b82818337600083830152505050565b6000614627614622846145d4565b6145b9565b90508281526020810184848401111561464357614642614543565b5b61464e848285614605565b509392505050565b600082601f83011261466b5761466a614452565b5b813561467b848260208601614614565b91505092915050565b6000806000806080858703121561469e5761469d61419b565b5b60006146ac8782880161452e565b94505060206146bd8782880161452e565b93505060406146ce87828801614281565b925050606085013567ffffffffffffffff8111156146ef576146ee6141a0565b5b6146fb87828801614656565b91505092959194509250565b614710816141a5565b82525050565b600060208201905061472b6000830184614707565b92915050565b600061473c826143e2565b9050919050565b61474c81614731565b811461475757600080fd5b50565b60008135905061476981614743565b92915050565b60008083601f84011261478557614784614452565b5b8235905067ffffffffffffffff8111156147a2576147a1614457565b5b6020830191508360018202830111156147be576147bd61445c565b5b9250929050565b6000806000604084860312156147de576147dd61419b565b5b60006147ec8682870161475a565b935050602084013567ffffffffffffffff81111561480d5761480c6141a0565b5b6148198682870161476f565b92509250509250925092565b60008083601f84011261483b5761483a614452565b5b8235905067ffffffffffffffff81111561485857614857614457565b5b6020830191508360208202830111156148745761487361445c565b5b9250929050565b6148848161422a565b811461488f57600080fd5b50565b6000813590506148a18161487b565b92915050565b6000806000604084860312156148c0576148bf61419b565b5b600084013567ffffffffffffffff8111156148de576148dd6141a0565b5b6148ea86828701614825565b935093505060206148fd86828701614892565b9150509250925092565b600080600080600060a086880312156149235761492261419b565b5b600061493188828901614281565b955050602061494288828901614281565b94505060406149538882890161452e565b935050606061496488828901614892565b92505060806149758882890161452e565b9150509295509295909350565b6000602082019050614997600083018461433a565b92915050565b600081519050919050565b600082825260208201905092915050565b6000819050602082019050919050565b6149d281614260565b82525050565b60006149e483836149c9565b60208301905092915050565b6000602082019050919050565b6000614a088261499d565b614a1281856149a8565b9350614a1d836149b9565b8060005b83811015614a4e578151614a3588826149d8565b9750614a40836149f0565b925050600181019050614a21565b5085935050505092915050565b60006020820190508181036000830152614a7581846149fd565b905092915050565b60048110614a8e57614a8d6142c3565b5b50565b6000819050614a9f82614a7d565b919050565b6000614aaf82614a91565b9050919050565b614abf81614aa4565b82525050565b6000602082019050614ada6000830184614ab6565b92915050565b614ae981614731565b82525050565b6000602082019050614b046000830184614ae0565b92915050565b6000819050919050565b6000614b2f614b2a614b25846143e2565b614b0a565b6143e2565b9050919050565b6000614b4182614b14565b9050919050565b6000614b5382614b36565b9050919050565b614b6381614b48565b82525050565b6000602082019050614b7e6000830184614b5a565b92915050565b614b8d8161439c565b8114614b9857600080fd5b50565b600081359050614baa81614b84565b92915050565b600060208284031215614bc657614bc561419b565b5b6000614bd484828501614b9b565b91505092915050565b60006bffffffffffffffffffffffff82169050919050565b614bfe81614bdd565b8114614c0957600080fd5b50565b600081359050614c1b81614bf5565b92915050565b600060208284031215614c3757614c3661419b565b5b6000614c4584828501614c0c565b91505092915050565b60008060008060008060a08789031215614c6b57614c6a61419b565b5b600087013567ffffffffffffffff811115614c8957614c886141a0565b5b614c9589828a01614461565b96509650506020614ca889828a01614281565b9450506040614cb989828a0161452e565b9350506060614cca89828a01614892565b9250506080614cdb89828a0161452e565b9150509295509295509295565b614cf181614402565b82525050565b6000602082019050614d0c6000830184614ce8565b92915050565b6000614d1d82614402565b9050919050565b614d2d81614d12565b8114614d3857600080fd5b50565b600081359050614d4a81614d24565b92915050565b60008060408385031215614d6757614d6661419b565b5b6000614d7585828601614d3b565b9250506020614d8685828601614281565b9150509250929050565b6000614d9b82614402565b9050919050565b614dab81614d90565b8114614db657600080fd5b50565b600081359050614dc881614da2565b92915050565b600080600080600060608688031215614dea57614de961419b565b5b6000614df888828901614db9565b955050602086013567ffffffffffffffff811115614e1957614e186141a0565b5b614e2588828901614461565b9450945050604086013567ffffffffffffffff811115614e4857614e476141a0565b5b614e5488828901614461565b92509250509295509295909350565b60008060008060008060a08789031215614e8057614e7f61419b565b5b600087013567ffffffffffffffff811115614e9e57614e9d6141a0565b5b614eaa89828a01614461565b96509650506020614ebd89828a01614281565b9450506040614ece89828a0161475a565b9350506060614edf89828a01614892565b9250506080614ef089828a0161452e565b9150509295509295509295565b60038110614f0e57614f0d6142c3565b5b50565b6000819050614f1f82614efd565b919050565b6000614f2f82614f11565b9050919050565b614f3f81614f24565b82525050565b6000602082019050614f5a6000830184614f36565b92915050565b600067ffffffffffffffff821115614f7b57614f7a614559565b5b602082029050602081019050919050565b6000614f9f614f9a84614f60565b6145b9565b90508083825260208201905060208402830185811115614fc257614fc161445c565b5b835b81811015614feb5780614fd78882614281565b845260208401935050602081019050614fc4565b5050509392505050565b600082601f83011261500a57615009614452565b5b813561501a848260208601614f8c565b91505092915050565b600080600080600060a0868803121561503f5761503e61419b565b5b600061504d8882890161452e565b955050602061505e8882890161452e565b945050604086013567ffffffffffffffff81111561507f5761507e6141a0565b5b61508b88828901614ff5565b935050606086013567ffffffffffffffff8111156150ac576150ab6141a0565b5b6150b888828901614ff5565b925050608086013567ffffffffffffffff8111156150d9576150d86141a0565b5b6150e588828901614656565b9150509295509295909350565b60006150fd82614b36565b9050919050565b61510d816150f2565b82525050565b60006020820190506151286000830184615104565b92915050565b61513781614bdd565b82525050565b6000602082019050615152600083018461512e565b92915050565b600061516382614b36565b9050919050565b61517381615158565b82525050565b600060208201905061518e600083018461516a565b92915050565b600080600080600060a086880312156151b0576151af61419b565b5b60006151be8882890161452e565b95505060206151cf8882890161452e565b94505060406151e088828901614281565b93505060606151f188828901614281565b925050608086013567ffffffffffffffff811115615212576152116141a0565b5b61521e88828901614656565b9150509295509295909350565b6000602082840312156152415761524061419b565b5b600061524f8482850161452e565b91505092915050565b60006020828403121561526e5761526d61419b565b5b600061527c8482850161475a565b91505092915050565b600061529082614b36565b9050919050565b6152a081615285565b82525050565b60006020820190506152bb6000830184615297565b92915050565b600080600080600060a086880312156152dd576152dc61419b565b5b60006152eb8882890161452e565b95505060206152fc8882890161475a565b945050604061530d88828901614b9b565b935050606061531e88828901614c0c565b925050608061532f88828901614b9b565b9150509295509295909350565b60008151905061534b8161426a565b92915050565b6000602082840312156153675761536661419b565b5b60006153758482850161533c565b91505092915050565b600061539961539461538f84614bdd565b614b0a565b614260565b9050919050565b6153a98161537e565b82525050565b600060a0820190506153c460008301886143b8565b6153d160208301876143b8565b6153de604083018661433a565b6153eb60608301856153a0565b6153f8608083018461433a565b9695505050505050565b6003811061540f57600080fd5b50565b60008151905061542181615402565b92915050565b60008151905061543681614b84565b92915050565b600080600080600060a086880312156154585761545761419b565b5b600061546688828901615412565b955050602061547788828901615427565b945050604061548888828901615427565b93505060606154998882890161533c565b92505060806154aa8882890161533c565b9150509295509295909350565b7f4e487b7100000000000000000000000000000000000000000000000000000000600052603260045260246000fd5b60006060820190506154fb6000830186614ce8565b6155086020830185614ce8565b615515604083018461433a565b949350505050565b600061552882614b36565b9050919050565b6155388161551d565b82525050565b6000602082019050615553600083018461552f565b92915050565b6000815190506155688161487b565b92915050565b6000602082840312156155845761558361419b565b5b600061559284828501615559565b91505092915050565b600082825260208201905092915050565b7f546172676574206d7573742062652077686974656c6973746564000000000000600082015250565b60006155e2601a8361559b565b91506155ed826155ac565b602082019050919050565b60006020820190508181036000830152615611816155d5565b9050919050565b600081905092915050565b600061562f8385615618565b935061563c838584614605565b82840190509392505050565b6000615655828486615623565b91508190509392505050565b7f43616c6c206661696c6564000000000000000000000000000000000000000000600082015250565b6000615697600b8361559b565b91506156a282615661565b602082019050919050565b600060208201905081810360008301526156c68161568a565b9050919050565b600080fd5b600080fd5b600080fd5b600080833560016020038436030381126156f9576156f86156cd565b5b80840192508235915067ffffffffffffffff82111561571b5761571a6156d2565b5b602083019250600182023603831315615737576157366156d7565b5b509250929050565b600081519050919050565b60005b8381101561576857808201518184015260208101905061574d565b60008484015250505050565b600061577f8261573f565b615789818561559b565b935061579981856020860161574a565b6157a281614548565b840191505092915050565b600060208201905081810360008301526157c78184615774565b905092915050565b7f4f776e6572736869702063616e6e6f74206265206368616e67656420696e206d60008201527f756c746963616c6c000000000000000000000000000000000000000000000000602082015250565b600061582b60288361559b565b9150615836826157cf565b604082019050919050565b6000602082019050818103600083015261585a8161581e565b9050919050565b7f5265656e7472616e637947756172643a207265656e7472616e742063616c6c00600082015250565b6000615897601f8361559b565b91506158a282615861565b602082019050919050565b600060208201905081810360008301526158c68161588a565b9050919050565b7f57726f6e6720506f6f6c20747970650000000000000000000000000000000000600082015250565b6000615903600f8361559b565b915061590e826158cd565b602082019050919050565b60006020820190508181036000830152615932816158f6565b9050919050565b7f41736b20666f72203e203020616e64203c3d2062616c616e63654f66204e465460008201527f7300000000000000000000000000000000000000000000000000000000000000602082015250565b600061599560218361559b565b91506159a082615939565b604082019050919050565b600060208201905081810360008301526159c481615988565b9050919050565b60006040820190506159e06000830185614ce8565b6159ed602083018461433a565b9392505050565b7f496e76616c69642064656c746120666f72206375727665000000000000000000600082015250565b6000615a2a60178361559b565b9150615a35826159f4565b602082019050919050565b60006020820190508181036000830152615a5981615a1d565b9050919050565b7f4f6e6c7920666f7220547261646520706f6f6c73000000000000000000000000600082015250565b6000615a9660148361559b565b9150615aa182615a60565b602082019050919050565b60006020820190508181036000830152615ac581615a89565b9050919050565b7f547261646520666565206d757374206265206c657373207468616e2039302500600082015250565b6000615b02601f8361559b565b9150615b0d82615acc565b602082019050919050565b60006020820190508181036000830152615b3181615af5565b9050919050565b7f4d7573742061736b20666f72203e2030204e4654730000000000000000000000600082015250565b6000615b6e60158361559b565b9150615b7982615b38565b602082019050919050565b60006020820190508181036000830152615b9d81615b61565b9050919050565b600080fd5b82818337505050565b6000615bbe83856149a8565b93507f07ffffffffffffffffffffffffffffffffffffffffffffffffffffffffffffff831115615bf157615bf0615ba4565b5b602083029250615c02838584615ba9565b82840190509392505050565b600082825260208201905092915050565b50565b6000615c2f600083615c0e565b9150615c3a82615c1f565b600082019050919050565b600060a082019050615c5a6000830189614ce8565b615c676020830188614ce8565b8181036040830152615c7a818688615bb2565b90508181036060830152615c8f818486615bb2565b90508181036080830152615ca281615c22565b9050979650505050505050565b7f496e76616c6964206e65772073706f7420707269636520666f72206375727665600082015250565b6000615ce560208361559b565b9150615cf082615caf565b602082019050919050565b60006020820190508181036000830152615d1481615cd8565b9050919050565b7f4e6f7420666f7220547261646520706f6f6c7300000000000000000000000000600082015250565b6000615d5160138361559b565b9150615d5c82615d1b565b602082019050919050565b60006020820190508181036000830152615d8081615d44565b9050919050565b7f496e697469616c697a6564000000000000000000000000000000000000000000600082015250565b6000615dbd600b8361559b565b9150615dc882615d87565b602082019050919050565b60006020820190508181036000830152615dec81615db0565b9050919050565b7f4f6e6c7920547261646520506f6f6c732063616e2068617665206e6f6e7a657260008201527f6f20666565000000000000000000000000000000000000000000000000000000602082015250565b6000615e4f60258361559b565b9150615e5a82615df3565b604082019050919050565b60006020820190508181036000830152615e7e81615e42565b9050919050565b7f547261646520706f6f6c732063616e277420736574206173736574207265636960008201527f7069656e74000000000000000000000000000000000000000000000000000000602082015250565b6000615ee160258361559b565b9150615eec82615e85565b604082019050919050565b60006020820190508181036000830152615f1081615ed4565b9050919050565b600067ffffffffffffffff821115615f3257615f31614559565b5b615f3b82614548565b9050602081019050919050565b6000615f5b615f5684615f17565b6145b9565b905082815260208101848484011115615f7757615f76614543565b5b615f8284828561574a565b509392505050565b600082601f830112615f9f57615f9e614452565b5b8151615faf848260208601615f48565b91505092915050565b600060208284031215615fce57615fcd61419b565b5b600082015167ffffffffffffffff811115615fec57615feb6141a0565b5b615ff884828501615f8a565b91505092915050565b6000602082019050616016600083018461432b565b92915050565b7f496e20746f6f206d616e7920746f6b656e730000000000000000000000000000600082015250565b600061605260128361559b565b915061605d8261601c565b602082019050919050565b6000602082019050818103600083015261608181616045565b9050919050565b7f4552433230207061697200000000000000000000000000000000000000000000600082015250565b60006160be600a8361559b565b91506160c982616088565b602082019050919050565b600060208201905081810360008301526160ed816160b1565b9050919050565b60006160ff82614b14565b9050919050565b6000616111826160f4565b9050919050565b61612181616106565b82525050565b600060208201905061613c6000830184616118565b92915050565b600080604083850312156161595761615861419b565b5b600061616785828601615559565b925050602061617885828601615559565b9150509250929050565b7f4e6f7420726f7574657200000000000000000000000000000000000000000000600082015250565b60006161b8600a8361559b565b91506161c382616182565b602082019050919050565b600060208201905081810360008301526161e7816161ab565b9050919050565b7f4e487b7100000000000000000000000000000000000000000000000000000000600052601160045260246000fd5b600061622882614260565b915061623383614260565b925082820390508181111561624b5761624a6161ee565b5b92915050565b600060a0820190506162666000830188615297565b6162736020830187614ce8565b6162806040830186614ce8565b61628d606083018561433a565b61629a6080830184614ab6565b9695505050505050565b7f4552433230206e6f74207472616e7366657272656420696e0000000000000000600082015250565b60006162da60188361559b565b91506162e5826162a4565b602082019050919050565b60006020820190508181036000830152616309816162cd565b9050919050565b7f5452414e534645525f4641494c45440000000000000000000000000000000000600082015250565b6000616346600f8361559b565b915061635182616310565b602082019050919050565b6000602082019050818103600083015261637581616339565b9050919050565b7f4f757420746f6f206c6974746c6520746f6b656e730000000000000000000000600082015250565b60006163b260158361559b565b91506163bd8261637c565b602082019050919050565b600060208201905081810360008301526163e1816163a5565b9050919050565b600060a0820190506163fd6000830188614b5a565b61640a6020830187614ce8565b6164176040830186614ce8565b616424606083018561433a565b6164316080830184614ab6565b9695505050505050565b7f4e465473206e6f74207472616e73666572726564000000000000000000000000600082015250565b600061647160148361559b565b915061647c8261643b565b602082019050919050565b600060208201905081810360008301526164a081616464565b9050919050565b6000815190506164b681614517565b92915050565b6000602082840312156164d2576164d161419b565b5b60006164e0848285016164a7565b91505092915050565b7f4e4654206e6f74207472616e7366657272656400000000000000000000000000600082015250565b600061651f60138361559b565b915061652a826164e9565b602082019050919050565b6000602082019050818103600083015261654e81616512565b9050919050565b7f5452414e534645525f46524f4d5f4641494c4544000000000000000000000000600082015250565b600061658b60148361559b565b915061659682616555565b602082019050919050565b600060208201905081810360008301526165ba8161657e565b905091905056fea2646970667358221220a123753e3d831ddcb6877b1c21242011e2af47aea35f2fead04043054c1e659064736f6c63430008100033",
  "immutableReferences": {},
  "source": "// SPDX-License-Identifier: AGPL-3.0\npragma solidity ^0.8.0;\n\nimport {LSSVMPairERC20} from \"./LSSVMPairERC20.sol\";\nimport {LSSVMPairEnumerable} from \"./LSSVMPairEnumerable.sol\";\nimport {ILSSVMPairFactoryLike} from \"./ILSSVMPairFactoryLike.sol\";\n\n/**\n    @title An NFT/Token pair where the NFT implements ERC721Enumerable, and the token is an ERC20\n    @author boredGenius and 0xmons\n */\ncontract LSSVMPairEnumerableERC20 is LSSVMPairEnumerable, LSSVMPairERC20 {\n    /**\n        @notice Returns the LSSVMPair type\n     */\n    function pairVariant()\n        public\n        pure\n        override\n        returns (ILSSVMPairFactoryLike.PairVariant)\n    {\n        return ILSSVMPairFactoryLike.PairVariant.ENUMERABLE_ERC20;\n    }\n}\n",
  "sourcePath": "/Users/brett/workSpace/NFTSea/nftsea-contract/contracts/LSSVMPairEnumerableERC20.sol",
  "compiler": {
    "name": "solc",
    "version": "0.8.16+commit.07a7930e.Emscripten.clang"
  },
  "schemaVersion": "3.4.9",
  "updatedAt": "2022-09-02T11:37:45.609Z",
  "devdoc": {
    "author": "boredGenius and 0xmons",
    "kind": "dev",
    "methods": {
      "call(address,bytes)": {
        "params": {
          "data": "The calldata to pass to the contract",
          "target": "The contract to call"
        }
      },
      "changeAssetRecipient(address)": {
        "params": {
          "newRecipient": "The new asset recipient"
        }
      },
      "changeDelta(uint128)": {
        "params": {
          "newDelta": "The new delta parameter"
        }
      },
      "changeFee(uint96)": {
        "params": {
          "newFee": "The new LP fee percentage, 18 decimals"
        }
      },
      "changeSpotPrice(uint128)": {
        "params": {
          "newSpotPrice": "The new selling spot price value, in Token"
        }
      },
      "getBuyNFTQuote(uint256)": {
        "details": "Used as read function to query the bonding curve for buy pricing info",
        "params": {
          "numNFTs": "The number of NFTs to buy from the pair"
        }
      },
      "getSellNFTQuote(uint256)": {
        "details": "Used as read function to query the bonding curve for sell pricing info",
        "params": {
          "numNFTs": "The number of NFTs to sell to the pair"
        }
      },
      "initialize(address,address,uint128,uint96,uint128)": {
        "details": "Only called once by factory to initialize. We verify this by making sure that the current owner is address(0). The Ownable library we use disallows setting the owner to be address(0), so this condition should only be valid before the first initialize call.",
        "params": {
          "_assetRecipient": "The address that will receive the TOKEN or NFT sent to this pair during swaps. NOTE: If set to address(0), they will go to the pair itself.",
          "_delta": "The initial delta of the bonding curve",
          "_fee": "The initial % fee taken, if this is a trade pair",
          "_owner": "The owner of the pair",
          "_spotPrice": "The initial price to sell an asset into the pair"
        }
      },
      "multicall(bytes[],bool)": {
        "details": "Intended for withdrawing/altering pool pricing in one tx, only callable by owner, cannot change owner",
        "params": {
          "calls": "The calldata for each call to make",
          "revertOnFail": "Whether or not to revert the entire tx if any of the calls fail"
        }
      },
      "owner()": {
        "details": "Returns the address of the current owner."
      },
      "supportsInterface(bytes4)": {
        "details": "See {IERC165-supportsInterface}."
      },
      "swapNFTsForToken(uint256[],uint256,address,bool,address)": {
        "details": "To compute the amount of token to that will be received, call bondingCurve.getSellInfo.",
        "params": {
          "isRouter": "True if calling from LSSVMRouter, false otherwise. Not used for ETH pairs.",
          "minExpectedTokenOutput": "The minimum acceptable token received by the sender. If the actual amount is less than this value, the transaction will be reverted.",
          "nftIds": "The list of IDs of the NFTs to sell to the pair",
          "routerCaller": "If isRouter is true, ERC20 tokens will be transferred from this address. Not used for ETH pairs.",
          "tokenRecipient": "The recipient of the token output"
        },
        "returns": {
          "outputAmount": "The amount of token received"
        }
      },
      "swapTokenForAnyNFTs(uint256,uint256,address,bool,address)": {
        "details": "To compute the amount of token to send, call bondingCurve.getBuyInfo. This swap function is meant for users who are ID agnostic",
        "params": {
          "isRouter": "True if calling from LSSVMRouter, false otherwise. Not used for ETH pairs.",
          "maxExpectedTokenInput": "The maximum acceptable cost from the sender. If the actual amount is greater than this value, the transaction will be reverted.",
          "nftRecipient": "The recipient of the NFTs",
          "numNFTs": "The number of NFTs to purchase",
          "routerCaller": "If isRouter is true, ERC20 tokens will be transferred from this address. Not used for ETH pairs."
        },
        "returns": {
          "inputAmount": "The amount of token used for purchase"
        }
      },
      "swapTokenForSpecificNFTs(uint256[],uint256,address,bool,address)": {
        "details": "To compute the amount of token to send, call bondingCurve.getBuyInfo This swap is meant for users who want specific IDs. Also higher chance of reverting if some of the specified IDs leave the pool before the swap goes through.",
        "params": {
          "isRouter": "True if calling from LSSVMRouter, false otherwise. Not used for ETH pairs.",
          "maxExpectedTokenInput": "The maximum acceptable cost from the sender. If the actual amount is greater than this value, the transaction will be reverted.",
          "nftIds": "The list of IDs of the NFTs to purchase",
          "nftRecipient": "The recipient of the NFTs",
          "routerCaller": "If isRouter is true, ERC20 tokens will be transferred from this address. Not used for ETH pairs."
        },
        "returns": {
          "inputAmount": "The amount of token used for purchase"
        }
      },
      "token()": {
        "details": "See LSSVMPairCloner for an explanation on how this works"
      },
      "transferOwnership(address)": {
        "details": "Transfers ownership of the contract to a new account (`newOwner`). Disallows setting to the zero address as a way to more gas-efficiently avoid reinitialization When ownership is transferred, if the new owner implements IOwnershipTransferCallback, we make a callback Can only be called by the current owner."
      },
      "withdrawERC1155(address,uint256[],uint256[])": {
        "params": {
          "a": "The NFT to transfer",
          "amounts": "The amounts of each id to transfer",
          "ids": "The NFT ids to transfer"
        }
      },
      "withdrawERC20(address,uint256)": {
        "params": {
          "a": "The token to transfer",
          "amount": "The amount of tokens to send to the owner"
        }
      },
      "withdrawERC721(address,uint256[])": {
        "details": "If the NFT is the pair's collection, we also remove it from the id tracking (if the NFT is missing enumerable).",
        "params": {
          "a": "The NFT to transfer",
          "nftIds": "The list of IDs of the NFTs to send to the owner"
        }
      }
    },
    "title": "An NFT/Token pair where the NFT implements ERC721Enumerable, and the token is an ERC20",
    "version": 1
  },
  "userdoc": {
    "kind": "user",
    "methods": {
      "bondingCurve()": {
        "notice": "Returns the type of bonding curve that parameterizes the pair"
      },
      "call(address,bytes)": {
        "notice": "Allows the pair to make arbitrary external calls to contracts whitelisted by the protocol. Only callable by the owner."
      },
      "changeAssetRecipient(address)": {
        "notice": "Changes the address that will receive assets received from trades. Only callable by the owner."
      },
      "changeDelta(uint128)": {
        "notice": "Updates the delta parameter. Only callable by the owner."
      },
      "changeFee(uint96)": {
        "notice": "Updates the fee taken by the LP. Only callable by the owner. Only callable if the pool is a Trade pool. Reverts if the fee is >= MAX_FEE."
      },
      "changeSpotPrice(uint128)": {
        "notice": "Updates the selling spot price. Only callable by the owner."
      },
      "getAllHeldIds()": {
        "notice": "Returns all NFT IDs held by the pool"
      },
      "getAssetRecipient()": {
        "notice": "Returns the address that assets that receives assets when a swap is done with this pair Can be set to another address by the owner, if set to address(0), defaults to the pair's own address"
      },
      "initialize(address,address,uint128,uint96,uint128)": {
        "notice": "Called during pair creation to set initial parameters"
      },
      "multicall(bytes[],bool)": {
        "notice": "Allows owner to batch multiple calls, forked from: https://github.com/boringcrypto/BoringSolidity/blob/master/contracts/BoringBatchable.sol"
      },
      "nft()": {
        "notice": "Returns the NFT collection that parameterizes the pair"
      },
      "pairVariant()": {
        "notice": "Returns the LSSVMPair type"
      },
      "poolType()": {
        "notice": "Returns the pair's type (TOKEN/NFT/TRADE)"
      },
      "swapNFTsForToken(uint256[],uint256,address,bool,address)": {
        "notice": "Sends a set of NFTs to the pair in exchange for token"
      },
      "swapTokenForAnyNFTs(uint256,uint256,address,bool,address)": {
        "notice": "Sends token to the pair in exchange for any `numNFTs` NFTs"
      },
      "swapTokenForSpecificNFTs(uint256[],uint256,address,bool,address)": {
        "notice": "Sends token to the pair in exchange for a specific set of NFTs"
      },
      "token()": {
        "notice": "Returns the ERC20 token associated with the pair"
      },
      "withdrawERC1155(address,uint256[],uint256[])": {
        "notice": "Rescues ERC1155 tokens from the pair to the owner. Only callable by the owner."
      },
      "withdrawERC20(address,uint256)": {
        "notice": "Rescues ERC20 tokens from the pair to the owner. Only callable by the owner (onlyOwnable modifier is in the implemented function)."
      },
      "withdrawERC721(address,uint256[])": {
        "notice": "Rescues a specified set of NFTs owned by the pair to the owner address. (onlyOwnable modifier is in the implemented function)"
      }
    },
    "version": 1
  }
}