{
  "contractName": "LSSVMPairEnumerableETH",
  "abi": [
    {
      "inputs": [
        {
          "internalType": "enum CurveErrorCodes.Error",
          "name": "error",
          "type": "uint8"
        }
      ],
      "name": "BondingCurveError",
      "type": "error"
    },
    {
      "inputs": [],
      "name": "Ownable_NewOwnerZeroAddress",
      "type": "error"
    },
    {
      "inputs": [],
      "name": "Ownable_NotOwner",
      "type": "error"
    },
    {
      "anonymous": false,
      "inputs": [
        {
          "indexed": false,
          "internalType": "address",
          "name": "a",
          "type": "address"
        }
      ],
      "name": "AssetRecipientChange",
      "type": "event"
    },
    {
      "anonymous": false,
      "inputs": [
        {
          "indexed": false,
          "internalType": "uint128",
          "name": "newDelta",
          "type": "uint128"
        }
      ],
      "name": "DeltaUpdate",
      "type": "event"
    },
    {
      "anonymous": false,
      "inputs": [
        {
          "indexed": false,
          "internalType": "uint96",
          "name": "newFee",
          "type": "uint96"
        }
      ],
      "name": "FeeUpdate",
      "type": "event"
    },
    {
      "anonymous": false,
      "inputs": [],
      "name": "NFTWithdrawal",
      "type": "event"
    },
    {
      "anonymous": false,
      "inputs": [
        {
          "indexed": true,
          "internalType": "address",
          "name": "newOwner",
          "type": "address"
        }
      ],
      "name": "OwnershipTransferred",
      "type": "event"
    },
    {
      "anonymous": false,
      "inputs": [
        {
          "indexed": false,
          "internalType": "uint128",
          "name": "newSpotPrice",
          "type": "uint128"
        }
      ],
      "name": "SpotPriceUpdate",
      "type": "event"
    },
    {
      "anonymous": false,
      "inputs": [],
      "name": "SwapNFTInPair",
      "type": "event"
    },
    {
      "anonymous": false,
      "inputs": [],
      "name": "SwapNFTOutPair",
      "type": "event"
    },
    {
      "anonymous": false,
      "inputs": [
        {
          "indexed": false,
          "internalType": "uint256",
          "name": "amount",
          "type": "uint256"
        }
      ],
      "name": "TokenDeposit",
      "type": "event"
    },
    {
      "anonymous": false,
      "inputs": [
        {
          "indexed": false,
          "internalType": "uint256",
          "name": "amount",
          "type": "uint256"
        }
      ],
      "name": "TokenWithdrawal",
      "type": "event"
    },
    {
      "stateMutability": "payable",
      "type": "fallback"
    },
    {
      "inputs": [],
      "name": "assetRecipient",
      "outputs": [
        {
          "internalType": "address payable",
          "name": "",
          "type": "address"
        }
      ],
      "stateMutability": "view",
      "type": "function"
    },
    {
      "inputs": [],
      "name": "bondingCurve",
      "outputs": [
        {
          "internalType": "contract ICurve",
          "name": "_bondingCurve",
          "type": "address"
        }
      ],
      "stateMutability": "pure",
      "type": "function"
    },
    {
      "inputs": [
        {
          "internalType": "address payable",
          "name": "target",
          "type": "address"
        },
        {
          "internalType": "bytes",
          "name": "data",
          "type": "bytes"
        }
      ],
      "name": "call",
      "outputs": [],
      "stateMutability": "nonpayable",
      "type": "function"
    },
    {
      "inputs": [
        {
          "internalType": "address payable",
          "name": "newRecipient",
          "type": "address"
        }
      ],
      "name": "changeAssetRecipient",
      "outputs": [],
      "stateMutability": "nonpayable",
      "type": "function"
    },
    {
      "inputs": [
        {
          "internalType": "uint128",
          "name": "newDelta",
          "type": "uint128"
        }
      ],
      "name": "changeDelta",
      "outputs": [],
      "stateMutability": "nonpayable",
      "type": "function"
    },
    {
      "inputs": [
        {
          "internalType": "uint96",
          "name": "newFee",
          "type": "uint96"
        }
      ],
      "name": "changeFee",
      "outputs": [],
      "stateMutability": "nonpayable",
      "type": "function"
    },
    {
      "inputs": [
        {
          "internalType": "uint128",
          "name": "newSpotPrice",
          "type": "uint128"
        }
      ],
      "name": "changeSpotPrice",
      "outputs": [],
      "stateMutability": "nonpayable",
      "type": "function"
    },
    {
      "inputs": [],
      "name": "delta",
      "outputs": [
        {
          "internalType": "uint128",
          "name": "",
          "type": "uint128"
        }
      ],
      "stateMutability": "view",
      "type": "function"
    },
    {
      "inputs": [],
      "name": "factory",
      "outputs": [
        {
          "internalType": "contract ILSSVMPairFactoryLike",
          "name": "_factory",
          "type": "address"
        }
      ],
      "stateMutability": "pure",
      "type": "function"
    },
    {
      "inputs": [],
      "name": "fee",
      "outputs": [
        {
          "internalType": "uint96",
          "name": "",
          "type": "uint96"
        }
      ],
      "stateMutability": "view",
      "type": "function"
    },
    {
      "inputs": [],
      "name": "getAllHeldIds",
      "outputs": [
        {
          "internalType": "uint256[]",
          "name": "",
          "type": "uint256[]"
        }
      ],
      "stateMutability": "view",
      "type": "function"
    },
    {
      "inputs": [],
      "name": "getAssetRecipient",
      "outputs": [
        {
          "internalType": "address payable",
          "name": "_assetRecipient",
          "type": "address"
        }
      ],
      "stateMutability": "view",
      "type": "function"
    },
    {
      "inputs": [
        {
          "internalType": "uint256",
          "name": "numNFTs",
          "type": "uint256"
        }
      ],
      "name": "getBuyNFTQuote",
      "outputs": [
        {
          "internalType": "enum CurveErrorCodes.Error",
          "name": "error",
          "type": "uint8"
        },
        {
          "internalType": "uint256",
          "name": "newSpotPrice",
          "type": "uint256"
        },
        {
          "internalType": "uint256",
          "name": "newDelta",
          "type": "uint256"
        },
        {
          "internalType": "uint256",
          "name": "inputAmount",
          "type": "uint256"
        },
        {
          "internalType": "uint256",
          "name": "protocolFee",
          "type": "uint256"
        }
      ],
      "stateMutability": "view",
      "type": "function"
    },
    {
      "inputs": [
        {
          "internalType": "uint256",
          "name": "numNFTs",
          "type": "uint256"
        }
      ],
      "name": "getSellNFTQuote",
      "outputs": [
        {
          "internalType": "enum CurveErrorCodes.Error",
          "name": "error",
          "type": "uint8"
        },
        {
          "internalType": "uint256",
          "name": "newSpotPrice",
          "type": "uint256"
        },
        {
          "internalType": "uint256",
          "name": "newDelta",
          "type": "uint256"
        },
        {
          "internalType": "uint256",
          "name": "outputAmount",
          "type": "uint256"
        },
        {
          "internalType": "uint256",
          "name": "protocolFee",
          "type": "uint256"
        }
      ],
      "stateMutability": "view",
      "type": "function"
    },
    {
      "inputs": [
        {
          "internalType": "address",
          "name": "_owner",
          "type": "address"
        },
        {
          "internalType": "address payable",
          "name": "_assetRecipient",
          "type": "address"
        },
        {
          "internalType": "uint128",
          "name": "_delta",
          "type": "uint128"
        },
        {
          "internalType": "uint96",
          "name": "_fee",
          "type": "uint96"
        },
        {
          "internalType": "uint128",
          "name": "_spotPrice",
          "type": "uint128"
        }
      ],
      "name": "initialize",
      "outputs": [],
      "stateMutability": "payable",
      "type": "function"
    },
    {
      "inputs": [
        {
          "internalType": "bytes[]",
          "name": "calls",
          "type": "bytes[]"
        },
        {
          "internalType": "bool",
          "name": "revertOnFail",
          "type": "bool"
        }
      ],
      "name": "multicall",
      "outputs": [],
      "stateMutability": "nonpayable",
      "type": "function"
    },
    {
      "inputs": [],
      "name": "nft",
      "outputs": [
        {
          "internalType": "contract IERC721",
          "name": "_nft",
          "type": "address"
        }
      ],
      "stateMutability": "pure",
      "type": "function"
    },
    {
      "inputs": [
        {
          "internalType": "address",
          "name": "",
          "type": "address"
        },
        {
          "internalType": "address",
          "name": "",
          "type": "address"
        },
        {
          "internalType": "uint256[]",
          "name": "",
          "type": "uint256[]"
        },
        {
          "internalType": "uint256[]",
          "name": "",
          "type": "uint256[]"
        },
        {
          "internalType": "bytes",
          "name": "",
          "type": "bytes"
        }
      ],
      "name": "onERC1155BatchReceived",
      "outputs": [
        {
          "internalType": "bytes4",
          "name": "",
          "type": "bytes4"
        }
      ],
      "stateMutability": "nonpayable",
      "type": "function"
    },
    {
      "inputs": [
        {
          "internalType": "address",
          "name": "",
          "type": "address"
        },
        {
          "internalType": "address",
          "name": "",
          "type": "address"
        },
        {
          "internalType": "uint256",
          "name": "",
          "type": "uint256"
        },
        {
          "internalType": "uint256",
          "name": "",
          "type": "uint256"
        },
        {
          "internalType": "bytes",
          "name": "",
          "type": "bytes"
        }
      ],
      "name": "onERC1155Received",
      "outputs": [
        {
          "internalType": "bytes4",
          "name": "",
          "type": "bytes4"
        }
      ],
      "stateMutability": "nonpayable",
      "type": "function"
    },
    {
      "inputs": [
        {
          "internalType": "address",
          "name": "",
          "type": "address"
        },
        {
          "internalType": "address",
          "name": "",
          "type": "address"
        },
        {
          "internalType": "uint256",
          "name": "",
          "type": "uint256"
        },
        {
          "internalType": "bytes",
          "name": "",
          "type": "bytes"
        }
      ],
      "name": "onERC721Received",
      "outputs": [
        {
          "internalType": "bytes4",
          "name": "",
          "type": "bytes4"
        }
      ],
      "stateMutability": "nonpayable",
      "type": "function"
    },
    {
      "inputs": [],
      "name": "owner",
      "outputs": [
        {
          "internalType": "address",
          "name": "",
          "type": "address"
        }
      ],
      "stateMutability": "view",
      "type": "function"
    },
    {
      "inputs": [],
      "name": "poolType",
      "outputs": [
        {
          "internalType": "enum LSSVMPair.PoolType",
          "name": "_poolType",
          "type": "uint8"
        }
      ],
      "stateMutability": "pure",
      "type": "function"
    },
    {
      "inputs": [],
      "name": "spotPrice",
      "outputs": [
        {
          "internalType": "uint128",
          "name": "",
          "type": "uint128"
        }
      ],
      "stateMutability": "view",
      "type": "function"
    },
    {
      "inputs": [
        {
          "internalType": "bytes4",
          "name": "interfaceId",
          "type": "bytes4"
        }
      ],
      "name": "supportsInterface",
      "outputs": [
        {
          "internalType": "bool",
          "name": "",
          "type": "bool"
        }
      ],
      "stateMutability": "view",
      "type": "function"
    },
    {
      "inputs": [
        {
          "internalType": "uint256[]",
          "name": "nftIds",
          "type": "uint256[]"
        },
        {
          "internalType": "uint256",
          "name": "minExpectedTokenOutput",
          "type": "uint256"
        },
        {
          "internalType": "address payable",
          "name": "tokenRecipient",
          "type": "address"
        },
        {
          "internalType": "bool",
          "name": "isRouter",
          "type": "bool"
        },
        {
          "internalType": "address",
          "name": "routerCaller",
          "type": "address"
        }
      ],
      "name": "swapNFTsForToken",
      "outputs": [
        {
          "internalType": "uint256",
          "name": "outputAmount",
          "type": "uint256"
        }
      ],
      "stateMutability": "nonpayable",
      "type": "function"
    },
    {
      "inputs": [
        {
          "internalType": "uint256",
          "name": "numNFTs",
          "type": "uint256"
        },
        {
          "internalType": "uint256",
          "name": "maxExpectedTokenInput",
          "type": "uint256"
        },
        {
          "internalType": "address",
          "name": "nftRecipient",
          "type": "address"
        },
        {
          "internalType": "bool",
          "name": "isRouter",
          "type": "bool"
        },
        {
          "internalType": "address",
          "name": "routerCaller",
          "type": "address"
        }
      ],
      "name": "swapTokenForAnyNFTs",
      "outputs": [
        {
          "internalType": "uint256",
          "name": "inputAmount",
          "type": "uint256"
        }
      ],
      "stateMutability": "payable",
      "type": "function"
    },
    {
      "inputs": [
        {
          "internalType": "uint256[]",
          "name": "nftIds",
          "type": "uint256[]"
        },
        {
          "internalType": "uint256",
          "name": "maxExpectedTokenInput",
          "type": "uint256"
        },
        {
          "internalType": "address",
          "name": "nftRecipient",
          "type": "address"
        },
        {
          "internalType": "bool",
          "name": "isRouter",
          "type": "bool"
        },
        {
          "internalType": "address",
          "name": "routerCaller",
          "type": "address"
        }
      ],
      "name": "swapTokenForSpecificNFTs",
      "outputs": [
        {
          "internalType": "uint256",
          "name": "inputAmount",
          "type": "uint256"
        }
      ],
      "stateMutability": "payable",
      "type": "function"
    },
    {
      "inputs": [
        {
          "internalType": "address",
          "name": "newOwner",
          "type": "address"
        }
      ],
      "name": "transferOwnership",
      "outputs": [],
      "stateMutability": "nonpayable",
      "type": "function"
    },
    {
      "inputs": [],
      "name": "withdrawAllETH",
      "outputs": [],
      "stateMutability": "nonpayable",
      "type": "function"
    },
    {
      "inputs": [
        {
          "internalType": "contract IERC1155",
          "name": "a",
          "type": "address"
        },
        {
          "internalType": "uint256[]",
          "name": "ids",
          "type": "uint256[]"
        },
        {
          "internalType": "uint256[]",
          "name": "amounts",
          "type": "uint256[]"
        }
      ],
      "name": "withdrawERC1155",
      "outputs": [],
      "stateMutability": "nonpayable",
      "type": "function"
    },
    {
      "inputs": [
        {
          "internalType": "contract ERC20",
          "name": "a",
          "type": "address"
        },
        {
          "internalType": "uint256",
          "name": "amount",
          "type": "uint256"
        }
      ],
      "name": "withdrawERC20",
      "outputs": [],
      "stateMutability": "nonpayable",
      "type": "function"
    },
    {
      "inputs": [
        {
          "internalType": "contract IERC721",
          "name": "a",
          "type": "address"
        },
        {
          "internalType": "uint256[]",
          "name": "nftIds",
          "type": "uint256[]"
        }
      ],
      "name": "withdrawERC721",
      "outputs": [],
      "stateMutability": "nonpayable",
      "type": "function"
    },
    {
      "inputs": [
        {
          "internalType": "uint256",
          "name": "amount",
          "type": "uint256"
        }
      ],
      "name": "withdrawETH",
      "outputs": [],
      "stateMutability": "nonpayable",
      "type": "function"
    },
    {
      "stateMutability": "payable",
      "type": "receive"
    },
    {
      "inputs": [],
      "name": "pairVariant",
      "outputs": [
        {
          "internalType": "enum ILSSVMPairFactoryLike.PairVariant",
          "name": "",
          "type": "uint8"
        }
      ],
      "stateMutability": "pure",
      "type": "function"
    }
  ],
  "bytecode": "0x608060405234801561001057600080fd5b506162ae80620000216000396000f3fe6080604052600436106101fd5760003560e01c80638da5cb5b1161010d578063c45a0155116100a0578063f14210a61161006f578063f14210a6146107c4578063f23a6e61146107ed578063f2fde38b1461082a578063f462954914610853578063fd17aef91461087c5761023b565b8063c45a01551461071a578063d8a1890c14610745578063ddca3f431461076e578063eff1d50e146107995761023b565b8063a5ceac99116100dc578063a5ceac991461064c578063b1d3f1c114610675578063b1dd61b6146106b2578063bc197c81146106dd5761023b565b80638da5cb5b146105a057806390386bbf146105cb578063a1db9782146105e2578063a5cb2b911461060b5761023b565b80632f4fefaf1161019057806347ccca021161015f57806347ccca02146104c85780636809f664146104f35780636b7a22001461051c5780636d8b99f71461054557806379eac6c2146105755761023b565b80632f4fefaf1461041c5780633053fc5814610447578063398482d8146104725780633bfa67fe1461049d5761023b565b8063150b7a02116101cc578063150b7a021461035d5780631b8b921d1461039a5780631e9701d4146103c357806328b8aee1146103ec5761023b565b806301ffc9a71461028b5780630c295e56146102c857806312b495a81461030957806313edab81146103345761023b565b3661023b577ff1b3be8dace0fecfbdb6fb0fa1cc014c612bcb1b46db027c1ece5fc11fff09d6346040516102319190613f5c565b60405180910390a1005b610243610898565b60003690501461025257600080fd5b7ff1b3be8dace0fecfbdb6fb0fa1cc014c612bcb1b46db027c1ece5fc11fff09d6346040516102819190613f5c565b60405180910390a1005b34801561029757600080fd5b506102b260048036038101906102ad9190613fe3565b6108a1565b6040516102bf919061402b565b60405180910390f35b3480156102d457600080fd5b506102ef60048036038101906102ea9190614072565b61091b565b604051610300959493929190614116565b60405180910390f35b34801561031557600080fd5b5061031e610abe565b60405161032b9190614194565b60405180910390f35b34801561034057600080fd5b5061035b60048036038101906103569190614284565b610ae0565b005b34801561036957600080fd5b50610384600480360381019061037f9190614451565b610c25565b60405161039191906144e3565b60405180910390f35b3480156103a657600080fd5b506103c160048036038101906103bc9190614592565b610c39565b005b3480156103cf57600080fd5b506103ea60048036038101906103e59190614674565b610e22565b005b610406600480360381019061040191906146d4565b61100b565b6040516104139190613f5c565b60405180910390f35b34801561042857600080fd5b5061043161125f565b60405161043e919061480d565b60405180910390f35b34801561045357600080fd5b5061045c6113f3565b6040516104699190614877565b60405180910390f35b34801561047e57600080fd5b506104876113f8565b6040516104949190614194565b60405180910390f35b3480156104a957600080fd5b506104b261141a565b6040516104bf91906148a1565b60405180910390f35b3480156104d457600080fd5b506104dd611440565b6040516104ea919061491b565b60405180910390f35b3480156104ff57600080fd5b5061051a60048036038101906105159190614962565b61145d565b005b34801561052857600080fd5b50610543600480360381019061053e91906149d3565b61164c565b005b61055f600480360381019061055a9190614a00565b61182c565b60405161056c9190613f5c565b60405180910390f35b34801561058157600080fd5b5061058a6119fd565b60405161059791906148a1565b60405180910390f35b3480156105ac57600080fd5b506105b5611a9a565b6040516105c29190614aa9565b60405180910390f35b3480156105d757600080fd5b506105e0611ac3565b005b3480156105ee57600080fd5b5061060960048036038101906106049190614b02565b611b3a565b005b34801561061757600080fd5b50610632600480360381019061062d9190614072565b611bd5565b604051610643959493929190614116565b60405180910390f35b34801561065857600080fd5b50610673600480360381019061066e9190614b80565b611d78565b005b34801561068157600080fd5b5061069c60048036038101906106979190614c15565b611e60565b6040516106a99190613f5c565b60405180910390f35b3480156106be57600080fd5b506106c7612031565b6040516106d49190614cf7565b60405180910390f35b3480156106e957600080fd5b5061070460048036038101906106ff9190614dd5565b61204e565b60405161071191906144e3565b60405180910390f35b34801561072657600080fd5b5061072f612063565b60405161073c9190614ec5565b60405180910390f35b34801561075157600080fd5b5061076c60048036038101906107679190614962565b61207d565b005b34801561077a57600080fd5b5061078361226c565b6040516107909190614eef565b60405180910390f35b3480156107a557600080fd5b506107ae61228a565b6040516107bb9190614f2b565b60405180910390f35b3480156107d057600080fd5b506107eb60048036038101906107e69190614072565b6122a7565b005b3480156107f957600080fd5b50610814600480360381019061080f9190614f46565b61237d565b60405161082191906144e3565b60405180910390f35b34801561083657600080fd5b50610851600480360381019061084c9190614fdd565b612392565b005b34801561085f57600080fd5b5061087a6004803603810190610875919061500a565b612536565b005b61089660048036038101906108919190615037565b6126e6565b005b6000603d905090565b60007f4e2312e0000000000000000000000000000000000000000000000000000000007bffffffffffffffffffffffffffffffffffffffffffffffffffffffff1916827bffffffffffffffffffffffffffffffffffffffffffffffffffffffff19161480610914575061091382612b8a565b5b9050919050565b600080600080600061092b61228a565b73ffffffffffffffffffffffffffffffffffffffff1663097cc63d600260009054906101000a90046fffffffffffffffffffffffffffffffff16600260109054906101000a90046fffffffffffffffffffffffffffffffff1689600360009054906101000a90046bffffffffffffffffffffffff166109a8612063565b73ffffffffffffffffffffffffffffffffffffffff16631ce4c78b6040518163ffffffff1660e01b8152600401602060405180830381865afa1580156109f2573d6000803e3d6000fd5b505050506040513d601f19601f82011682018060405250810190610a1691906150c7565b6040518663ffffffff1660e01b8152600401610a36959493929190615125565b60a060405180830381865afa158015610a53573d6000803e3d6000fd5b505050506040513d601f19601f82011682018060405250810190610a7791906151b2565b836fffffffffffffffffffffffffffffffff169350826fffffffffffffffffffffffffffffffff169250809550819650829750839850849950505050505091939590929450565b600260109054906101000a90046fffffffffffffffffffffffffffffffff1681565b3373ffffffffffffffffffffffffffffffffffffffff16610aff611a9a565b73ffffffffffffffffffffffffffffffffffffffff1614610b4c576040517f5eee3ad100000000000000000000000000000000000000000000000000000000815260040160405180910390fd5b600082829050905060005b81811015610bf2578473ffffffffffffffffffffffffffffffffffffffff166342842e0e3033878786818110610b9057610b8f61522d565b5b905060200201356040518463ffffffff1660e01b8152600401610bb59392919061525c565b600060405180830381600087803b158015610bcf57600080fd5b505af1158015610be3573d6000803e3d6000fd5b50505050806001019050610b57565b507f242b9b8fb5c0e6298454fcf80a0fbcbb7308620133d92b50091a1f64cee790e860405160405180910390a150505050565b600063150b7a0260e01b9050949350505050565b3373ffffffffffffffffffffffffffffffffffffffff16610c58611a9a565b73ffffffffffffffffffffffffffffffffffffffff1614610ca5576040517f5eee3ad100000000000000000000000000000000000000000000000000000000815260040160405180910390fd5b6000610caf612063565b90508073ffffffffffffffffffffffffffffffffffffffff16631fba95e8856040518263ffffffff1660e01b8152600401610cea91906152b4565b602060405180830381865afa158015610d07573d6000803e3d6000fd5b505050506040513d601f19601f82011682018060405250810190610d2b91906152e4565b610d6a576040517f08c379a0000000000000000000000000000000000000000000000000000000008152600401610d619061536e565b60405180910390fd5b60008473ffffffffffffffffffffffffffffffffffffffff1660008585604051610d959291906153be565b60006040518083038185875af1925050503d8060008114610dd2576040519150601f19603f3d011682016040523d82523d6000602084013e610dd7565b606091505b5050905080610e1b576040517f08c379a0000000000000000000000000000000000000000000000000000000008152600401610e1290615423565b60405180910390fd5b5050505050565b3373ffffffffffffffffffffffffffffffffffffffff16610e41611a9a565b73ffffffffffffffffffffffffffffffffffffffff1614610e8e576040517f5eee3ad100000000000000000000000000000000000000000000000000000000815260040160405180910390fd5b60005b83839050811015610f90576000803073ffffffffffffffffffffffffffffffffffffffff16868685818110610ec957610ec861522d565b5b9050602002810190610edb9190615452565b604051610ee99291906153be565b600060405180830381855af49150503d8060008114610f24576040519150601f19603f3d011682016040523d82523d6000602084013e610f29565b606091505b509150915081158015610f395750835b15610f8357610f4781612bf4565b6040517f08c379a0000000000000000000000000000000000000000000000000000000008152600401610f7a9190615523565b60405180910390fd5b8260010192505050610e91565b503373ffffffffffffffffffffffffffffffffffffffff16610fb0611a9a565b73ffffffffffffffffffffffffffffffffffffffff1614611006576040517f08c379a0000000000000000000000000000000000000000000000000000000008152600401610ffd906155b7565b60405180910390fd5b505050565b6000600260015403611052576040517f08c379a000000000000000000000000000000000000000000000000000000000815260040161104990615623565b60405180910390fd5b60026001819055506000611064612063565b9050600061107061228a565b9050600061107c611440565b90506000611088612031565b90506001600281111561109e5761109d61409f565b5b8160028111156110b1576110b061409f565b5b14806110e057506002808111156110cb576110ca61409f565b5b8160028111156110de576110dd61409f565b5b145b61111f576040517f08c379a00000000000000000000000000000000000000000000000000000000081526004016111169061568f565b60405180910390fd5b60008a1180156111a857508173ffffffffffffffffffffffffffffffffffffffff166370a08231306040518263ffffffff1660e01b81526004016111639190614aa9565b602060405180830381865afa158015611180573d6000803e3d6000fd5b505050506040513d601f19601f820116820180604052508101906111a491906150c7565b8a11155b6111e7576040517f08c379a00000000000000000000000000000000000000000000000000000000081526004016111de90615721565b60405180910390fd5b5060006111f68a8a8587612c5f565b809650819250505061120b8588888785613019565b61121682898c613121565b61121f856132bf565b7fbc479dfc6cb9c1a9d880f987ee4b30fa43dd7f06aec121db685b67d587c93c9360405160405180910390a1505050506001808190555095945050505050565b6060600061126b611440565b905060008173ffffffffffffffffffffffffffffffffffffffff166370a08231306040518263ffffffff1660e01b81526004016112a89190614aa9565b602060405180830381865afa1580156112c5573d6000803e3d6000fd5b505050506040513d601f19601f820116820180604052508101906112e991906150c7565b905060008167ffffffffffffffff81111561130757611306614326565b5b6040519080825280602002602001820160405280156113355781602001602082028036833780820191505090505b50905060005b828110156113e9578373ffffffffffffffffffffffffffffffffffffffff16632f745c5930836040518363ffffffff1660e01b815260040161137e929190615741565b602060405180830381865afa15801561139b573d6000803e3d6000fd5b505050506040513d601f19601f820116820180604052508101906113bf91906150c7565b8282815181106113d2576113d161522d565b5b60200260200101818152505080600101905061133b565b5080935050505090565b600090565b600260009054906101000a90046fffffffffffffffffffffffffffffffff1681565b6003600c9054906101000a900473ffffffffffffffffffffffffffffffffffffffff1681565b60008061144b610898565b90506028813603013560601c91505090565b3373ffffffffffffffffffffffffffffffffffffffff1661147c611a9a565b73ffffffffffffffffffffffffffffffffffffffff16146114c9576040517f5eee3ad100000000000000000000000000000000000000000000000000000000815260040160405180910390fd5b60006114d361228a565b90508073ffffffffffffffffffffffffffffffffffffffff16630ae67ccc836040518263ffffffff1660e01b815260040161150e9190614194565b602060405180830381865afa15801561152b573d6000803e3d6000fd5b505050506040513d601f19601f8201168201806040525081019061154f91906152e4565b61158e576040517f08c379a0000000000000000000000000000000000000000000000000000000008152600401611585906157b6565b60405180910390fd5b816fffffffffffffffffffffffffffffffff16600260109054906101000a90046fffffffffffffffffffffffffffffffff166fffffffffffffffffffffffffffffffff16146116485781600260106101000a8154816fffffffffffffffffffffffffffffffff02191690836fffffffffffffffffffffffffffffffff1602179055507fc958ae052d28f8d17bc2c4ddbabb699a3cab5cccefd034d0fc971efdadc01da58260405161163f9190614194565b60405180910390a15b5050565b3373ffffffffffffffffffffffffffffffffffffffff1661166b611a9a565b73ffffffffffffffffffffffffffffffffffffffff16146116b8576040517f5eee3ad100000000000000000000000000000000000000000000000000000000815260040160405180910390fd5b60006116c2612031565b90506002808111156116d7576116d661409f565b5b8160028111156116ea576116e961409f565b5b1461172a576040517f08c379a000000000000000000000000000000000000000000000000000000000815260040161172190615822565b60405180910390fd5b670c7d713b49da0000826bffffffffffffffffffffffff1610611782576040517f08c379a00000000000000000000000000000000000000000000000000000000081526004016117799061588e565b60405180910390fd5b816bffffffffffffffffffffffff16600360009054906101000a90046bffffffffffffffffffffffff166bffffffffffffffffffffffff16146118285781600360006101000a8154816bffffffffffffffffffffffff02191690836bffffffffffffffffffffffff1602179055507f66c55c30868c51e7ad52e3d85d1403576a9967614e67c48e25b55a10baa650c08260405161181f9190614eef565b60405180910390a15b5050565b6000600260015403611873576040517f08c379a000000000000000000000000000000000000000000000000000000000815260040161186a90615623565b60405180910390fd5b60026001819055506000611885612063565b9050600061189161228a565b9050600061189d612031565b9050600160028111156118b3576118b261409f565b5b8160028111156118c6576118c561409f565b5b14806118f557506002808111156118e0576118df61409f565b5b8160028111156118f3576118f261409f565b5b145b611934576040517f08c379a000000000000000000000000000000000000000000000000000000000815260040161192b9061568f565b60405180910390fd5b60008a8a90501161197a576040517f08c379a0000000000000000000000000000000000000000000000000000000008152600401611971906158fa565b60405180910390fd5b50600061198c8a8a9050898486612c5f565b80955081925050506119a18487878685613019565b6119b46119ac611440565b888c8c6132ff565b6119bd846132bf565b7fbc479dfc6cb9c1a9d880f987ee4b30fa43dd7f06aec121db685b67d587c93c9360405160405180910390a1505050600180819055509695505050505050565b6000600280811115611a1257611a1161409f565b5b611a1a612031565b6002811115611a2c57611a2b61409f565b5b03611a3957309050611a97565b6003600c9054906101000a900473ffffffffffffffffffffffffffffffffffffffff169050600073ffffffffffffffffffffffffffffffffffffffff168173ffffffffffffffffffffffffffffffffffffffff1603611a96573090505b5b90565b60008060009054906101000a900473ffffffffffffffffffffffffffffffffffffffff16905090565b3373ffffffffffffffffffffffffffffffffffffffff16611ae2611a9a565b73ffffffffffffffffffffffffffffffffffffffff1614611b2f576040517f5eee3ad100000000000000000000000000000000000000000000000000000000815260040160405180910390fd5b611b38476122a7565b565b3373ffffffffffffffffffffffffffffffffffffffff16611b59611a9a565b73ffffffffffffffffffffffffffffffffffffffff1614611ba6576040517f5eee3ad100000000000000000000000000000000000000000000000000000000815260040160405180910390fd5b611bd133828473ffffffffffffffffffffffffffffffffffffffff166133ad9092919063ffffffff16565b5050565b6000806000806000611be561228a565b73ffffffffffffffffffffffffffffffffffffffff16637ca542ac600260009054906101000a90046fffffffffffffffffffffffffffffffff16600260109054906101000a90046fffffffffffffffffffffffffffffffff1689600360009054906101000a90046bffffffffffffffffffffffff16611c62612063565b73ffffffffffffffffffffffffffffffffffffffff16631ce4c78b6040518163ffffffff1660e01b8152600401602060405180830381865afa158015611cac573d6000803e3d6000fd5b505050506040513d601f19601f82011682018060405250810190611cd091906150c7565b6040518663ffffffff1660e01b8152600401611cf0959493929190615125565b60a060405180830381865afa158015611d0d573d6000803e3d6000fd5b505050506040513d601f19601f82011682018060405250810190611d3191906151b2565b836fffffffffffffffffffffffffffffffff169350826fffffffffffffffffffffffffffffffff169250809550819650829750839850849950505050505091939590929450565b3373ffffffffffffffffffffffffffffffffffffffff16611d97611a9a565b73ffffffffffffffffffffffffffffffffffffffff1614611de4576040517f5eee3ad100000000000000000000000000000000000000000000000000000000815260040160405180910390fd5b8473ffffffffffffffffffffffffffffffffffffffff16632eb2c2d63033878787876040518763ffffffff1660e01b8152600401611e27969594939291906159bb565b600060405180830381600087803b158015611e4157600080fd5b505af1158015611e55573d6000803e3d6000fd5b505050505050505050565b6000600260015403611ea7576040517f08c379a0000000000000000000000000000000000000000000000000000000008152600401611e9e90615623565b60405180910390fd5b60026001819055506000611eb9612063565b90506000611ec561228a565b90506000611ed1612031565b905060006002811115611ee757611ee661409f565b5b816002811115611efa57611ef961409f565b5b1480611f295750600280811115611f1457611f1361409f565b5b816002811115611f2757611f2661409f565b5b145b611f68576040517f08c379a0000000000000000000000000000000000000000000000000000000008152600401611f5f9061568f565b60405180910390fd5b60008a8a905011611fae576040517f08c379a0000000000000000000000000000000000000000000000000000000008152600401611fa5906158fa565b60405180910390fd5b506000611fc08a8a9050898486613453565b8095508192505050611fd2878561380d565b611fdc8382613844565b611ff1611fe7611440565b8b8b868a8a613891565b7f3614eb567740a0ee3897c0e2b11ad6a5720d2e4438f9c8accf6c95c24af3a47060405160405180910390a1505050600180819055509695505050505050565b60008061203c610898565b9050603c813603013560f81c91505090565b600063bc197c8160e01b905095945050505050565b60008061206e610898565b90508036033560601c91505090565b3373ffffffffffffffffffffffffffffffffffffffff1661209c611a9a565b73ffffffffffffffffffffffffffffffffffffffff16146120e9576040517f5eee3ad100000000000000000000000000000000000000000000000000000000815260040160405180910390fd5b60006120f361228a565b90508073ffffffffffffffffffffffffffffffffffffffff1663a1bbb2e8836040518263ffffffff1660e01b815260040161212e9190614194565b602060405180830381865afa15801561214b573d6000803e3d6000fd5b505050506040513d601f19601f8201168201806040525081019061216f91906152e4565b6121ae576040517f08c379a00000000000000000000000000000000000000000000000000000000081526004016121a590615a71565b60405180910390fd5b816fffffffffffffffffffffffffffffffff16600260009054906101000a90046fffffffffffffffffffffffffffffffff166fffffffffffffffffffffffffffffffff16146122685781600260006101000a8154816fffffffffffffffffffffffffffffffff02191690836fffffffffffffffffffffffffffffffff1602179055507ff06180fdbe95e5193df4dcd1352726b1f04cb58599ce58552cc952447af2ffbb8260405161225f9190614194565b60405180910390a15b5050565b600360009054906101000a90046bffffffffffffffffffffffff1681565b600080612295610898565b90506014813603013560601c91505090565b3373ffffffffffffffffffffffffffffffffffffffff166122c6611a9a565b73ffffffffffffffffffffffffffffffffffffffff1614612313576040517f5eee3ad100000000000000000000000000000000000000000000000000000000815260040160405180910390fd5b6123438161231f611a9a565b73ffffffffffffffffffffffffffffffffffffffff16613db290919063ffffffff16565b7f0e266e8f38544aa1480d73762386eb10df55b1b8453d935762e891c44b69a1e6816040516123729190613f5c565b60405180910390a150565b600063f23a6e6160e01b905095945050505050565b3373ffffffffffffffffffffffffffffffffffffffff166123b1611a9a565b73ffffffffffffffffffffffffffffffffffffffff16146123fe576040517f5eee3ad100000000000000000000000000000000000000000000000000000000815260040160405180910390fd5b600073ffffffffffffffffffffffffffffffffffffffff168173ffffffffffffffffffffffffffffffffffffffff1603612464576040517fedf1b1fc00000000000000000000000000000000000000000000000000000000815260040160405180910390fd5b61246d81613e05565b61248c8173ffffffffffffffffffffffffffffffffffffffff16613e8b565b15612533578073ffffffffffffffffffffffffffffffffffffffff1663a741b468336040518263ffffffff1660e01b81526004016124ca9190614aa9565b600060405180830381600087803b1580156124e457600080fd5b505af19250505080156124f5575060015b612531573d8060008114612525576040519150601f19603f3d011682016040523d82523d6000602084013e61252a565b606091505b5050612532565b5b5b50565b3373ffffffffffffffffffffffffffffffffffffffff16612555611a9a565b73ffffffffffffffffffffffffffffffffffffffff16146125a2576040517f5eee3ad100000000000000000000000000000000000000000000000000000000815260040160405180910390fd5b60006125ac612031565b90506002808111156125c1576125c061409f565b5b8160028111156125d4576125d361409f565b5b03612614576040517f08c379a000000000000000000000000000000000000000000000000000000000815260040161260b90615add565b60405180910390fd5b8173ffffffffffffffffffffffffffffffffffffffff166003600c9054906101000a900473ffffffffffffffffffffffffffffffffffffffff1673ffffffffffffffffffffffffffffffffffffffff16146126e257816003600c6101000a81548173ffffffffffffffffffffffffffffffffffffffff021916908373ffffffffffffffffffffffffffffffffffffffff1602179055507f678f61dcdee86474eddea0407caf8f1f5130382a90dedabaef94906ed86a27b4826040516126d991906152b4565b60405180910390a15b5050565b600073ffffffffffffffffffffffffffffffffffffffff16612706611a9a565b73ffffffffffffffffffffffffffffffffffffffff161461275c576040517f08c379a000000000000000000000000000000000000000000000000000000000815260040161275390615b49565b60405180910390fd5b61276585613eae565b61276d613ef1565b600061277761228a565b90506000612783612031565b9050600060028111156127995761279861409f565b5b8160028111156127ac576127ab61409f565b5b14806127dc5750600160028111156127c7576127c661409f565b5b8160028111156127da576127d961409f565b5b145b15612878576000846bffffffffffffffffffffffff1614612832576040517f08c379a000000000000000000000000000000000000000000000000000000000815260040161282990615bdb565b60405180910390fd5b856003600c6101000a81548173ffffffffffffffffffffffffffffffffffffffff021916908373ffffffffffffffffffffffffffffffffffffffff16021790555061299d565b60028081111561288b5761288a61409f565b5b81600281111561289e5761289d61409f565b5b0361299c57670c7d713b49da0000846bffffffffffffffffffffffff16106128fb576040517f08c379a00000000000000000000000000000000000000000000000000000000081526004016128f29061588e565b60405180910390fd5b600073ffffffffffffffffffffffffffffffffffffffff168673ffffffffffffffffffffffffffffffffffffffff161461296a576040517f08c379a000000000000000000000000000000000000000000000000000000000815260040161296190615c6d565b60405180910390fd5b83600360006101000a8154816bffffffffffffffffffffffff02191690836bffffffffffffffffffffffff1602179055505b5b8173ffffffffffffffffffffffffffffffffffffffff16630ae67ccc866040518263ffffffff1660e01b81526004016129d69190614194565b602060405180830381865afa1580156129f3573d6000803e3d6000fd5b505050506040513d601f19601f82011682018060405250810190612a1791906152e4565b612a56576040517f08c379a0000000000000000000000000000000000000000000000000000000008152600401612a4d906157b6565b60405180910390fd5b8173ffffffffffffffffffffffffffffffffffffffff1663a1bbb2e8846040518263ffffffff1660e01b8152600401612a8f9190614194565b602060405180830381865afa158015612aac573d6000803e3d6000fd5b505050506040513d601f19601f82011682018060405250810190612ad091906152e4565b612b0f576040517f08c379a0000000000000000000000000000000000000000000000000000000008152600401612b0690615a71565b60405180910390fd5b84600260106101000a8154816fffffffffffffffffffffffffffffffff02191690836fffffffffffffffffffffffffffffffff16021790555082600260006101000a8154816fffffffffffffffffffffffffffffffff02191690836fffffffffffffffffffffffffffffffff16021790555050505050505050565b60007f01ffc9a7000000000000000000000000000000000000000000000000000000007bffffffffffffffffffffffffffffffffffffffffffffffffffffffff1916827bffffffffffffffffffffffffffffffffffffffffffffffffffffffff1916149050919050565b6060604482511015612c3d576040518060400160405280601d81526020017f5472616e73616374696f6e2072657665727465642073696c656e746c790000008152509050612c5a565b60048201915081806020019051810190612c579190615d2e565b90505b919050565b600080600080600260009054906101000a90046fffffffffffffffffffffffffffffffff169050600080600260109054906101000a90046fffffffffffffffffffffffffffffffff16905060008873ffffffffffffffffffffffffffffffffffffffff16637ca542ac85848e600360009054906101000a90046bffffffffffffffffffffffff168d73ffffffffffffffffffffffffffffffffffffffff16631ce4c78b6040518163ffffffff1660e01b8152600401602060405180830381865afa158015612d31573d6000803e3d6000fd5b505050506040513d601f19601f82011682018060405250810190612d5591906150c7565b6040518663ffffffff1660e01b8152600401612d75959493929190615125565b60a060405180830381865afa158015612d92573d6000803e3d6000fd5b505050506040513d601f19601f82011682018060405250810190612db691906151b2565b809b50819a50829550839750849950505050505060006002811115612dde57612ddd61409f565b5b856002811115612df157612df061409f565b5b14612e3357846040517fe4f2c5ac000000000000000000000000000000000000000000000000000000008152600401612e2a9190615d77565b60405180910390fd5b89861115612e76576040517f08c379a0000000000000000000000000000000000000000000000000000000008152600401612e6d90615dde565b60405180910390fd5b826fffffffffffffffffffffffffffffffff16846fffffffffffffffffffffffffffffffff16141580612ecd5750806fffffffffffffffffffffffffffffffff16826fffffffffffffffffffffffffffffffff1614155b15612f455782600260006101000a8154816fffffffffffffffffffffffffffffffff02191690836fffffffffffffffffffffffffffffffff16021790555080600260106101000a8154816fffffffffffffffffffffffffffffffff02191690836fffffffffffffffffffffffffffffffff1602179055505b826fffffffffffffffffffffffffffffffff16846fffffffffffffffffffffffffffffffff1614612fa8577ff06180fdbe95e5193df4dcd1352726b1f04cb58599ce58552cc952447af2ffbb83604051612f9f9190614194565b60405180910390a15b806fffffffffffffffffffffffffffffffff16826fffffffffffffffffffffffffffffffff161461300b577fc958ae052d28f8d17bc2c4ddbabb699a3cab5cccefd034d0fc971efdadc01da5816040516130029190614194565b60405180910390a15b505050505094509492505050565b8434101561305c576040517f08c379a000000000000000000000000000000000000000000000000000000000815260040161305390615e4a565b60405180910390fd5b60006130666119fd565b90503073ffffffffffffffffffffffffffffffffffffffff168173ffffffffffffffffffffffffffffffffffffffff16146130d0576130cf82876130aa9190615e99565b8273ffffffffffffffffffffffffffffffffffffffff16613db290919063ffffffff16565b5b600082111561311957478211156130e5574791505b600082111561311857613117828473ffffffffffffffffffffffffffffffffffffffff16613db290919063ffffffff16565b5b5b505050505050565b600060018473ffffffffffffffffffffffffffffffffffffffff166370a08231306040518263ffffffff1660e01b815260040161315e9190614aa9565b602060405180830381865afa15801561317b573d6000803e3d6000fd5b505050506040513d601f19601f8201168201806040525081019061319f91906150c7565b6131a99190615e99565b905060005b828110156132b85760008573ffffffffffffffffffffffffffffffffffffffff16632f745c5930856040518363ffffffff1660e01b81526004016131f3929190615741565b602060405180830381865afa158015613210573d6000803e3d6000fd5b505050506040513d601f19601f8201168201806040525081019061323491906150c7565b90508573ffffffffffffffffffffffffffffffffffffffff166342842e0e3087846040518463ffffffff1660e01b81526004016132739392919061525c565b600060405180830381600087803b15801561328d57600080fd5b505af11580156132a1573d6000803e3d6000fd5b5050505082600190039250816001019150506131ae565b5050505050565b803411156132fc576132fb81346132d69190615e99565b3373ffffffffffffffffffffffffffffffffffffffff16613db290919063ffffffff16565b5b50565b600082829050905060005b818110156133a5578573ffffffffffffffffffffffffffffffffffffffff166342842e0e30878787868181106133435761334261522d565b5b905060200201356040518463ffffffff1660e01b81526004016133689392919061525c565b600060405180830381600087803b15801561338257600080fd5b505af1158015613396573d6000803e3d6000fd5b5050505080600101905061330a565b505050505050565b60006040517fa9059cbb00000000000000000000000000000000000000000000000000000000815273ffffffffffffffffffffffffffffffffffffffff841660048201528260248201526000806044836000895af191505061340e81613efa565b61344d576040517f08c379a000000000000000000000000000000000000000000000000000000000815260040161344490615f19565b60405180910390fd5b50505050565b600080600080600260009054906101000a90046fffffffffffffffffffffffffffffffff169050600080600260109054906101000a90046fffffffffffffffffffffffffffffffff16905060008873ffffffffffffffffffffffffffffffffffffffff1663097cc63d85848e600360009054906101000a90046bffffffffffffffffffffffff168d73ffffffffffffffffffffffffffffffffffffffff16631ce4c78b6040518163ffffffff1660e01b8152600401602060405180830381865afa158015613525573d6000803e3d6000fd5b505050506040513d601f19601f8201168201806040525081019061354991906150c7565b6040518663ffffffff1660e01b8152600401613569959493929190615125565b60a060405180830381865afa158015613586573d6000803e3d6000fd5b505050506040513d601f19601f820116820180604052508101906135aa91906151b2565b809b50819a508295508397508499505050505050600060028111156135d2576135d161409f565b5b8560028111156135e5576135e461409f565b5b1461362757846040517fe4f2c5ac00000000000000000000000000000000000000000000000000000000815260040161361e9190615d77565b60405180910390fd5b8986101561366a576040517f08c379a000000000000000000000000000000000000000000000000000000000815260040161366190615f85565b60405180910390fd5b826fffffffffffffffffffffffffffffffff16846fffffffffffffffffffffffffffffffff161415806136c15750806fffffffffffffffffffffffffffffffff16826fffffffffffffffffffffffffffffffff1614155b156137395782600260006101000a8154816fffffffffffffffffffffffffffffffff02191690836fffffffffffffffffffffffffffffffff16021790555080600260106101000a8154816fffffffffffffffffffffffffffffffff02191690836fffffffffffffffffffffffffffffffff1602179055505b826fffffffffffffffffffffffffffffffff16846fffffffffffffffffffffffffffffffff161461379c577ff06180fdbe95e5193df4dcd1352726b1f04cb58599ce58552cc952447af2ffbb836040516137939190614194565b60405180910390a15b806fffffffffffffffffffffffffffffffff16826fffffffffffffffffffffffffffffffff16146137ff577fc958ae052d28f8d17bc2c4ddbabb699a3cab5cccefd034d0fc971efdadc01da5816040516137f69190614194565b60405180910390a15b505050505094509492505050565b60008111156138405761383f818373ffffffffffffffffffffffffffffffffffffffff16613db290919063ffffffff16565b5b5050565b600081111561388d5747811115613859574790505b600081111561388c5761388b818373ffffffffffffffffffffffffffffffffffffffff16613db290919063ffffffff16565b5b5b5050565b600061389b6119fd565b905060008686905090508315613d0857600033905060008673ffffffffffffffffffffffffffffffffffffffff1663a93ec68b836040518263ffffffff1660e01b81526004016138eb9190615fd8565b6040805180830381865afa158015613907573d6000803e3d6000fd5b505050506040513d601f19601f8201168201806040525081019061392b9190615ff3565b5090508061396e576040517f08c379a00000000000000000000000000000000000000000000000000000000081526004016139659061607f565b60405180910390fd5b6001831115613b6b5760008a73ffffffffffffffffffffffffffffffffffffffff166370a08231866040518263ffffffff1660e01b81526004016139b29190614aa9565b602060405180830381865afa1580156139cf573d6000803e3d6000fd5b505050506040513d601f19601f820116820180604052508101906139f391906150c7565b905060005b84811015613a9e578373ffffffffffffffffffffffffffffffffffffffff1663748ff3398d89898f8f87818110613a3257613a3161522d565b5b90506020020135613a416113f3565b6040518663ffffffff1660e01b8152600401613a6195949392919061609f565b600060405180830381600087803b158015613a7b57600080fd5b505af1158015613a8f573d6000803e3d6000fd5b505050508060010190506139f8565b5083818c73ffffffffffffffffffffffffffffffffffffffff166370a08231886040518263ffffffff1660e01b8152600401613ada9190614aa9565b602060405180830381865afa158015613af7573d6000803e3d6000fd5b505050506040513d601f19601f82011682018060405250810190613b1b91906150c7565b613b259190615e99565b14613b65576040517f08c379a0000000000000000000000000000000000000000000000000000000008152600401613b5c9061613e565b60405180910390fd5b50613d01565b8173ffffffffffffffffffffffffffffffffffffffff1663748ff3398b87878d8d6000818110613b9e57613b9d61522d565b5b90506020020135613bad6113f3565b6040518663ffffffff1660e01b8152600401613bcd95949392919061609f565b600060405180830381600087803b158015613be757600080fd5b505af1158015613bfb573d6000803e3d6000fd5b505050508373ffffffffffffffffffffffffffffffffffffffff168a73ffffffffffffffffffffffffffffffffffffffff16636352211e8b8b6000818110613c4657613c4561522d565b5b905060200201356040518263ffffffff1660e01b8152600401613c699190613f5c565b602060405180830381865afa158015613c86573d6000803e3d6000fd5b505050506040513d601f19601f82011682018060405250810190613caa9190616173565b73ffffffffffffffffffffffffffffffffffffffff1614613d00576040517f08c379a0000000000000000000000000000000000000000000000000000000008152600401613cf7906161ec565b60405180910390fd5b5b5050613da8565b60005b81811015613da6578873ffffffffffffffffffffffffffffffffffffffff166342842e0e33858b8b86818110613d4457613d4361522d565b5b905060200201356040518463ffffffff1660e01b8152600401613d699392919061525c565b600060405180830381600087803b158015613d8357600080fd5b505af1158015613d97573d6000803e3d6000fd5b50505050806001019050613d0b565b505b5050505050505050565b600080600080600085875af1905080613e00576040517f08c379a0000000000000000000000000000000000000000000000000000000008152600401613df790616258565b60405180910390fd5b505050565b806000806101000a81548173ffffffffffffffffffffffffffffffffffffffff021916908373ffffffffffffffffffffffffffffffffffffffff1602179055508073ffffffffffffffffffffffffffffffffffffffff167f04dba622d284ed0014ee4b9a6a68386be1a4c08a4913ae272de89199cc68616360405160405180910390a250565b6000808273ffffffffffffffffffffffffffffffffffffffff163b119050919050565b806000806101000a81548173ffffffffffffffffffffffffffffffffffffffff021916908373ffffffffffffffffffffffffffffffffffffffff16021790555050565b60018081905550565b60003d82613f0c57806000803e806000fd5b8060208114613f265760008114613f375760009250613f3c565b816000803e60005115159250613f3c565b600192505b5050919050565b6000819050919050565b613f5681613f43565b82525050565b6000602082019050613f716000830184613f4d565b92915050565b6000604051905090565b600080fd5b600080fd5b60007fffffffff0000000000000000000000000000000000000000000000000000000082169050919050565b613fc081613f8b565b8114613fcb57600080fd5b50565b600081359050613fdd81613fb7565b92915050565b600060208284031215613ff957613ff8613f81565b5b600061400784828501613fce565b91505092915050565b60008115159050919050565b61402581614010565b82525050565b6000602082019050614040600083018461401c565b92915050565b61404f81613f43565b811461405a57600080fd5b50565b60008135905061406c81614046565b92915050565b60006020828403121561408857614087613f81565b5b60006140968482850161405d565b91505092915050565b7f4e487b7100000000000000000000000000000000000000000000000000000000600052602160045260246000fd5b600381106140df576140de61409f565b5b50565b60008190506140f0826140ce565b919050565b6000614100826140e2565b9050919050565b614110816140f5565b82525050565b600060a08201905061412b6000830188614107565b6141386020830187613f4d565b6141456040830186613f4d565b6141526060830185613f4d565b61415f6080830184613f4d565b9695505050505050565b60006fffffffffffffffffffffffffffffffff82169050919050565b61418e81614169565b82525050565b60006020820190506141a96000830184614185565b92915050565b600073ffffffffffffffffffffffffffffffffffffffff82169050919050565b60006141da826141af565b9050919050565b60006141ec826141cf565b9050919050565b6141fc816141e1565b811461420757600080fd5b50565b600081359050614219816141f3565b92915050565b600080fd5b600080fd5b600080fd5b60008083601f8401126142445761424361421f565b5b8235905067ffffffffffffffff81111561426157614260614224565b5b60208301915083602082028301111561427d5761427c614229565b5b9250929050565b60008060006040848603121561429d5761429c613f81565b5b60006142ab8682870161420a565b935050602084013567ffffffffffffffff8111156142cc576142cb613f86565b5b6142d88682870161422e565b92509250509250925092565b6142ed816141cf565b81146142f857600080fd5b50565b60008135905061430a816142e4565b92915050565b600080fd5b6000601f19601f8301169050919050565b7f4e487b7100000000000000000000000000000000000000000000000000000000600052604160045260246000fd5b61435e82614315565b810181811067ffffffffffffffff8211171561437d5761437c614326565b5b80604052505050565b6000614390613f77565b905061439c8282614355565b919050565b600067ffffffffffffffff8211156143bc576143bb614326565b5b6143c582614315565b9050602081019050919050565b82818337600083830152505050565b60006143f46143ef846143a1565b614386565b9050828152602081018484840111156144105761440f614310565b5b61441b8482856143d2565b509392505050565b600082601f8301126144385761443761421f565b5b81356144488482602086016143e1565b91505092915050565b6000806000806080858703121561446b5761446a613f81565b5b6000614479878288016142fb565b945050602061448a878288016142fb565b935050604061449b8782880161405d565b925050606085013567ffffffffffffffff8111156144bc576144bb613f86565b5b6144c887828801614423565b91505092959194509250565b6144dd81613f8b565b82525050565b60006020820190506144f860008301846144d4565b92915050565b6000614509826141af565b9050919050565b614519816144fe565b811461452457600080fd5b50565b60008135905061453681614510565b92915050565b60008083601f8401126145525761455161421f565b5b8235905067ffffffffffffffff81111561456f5761456e614224565b5b60208301915083600182028301111561458b5761458a614229565b5b9250929050565b6000806000604084860312156145ab576145aa613f81565b5b60006145b986828701614527565b935050602084013567ffffffffffffffff8111156145da576145d9613f86565b5b6145e68682870161453c565b92509250509250925092565b60008083601f8401126146085761460761421f565b5b8235905067ffffffffffffffff81111561462557614624614224565b5b60208301915083602082028301111561464157614640614229565b5b9250929050565b61465181614010565b811461465c57600080fd5b50565b60008135905061466e81614648565b92915050565b60008060006040848603121561468d5761468c613f81565b5b600084013567ffffffffffffffff8111156146ab576146aa613f86565b5b6146b7868287016145f2565b935093505060206146ca8682870161465f565b9150509250925092565b600080600080600060a086880312156146f0576146ef613f81565b5b60006146fe8882890161405d565b955050602061470f8882890161405d565b9450506040614720888289016142fb565b93505060606147318882890161465f565b9250506080614742888289016142fb565b9150509295509295909350565b600081519050919050565b600082825260208201905092915050565b6000819050602082019050919050565b61478481613f43565b82525050565b6000614796838361477b565b60208301905092915050565b6000602082019050919050565b60006147ba8261474f565b6147c4818561475a565b93506147cf8361476b565b8060005b838110156148005781516147e7888261478a565b97506147f2836147a2565b9250506001810190506147d3565b5085935050505092915050565b6000602082019050818103600083015261482781846147af565b905092915050565b600481106148405761483f61409f565b5b50565b60008190506148518261482f565b919050565b600061486182614843565b9050919050565b61487181614856565b82525050565b600060208201905061488c6000830184614868565b92915050565b61489b816144fe565b82525050565b60006020820190506148b66000830184614892565b92915050565b6000819050919050565b60006148e16148dc6148d7846141af565b6148bc565b6141af565b9050919050565b60006148f3826148c6565b9050919050565b6000614905826148e8565b9050919050565b614915816148fa565b82525050565b6000602082019050614930600083018461490c565b92915050565b61493f81614169565b811461494a57600080fd5b50565b60008135905061495c81614936565b92915050565b60006020828403121561497857614977613f81565b5b60006149868482850161494d565b91505092915050565b60006bffffffffffffffffffffffff82169050919050565b6149b08161498f565b81146149bb57600080fd5b50565b6000813590506149cd816149a7565b92915050565b6000602082840312156149e9576149e8613f81565b5b60006149f7848285016149be565b91505092915050565b60008060008060008060a08789031215614a1d57614a1c613f81565b5b600087013567ffffffffffffffff811115614a3b57614a3a613f86565b5b614a4789828a0161422e565b96509650506020614a5a89828a0161405d565b9450506040614a6b89828a016142fb565b9350506060614a7c89828a0161465f565b9250506080614a8d89828a016142fb565b9150509295509295509295565b614aa3816141cf565b82525050565b6000602082019050614abe6000830184614a9a565b92915050565b6000614acf826141cf565b9050919050565b614adf81614ac4565b8114614aea57600080fd5b50565b600081359050614afc81614ad6565b92915050565b60008060408385031215614b1957614b18613f81565b5b6000614b2785828601614aed565b9250506020614b388582860161405d565b9150509250929050565b6000614b4d826141cf565b9050919050565b614b5d81614b42565b8114614b6857600080fd5b50565b600081359050614b7a81614b54565b92915050565b600080600080600060608688031215614b9c57614b9b613f81565b5b6000614baa88828901614b6b565b955050602086013567ffffffffffffffff811115614bcb57614bca613f86565b5b614bd78882890161422e565b9450945050604086013567ffffffffffffffff811115614bfa57614bf9613f86565b5b614c068882890161422e565b92509250509295509295909350565b60008060008060008060a08789031215614c3257614c31613f81565b5b600087013567ffffffffffffffff811115614c5057614c4f613f86565b5b614c5c89828a0161422e565b96509650506020614c6f89828a0161405d565b9450506040614c8089828a01614527565b9350506060614c9189828a0161465f565b9250506080614ca289828a016142fb565b9150509295509295509295565b60038110614cc057614cbf61409f565b5b50565b6000819050614cd182614caf565b919050565b6000614ce182614cc3565b9050919050565b614cf181614cd6565b82525050565b6000602082019050614d0c6000830184614ce8565b92915050565b600067ffffffffffffffff821115614d2d57614d2c614326565b5b602082029050602081019050919050565b6000614d51614d4c84614d12565b614386565b90508083825260208201905060208402830185811115614d7457614d73614229565b5b835b81811015614d9d5780614d89888261405d565b845260208401935050602081019050614d76565b5050509392505050565b600082601f830112614dbc57614dbb61421f565b5b8135614dcc848260208601614d3e565b91505092915050565b600080600080600060a08688031215614df157614df0613f81565b5b6000614dff888289016142fb565b9550506020614e10888289016142fb565b945050604086013567ffffffffffffffff811115614e3157614e30613f86565b5b614e3d88828901614da7565b935050606086013567ffffffffffffffff811115614e5e57614e5d613f86565b5b614e6a88828901614da7565b925050608086013567ffffffffffffffff811115614e8b57614e8a613f86565b5b614e9788828901614423565b9150509295509295909350565b6000614eaf826148e8565b9050919050565b614ebf81614ea4565b82525050565b6000602082019050614eda6000830184614eb6565b92915050565b614ee98161498f565b82525050565b6000602082019050614f046000830184614ee0565b92915050565b6000614f15826148e8565b9050919050565b614f2581614f0a565b82525050565b6000602082019050614f406000830184614f1c565b92915050565b600080600080600060a08688031215614f6257614f61613f81565b5b6000614f70888289016142fb565b9550506020614f81888289016142fb565b9450506040614f928882890161405d565b9350506060614fa38882890161405d565b925050608086013567ffffffffffffffff811115614fc457614fc3613f86565b5b614fd088828901614423565b9150509295509295909350565b600060208284031215614ff357614ff2613f81565b5b6000615001848285016142fb565b91505092915050565b6000602082840312156150205761501f613f81565b5b600061502e84828501614527565b91505092915050565b600080600080600060a0868803121561505357615052613f81565b5b6000615061888289016142fb565b955050602061507288828901614527565b94505060406150838882890161494d565b9350506060615094888289016149be565b92505060806150a58882890161494d565b9150509295509295909350565b6000815190506150c181614046565b92915050565b6000602082840312156150dd576150dc613f81565b5b60006150eb848285016150b2565b91505092915050565b600061510f61510a6151058461498f565b6148bc565b613f43565b9050919050565b61511f816150f4565b82525050565b600060a08201905061513a6000830188614185565b6151476020830187614185565b6151546040830186613f4d565b6151616060830185615116565b61516e6080830184613f4d565b9695505050505050565b6003811061518557600080fd5b50565b60008151905061519781615178565b92915050565b6000815190506151ac81614936565b92915050565b600080600080600060a086880312156151ce576151cd613f81565b5b60006151dc88828901615188565b95505060206151ed8882890161519d565b94505060406151fe8882890161519d565b935050606061520f888289016150b2565b9250506080615220888289016150b2565b9150509295509295909350565b7f4e487b7100000000000000000000000000000000000000000000000000000000600052603260045260246000fd5b60006060820190506152716000830186614a9a565b61527e6020830185614a9a565b61528b6040830184613f4d565b949350505050565b600061529e826148e8565b9050919050565b6152ae81615293565b82525050565b60006020820190506152c960008301846152a5565b92915050565b6000815190506152de81614648565b92915050565b6000602082840312156152fa576152f9613f81565b5b6000615308848285016152cf565b91505092915050565b600082825260208201905092915050565b7f546172676574206d7573742062652077686974656c6973746564000000000000600082015250565b6000615358601a83615311565b915061536382615322565b602082019050919050565b600060208201905081810360008301526153878161534b565b9050919050565b600081905092915050565b60006153a5838561538e565b93506153b28385846143d2565b82840190509392505050565b60006153cb828486615399565b91508190509392505050565b7f43616c6c206661696c6564000000000000000000000000000000000000000000600082015250565b600061540d600b83615311565b9150615418826153d7565b602082019050919050565b6000602082019050818103600083015261543c81615400565b9050919050565b600080fd5b600080fd5b600080fd5b6000808335600160200384360303811261546f5761546e615443565b5b80840192508235915067ffffffffffffffff82111561549157615490615448565b5b6020830192506001820236038313156154ad576154ac61544d565b5b509250929050565b600081519050919050565b60005b838110156154de5780820151818401526020810190506154c3565b60008484015250505050565b60006154f5826154b5565b6154ff8185615311565b935061550f8185602086016154c0565b61551881614315565b840191505092915050565b6000602082019050818103600083015261553d81846154ea565b905092915050565b7f4f776e6572736869702063616e6e6f74206265206368616e67656420696e206d60008201527f756c746963616c6c000000000000000000000000000000000000000000000000602082015250565b60006155a1602883615311565b91506155ac82615545565b604082019050919050565b600060208201905081810360008301526155d081615594565b9050919050565b7f5265656e7472616e637947756172643a207265656e7472616e742063616c6c00600082015250565b600061560d601f83615311565b9150615618826155d7565b602082019050919050565b6000602082019050818103600083015261563c81615600565b9050919050565b7f57726f6e6720506f6f6c20747970650000000000000000000000000000000000600082015250565b6000615679600f83615311565b915061568482615643565b602082019050919050565b600060208201905081810360008301526156a88161566c565b9050919050565b7f41736b20666f72203e203020616e64203c3d2062616c616e63654f66204e465460008201527f7300000000000000000000000000000000000000000000000000000000000000602082015250565b600061570b602183615311565b9150615716826156af565b604082019050919050565b6000602082019050818103600083015261573a816156fe565b9050919050565b60006040820190506157566000830185614a9a565b6157636020830184613f4d565b9392505050565b7f496e76616c69642064656c746120666f72206375727665000000000000000000600082015250565b60006157a0601783615311565b91506157ab8261576a565b602082019050919050565b600060208201905081810360008301526157cf81615793565b9050919050565b7f4f6e6c7920666f7220547261646520706f6f6c73000000000000000000000000600082015250565b600061580c601483615311565b9150615817826157d6565b602082019050919050565b6000602082019050818103600083015261583b816157ff565b9050919050565b7f547261646520666565206d757374206265206c657373207468616e2039302500600082015250565b6000615878601f83615311565b915061588382615842565b602082019050919050565b600060208201905081810360008301526158a78161586b565b9050919050565b7f4d7573742061736b20666f72203e2030204e4654730000000000000000000000600082015250565b60006158e4601583615311565b91506158ef826158ae565b602082019050919050565b60006020820190508181036000830152615913816158d7565b9050919050565b600080fd5b82818337505050565b6000615934838561475a565b93507f07ffffffffffffffffffffffffffffffffffffffffffffffffffffffffffffff8311156159675761596661591a565b5b60208302925061597883858461591f565b82840190509392505050565b600082825260208201905092915050565b50565b60006159a5600083615984565b91506159b082615995565b600082019050919050565b600060a0820190506159d06000830189614a9a565b6159dd6020830188614a9a565b81810360408301526159f0818688615928565b90508181036060830152615a05818486615928565b90508181036080830152615a1881615998565b9050979650505050505050565b7f496e76616c6964206e65772073706f7420707269636520666f72206375727665600082015250565b6000615a5b602083615311565b9150615a6682615a25565b602082019050919050565b60006020820190508181036000830152615a8a81615a4e565b9050919050565b7f4e6f7420666f7220547261646520706f6f6c7300000000000000000000000000600082015250565b6000615ac7601383615311565b9150615ad282615a91565b602082019050919050565b60006020820190508181036000830152615af681615aba565b9050919050565b7f496e697469616c697a6564000000000000000000000000000000000000000000600082015250565b6000615b33600b83615311565b9150615b3e82615afd565b602082019050919050565b60006020820190508181036000830152615b6281615b26565b9050919050565b7f4f6e6c7920547261646520506f6f6c732063616e2068617665206e6f6e7a657260008201527f6f20666565000000000000000000000000000000000000000000000000000000602082015250565b6000615bc5602583615311565b9150615bd082615b69565b604082019050919050565b60006020820190508181036000830152615bf481615bb8565b9050919050565b7f547261646520706f6f6c732063616e277420736574206173736574207265636960008201527f7069656e74000000000000000000000000000000000000000000000000000000602082015250565b6000615c57602583615311565b9150615c6282615bfb565b604082019050919050565b60006020820190508181036000830152615c8681615c4a565b9050919050565b600067ffffffffffffffff821115615ca857615ca7614326565b5b615cb182614315565b9050602081019050919050565b6000615cd1615ccc84615c8d565b614386565b905082815260208101848484011115615ced57615cec614310565b5b615cf88482856154c0565b509392505050565b600082601f830112615d1557615d1461421f565b5b8151615d25848260208601615cbe565b91505092915050565b600060208284031215615d4457615d43613f81565b5b600082015167ffffffffffffffff811115615d6257615d61613f86565b5b615d6e84828501615d00565b91505092915050565b6000602082019050615d8c6000830184614107565b92915050565b7f496e20746f6f206d616e7920746f6b656e730000000000000000000000000000600082015250565b6000615dc8601283615311565b9150615dd382615d92565b602082019050919050565b60006020820190508181036000830152615df781615dbb565b9050919050565b7f53656e7420746f6f206c6974746c652045544800000000000000000000000000600082015250565b6000615e34601383615311565b9150615e3f82615dfe565b602082019050919050565b60006020820190508181036000830152615e6381615e27565b9050919050565b7f4e487b7100000000000000000000000000000000000000000000000000000000600052601160045260246000fd5b6000615ea482613f43565b9150615eaf83613f43565b9250828203905081811115615ec757615ec6615e6a565b5b92915050565b7f5452414e534645525f4641494c45440000000000000000000000000000000000600082015250565b6000615f03600f83615311565b9150615f0e82615ecd565b602082019050919050565b60006020820190508181036000830152615f3281615ef6565b9050919050565b7f4f757420746f6f206c6974746c6520746f6b656e730000000000000000000000600082015250565b6000615f6f601583615311565b9150615f7a82615f39565b602082019050919050565b60006020820190508181036000830152615f9e81615f62565b9050919050565b6000615fb0826148c6565b9050919050565b6000615fc282615fa5565b9050919050565b615fd281615fb7565b82525050565b6000602082019050615fed6000830184615fc9565b92915050565b6000806040838503121561600a57616009613f81565b5b6000616018858286016152cf565b9250506020616029858286016152cf565b9150509250929050565b7f4e6f7420726f7574657200000000000000000000000000000000000000000000600082015250565b6000616069600a83615311565b915061607482616033565b602082019050919050565b600060208201905081810360008301526160988161605c565b9050919050565b600060a0820190506160b4600083018861490c565b6160c16020830187614a9a565b6160ce6040830186614a9a565b6160db6060830185613f4d565b6160e86080830184614868565b9695505050505050565b7f4e465473206e6f74207472616e73666572726564000000000000000000000000600082015250565b6000616128601483615311565b9150616133826160f2565b602082019050919050565b600060208201905081810360008301526161578161611b565b9050919050565b60008151905061616d816142e4565b92915050565b60006020828403121561618957616188613f81565b5b60006161978482850161615e565b91505092915050565b7f4e4654206e6f74207472616e7366657272656400000000000000000000000000600082015250565b60006161d6601383615311565b91506161e1826161a0565b602082019050919050565b60006020820190508181036000830152616205816161c9565b9050919050565b7f4554485f5452414e534645525f4641494c454400000000000000000000000000600082015250565b6000616242601383615311565b915061624d8261620c565b602082019050919050565b6000602082019050818103600083015261627181616235565b905091905056fea2646970667358221220aed26c50c319f4093a2a8d269c03c2e1db5a2c1c14b2042665cd340d6104074764736f6c63430008100033",
  "immutableReferences": {},
  "source": "// SPDX-License-Identifier: AGPL-3.0\npragma solidity ^0.8.0;\n\nimport {LSSVMPairETH} from \"./LSSVMPairETH.sol\";\nimport {LSSVMPairEnumerable} from \"./LSSVMPairEnumerable.sol\";\nimport {ILSSVMPairFactoryLike} from \"./ILSSVMPairFactoryLike.sol\";\n\n/**\n    @title An NFT/Token pair where the NFT implements ERC721Enumerable, and the token is ETH\n    @author boredGenius and 0xmons\n */\ncontract LSSVMPairEnumerableETH is LSSVMPairEnumerable, LSSVMPairETH {\n    /**\n        @notice Returns the LSSVMPair type\n     */\n    function pairVariant()\n        public\n        pure\n        override\n        returns (ILSSVMPairFactoryLike.PairVariant)\n    {\n        return ILSSVMPairFactoryLike.PairVariant.ENUMERABLE_ETH;\n    }\n}\n",
  "sourcePath": "/Users/brett/workSpace/NFTSea/nftsea-contract/contracts/LSSVMPairEnumerableETH.sol",
  "compiler": {
    "name": "solc",
    "version": "0.8.16+commit.07a7930e.Emscripten.clang"
  },
  "schemaVersion": "3.4.9",
  "updatedAt": "2022-09-03T12:01:49.508Z",
  "devdoc": {
    "author": "boredGenius and 0xmons",
    "kind": "dev",
    "methods": {
      "call(address,bytes)": {
        "params": {
          "data": "The calldata to pass to the contract",
          "target": "The contract to call"
        }
      },
      "changeAssetRecipient(address)": {
        "params": {
          "newRecipient": "The new asset recipient"
        }
      },
      "changeDelta(uint128)": {
        "params": {
          "newDelta": "The new delta parameter"
        }
      },
      "changeFee(uint96)": {
        "params": {
          "newFee": "The new LP fee percentage, 18 decimals"
        }
      },
      "changeSpotPrice(uint128)": {
        "params": {
          "newSpotPrice": "The new selling spot price value, in Token"
        }
      },
      "getBuyNFTQuote(uint256)": {
        "details": "Used as read function to query the bonding curve for buy pricing info",
        "params": {
          "numNFTs": "The number of NFTs to buy from the pair"
        }
      },
      "getSellNFTQuote(uint256)": {
        "details": "Used as read function to query the bonding curve for sell pricing info",
        "params": {
          "numNFTs": "The number of NFTs to sell to the pair"
        }
      },
      "initialize(address,address,uint128,uint96,uint128)": {
        "details": "Only called once by factory to initialize. We verify this by making sure that the current owner is address(0). The Ownable library we use disallows setting the owner to be address(0), so this condition should only be valid before the first initialize call.",
        "params": {
          "_assetRecipient": "The address that will receive the TOKEN or NFT sent to this pair during swaps. NOTE: If set to address(0), they will go to the pair itself.",
          "_delta": "The initial delta of the bonding curve",
          "_fee": "The initial % fee taken, if this is a trade pair",
          "_owner": "The owner of the pair",
          "_spotPrice": "The initial price to sell an asset into the pair"
        }
      },
      "multicall(bytes[],bool)": {
        "details": "Intended for withdrawing/altering pool pricing in one tx, only callable by owner, cannot change owner",
        "params": {
          "calls": "The calldata for each call to make",
          "revertOnFail": "Whether or not to revert the entire tx if any of the calls fail"
        }
      },
      "owner()": {
        "details": "Returns the address of the current owner."
      },
      "supportsInterface(bytes4)": {
        "details": "See {IERC165-supportsInterface}."
      },
      "swapNFTsForToken(uint256[],uint256,address,bool,address)": {
        "details": "To compute the amount of token to that will be received, call bondingCurve.getSellInfo.",
        "params": {
          "isRouter": "True if calling from LSSVMRouter, false otherwise. Not used for ETH pairs.",
          "minExpectedTokenOutput": "The minimum acceptable token received by the sender. If the actual amount is less than this value, the transaction will be reverted.",
          "nftIds": "The list of IDs of the NFTs to sell to the pair",
          "routerCaller": "If isRouter is true, ERC20 tokens will be transferred from this address. Not used for ETH pairs.",
          "tokenRecipient": "The recipient of the token output"
        },
        "returns": {
          "outputAmount": "The amount of token received"
        }
      },
      "swapTokenForAnyNFTs(uint256,uint256,address,bool,address)": {
        "details": "To compute the amount of token to send, call bondingCurve.getBuyInfo. This swap function is meant for users who are ID agnostic",
        "params": {
          "isRouter": "True if calling from LSSVMRouter, false otherwise. Not used for ETH pairs.",
          "maxExpectedTokenInput": "The maximum acceptable cost from the sender. If the actual amount is greater than this value, the transaction will be reverted.",
          "nftRecipient": "The recipient of the NFTs",
          "numNFTs": "The number of NFTs to purchase",
          "routerCaller": "If isRouter is true, ERC20 tokens will be transferred from this address. Not used for ETH pairs."
        },
        "returns": {
          "inputAmount": "The amount of token used for purchase"
        }
      },
      "swapTokenForSpecificNFTs(uint256[],uint256,address,bool,address)": {
        "details": "To compute the amount of token to send, call bondingCurve.getBuyInfo This swap is meant for users who want specific IDs. Also higher chance of reverting if some of the specified IDs leave the pool before the swap goes through.",
        "params": {
          "isRouter": "True if calling from LSSVMRouter, false otherwise. Not used for ETH pairs.",
          "maxExpectedTokenInput": "The maximum acceptable cost from the sender. If the actual amount is greater than this value, the transaction will be reverted.",
          "nftIds": "The list of IDs of the NFTs to purchase",
          "nftRecipient": "The recipient of the NFTs",
          "routerCaller": "If isRouter is true, ERC20 tokens will be transferred from this address. Not used for ETH pairs."
        },
        "returns": {
          "inputAmount": "The amount of token used for purchase"
        }
      },
      "transferOwnership(address)": {
        "details": "Transfers ownership of the contract to a new account (`newOwner`). Disallows setting to the zero address as a way to more gas-efficiently avoid reinitialization When ownership is transferred, if the new owner implements IOwnershipTransferCallback, we make a callback Can only be called by the current owner."
      },
      "withdrawAllETH()": {
        "details": "Only callable by the owner."
      },
      "withdrawERC1155(address,uint256[],uint256[])": {
        "params": {
          "a": "The NFT to transfer",
          "amounts": "The amounts of each id to transfer",
          "ids": "The NFT ids to transfer"
        }
      },
      "withdrawERC20(address,uint256)": {
        "params": {
          "a": "The token to transfer",
          "amount": "The amount of tokens to send to the owner"
        }
      },
      "withdrawERC721(address,uint256[])": {
        "details": "If the NFT is the pair's collection, we also remove it from the id tracking (if the NFT is missing enumerable).",
        "params": {
          "a": "The NFT to transfer",
          "nftIds": "The list of IDs of the NFTs to send to the owner"
        }
      },
      "withdrawETH(uint256)": {
        "details": "Only callable by the owner.",
        "params": {
          "amount": "The amount of token to send to the owner. If the pair's balance is less than this value, the transaction will be reverted."
        }
      }
    },
    "title": "An NFT/Token pair where the NFT implements ERC721Enumerable, and the token is ETH",
    "version": 1
  },
  "userdoc": {
    "kind": "user",
    "methods": {
      "bondingCurve()": {
        "notice": "Returns the type of bonding curve that parameterizes the pair"
      },
      "call(address,bytes)": {
        "notice": "Allows the pair to make arbitrary external calls to contracts whitelisted by the protocol. Only callable by the owner."
      },
      "changeAssetRecipient(address)": {
        "notice": "Changes the address that will receive assets received from trades. Only callable by the owner."
      },
      "changeDelta(uint128)": {
        "notice": "Updates the delta parameter. Only callable by the owner."
      },
      "changeFee(uint96)": {
        "notice": "Updates the fee taken by the LP. Only callable by the owner. Only callable if the pool is a Trade pool. Reverts if the fee is >= MAX_FEE."
      },
      "changeSpotPrice(uint128)": {
        "notice": "Updates the selling spot price. Only callable by the owner."
      },
      "getAllHeldIds()": {
        "notice": "Returns all NFT IDs held by the pool"
      },
      "getAssetRecipient()": {
        "notice": "Returns the address that assets that receives assets when a swap is done with this pair Can be set to another address by the owner, if set to address(0), defaults to the pair's own address"
      },
      "initialize(address,address,uint128,uint96,uint128)": {
        "notice": "Called during pair creation to set initial parameters"
      },
      "multicall(bytes[],bool)": {
        "notice": "Allows owner to batch multiple calls, forked from: https://github.com/boringcrypto/BoringSolidity/blob/master/contracts/BoringBatchable.sol"
      },
      "nft()": {
        "notice": "Returns the NFT collection that parameterizes the pair"
      },
      "pairVariant()": {
        "notice": "Returns the LSSVMPair type"
      },
      "poolType()": {
        "notice": "Returns the pair's type (TOKEN/NFT/TRADE)"
      },
      "swapNFTsForToken(uint256[],uint256,address,bool,address)": {
        "notice": "Sends a set of NFTs to the pair in exchange for token"
      },
      "swapTokenForAnyNFTs(uint256,uint256,address,bool,address)": {
        "notice": "Sends token to the pair in exchange for any `numNFTs` NFTs"
      },
      "swapTokenForSpecificNFTs(uint256[],uint256,address,bool,address)": {
        "notice": "Sends token to the pair in exchange for a specific set of NFTs"
      },
      "withdrawAllETH()": {
        "notice": "Withdraws all token owned by the pair to the owner address."
      },
      "withdrawERC1155(address,uint256[],uint256[])": {
        "notice": "Rescues ERC1155 tokens from the pair to the owner. Only callable by the owner."
      },
      "withdrawERC20(address,uint256)": {
        "notice": "Rescues ERC20 tokens from the pair to the owner. Only callable by the owner (onlyOwnable modifier is in the implemented function)."
      },
      "withdrawERC721(address,uint256[])": {
        "notice": "Rescues a specified set of NFTs owned by the pair to the owner address. (onlyOwnable modifier is in the implemented function)"
      },
      "withdrawETH(uint256)": {
        "notice": "Withdraws a specified amount of token owned by the pair to the owner address."
      }
    },
    "version": 1
  }
}