{
  "contractName": "RolesAuthority",
  "abi": [
    {
      "inputs": [
        {
          "internalType": "address",
          "name": "_owner",
          "type": "address"
        },
        {
          "internalType": "contract Authority",
          "name": "_authority",
          "type": "address"
        }
      ],
      "stateMutability": "nonpayable",
      "type": "constructor"
    },
    {
      "anonymous": false,
      "inputs": [
        {
          "indexed": true,
          "internalType": "contract Authority",
          "name": "authority",
          "type": "address"
        }
      ],
      "name": "AuthorityUpdated",
      "type": "event"
    },
    {
      "anonymous": false,
      "inputs": [
        {
          "indexed": true,
          "internalType": "address",
          "name": "owner",
          "type": "address"
        }
      ],
      "name": "OwnerUpdated",
      "type": "event"
    },
    {
      "anonymous": false,
      "inputs": [
        {
          "indexed": true,
          "internalType": "address",
          "name": "target",
          "type": "address"
        },
        {
          "indexed": true,
          "internalType": "bytes4",
          "name": "functionSig",
          "type": "bytes4"
        },
        {
          "indexed": false,
          "internalType": "bool",
          "name": "enabled",
          "type": "bool"
        }
      ],
      "name": "PublicCapabilityUpdated",
      "type": "event"
    },
    {
      "anonymous": false,
      "inputs": [
        {
          "indexed": true,
          "internalType": "uint8",
          "name": "role",
          "type": "uint8"
        },
        {
          "indexed": true,
          "internalType": "address",
          "name": "target",
          "type": "address"
        },
        {
          "indexed": true,
          "internalType": "bytes4",
          "name": "functionSig",
          "type": "bytes4"
        },
        {
          "indexed": false,
          "internalType": "bool",
          "name": "enabled",
          "type": "bool"
        }
      ],
      "name": "RoleCapabilityUpdated",
      "type": "event"
    },
    {
      "anonymous": false,
      "inputs": [
        {
          "indexed": true,
          "internalType": "address",
          "name": "user",
          "type": "address"
        },
        {
          "indexed": true,
          "internalType": "uint8",
          "name": "role",
          "type": "uint8"
        },
        {
          "indexed": false,
          "internalType": "bool",
          "name": "enabled",
          "type": "bool"
        }
      ],
      "name": "UserRoleUpdated",
      "type": "event"
    },
    {
      "anonymous": false,
      "inputs": [
        {
          "indexed": true,
          "internalType": "address",
          "name": "user",
          "type": "address"
        },
        {
          "indexed": false,
          "internalType": "bool",
          "name": "enabled",
          "type": "bool"
        }
      ],
      "name": "UserRootUpdated",
      "type": "event"
    },
    {
      "inputs": [],
      "name": "authority",
      "outputs": [
        {
          "internalType": "contract Authority",
          "name": "",
          "type": "address"
        }
      ],
      "stateMutability": "view",
      "type": "function"
    },
    {
      "inputs": [
        {
          "internalType": "address",
          "name": "",
          "type": "address"
        },
        {
          "internalType": "bytes4",
          "name": "",
          "type": "bytes4"
        }
      ],
      "name": "getRoleCapabilities",
      "outputs": [
        {
          "internalType": "bytes32",
          "name": "",
          "type": "bytes32"
        }
      ],
      "stateMutability": "view",
      "type": "function"
    },
    {
      "inputs": [
        {
          "internalType": "address",
          "name": "",
          "type": "address"
        }
      ],
      "name": "getUserRoles",
      "outputs": [
        {
          "internalType": "bytes32",
          "name": "",
          "type": "bytes32"
        }
      ],
      "stateMutability": "view",
      "type": "function"
    },
    {
      "inputs": [
        {
          "internalType": "address",
          "name": "",
          "type": "address"
        },
        {
          "internalType": "bytes4",
          "name": "",
          "type": "bytes4"
        }
      ],
      "name": "isCapabilityPublic",
      "outputs": [
        {
          "internalType": "bool",
          "name": "",
          "type": "bool"
        }
      ],
      "stateMutability": "view",
      "type": "function"
    },
    {
      "inputs": [
        {
          "internalType": "address",
          "name": "",
          "type": "address"
        }
      ],
      "name": "isUserRoot",
      "outputs": [
        {
          "internalType": "bool",
          "name": "",
          "type": "bool"
        }
      ],
      "stateMutability": "view",
      "type": "function"
    },
    {
      "inputs": [],
      "name": "owner",
      "outputs": [
        {
          "internalType": "address",
          "name": "",
          "type": "address"
        }
      ],
      "stateMutability": "view",
      "type": "function"
    },
    {
      "inputs": [
        {
          "internalType": "contract Authority",
          "name": "newAuthority",
          "type": "address"
        }
      ],
      "name": "setAuthority",
      "outputs": [],
      "stateMutability": "nonpayable",
      "type": "function"
    },
    {
      "inputs": [
        {
          "internalType": "address",
          "name": "newOwner",
          "type": "address"
        }
      ],
      "name": "setOwner",
      "outputs": [],
      "stateMutability": "nonpayable",
      "type": "function"
    },
    {
      "inputs": [
        {
          "internalType": "address",
          "name": "user",
          "type": "address"
        },
        {
          "internalType": "uint8",
          "name": "role",
          "type": "uint8"
        }
      ],
      "name": "doesUserHaveRole",
      "outputs": [
        {
          "internalType": "bool",
          "name": "",
          "type": "bool"
        }
      ],
      "stateMutability": "view",
      "type": "function"
    },
    {
      "inputs": [
        {
          "internalType": "uint8",
          "name": "role",
          "type": "uint8"
        },
        {
          "internalType": "address",
          "name": "target",
          "type": "address"
        },
        {
          "internalType": "bytes4",
          "name": "functionSig",
          "type": "bytes4"
        }
      ],
      "name": "doesRoleHaveCapability",
      "outputs": [
        {
          "internalType": "bool",
          "name": "",
          "type": "bool"
        }
      ],
      "stateMutability": "view",
      "type": "function"
    },
    {
      "inputs": [
        {
          "internalType": "address",
          "name": "user",
          "type": "address"
        },
        {
          "internalType": "address",
          "name": "target",
          "type": "address"
        },
        {
          "internalType": "bytes4",
          "name": "functionSig",
          "type": "bytes4"
        }
      ],
      "name": "canCall",
      "outputs": [
        {
          "internalType": "bool",
          "name": "",
          "type": "bool"
        }
      ],
      "stateMutability": "view",
      "type": "function"
    },
    {
      "inputs": [
        {
          "internalType": "address",
          "name": "target",
          "type": "address"
        },
        {
          "internalType": "bytes4",
          "name": "functionSig",
          "type": "bytes4"
        },
        {
          "internalType": "bool",
          "name": "enabled",
          "type": "bool"
        }
      ],
      "name": "setPublicCapability",
      "outputs": [],
      "stateMutability": "nonpayable",
      "type": "function"
    },
    {
      "inputs": [
        {
          "internalType": "uint8",
          "name": "role",
          "type": "uint8"
        },
        {
          "internalType": "address",
          "name": "target",
          "type": "address"
        },
        {
          "internalType": "bytes4",
          "name": "functionSig",
          "type": "bytes4"
        },
        {
          "internalType": "bool",
          "name": "enabled",
          "type": "bool"
        }
      ],
      "name": "setRoleCapability",
      "outputs": [],
      "stateMutability": "nonpayable",
      "type": "function"
    },
    {
      "inputs": [
        {
          "internalType": "address",
          "name": "user",
          "type": "address"
        },
        {
          "internalType": "uint8",
          "name": "role",
          "type": "uint8"
        },
        {
          "internalType": "bool",
          "name": "enabled",
          "type": "bool"
        }
      ],
      "name": "setUserRole",
      "outputs": [],
      "stateMutability": "nonpayable",
      "type": "function"
    },
    {
      "inputs": [
        {
          "internalType": "address",
          "name": "user",
          "type": "address"
        },
        {
          "internalType": "bool",
          "name": "enabled",
          "type": "bool"
        }
      ],
      "name": "setRootUser",
      "outputs": [],
      "stateMutability": "nonpayable",
      "type": "function"
    }
  ],
  "bytecode": "0x60806040523480156200001157600080fd5b506040516200195b3803806200195b8339818101604052810190620000379190620001f9565b8181816000806101000a81548173ffffffffffffffffffffffffffffffffffffffff021916908373ffffffffffffffffffffffffffffffffffffffff16021790555080600160006101000a81548173ffffffffffffffffffffffffffffffffffffffff021916908373ffffffffffffffffffffffffffffffffffffffff1602179055508173ffffffffffffffffffffffffffffffffffffffff167f4ffd725fc4a22075e9ec71c59edf9c38cdeb588a91b24fc5b61388c5be41282b60405160405180910390a28073ffffffffffffffffffffffffffffffffffffffff167f2f658b440c35314f52658ea8a740e05b284cdc84dc9ae01e891f21b8933e7cad60405160405180910390a25050505062000240565b600080fd5b600073ffffffffffffffffffffffffffffffffffffffff82169050919050565b60006200017c826200014f565b9050919050565b6200018e816200016f565b81146200019a57600080fd5b50565b600081519050620001ae8162000183565b92915050565b6000620001c1826200016f565b9050919050565b620001d381620001b4565b8114620001df57600080fd5b50565b600081519050620001f381620001c8565b92915050565b600080604083850312156200021357620002126200014a565b5b600062000223858286016200019d565b92505060206200023685828601620001e2565b9150509250929050565b61170b80620002506000396000f3fe608060405234801561001057600080fd5b50600436106100f55760003560e01c8063a89928ab11610097578063c6b0263e11610066578063c6b0263e14610296578063d381ba7c146102b2578063ea7ca276146102ce578063fbf80773146102fe576100f5565b8063a89928ab146101e8578063b4bad06a14610218578063b700961314610248578063bf7e214f14610278576100f5565b806367aff484116100d357806367aff484146101765780637a9e5e4b146101925780637d40583d146101ae5780638da5cb5b146101ca576100f5565b806306a36aee146100fa57806313af40351461012a5780632f47571f14610146575b600080fd5b610114600480360381019061010f91906110fa565b61032e565b6040516101219190611140565b60405180910390f35b610144600480360381019061013f91906110fa565b610346565b005b610160600480360381019061015b91906111b3565b610459565b60405161016d919061120e565b60405180910390f35b610190600480360381019061018b919061128e565b610488565b005b6101ac60048036038101906101a7919061131f565b6105f5565b005b6101c860048036038101906101c3919061134c565b61070b565b005b6101d2610937565b6040516101df91906113c2565b60405180910390f35b61020260048036038101906101fd91906111b3565b61095b565b60405161020f9190611140565b60405180910390f35b610232600480360381019061022d91906113dd565b610980565b60405161023f919061120e565b60405180910390f35b610262600480360381019061025d9190611430565b610a30565b60405161026f919061120e565b60405180910390f35b610280610c10565b60405161028d91906114e2565b60405180910390f35b6102b060048036038101906102ab91906114fd565b610c36565b005b6102cc60048036038101906102c79190611550565b610dbc565b005b6102e860048036038101906102e39190611590565b610ed2565b6040516102f5919061120e565b60405180910390f35b610318600480360381019061031391906110fa565b610f32565b604051610325919061120e565b60405180910390f35b60036020528060005260406000206000915090505481565b610374336000357fffffffff0000000000000000000000000000000000000000000000000000000016610f52565b6103b3576040517f08c379a00000000000000000000000000000000000000000000000000000000081526004016103aa9061162d565b60405180910390fd5b806000806101000a81548173ffffffffffffffffffffffffffffffffffffffff021916908373ffffffffffffffffffffffffffffffffffffffff16021790555060008054906101000a900473ffffffffffffffffffffffffffffffffffffffff1673ffffffffffffffffffffffffffffffffffffffff167f4ffd725fc4a22075e9ec71c59edf9c38cdeb588a91b24fc5b61388c5be41282b60405160405180910390a250565b60056020528160005260406000206020528060005260406000206000915091509054906101000a900460ff1681565b6104b6336000357fffffffff0000000000000000000000000000000000000000000000000000000016610f52565b6104f5576040517f08c379a00000000000000000000000000000000000000000000000000000000081526004016104ec9061162d565b60405180910390fd5b6000600360008573ffffffffffffffffffffffffffffffffffffffff1673ffffffffffffffffffffffffffffffffffffffff16815260200190815260200160002054905060008360ff1660020a60001b9050826105555780198216610559565b8082175b600360008773ffffffffffffffffffffffffffffffffffffffff1673ffffffffffffffffffffffffffffffffffffffff16815260200190815260200160002081905550508260ff168473ffffffffffffffffffffffffffffffffffffffff167f4c9bdd0c8e073eb5eda2250b18d8e5121ff27b62064fbeeeed4869bb99bc5bf2846040516105e7919061120e565b60405180910390a350505050565b610623336000357fffffffff0000000000000000000000000000000000000000000000000000000016610f52565b610662576040517f08c379a00000000000000000000000000000000000000000000000000000000081526004016106599061162d565b60405180910390fd5b80600160006101000a81548173ffffffffffffffffffffffffffffffffffffffff021916908373ffffffffffffffffffffffffffffffffffffffff160217905550600160009054906101000a900473ffffffffffffffffffffffffffffffffffffffff1673ffffffffffffffffffffffffffffffffffffffff167f2f658b440c35314f52658ea8a740e05b284cdc84dc9ae01e891f21b8933e7cad60405160405180910390a250565b610739336000357fffffffff0000000000000000000000000000000000000000000000000000000016610f52565b610778576040517f08c379a000000000000000000000000000000000000000000000000000000000815260040161076f9061162d565b60405180910390fd5b6000600460008573ffffffffffffffffffffffffffffffffffffffff1673ffffffffffffffffffffffffffffffffffffffff1681526020019081526020016000206000847bffffffffffffffffffffffffffffffffffffffffffffffffffffffff19167bffffffffffffffffffffffffffffffffffffffffffffffffffffffff1916815260200190815260200160002054905060008560ff1660020a60001b905082610827578019821661082b565b8082175b600460008773ffffffffffffffffffffffffffffffffffffffff1673ffffffffffffffffffffffffffffffffffffffff1681526020019081526020016000206000867bffffffffffffffffffffffffffffffffffffffffffffffffffffffff19167bffffffffffffffffffffffffffffffffffffffffffffffffffffffff191681526020019081526020016000208190555050827bffffffffffffffffffffffffffffffffffffffffffffffffffffffff19168473ffffffffffffffffffffffffffffffffffffffff168660ff167fa52ea92e6e955aa8ac66420b86350f7139959adfcc7e6a14eee1bd116d09860e85604051610928919061120e565b60405180910390a45050505050565b60008054906101000a900473ffffffffffffffffffffffffffffffffffffffff1681565b6004602052816000526040600020602052806000526040600020600091509150505481565b6000808460ff1660020a60001b905080600460008673ffffffffffffffffffffffffffffffffffffffff1673ffffffffffffffffffffffffffffffffffffffff1681526020019081526020016000206000857bffffffffffffffffffffffffffffffffffffffffffffffffffffffff19167bffffffffffffffffffffffffffffffffffffffffffffffffffffffff1916815260200190815260200160002054166000801b14159150509392505050565b6000600560008473ffffffffffffffffffffffffffffffffffffffff1673ffffffffffffffffffffffffffffffffffffffff1681526020019081526020016000206000837bffffffffffffffffffffffffffffffffffffffffffffffffffffffff19167bffffffffffffffffffffffffffffffffffffffffffffffffffffffff1916815260200190815260200160002060009054906101000a900460ff1615610adc5760019050610c09565b600460008473ffffffffffffffffffffffffffffffffffffffff1673ffffffffffffffffffffffffffffffffffffffff1681526020019081526020016000206000837bffffffffffffffffffffffffffffffffffffffffffffffffffffffff19167bffffffffffffffffffffffffffffffffffffffffffffffffffffffff1916815260200190815260200160002054600360008673ffffffffffffffffffffffffffffffffffffffff1673ffffffffffffffffffffffffffffffffffffffff16815260200190815260200160002054166000801b141580610c065750600260008573ffffffffffffffffffffffffffffffffffffffff1673ffffffffffffffffffffffffffffffffffffffff16815260200190815260200160002060009054906101000a900460ff165b90505b9392505050565b600160009054906101000a900473ffffffffffffffffffffffffffffffffffffffff1681565b610c64336000357fffffffff0000000000000000000000000000000000000000000000000000000016610f52565b610ca3576040517f08c379a0000000000000000000000000000000000000000000000000000000008152600401610c9a9061162d565b60405180910390fd5b80600560008573ffffffffffffffffffffffffffffffffffffffff1673ffffffffffffffffffffffffffffffffffffffff1681526020019081526020016000206000847bffffffffffffffffffffffffffffffffffffffffffffffffffffffff19167bffffffffffffffffffffffffffffffffffffffffffffffffffffffff1916815260200190815260200160002060006101000a81548160ff021916908315150217905550817bffffffffffffffffffffffffffffffffffffffffffffffffffffffff19168373ffffffffffffffffffffffffffffffffffffffff167f950a343f5d10445e82a71036d3f4fb3016180a25805141932543b83e2078a93e83604051610daf919061120e565b60405180910390a3505050565b610dea336000357fffffffff0000000000000000000000000000000000000000000000000000000016610f52565b610e29576040517f08c379a0000000000000000000000000000000000000000000000000000000008152600401610e209061162d565b60405180910390fd5b80600260008473ffffffffffffffffffffffffffffffffffffffff1673ffffffffffffffffffffffffffffffffffffffff16815260200190815260200160002060006101000a81548160ff0219169083151502179055508173ffffffffffffffffffffffffffffffffffffffff167f0e92d4e680700857c233463d7e0f1eae645ceb31551b23d84b06307b266782a982604051610ec6919061120e565b60405180910390a25050565b6000808260ff1660020a60001b905080600360008673ffffffffffffffffffffffffffffffffffffffff1673ffffffffffffffffffffffffffffffffffffffff16815260200190815260200160002054166000801b141591505092915050565b60026020528060005260406000206000915054906101000a900460ff1681565b600080600160009054906101000a900473ffffffffffffffffffffffffffffffffffffffff169050600073ffffffffffffffffffffffffffffffffffffffff168173ffffffffffffffffffffffffffffffffffffffff161461103e578073ffffffffffffffffffffffffffffffffffffffff1663b70096138530866040518463ffffffff1660e01b8152600401610feb9392919061165c565b602060405180830381865afa92505050801561102557506040513d601f19601f8201168201806040525081019061102291906116a8565b60015b1561103d57801561103b57600192505050611091565b505b5b60008054906101000a900473ffffffffffffffffffffffffffffffffffffffff1673ffffffffffffffffffffffffffffffffffffffff168473ffffffffffffffffffffffffffffffffffffffff16149150505b92915050565b600080fd5b600073ffffffffffffffffffffffffffffffffffffffff82169050919050565b60006110c78261109c565b9050919050565b6110d7816110bc565b81146110e257600080fd5b50565b6000813590506110f4816110ce565b92915050565b6000602082840312156111105761110f611097565b5b600061111e848285016110e5565b91505092915050565b6000819050919050565b61113a81611127565b82525050565b60006020820190506111556000830184611131565b92915050565b60007fffffffff0000000000000000000000000000000000000000000000000000000082169050919050565b6111908161115b565b811461119b57600080fd5b50565b6000813590506111ad81611187565b92915050565b600080604083850312156111ca576111c9611097565b5b60006111d8858286016110e5565b92505060206111e98582860161119e565b9150509250929050565b60008115159050919050565b611208816111f3565b82525050565b600060208201905061122360008301846111ff565b92915050565b600060ff82169050919050565b61123f81611229565b811461124a57600080fd5b50565b60008135905061125c81611236565b92915050565b61126b816111f3565b811461127657600080fd5b50565b60008135905061128881611262565b92915050565b6000806000606084860312156112a7576112a6611097565b5b60006112b5868287016110e5565b93505060206112c68682870161124d565b92505060406112d786828701611279565b9150509250925092565b60006112ec826110bc565b9050919050565b6112fc816112e1565b811461130757600080fd5b50565b600081359050611319816112f3565b92915050565b60006020828403121561133557611334611097565b5b60006113438482850161130a565b91505092915050565b6000806000806080858703121561136657611365611097565b5b60006113748782880161124d565b9450506020611385878288016110e5565b93505060406113968782880161119e565b92505060606113a787828801611279565b91505092959194509250565b6113bc816110bc565b82525050565b60006020820190506113d760008301846113b3565b92915050565b6000806000606084860312156113f6576113f5611097565b5b60006114048682870161124d565b9350506020611415868287016110e5565b92505060406114268682870161119e565b9150509250925092565b60008060006060848603121561144957611448611097565b5b6000611457868287016110e5565b9350506020611468868287016110e5565b92505060406114798682870161119e565b9150509250925092565b6000819050919050565b60006114a86114a361149e8461109c565b611483565b61109c565b9050919050565b60006114ba8261148d565b9050919050565b60006114cc826114af565b9050919050565b6114dc816114c1565b82525050565b60006020820190506114f760008301846114d3565b92915050565b60008060006060848603121561151657611515611097565b5b6000611524868287016110e5565b93505060206115358682870161119e565b925050604061154686828701611279565b9150509250925092565b6000806040838503121561156757611566611097565b5b6000611575858286016110e5565b925050602061158685828601611279565b9150509250929050565b600080604083850312156115a7576115a6611097565b5b60006115b5858286016110e5565b92505060206115c68582860161124d565b9150509250929050565b600082825260208201905092915050565b7f554e415554484f52495a45440000000000000000000000000000000000000000600082015250565b6000611617600c836115d0565b9150611622826115e1565b602082019050919050565b600060208201905081810360008301526116468161160a565b9050919050565b6116568161115b565b82525050565b600060608201905061167160008301866113b3565b61167e60208301856113b3565b61168b604083018461164d565b949350505050565b6000815190506116a281611262565b92915050565b6000602082840312156116be576116bd611097565b5b60006116cc84828501611693565b9150509291505056fea2646970667358221220e7ad174623f8fb7adb7c5155bd8fc13171e82043047887f51cd38e60c25021c364736f6c63430008100033",
  "immutableReferences": {},
  "source": "// SPDX-License-Identifier: AGPL-3.0-only\npragma solidity >=0.8.0;\n\nimport {Auth, Authority} from \"../Auth.sol\";\n\n/// @notice Role based Authority that supports up to 256 roles.\n/// @author Modified from Dappsys (https://github.com/dapphub/ds-roles/blob/master/src/roles.sol)\ncontract RolesAuthority is Auth, Authority {\n    /*///////////////////////////////////////////////////////////////\n                                  EVENTS\n    //////////////////////////////////////////////////////////////*/\n\n    event UserRootUpdated(address indexed user, bool enabled);\n\n    event UserRoleUpdated(address indexed user, uint8 indexed role, bool enabled);\n\n    event PublicCapabilityUpdated(address indexed target, bytes4 indexed functionSig, bool enabled);\n\n    event RoleCapabilityUpdated(uint8 indexed role, address indexed target, bytes4 indexed functionSig, bool enabled);\n\n    /*///////////////////////////////////////////////////////////////\n                               CONSTRUCTOR\n    //////////////////////////////////////////////////////////////*/\n    constructor(address _owner, Authority _authority) Auth(_owner, _authority) {}\n\n    /*///////////////////////////////////////////////////////////////\n                             USER ROLE STORAGE\n    //////////////////////////////////////////////////////////////*/\n\n    mapping(address => bool) public isUserRoot;\n\n    mapping(address => bytes32) public getUserRoles;\n\n    function doesUserHaveRole(address user, uint8 role) public view virtual returns (bool) {\n        unchecked {\n            bytes32 shifted = bytes32(uint256(uint256(2)**uint256(role)));\n\n            return bytes32(0) != getUserRoles[user] & shifted;\n        }\n    }\n\n    /*///////////////////////////////////////////////////////////////\n                        ROLE CAPABILITY STORAGE\n    //////////////////////////////////////////////////////////////*/\n\n    mapping(address => mapping(bytes4 => bytes32)) public getRoleCapabilities;\n\n    mapping(address => mapping(bytes4 => bool)) public isCapabilityPublic;\n\n    function doesRoleHaveCapability(\n        uint8 role,\n        address target,\n        bytes4 functionSig\n    ) public view virtual returns (bool) {\n        unchecked {\n            bytes32 shifted = bytes32(uint256(uint256(2)**uint256(role)));\n\n            return bytes32(0) != getRoleCapabilities[target][functionSig] & shifted;\n        }\n    }\n\n    /*///////////////////////////////////////////////////////////////\n                          AUTHORIZATION LOGIC\n    //////////////////////////////////////////////////////////////*/\n\n    function canCall(\n        address user,\n        address target,\n        bytes4 functionSig\n    ) public view virtual override returns (bool) {\n        if (isCapabilityPublic[target][functionSig]) return true;\n\n        return bytes32(0) != getUserRoles[user] & getRoleCapabilities[target][functionSig] || isUserRoot[user];\n    }\n\n    /*///////////////////////////////////////////////////////////////\n                  ROLE CAPABILITY CONFIGURATION LOGIC\n    //////////////////////////////////////////////////////////////*/\n\n    function setPublicCapability(\n        address target,\n        bytes4 functionSig,\n        bool enabled\n    ) public virtual requiresAuth {\n        isCapabilityPublic[target][functionSig] = enabled;\n\n        emit PublicCapabilityUpdated(target, functionSig, enabled);\n    }\n\n    function setRoleCapability(\n        uint8 role,\n        address target,\n        bytes4 functionSig,\n        bool enabled\n    ) public virtual requiresAuth {\n        bytes32 lastCapabilities = getRoleCapabilities[target][functionSig];\n\n        unchecked {\n            bytes32 shifted = bytes32(uint256(uint256(2)**uint256(role)));\n\n            getRoleCapabilities[target][functionSig] = enabled\n                ? lastCapabilities | shifted\n                : lastCapabilities & ~shifted;\n        }\n\n        emit RoleCapabilityUpdated(role, target, functionSig, enabled);\n    }\n\n    /*///////////////////////////////////////////////////////////////\n                      USER ROLE ASSIGNMENT LOGIC\n    //////////////////////////////////////////////////////////////*/\n\n    function setUserRole(\n        address user,\n        uint8 role,\n        bool enabled\n    ) public virtual requiresAuth {\n        bytes32 lastRoles = getUserRoles[user];\n\n        unchecked {\n            bytes32 shifted = bytes32(uint256(uint256(2)**uint256(role)));\n\n            getUserRoles[user] = enabled ? lastRoles | shifted : lastRoles & ~shifted;\n        }\n\n        emit UserRoleUpdated(user, role, enabled);\n    }\n\n    function setRootUser(address user, bool enabled) public virtual requiresAuth {\n        isUserRoot[user] = enabled;\n\n        emit UserRootUpdated(user, enabled);\n    }\n}\n",
  "sourcePath": "/Users/brett/workSpace/NFTSea/nftsea-contract/contracts/auth/authorities/RolesAuthority.sol",
  "compiler": {
    "name": "solc",
    "version": "0.8.16+commit.07a7930e.Emscripten.clang"
  },
  "schemaVersion": "3.4.9",
  "updatedAt": "2022-09-02T11:37:45.664Z",
  "devdoc": {
    "author": "Modified from Dappsys (https://github.com/dapphub/ds-roles/blob/master/src/roles.sol)",
    "kind": "dev",
    "methods": {},
    "version": 1
  },
  "userdoc": {
    "kind": "user",
    "methods": {},
    "notice": "Role based Authority that supports up to 256 roles.",
    "version": 1
  }
}