{
  "contractName": "TrustAuthority",
  "abi": [
    {
      "inputs": [
        {
          "internalType": "address",
          "name": "initialUser",
          "type": "address"
        }
      ],
      "stateMutability": "nonpayable",
      "type": "constructor"
    },
    {
      "anonymous": false,
      "inputs": [
        {
          "indexed": true,
          "internalType": "address",
          "name": "user",
          "type": "address"
        },
        {
          "indexed": false,
          "internalType": "bool",
          "name": "trusted",
          "type": "bool"
        }
      ],
      "name": "UserTrustUpdated",
      "type": "event"
    },
    {
      "inputs": [
        {
          "internalType": "address",
          "name": "",
          "type": "address"
        }
      ],
      "name": "isTrusted",
      "outputs": [
        {
          "internalType": "bool",
          "name": "",
          "type": "bool"
        }
      ],
      "stateMutability": "view",
      "type": "function"
    },
    {
      "inputs": [
        {
          "internalType": "address",
          "name": "user",
          "type": "address"
        },
        {
          "internalType": "bool",
          "name": "trusted",
          "type": "bool"
        }
      ],
      "name": "setIsTrusted",
      "outputs": [],
      "stateMutability": "nonpayable",
      "type": "function"
    },
    {
      "inputs": [
        {
          "internalType": "address",
          "name": "user",
          "type": "address"
        },
        {
          "internalType": "address",
          "name": "",
          "type": "address"
        },
        {
          "internalType": "bytes4",
          "name": "",
          "type": "bytes4"
        }
      ],
      "name": "canCall",
      "outputs": [
        {
          "internalType": "bool",
          "name": "",
          "type": "bool"
        }
      ],
      "stateMutability": "view",
      "type": "function"
    }
  ],
  "bytecode": "0x608060405234801561001057600080fd5b506040516106b13803806106b183398181016040528101906100329190610143565b8060016000808373ffffffffffffffffffffffffffffffffffffffff1673ffffffffffffffffffffffffffffffffffffffff16815260200190815260200160002060006101000a81548160ff0219169083151502179055508073ffffffffffffffffffffffffffffffffffffffff167fe95aec380cae16330d146d5499ef7db6f3657e477104a733e771bc09e500d98660016040516100d1919061018b565b60405180910390a250506101a6565b600080fd5b600073ffffffffffffffffffffffffffffffffffffffff82169050919050565b6000610110826100e5565b9050919050565b61012081610105565b811461012b57600080fd5b50565b60008151905061013d81610117565b92915050565b600060208284031215610159576101586100e0565b5b60006101678482850161012e565b91505092915050565b60008115159050919050565b61018581610170565b82525050565b60006020820190506101a0600083018461017c565b92915050565b6104fc806101b56000396000f3fe608060405234801561001057600080fd5b50600436106100415760003560e01c80631393916a1461004657806396d6487914610062578063b700961314610092575b600080fd5b610060600480360381019061005b9190610307565b6100c2565b005b61007c60048036038101906100779190610347565b6101f5565b6040516100899190610383565b60405180910390f35b6100ac60048036038101906100a791906103f6565b610215565b6040516100b99190610383565b60405180910390f35b6000803373ffffffffffffffffffffffffffffffffffffffff1673ffffffffffffffffffffffffffffffffffffffff16815260200190815260200160002060009054906101000a900460ff1661014d576040517f08c379a0000000000000000000000000000000000000000000000000000000008152600401610144906104a6565b60405180910390fd5b806000808473ffffffffffffffffffffffffffffffffffffffff1673ffffffffffffffffffffffffffffffffffffffff16815260200190815260200160002060006101000a81548160ff0219169083151502179055508173ffffffffffffffffffffffffffffffffffffffff167fe95aec380cae16330d146d5499ef7db6f3657e477104a733e771bc09e500d986826040516101e99190610383565b60405180910390a25050565b60006020528060005260406000206000915054906101000a900460ff1681565b60008060008573ffffffffffffffffffffffffffffffffffffffff1673ffffffffffffffffffffffffffffffffffffffff16815260200190815260200160002060009054906101000a900460ff1690509392505050565b600080fd5b600073ffffffffffffffffffffffffffffffffffffffff82169050919050565b600061029c82610271565b9050919050565b6102ac81610291565b81146102b757600080fd5b50565b6000813590506102c9816102a3565b92915050565b60008115159050919050565b6102e4816102cf565b81146102ef57600080fd5b50565b600081359050610301816102db565b92915050565b6000806040838503121561031e5761031d61026c565b5b600061032c858286016102ba565b925050602061033d858286016102f2565b9150509250929050565b60006020828403121561035d5761035c61026c565b5b600061036b848285016102ba565b91505092915050565b61037d816102cf565b82525050565b60006020820190506103986000830184610374565b92915050565b60007fffffffff0000000000000000000000000000000000000000000000000000000082169050919050565b6103d38161039e565b81146103de57600080fd5b50565b6000813590506103f0816103ca565b92915050565b60008060006060848603121561040f5761040e61026c565b5b600061041d868287016102ba565b935050602061042e868287016102ba565b925050604061043f868287016103e1565b9150509250925092565b600082825260208201905092915050565b7f554e545255535445440000000000000000000000000000000000000000000000600082015250565b6000610490600983610449565b915061049b8261045a565b602082019050919050565b600060208201905081810360008301526104bf81610483565b905091905056fea2646970667358221220cd3a1d73f566340f9e01ef5bd58db424dcb6091c3085809c30716fc2b24a446364736f6c63430008100033",
  "immutableReferences": {},
  "source": "// SPDX-License-Identifier: AGPL-3.0-only\npragma solidity >=0.7.0;\n\nimport {Trust} from \"../Trust.sol\";\nimport {Authority} from \"../Auth.sol\";\n\n/// @notice Simple Authority that allows a Trust to be used as an Authority.\n/// @author Original work by Transmissions11 (https://github.com/transmissions11)\ncontract TrustAuthority is Trust, Authority {\n    constructor(address initialUser) Trust(initialUser) {}\n\n    function canCall(\n        address user,\n        address,\n        bytes4\n    ) public view virtual override returns (bool) {\n        return isTrusted[user];\n    }\n}\n",
  "sourcePath": "/Users/brett/workSpace/NFTSea/nftsea-contract/contracts/auth/authorities/TrustAuthority.sol",
  "compiler": {
    "name": "solc",
    "version": "0.8.16+commit.07a7930e.Emscripten.clang"
  },
  "schemaVersion": "3.4.9",
  "updatedAt": "2022-09-03T12:01:49.566Z",
  "devdoc": {
    "author": "Original work by Transmissions11 (https://github.com/transmissions11)",
    "kind": "dev",
    "methods": {},
    "version": 1
  },
  "userdoc": {
    "kind": "user",
    "methods": {},
    "notice": "Simple Authority that allows a Trust to be used as an Authority.",
    "version": 1
  }
}