{
  "contractName": "WETH",
  "abi": [
    {
      "anonymous": false,
      "inputs": [
        {
          "indexed": true,
          "internalType": "address",
          "name": "owner",
          "type": "address"
        },
        {
          "indexed": true,
          "internalType": "address",
          "name": "spender",
          "type": "address"
        },
        {
          "indexed": false,
          "internalType": "uint256",
          "name": "amount",
          "type": "uint256"
        }
      ],
      "name": "Approval",
      "type": "event"
    },
    {
      "anonymous": false,
      "inputs": [
        {
          "indexed": true,
          "internalType": "address",
          "name": "from",
          "type": "address"
        },
        {
          "indexed": false,
          "internalType": "uint256",
          "name": "amount",
          "type": "uint256"
        }
      ],
      "name": "Deposit",
      "type": "event"
    },
    {
      "anonymous": false,
      "inputs": [
        {
          "indexed": true,
          "internalType": "address",
          "name": "from",
          "type": "address"
        },
        {
          "indexed": true,
          "internalType": "address",
          "name": "to",
          "type": "address"
        },
        {
          "indexed": false,
          "internalType": "uint256",
          "name": "amount",
          "type": "uint256"
        }
      ],
      "name": "Transfer",
      "type": "event"
    },
    {
      "anonymous": false,
      "inputs": [
        {
          "indexed": true,
          "internalType": "address",
          "name": "to",
          "type": "address"
        },
        {
          "indexed": false,
          "internalType": "uint256",
          "name": "amount",
          "type": "uint256"
        }
      ],
      "name": "Withdrawal",
      "type": "event"
    },
    {
      "inputs": [],
      "name": "DOMAIN_SEPARATOR",
      "outputs": [
        {
          "internalType": "bytes32",
          "name": "",
          "type": "bytes32"
        }
      ],
      "stateMutability": "view",
      "type": "function"
    },
    {
      "inputs": [],
      "name": "PERMIT_TYPEHASH",
      "outputs": [
        {
          "internalType": "bytes32",
          "name": "",
          "type": "bytes32"
        }
      ],
      "stateMutability": "view",
      "type": "function"
    },
    {
      "inputs": [
        {
          "internalType": "address",
          "name": "",
          "type": "address"
        },
        {
          "internalType": "address",
          "name": "",
          "type": "address"
        }
      ],
      "name": "allowance",
      "outputs": [
        {
          "internalType": "uint256",
          "name": "",
          "type": "uint256"
        }
      ],
      "stateMutability": "view",
      "type": "function"
    },
    {
      "inputs": [
        {
          "internalType": "address",
          "name": "spender",
          "type": "address"
        },
        {
          "internalType": "uint256",
          "name": "amount",
          "type": "uint256"
        }
      ],
      "name": "approve",
      "outputs": [
        {
          "internalType": "bool",
          "name": "",
          "type": "bool"
        }
      ],
      "stateMutability": "nonpayable",
      "type": "function"
    },
    {
      "inputs": [
        {
          "internalType": "address",
          "name": "",
          "type": "address"
        }
      ],
      "name": "balanceOf",
      "outputs": [
        {
          "internalType": "uint256",
          "name": "",
          "type": "uint256"
        }
      ],
      "stateMutability": "view",
      "type": "function"
    },
    {
      "inputs": [],
      "name": "decimals",
      "outputs": [
        {
          "internalType": "uint8",
          "name": "",
          "type": "uint8"
        }
      ],
      "stateMutability": "view",
      "type": "function"
    },
    {
      "inputs": [],
      "name": "name",
      "outputs": [
        {
          "internalType": "string",
          "name": "",
          "type": "string"
        }
      ],
      "stateMutability": "view",
      "type": "function"
    },
    {
      "inputs": [
        {
          "internalType": "address",
          "name": "",
          "type": "address"
        }
      ],
      "name": "nonces",
      "outputs": [
        {
          "internalType": "uint256",
          "name": "",
          "type": "uint256"
        }
      ],
      "stateMutability": "view",
      "type": "function"
    },
    {
      "inputs": [
        {
          "internalType": "address",
          "name": "owner",
          "type": "address"
        },
        {
          "internalType": "address",
          "name": "spender",
          "type": "address"
        },
        {
          "internalType": "uint256",
          "name": "value",
          "type": "uint256"
        },
        {
          "internalType": "uint256",
          "name": "deadline",
          "type": "uint256"
        },
        {
          "internalType": "uint8",
          "name": "v",
          "type": "uint8"
        },
        {
          "internalType": "bytes32",
          "name": "r",
          "type": "bytes32"
        },
        {
          "internalType": "bytes32",
          "name": "s",
          "type": "bytes32"
        }
      ],
      "name": "permit",
      "outputs": [],
      "stateMutability": "nonpayable",
      "type": "function"
    },
    {
      "inputs": [],
      "name": "symbol",
      "outputs": [
        {
          "internalType": "string",
          "name": "",
          "type": "string"
        }
      ],
      "stateMutability": "view",
      "type": "function"
    },
    {
      "inputs": [],
      "name": "totalSupply",
      "outputs": [
        {
          "internalType": "uint256",
          "name": "",
          "type": "uint256"
        }
      ],
      "stateMutability": "view",
      "type": "function"
    },
    {
      "inputs": [
        {
          "internalType": "address",
          "name": "to",
          "type": "address"
        },
        {
          "internalType": "uint256",
          "name": "amount",
          "type": "uint256"
        }
      ],
      "name": "transfer",
      "outputs": [
        {
          "internalType": "bool",
          "name": "",
          "type": "bool"
        }
      ],
      "stateMutability": "nonpayable",
      "type": "function"
    },
    {
      "inputs": [
        {
          "internalType": "address",
          "name": "from",
          "type": "address"
        },
        {
          "internalType": "address",
          "name": "to",
          "type": "address"
        },
        {
          "internalType": "uint256",
          "name": "amount",
          "type": "uint256"
        }
      ],
      "name": "transferFrom",
      "outputs": [
        {
          "internalType": "bool",
          "name": "",
          "type": "bool"
        }
      ],
      "stateMutability": "nonpayable",
      "type": "function"
    },
    {
      "stateMutability": "payable",
      "type": "receive"
    },
    {
      "inputs": [],
      "name": "deposit",
      "outputs": [],
      "stateMutability": "payable",
      "type": "function"
    },
    {
      "inputs": [
        {
          "internalType": "uint256",
          "name": "amount",
          "type": "uint256"
        }
      ],
      "name": "withdraw",
      "outputs": [],
      "stateMutability": "nonpayable",
      "type": "function"
    }
  ],
  "bytecode": "0x60e06040523480156200001157600080fd5b506040518060400160405280600d81526020017f57726170706564204574686572000000000000000000000000000000000000008152506040518060400160405280600481526020017f57455448000000000000000000000000000000000000000000000000000000008152506012826000908162000091919062000400565b508160019081620000a3919062000400565b508060ff1660808160ff16815250504660a08181525050620000ca620000da60201b60201c565b60c081815250505050506200067d565b60007f8b73c3c69bb8fe3d512ecc4cf759cc79239f7b179b0ffacaa9a75d522b39400f60006040516200010e919062000596565b60405180910390206040518060400160405280600181526020017f31000000000000000000000000000000000000000000000000000000000000008152508051906020012046306040516020016200016b95949392919062000620565b60405160208183030381529060405280519060200120905090565b600081519050919050565b7f4e487b7100000000000000000000000000000000000000000000000000000000600052604160045260246000fd5b7f4e487b7100000000000000000000000000000000000000000000000000000000600052602260045260246000fd5b600060028204905060018216806200020857607f821691505b6020821081036200021e576200021d620001c0565b5b50919050565b60008190508160005260206000209050919050565b60006020601f8301049050919050565b600082821b905092915050565b600060088302620002887fffffffffffffffffffffffffffffffffffffffffffffffffffffffffffffffff8262000249565b62000294868362000249565b95508019841693508086168417925050509392505050565b6000819050919050565b6000819050919050565b6000620002e1620002db620002d584620002ac565b620002b6565b620002ac565b9050919050565b6000819050919050565b620002fd83620002c0565b620003156200030c82620002e8565b84845462000256565b825550505050565b600090565b6200032c6200031d565b62000339818484620002f2565b505050565b5b8181101562000361576200035560008262000322565b6001810190506200033f565b5050565b601f821115620003b0576200037a8162000224565b620003858462000239565b8101602085101562000395578190505b620003ad620003a48562000239565b8301826200033e565b50505b505050565b600082821c905092915050565b6000620003d560001984600802620003b5565b1980831691505092915050565b6000620003f08383620003c2565b9150826002028217905092915050565b6200040b8262000186565b67ffffffffffffffff81111562000427576200042662000191565b5b620004338254620001ef565b6200044082828562000365565b600060209050601f83116001811462000478576000841562000463578287015190505b6200046f8582620003e2565b865550620004df565b601f198416620004888662000224565b60005b82811015620004b2578489015182556001820191506020850194506020810190506200048b565b86831015620004d25784890151620004ce601f891682620003c2565b8355505b6001600288020188555050505b505050505050565b600081905092915050565b60008190508160005260206000209050919050565b600081546200051681620001ef565b620005228186620004e7565b9450600182166000811462000540576001811462000556576200058d565b60ff19831686528115158202860193506200058d565b6200056185620004f2565b60005b83811015620005855781548189015260018201915060208101905062000564565b838801955050505b50505092915050565b6000620005a4828462000507565b915081905092915050565b6000819050919050565b620005c481620005af565b82525050565b620005d581620002ac565b82525050565b600073ffffffffffffffffffffffffffffffffffffffff82169050919050565b60006200060882620005db565b9050919050565b6200061a81620005fb565b82525050565b600060a082019050620006376000830188620005b9565b620006466020830187620005b9565b620006556040830186620005b9565b620006646060830185620005ca565b6200067360808301846200060f565b9695505050505050565b60805160a05160c0516119d1620006ad60003960006108fc015260006108c8015260006108a201526119d16000f3fe6080604052600436106100ec5760003560e01c80633644e5151161008a578063a9059cbb11610059578063a9059cbb1461031f578063d0e30db01461035c578063d505accf14610366578063dd62ed3e1461038f576100fb565b80633644e5151461024f57806370a082311461027a5780637ecebe00146102b757806395d89b41146102f4576100fb565b806323b872dd116100c657806323b872dd146101935780632e1a7d4d146101d057806330adf81f146101f9578063313ce56714610224576100fb565b806306fdde0314610100578063095ea7b31461012b57806318160ddd14610168576100fb565b366100fb576100f96103cc565b005b600080fd5b34801561010c57600080fd5b50610115610426565b6040516101229190611142565b60405180910390f35b34801561013757600080fd5b50610152600480360381019061014d91906111fd565b6104b4565b60405161015f9190611258565b60405180910390f35b34801561017457600080fd5b5061017d6105a6565b60405161018a9190611282565b60405180910390f35b34801561019f57600080fd5b506101ba60048036038101906101b5919061129d565b6105ac565b6040516101c79190611258565b60405180910390f35b3480156101dc57600080fd5b506101f760048036038101906101f291906112f0565b6107f8565b005b34801561020557600080fd5b5061020e61087c565b60405161021b9190611336565b60405180910390f35b34801561023057600080fd5b506102396108a0565b604051610246919061136d565b60405180910390f35b34801561025b57600080fd5b506102646108c4565b6040516102719190611336565b60405180910390f35b34801561028657600080fd5b506102a1600480360381019061029c9190611388565b610921565b6040516102ae9190611282565b60405180910390f35b3480156102c357600080fd5b506102de60048036038101906102d99190611388565b610939565b6040516102eb9190611282565b60405180910390f35b34801561030057600080fd5b50610309610951565b6040516103169190611142565b60405180910390f35b34801561032b57600080fd5b50610346600480360381019061034191906111fd565b6109df565b6040516103539190611258565b60405180910390f35b6103646103cc565b005b34801561037257600080fd5b5061038d6004803603810190610388919061140d565b610af3565b005b34801561039b57600080fd5b506103b660048036038101906103b191906114af565b610df2565b6040516103c39190611282565b60405180910390f35b6103d63334610e17565b3373ffffffffffffffffffffffffffffffffffffffff167fe1fffcc4923d04b559f4d29a8bfc6cda04eb5b0d3c460751c2402c5c5cc9109c3460405161041c9190611282565b60405180910390a2565b600080546104339061151e565b80601f016020809104026020016040519081016040528092919081815260200182805461045f9061151e565b80156104ac5780601f10610481576101008083540402835291602001916104ac565b820191906000526020600020905b81548152906001019060200180831161048f57829003601f168201915b505050505081565b600081600460003373ffffffffffffffffffffffffffffffffffffffff1673ffffffffffffffffffffffffffffffffffffffff16815260200190815260200160002060008573ffffffffffffffffffffffffffffffffffffffff1673ffffffffffffffffffffffffffffffffffffffff168152602001908152602001600020819055508273ffffffffffffffffffffffffffffffffffffffff163373ffffffffffffffffffffffffffffffffffffffff167f8c5be1e5ebec7d5bd14f71427d1e84f3dd0314c0f7b2291e5b200ac8c7c3b925846040516105949190611282565b60405180910390a36001905092915050565b60025481565b60007fffffffffffffffffffffffffffffffffffffffffffffffffffffffffffffffff600460008673ffffffffffffffffffffffffffffffffffffffff1673ffffffffffffffffffffffffffffffffffffffff16815260200190815260200160002060003373ffffffffffffffffffffffffffffffffffffffff1673ffffffffffffffffffffffffffffffffffffffff16815260200190815260200160002054146106e55781600460008673ffffffffffffffffffffffffffffffffffffffff1673ffffffffffffffffffffffffffffffffffffffff16815260200190815260200160002060003373ffffffffffffffffffffffffffffffffffffffff1673ffffffffffffffffffffffffffffffffffffffff16815260200190815260200160002060008282546106dd919061157e565b925050819055505b81600360008673ffffffffffffffffffffffffffffffffffffffff1673ffffffffffffffffffffffffffffffffffffffff1681526020019081526020016000206000828254610734919061157e565b9250508190555081600360008573ffffffffffffffffffffffffffffffffffffffff1673ffffffffffffffffffffffffffffffffffffffff168152602001908152602001600020600082825401925050819055508273ffffffffffffffffffffffffffffffffffffffff168473ffffffffffffffffffffffffffffffffffffffff167fddf252ad1be2c89b69c2b068fc378daa952ba7f163c4a11628f55a4df523b3ef846040516107e59190611282565b60405180910390a3600190509392505050565b6108023382610ee7565b61082b813373ffffffffffffffffffffffffffffffffffffffff16610fb790919063ffffffff16565b3373ffffffffffffffffffffffffffffffffffffffff167f7fcf532c15f0a6db0bd6d0e038bea71d30d808c7d98cb3bf7268a95bf5081b65826040516108719190611282565b60405180910390a250565b7f6e71edae12b1b97f4d1f60370fef10105fa2faae0126114a169c64845d6126c981565b7f000000000000000000000000000000000000000000000000000000000000000081565b60007f000000000000000000000000000000000000000000000000000000000000000046146108fa576108f561100a565b61091c565b7f00000000000000000000000000000000000000000000000000000000000000005b905090565b60036020528060005260406000206000915090505481565b60056020528060005260406000206000915090505481565b6001805461095e9061151e565b80601f016020809104026020016040519081016040528092919081815260200182805461098a9061151e565b80156109d75780601f106109ac576101008083540402835291602001916109d7565b820191906000526020600020905b8154815290600101906020018083116109ba57829003601f168201915b505050505081565b600081600360003373ffffffffffffffffffffffffffffffffffffffff1673ffffffffffffffffffffffffffffffffffffffff1681526020019081526020016000206000828254610a30919061157e565b9250508190555081600360008573ffffffffffffffffffffffffffffffffffffffff1673ffffffffffffffffffffffffffffffffffffffff168152602001908152602001600020600082825401925050819055508273ffffffffffffffffffffffffffffffffffffffff163373ffffffffffffffffffffffffffffffffffffffff167fddf252ad1be2c89b69c2b068fc378daa952ba7f163c4a11628f55a4df523b3ef84604051610ae19190611282565b60405180910390a36001905092915050565b42841015610b36576040517f08c379a0000000000000000000000000000000000000000000000000000000008152600401610b2d906115fe565b60405180910390fd5b6000610b406108c4565b7f6e71edae12b1b97f4d1f60370fef10105fa2faae0126114a169c64845d6126c9898989600560008e73ffffffffffffffffffffffffffffffffffffffff1673ffffffffffffffffffffffffffffffffffffffff1681526020019081526020016000206000815480929190600101919050558a604051602001610bc89695949392919061162d565b60405160208183030381529060405280519060200120604051602001610bef929190611706565b604051602081830303815290604052805190602001209050600060018286868660405160008152602001604052604051610c2c949392919061173d565b6020604051602081039080840390855afa158015610c4e573d6000803e3d6000fd5b505050602060405103519050600073ffffffffffffffffffffffffffffffffffffffff168173ffffffffffffffffffffffffffffffffffffffff1614158015610cc257508873ffffffffffffffffffffffffffffffffffffffff168173ffffffffffffffffffffffffffffffffffffffff16145b610d01576040517f08c379a0000000000000000000000000000000000000000000000000000000008152600401610cf8906117ce565b60405180910390fd5b86600460008373ffffffffffffffffffffffffffffffffffffffff1673ffffffffffffffffffffffffffffffffffffffff16815260200190815260200160002060008a73ffffffffffffffffffffffffffffffffffffffff1673ffffffffffffffffffffffffffffffffffffffff1681526020019081526020016000208190555050508573ffffffffffffffffffffffffffffffffffffffff168773ffffffffffffffffffffffffffffffffffffffff167f8c5be1e5ebec7d5bd14f71427d1e84f3dd0314c0f7b2291e5b200ac8c7c3b92587604051610de19190611282565b60405180910390a350505050505050565b6004602052816000526040600020602052806000526040600020600091509150505481565b8060026000828254610e2991906117ee565b9250508190555080600360008473ffffffffffffffffffffffffffffffffffffffff1673ffffffffffffffffffffffffffffffffffffffff168152602001908152602001600020600082825401925050819055508173ffffffffffffffffffffffffffffffffffffffff16600073ffffffffffffffffffffffffffffffffffffffff167fddf252ad1be2c89b69c2b068fc378daa952ba7f163c4a11628f55a4df523b3ef83604051610edb9190611282565b60405180910390a35050565b80600360008473ffffffffffffffffffffffffffffffffffffffff1673ffffffffffffffffffffffffffffffffffffffff1681526020019081526020016000206000828254610f36919061157e565b9250508190555080600260008282540392505081905550600073ffffffffffffffffffffffffffffffffffffffff168273ffffffffffffffffffffffffffffffffffffffff167fddf252ad1be2c89b69c2b068fc378daa952ba7f163c4a11628f55a4df523b3ef83604051610fab9190611282565b60405180910390a35050565b600080600080600085875af1905080611005576040517f08c379a0000000000000000000000000000000000000000000000000000000008152600401610ffc9061186e565b60405180910390fd5b505050565b60007f8b73c3c69bb8fe3d512ecc4cf759cc79239f7b179b0ffacaa9a75d522b39400f600060405161103c9190611931565b60405180910390206040518060400160405280600181526020017f3100000000000000000000000000000000000000000000000000000000000000815250805190602001204630604051602001611097959493929190611948565b60405160208183030381529060405280519060200120905090565b600081519050919050565b600082825260208201905092915050565b60005b838110156110ec5780820151818401526020810190506110d1565b60008484015250505050565b6000601f19601f8301169050919050565b6000611114826110b2565b61111e81856110bd565b935061112e8185602086016110ce565b611137816110f8565b840191505092915050565b6000602082019050818103600083015261115c8184611109565b905092915050565b600080fd5b600073ffffffffffffffffffffffffffffffffffffffff82169050919050565b600061119482611169565b9050919050565b6111a481611189565b81146111af57600080fd5b50565b6000813590506111c18161119b565b92915050565b6000819050919050565b6111da816111c7565b81146111e557600080fd5b50565b6000813590506111f7816111d1565b92915050565b6000806040838503121561121457611213611164565b5b6000611222858286016111b2565b9250506020611233858286016111e8565b9150509250929050565b60008115159050919050565b6112528161123d565b82525050565b600060208201905061126d6000830184611249565b92915050565b61127c816111c7565b82525050565b60006020820190506112976000830184611273565b92915050565b6000806000606084860312156112b6576112b5611164565b5b60006112c4868287016111b2565b93505060206112d5868287016111b2565b92505060406112e6868287016111e8565b9150509250925092565b60006020828403121561130657611305611164565b5b6000611314848285016111e8565b91505092915050565b6000819050919050565b6113308161131d565b82525050565b600060208201905061134b6000830184611327565b92915050565b600060ff82169050919050565b61136781611351565b82525050565b6000602082019050611382600083018461135e565b92915050565b60006020828403121561139e5761139d611164565b5b60006113ac848285016111b2565b91505092915050565b6113be81611351565b81146113c957600080fd5b50565b6000813590506113db816113b5565b92915050565b6113ea8161131d565b81146113f557600080fd5b50565b600081359050611407816113e1565b92915050565b600080600080600080600060e0888a03121561142c5761142b611164565b5b600061143a8a828b016111b2565b975050602061144b8a828b016111b2565b965050604061145c8a828b016111e8565b955050606061146d8a828b016111e8565b945050608061147e8a828b016113cc565b93505060a061148f8a828b016113f8565b92505060c06114a08a828b016113f8565b91505092959891949750929550565b600080604083850312156114c6576114c5611164565b5b60006114d4858286016111b2565b92505060206114e5858286016111b2565b9150509250929050565b7f4e487b7100000000000000000000000000000000000000000000000000000000600052602260045260246000fd5b6000600282049050600182168061153657607f821691505b602082108103611549576115486114ef565b5b50919050565b7f4e487b7100000000000000000000000000000000000000000000000000000000600052601160045260246000fd5b6000611589826111c7565b9150611594836111c7565b92508282039050818111156115ac576115ab61154f565b5b92915050565b7f5045524d49545f444541444c494e455f45585049524544000000000000000000600082015250565b60006115e86017836110bd565b91506115f3826115b2565b602082019050919050565b60006020820190508181036000830152611617816115db565b9050919050565b61162781611189565b82525050565b600060c0820190506116426000830189611327565b61164f602083018861161e565b61165c604083018761161e565b6116696060830186611273565b6116766080830185611273565b61168360a0830184611273565b979650505050505050565b600081905092915050565b7f1901000000000000000000000000000000000000000000000000000000000000600082015250565b60006116cf60028361168e565b91506116da82611699565b600282019050919050565b6000819050919050565b6117006116fb8261131d565b6116e5565b82525050565b6000611711826116c2565b915061171d82856116ef565b60208201915061172d82846116ef565b6020820191508190509392505050565b60006080820190506117526000830187611327565b61175f602083018661135e565b61176c6040830185611327565b6117796060830184611327565b95945050505050565b7f494e56414c49445f5045524d49545f5349474e41545552450000000000000000600082015250565b60006117b86018836110bd565b91506117c382611782565b602082019050919050565b600060208201905081810360008301526117e7816117ab565b9050919050565b60006117f9826111c7565b9150611804836111c7565b925082820190508082111561181c5761181b61154f565b5b92915050565b7f4554485f5452414e534645525f4641494c454400000000000000000000000000600082015250565b60006118586013836110bd565b915061186382611822565b602082019050919050565b600060208201905081810360008301526118878161184b565b9050919050565b600081905092915050565b60008190508160005260206000209050919050565b600081546118bb8161151e565b6118c5818661188e565b945060018216600081146118e057600181146118f557611928565b60ff1983168652811515820286019350611928565b6118fe85611899565b60005b8381101561192057815481890152600182019150602081019050611901565b838801955050505b50505092915050565b600061193d82846118ae565b915081905092915050565b600060a08201905061195d6000830188611327565b61196a6020830187611327565b6119776040830186611327565b6119846060830185611273565b611991608083018461161e565b969550505050505056fea2646970667358221220bccd7d8456c1c88b5284e420bd6140b0fad851df2eb8db1d92d4cc3f78a5e20a64736f6c63430008100033",
  "immutableReferences": {
    "8948": [
      {
        "length": 32,
        "start": 2210
      }
    ],
    "8967": [
      {
        "length": 32,
        "start": 2248
      }
    ],
    "8969": [
      {
        "length": 32,
        "start": 2300
      }
    ]
  },
  "source": "// SPDX-License-Identifier: AGPL-3.0-only\npragma solidity >=0.8.0;\n\nimport {ERC20} from \"./ERC20.sol\";\n\nimport {SafeTransferLib} from \"../utils/SafeTransferLib.sol\";\n\n/// @notice Minimalist and modern Wrapped Ether implementation.\n/// @author Inspired by WETH9 (https://github.com/dapphub/ds-weth/blob/master/src/weth9.sol)\ncontract WETH is ERC20(\"Wrapped Ether\", \"WETH\", 18) {\n    using SafeTransferLib for address;\n\n    event Deposit(address indexed from, uint256 amount);\n\n    event Withdrawal(address indexed to, uint256 amount);\n\n    function deposit() public payable {\n        _mint(msg.sender, msg.value);\n\n        emit Deposit(msg.sender, msg.value);\n    }\n\n    function withdraw(uint256 amount) external {\n        _burn(msg.sender, amount);\n\n        msg.sender.safeTransferETH(amount);\n\n        emit Withdrawal(msg.sender, amount);\n    }\n\n    receive() external payable {\n        deposit();\n    }\n}\n",
  "sourcePath": "/Users/brett/workSpace/NFTSea/nftsea-contract/contracts/tokens/WETH.sol",
  "compiler": {
    "name": "solc",
    "version": "0.8.16+commit.07a7930e.Emscripten.clang"
  },
  "schemaVersion": "3.4.9",
  "updatedAt": "2022-09-02T11:37:45.675Z",
  "devdoc": {
    "author": "Inspired by WETH9 (https://github.com/dapphub/ds-weth/blob/master/src/weth9.sol)",
    "kind": "dev",
    "methods": {},
    "version": 1
  },
  "userdoc": {
    "kind": "user",
    "methods": {},
    "notice": "Minimalist and modern Wrapped Ether implementation.",
    "version": 1
  }
}